:020000040800F2
:1000000000500020C19300080D7300080F73000812
:100010001173000813730008157300080000000036
:10002000000000000000000000000000177300083E
:1000300019730008000000001B7300081D730008FE
:10004000099400080994000809940008099400081C
:10005000099400080994000809940008099400080C
:100060000994000809940008099400082573000801
:1000700009940008099400080994000809940008EC
:1000800009940008099400080994000809940008DC
:1000900009940008099400080994000809940008CC
:1000A00009940008099400080994000809940008BC
:1000B00009940008099400080994000809940008AC
:1000C000099400080994000809940008099400089C
:1000D0000994000835730008457300080994000866
:1000E0000994000809940008099400080000000021
:1000F0000000000000000000000000000000000000
:0C01000000000000000000005FF808F1A3
:10010C0010B5054C237833B9044B13B10448AFF345
:10011C0000800123237010BDE401002000000000CA
:10012C008C99000808B5034B1BB103490348AFF386
:10013C00008008BD00000000E80100208C99000838
:10014C00034613F8012B002AFBD1181A013870470B
:10015C0080F0004002E000BF81F0004142001FBF70
:10016C005FEA410392EA030F7FEA226C7FEA236C79
:10017C006AD04FEA1262D2EB1363C1BFD21841406E
:10018C0048404140B8BF5B42192B88BF704710F004
:10019C00004F40F4000020F07F4018BF404211F0A7
:1001AC00004F41F4000121F07F4118BF494292EA0F
:1001BC00030F3FD0A2F1010241FA03FC10EB0C003B
:1001CC00C3F1200301FA03F100F0004302D54942C8
:1001DC0060EB4000B0F5000F13D3B0F1807F06D375
:1001EC0040084FEA310102F10102FE2A51D2B1F16D
:1001FC00004F40EBC25008BF20F0010040EA030062
:10020C007047490040EB000010F4000FA2F101020E
:10021C00EDD1B0FA80FCACF1080CB2EB0C0200FA98
:10022C000CF0AABF00EBC25052421843BCBFD040E6
:10023C001843704792F0000F81F4000106BF80F460
:10024C0000000132013BB5E74FEA41037FEA226C23
:10025C0018BF7FEA236C21D092EA030F04D092F0EE
:10026C00000F08BF0846704790EA010F1CBF002022
:10027C00704712F07F4F04D1400028BF40F000407F
:10028C00704712F100723CBF00F50000704700F09F
:10029C00004343F0FE4040F4000070477FEA2262C6
:1002AC0016BF08467FEA23630146420206BF5FEA97
:1002BC00412390EA010F40F4800070474FF0000397
:1002CC0004E000BF10F0004348BF40425FEA000C5E
:1002DC0008BF704743F0964301464FF000001CE006
:1002EC0050EA010208BF70474FF000030AE000BF5C
:1002FC0050EA010208BF704711F0004302D540429A
:10030C0061EB41015FEA010C02BF8446014600200B
:10031C0043F0B64308BFA3F18053A3F50003BCFA26
:10032C008CF2083AA3EBC25310DB01FA02FC6344D3
:10033C0000FA02FCC2F12002BCF1004F20FA02F2DA
:10034C0043EB020008BF20F00100704702F12002CD
:10035C0001FA02FCC2F1200250EA4C0021FA02F22E
:10036C0043EB020008BF20EADC7070474FF0FF0C33
:10037C001CEAD0521EBF1CEAD15392EA0C0F93EA2E
:10038C000C0F6FD01A4480EA010C400218BF5FEAD0
:10039C0041211ED04FF0006343EA501043EA511143
:1003AC00A0FB01310CF00040B1F5000F3EBF49003D
:1003BC0041EAD3715B0040EA010062F17F02FD2A41
:1003CC001DD8B3F1004F40EBC25008BF20F0010024
:1003DC00704790F0000F0CF0004C08BF49024CEA3B
:1003EC00502040EA51207F3AC2BFD2F1FF0340EACD
:1003FC00C250704740F400004FF00003013A5DDC3E
:10040C0012F1190FDCBF00F000407047C2F100027E
:10041C00410021FA02F1C2F1200200FA02FC5FEA6B
:10042C00310040F1000053EA4C0308BF20EADC70B5
:10043C00704792F0000F00F0004C02BF400010F427
:10044C00000F013AF9D040EA0C0093F0000F01F0D4
:10045C00004C02BF490011F4000F013BF9D041EAF6
:10046C000C018FE70CEAD15392EA0C0F18BF93EAF8
:10047C000C0F0AD030F0004C18BF31F0004CD8D122
:10048C0080EA010000F00040704790F0000F17BFA9
:10049C0090F0004F084691F0000F91F0004F14D0EF
:1004AC0092EA0C0F01D142020FD193EA0C0F03D147
:1004BC004B0218BF084608D180EA010000F000404A
:1004CC0040F0FE4040F40000704740F0FE4040F425
:1004DC00400070474FF0FF0C1CEAD0521EBF1CEAC4
:1004EC00D15392EA0C0F93EA0C0F69D0A2EB0302E2
:1004FC0080EA010C49024FEA402037D04FF080537C
:10050C0043EA111143EA10130CF000408B4238BF40
:10051C005B0042F17D024FF4000C8B4224BF5B1A4E
:10052C0040EA0C00B3EB510F24BFA3EB510340EA9C
:10053C005C00B3EB910F24BFA3EB910340EA9C004A
:10054C00B3EBD10F24BFA3EBD10340EADC001B01BA
:10055C0018BF5FEA1C1CE0D1FD2A3FF650AF8B425E
:10056C0040EBC25008BF20F0010070470CF0004C6B
:10057C004CEA50207F32C2BFD2F1FF0340EAC25096
:10058C00704740F400004FF00003013A37E792F057
:10059C00000F00F0004C02BF400010F4000F013AB5
:1005AC00F9D040EA0C0093F0000F01F0004C02BFB0
:1005BC00490011F4000F013BF9D041EA0C0195E719
:1005CC000CEAD15392EA0C0F08D142027FF47DAFB2
:1005DC0093EA0C0F7FF470AF084676E793EA0C0FA2
:1005EC0004D14B023FF44CAF08466EE730F0004CA0
:1005FC0018BF31F0004CCAD130F000427FF45CAF30
:10060C0031F000437FF43CAF5FE700BF4FEA40029C
:10061C00B2F1FE4F0FD34FF09E03B3EB12620DD924
:10062C004FEA002343F0004310F0004F23FA02F08E
:10063C0018BF404270474FF00000704712F1610F35
:10064C0001D1420205D110F0004008BF6FF000400C
:10065C0070474FF0000070477BB972B90029BEBFDC
:10066C0000204FF0004106E008BF00281CBF6FF0CF
:10067C0000414FF0FF3000F0A7B9ADF1080C6DE967
:10068C0004CE002909DB002B1ADB00F035F8DDF86D
:10069C0004E0DDE9022304B07047404261EB410104
:1006AC00002B1BDB00F028F8DDF804E0DDE9022369
:1006BC0004B0404261EB4101524263EB430370478B
:1006CC00524263EB430300F017F8DDF804E0DDE978
:1006DC00022304B0404261EB41017047524263EB8C
:1006EC00430300F009F8DDF804E0DDE9022304B06F
:1006FC00524263EB430370472DE9F0478C460446A6
:10070C00089E002B4BD18A42154667D9B2FA82F269
:10071C004AB1C2F1200701FA02F320FA07F795401B
:10072C0047EA030C94404FEA154EBCFBFEF71FFA48
:10073C0085F80EFB17C307FB08F9210C41EA0343AC
:10074C00994509D9EB1807F1FF3180F01C819945C7
:10075C0040F21981023F2B44A3EB0903B3FBFEF0DB
:10076C000EFB103300FB08F1A4B244EA0344A1428F
:10077C0009D92C1900F1FF3380F00781A14240F216
:10078C00048102382C4440EA07400027641A1EB149
:10079C000023D440C6E900433946BDE8F0878B42BC
:1007AC0009D9002E00F0EC800027C6E9000138467C
:1007BC003946BDE8F087B3FA83F7002F48D18B4256
:1007CC0002D3824200F2FB80841A61EB0303012006
:1007DC009C46002EE0D0C6E9004CDDE702B9FFDEF6
:1007EC00B2FA82F2002A40F08F800127491B4FEAAF
:1007FC0015481FFA85F9B1FBF8FE08FB1E1109FB21
:10080C000EF04FEA144C4CEA0143984207D9EB180E
:10081C000EF1FF3102D2984200F2CD808E461B1AA7
:10082C00B3FBF8F008FB103309FB00F9A4B244EA5F
:10083C000344A14507D92C1900F1FF3302D2A1457D
:10084C0000F2B6801846A4EB090440EA0E409EE77D
:10085C00C7F12005BB4022FA05FC4CEA030C21FA37
:10086C0005F44FEA1C4EB4FBFEF91FFA8CF80EFB94
:10087C00194420FA05F3B94009FB08FA19430B0C8B
:10088C0043EA0444A24502FA07F200FA07F30BD933
:10089C001CEB040409F1FF3080F08880A24540F283
:1008AC008580A9F102096444A4EB0A04B4FBFEF0B0
:1008BC000EFB104400FB08FA89B241EA0444A2453D
:1008CC0008D91CEB040400F1FF316BD2A24569D9A5
:1008DC000238644440EA0940A0FB0289A4EB0A04F4
:1008EC004C454146CE4654D351D0002E69D05A1AAD
:1008FC0064EB0E0404FA05F522FA07F3FC401D43E1
:10090C00C6E90054002747E79540C2F1200321FABD
:10091C0003F04FEA1548B0FBF8F71FFA85F908FB0E
:10092C00170024FA03F3914007FB09FC0B43190C45
:10093C0041EA00418C4504FA02F407D9691807F121
:10094C00FF3031D28C452FD9023F2944A1EB0C0149
:10095C00B1FBF8F008FB101C00FB09FE99B241EA50
:10096C000C418E4507D9691800F1FF3318D28E451A
:10097C0016D902382944A1EB0E0140EA07473AE7A1
:10098C003746304608E70F46E6E61846FBE6434591
:10099C00ABD2B8EB020169EB0C0201389646A4E726
:1009AC001846E8E7084695E70746CFE781467BE718
:1009BC0002382C4447E7AEF1020E2B442FE73846A1
:1009CC0007E73746E8E600BF704700BF10B504469E
:1009DC000E4B18784FF47A73B3FBF0F30C4A106893
:1009EC00B0FBF3F000F078FB68B90F2C01D90120B3
:1009FC000AE0002221464FF0FF3000F02BFB054BA4
:100A0C001C60002000E0012010BD00BF0000002091
:100A1C000C0000200400002008B5074A136843F0BE
:100A2C0010031360032000F003FB0120FFF7CEFF3F
:100A3C0006F026FB002008BD00200240034A116886
:100A4C00034B1B780B441360704700BFF40200206B
:100A5C0000000020014B1868704700BFF402002012
:100A6C0038B50446FFF7F6FF0546B4F1FF3F02D058
:100A7C00044B1B781C44FFF7EDFF401BA042FAD33C
:100A8C0038BD00BF0000002008B5436A9A6A12F016
:100A9C00500F03D01B6A1B6B984708BD9A6A42F42F
:100AAC0000729A621A68926802F46022B2F5602FA2
:100ABC0003D0184608F0D8F9EFE71A7B002AF8D1D2
:100ACC009A6A22F480729A629A6A12F4805FF0D168
:100ADC009A6A42F001029A62EBE708B5406A08F0A4
:100AEC0023F908BD704708B5406A836A43F0400398
:100AFC008362C36A43F00403C362FFF7F3FF08BDCC
:100B0C0030B482B00023019390F82430012B00F014
:100B1C008B800246012380F824304B68062B29D8A1
:100B2C000568686B03EB8303053B1F249C4020EA9C
:100B3C0004000C6804FA03F303436B630B68092B82
:100B4C0038D91568E86803EB43031E3B07249C4027
:100B5C0020EA04008C6804FA03F30343EB600B688F
:100B6C00103B012B34D90020002382F8243002B032
:100B7C0030BC70470C2B0ED80568286B03EB830335
:100B8C00233B1F249C4020EA04000C6804FA03F366
:100B9C0003432B63D2E70568E86A03EB8303413B0D
:100BAC001F249C4020EA04000C6804FA03F303435E
:100BBC00EB62C3E71568286903EB430307249C40E9
:100BCC0020EA04008C6804FA03F303432B61C6E7A4
:100BDC0013681648834205D0936A43F0200393624E
:100BEC000120C1E7986810F4000F1BD1986840F4FD
:100BFC00000098600B68102B01D00020B4E70C4B60
:100C0C001B680C49A1FB03139B0C03EB83035900DA
:100C1C00019102E0019B013B0193019B002BF9D157
:100C2C000020A1E700209FE70220A0E7002401405C
:100C3C000C00002083DE1B4330B583B000230193EE
:100C4C0003689A6812F0010F2ED19A6842F00102E3
:100C5C009A60174B1B68174AA2FB03239B0C01934A
:100C6C0002E0019B013B0193019B002BF9D104464F
:100C7C00FFF7F0FE054623689B6813F0010F11D1B6
:100C8C00FFF7E8FE401B0228F5D9A36A43F01003D6
:100C9C00A362E36A43F00103E362002384F8243087
:100CAC00012002E0002000E0002003B030BD00BFB6
:100CBC000C00002083DE1B43F8B50468454DAC42A4
:100CCC005BD0454B9C4258D090F82440012C7ED0F0
:100CDC0016460D460446012380F82430FFF7ACFF7E
:100CEC00074600286ED1A36A23F4706323F0010336
:100CFC0043F48073A3622268374B9A4244D0A36AB0
:100D0C0023F48013A362536813F4806F05D0A36A95
:100D1C0023F4405343F48053A362A36A13F4805F1B
:100D2C0048D0E36A23F00603E362002384F82430FE
:100D3C00236A2A4A9A62236A294ADA62236A294A6E
:100D4C001A6323686FF002021A602268936843F4F6
:100D5C0080739360216833462A464C31206A00F038
:100D6C001DFA2268936803F46023B3F5602F24D036
:100D7C00936843F48013936027E0164B5B6813F47D
:100D8C00702FA1D0012720E0A3F580635B6813F4DA
:100D9C00702FB4D0A36A43F48013A3620D4B5B682D
:100DAC0013F4806FB9D0A36A23F4405343F48053F7
:100DBC00A362B2E70023E362B7E7936843F4A003AE
:100DCC00936002E0002384F824303846F8BD0227F3
:100DDC00FBE700BF0024014000280140950A0008F1
:100DEC00E70A0008F30A000838B503689A6812F09D
:100DFC00010F01D1002038BD04469A6822F001028F
:100E0C009A60FFF727FE054623689B6813F0010FD5
:100E1C000ED0FFF71FFE401B0228F5D9A36A43F042
:100E2C001003A362E36A43F00103E3620120E2E7EB
:100E3C000020E0E700287FD038B50446836A002BF9
:100E4C0033D02046FFF7D0FFA36A13F010036DD107
:100E5C0000286BD1A26A22F4885222F0020242F0DE
:100E6C000202A2626268E1690A43257B42EA4502FA
:100E7C00A168B1F5807F21D001291CD0217D0129E9
:100E8C001FD02568696821F469410B436B602168A8
:100E9C008D682A4B2B4013438B60A368B3F5807F7E
:100EAC0020D0012B1ED000211FE0C36280F824301B
:100EBC0006F008F9C5E74FF48073DFE74FF4807351
:100ECC00DCE735B9A169013943EA413343F40063E6
:100EDC00D7E7A16A41F02001A162E16A41F001016A
:100EEC00E162CEE72369013B19052568EB6A23F41F
:100EFC0070030B43EB6223689968114B0B409A42C9
:100F0C000BD0A36A23F0120343F01003A362E36A2D
:100F1C0043F00103E36201200DE00023E362A36AC6
:100F2C0023F0030343F00103A36204E0A36A43F03C
:100F3C001003A362012038BD01207047FDF7E1FFCB
:100F4C00FE0E1FFF70B582B00023019390F8243081
:100F5C00012B68D00446012380F82430FFF744FFAE
:100F6C00054628B1002384F82430284602B070BD11
:100F7C00A36A23F4885323F0020343F00203A36211
:100F8C002A4B1E68022000F0E5FEB6FBF0F0400094
:100F9C00019002E0019B013B0193019B002BF9D1D5
:100FAC002046FFF749FE2268936843F008039360DC
:100FBC00FFF750FD064623689A6812F0080F0FD011
:100FCC00FFF748FD801B0A28F5D9A36A23F012030A
:100FDC0043F01003A362002384F824300125C4E7F6
:100FEC009A6842F004029A60FFF734FD06462368C3
:100FFC009B6813F0040F0FD0FFF72CFD801B0A2801
:10100C00F5D9A36A23F0120343F01003A362002363
:10101C0084F824300125A8E7A36A23F0030343F0E6
:10102C000103A3629EE702259FE700BF0C0000208E
:10103C00074AD36823F4E0631B041B0C000200F482
:10104C00E060184340F0BF6040F40030D06070475F
:10105C0000ED00E030B4174BDB68C3F30223C3F19F
:10106C000704042C28BF04241D1D062D18D9033B8E
:10107C004FF0FF3505FA04F421EA0401994005FA12
:10108C0003F322EA0303194300280BDB0901C9B25D
:10109C0000F1604000F5614080F8001330BC7047EF
:1010AC000023E5E700F00F000901C9B2024B195407
:1010BC00F4E700BF00ED00E014ED00E0002807DBD2
:1010CC0000F01F02400901239340024A42F82030ED
:1010DC00704700BF00E100E00138B0F1807F0AD218
:1010EC00064B5860064AF02182F8231000209860C5
:1010FC0007221A6070470120704700BF10E000E023
:10110C0000ED00E070B4066CC56B0124B4406C605B
:10111C00046863604368102B05D00368996003680A
:10112C00DA6070BC704703689A600368D960F8E7AE
:10113C0060B310B402460168154B0B441548A0FB74
:10114C0003031B099B001364134BD363022382F824
:10115C002130086820F47F5020F0300053689468E8
:10116C002343D46823431469234354692343946968
:10117C002343D469234303430B6000209063012372
:10118C0082F8213082F8200010BC70470120704793
:10119C00F8FFFDBFCDCCCCCC0000024038B590F8A8
:1011AC002040012C32D0012480F8204090F82140BE
:1011BC00012C04D0002380F82030022038BD0446D6
:1011CC00022084F821000020A0632568286820F004
:1011DC00010028602046FFF795FFE36A5BB12268A7
:1011EC00136843F00E0313602268136843F0010385
:1011FC0013600020E2E72268136823F004031360F5
:10120C002268136843F00A031360EDE70220D5E768
:10121C0008B590F82130022B03D0042383630120FE
:10122C0008BD0268136823F00E031360026813688C
:10123C0023F0010313600368194A934214D014324B
:10124C0093421FD0143293421ED0143293421ED0BC
:10125C00143293421ED01432934202D04FF080725B
:10126C0003E04FF4801200E001220E4B5A60012380
:10127C0080F82130002380F82030436B6BB1984705
:10128C000020CDE71022F0E74FF48072EDE74FF429
:10129C008052EAE74FF48032E7E70020C0E700BF56
:1012AC00080002400000024038B5C36B1A6804689D
:1012BC002568016C04238B40134235D015F0040FC4
:1012CC0032D0236813F0200F03D1236823F00403DA
:1012DC0023600368434A934214D01432934218D0CB
:1012EC001432934217D01432934217D014329342D3
:1012FC0017D01432934202D04FF0806203E04FF4C7
:10130C00800200E00422384B5A60C36A03B198474C
:10131C0038BD4022F7E74FF48062F4E74FF4804287
:10132C00F1E74FF48022EEE702238B4013423CD0CE
:10133C0015F0020F39D0236813F0200F06D1236863
:10134C0023F00A032360012380F821300368254A27
:10135C00934214D0143293421CD0143293421BD0BB
:10136C00143293421BD0143293421BD0143293424A
:10137C0002D04FF0007203E04FF4001200E00222A2
:10138C00194B5A60002380F82030836A002BBFD0A1
:10139C009847BDE72022F3E74FF40072F0E74FF4D3
:1013AC000052EDE74FF40032EAE7082303FA01F1AB
:1013BC001142ADD015F0080FAAD0236823F00E030C
:1013CC002360026CC16B012303FA02F24A6083634F
:1013DC0080F82130002380F82030036B002B97D04D
:1013EC00984795E70800024000000240F0B482B034
:1013FC0000263246A2E0002D5AD0012D00D1CE6835
:10140C00FF2B69D88446FF2B69D89500DCF8004087
:10141C000F27AF4024EA070406FA05F52C43CCF855
:10142C0000404C6814F0805F00F087805F4CA56929
:10143C0045F00105A561A46904F001040194019C27
:10144C009508AF1C5A4C54F8274002F00307BF0014
:10145C004FF00F0C0CFA07FC24EA0C0C554CA04274
:10146C0043D004F58064A04200F0818004F58064D0
:10147C00A0427ED004F58064A04234D0042435E030
:10148C004D4FBD4214D00BD94C4FBD4210D007F577
:10149C008037BD420CD0A7F58017BD42B0D107E014
:1014AC00A7F58017BD4203D007F58037BD42A7D101
:1014BC008D687DB1012D08D044610826A0E7CE6867
:1014CC0008369DE7CE680C369AE70461082697E744
:1014DC00002695E7042693E700F1040C93E7A2F1AC
:1014EC000805AD0092E7032400E00024BC4044EA68
:1014FC000C0402352E4F47F825404C6814F4803FFD
:10150C0039D02F4D2C681C432C604C6814F4003FD0
:10151C0037D02B4D6C681C436C604C6814F4801FE6
:10152C0035D0274DAC681C43AC604C6814F4001FDC
:10153C0033D0234DEC682343EB6001320B6833FA54
:10154C0002F430D00124944023409C42F5D14D68E4
:10155C00122DB7D094D8022DB1D07FF64CAF032DFD
:10156C00B6D0112D7FF44CAFCE68043648E7012479
:10157C00BCE70224BAE7124D2C6824EA03042C6061
:10158C00C3E70F4D6C6824EA03046C60C5E70C4D8F
:10159C00AC6824EA0304AC60C7E7094DEC6824EAA4
:1015AC000303EB60C9E702B0F0BC704700100240C7
:1015BC000000014000080140000021100000311023
:1015CC00000401408368194201D1002070470120BA
:1015DC00704712B90904016170470161704700003E
:1015EC0082B0084B1B68084AA2FB03235B0A00FB72
:1015FC0003F0019000BF019B5A1E0192002BF9D100
:10160C0002B070470C000020D34D6210002800F08F
:10161C00F58170B582B00446036813F0010F2CD02D
:10162C00AB4B5B6803F00C03042B1DD0A84B5B6821
:10163C0003F00C03082B12D06368B3F5803F41D044
:10164C00002B55D103F1804303F504331A6822F4BF
:10165C0080321A601A6822F480221A6037E09C4BA0
:10166C005B6813F4803FE7D0994B1B6813F4003F81
:10167C0003D06368002B00F0C381236813F0020FC2
:10168C0076D0934B5B6813F00C0F5FD0904B5B687C
:10169C0003F00C03082B54D02369002B00F08A8034
:1016AC008C4B01221A60FFF7D5F90546884B1B6855
:1016BC0013F0020F75D1FFF7CDF9401B0228F5D9B5
:1016CC000320A0E1824A136843F4803313606368FB
:1016DC0043B3FFF7BFF905467D4B1B6813F4003F7E
:1016EC00CBD1FFF7B7F9401B6428F5D903208AE169
:1016FC00B3F5A02F09D0764B1A6822F480321A6009
:10170C001A6822F480221A60E1E703F18043A3F502
:10171C003C331A6842F480221A601A6842F4803210
:10172C001A60D4E7FFF796F90546694B1B6813F46A
:10173C00003FA2D0FFF78EF9401B6428F5D9032097
:10174C0061E1634B5B6813F4803FA5D1604B1B6870
:10175C0013F0020F04D02369012B01D0012052E1B8
:10176C005B4A136823F0F803616943EAC103136011
:10177C00236813F0080F32D0A369002B5BD0564BB3
:10178C0001221A60FFF766F90546514B5B6A13F0AC
:10179C00020F21D1FFF75EF9401B0228F5D9032077
:1017AC0031E14B4A136823F0F803616943EAC10342
:1017BC001360DDE7474B00221A60FFF74BF9054633
:1017CC00434B1B6813F0020FD2D0FFF743F9401BB9
:1017DC000228F5D9032016E10120FFF701FF236849
:1017EC0013F0040F00F09880394BDB6913F0805F25
:1017FC0033D1374BDA6942F08052DA61DB6903F09E
:10180C0080530193019B0125344B1B6813F4807F9B
:10181C0025D0E368012B36D0002B4CD103F180434B
:10182C0003F504331A6A22F001021A621A6A22F0D2
:10183C0004021A622CE0284B00221A60FFF70AF906
:10184C000546234B5B6A13F0020FC8D0FFF702F971
:10185C00401B0228F5D90320D5E00025D4E71F4A08
:10186C00136843F480731360FFF7F4F806461B4BC0
:10187C001B6813F4807FCCD1FFF7ECF8801B642835
:10188C00F5D90320BFE0124A136A43F00103136237
:10189C00E3687BB3FFF7DEF806460D4B1B6A13F0CB
:1018AC00020F38D1FFF7D6F8801B41F288339842EB
:1018BC00F3D90320A7E0052B12D0054B1A6A22F0AE
:1018CC0001021A621A6A22F004021A62E0E700BFEF
:1018DC00001002400000424280044242007000406E
:1018EC004C4B1A6A42F004021A621A6A42F0010264
:1018FC001A62CDE7FFF7AEF80646464B1B6A13F0AB
:10190C00020F08D0FFF7A6F8801B41F288339842EB
:10191C00F3D9032077E0E5B9E369002B72D03D4A97
:10192C00526802F00C02082A56D0022B17D03A4B00
:10193C0000221A60FFF78EF80446364B1B6813F032
:10194C00007F47D0FFF786F8001B0228F5D903204B
:10195C0059E0304AD36923F08053D361DCE72E4B36
:10196C0000221A60FFF776F805462A4B1B6813F025
:10197C00007F06D0FFF76EF8401B0228F5D9032034
:10198C0041E0236AB3F5803F1AD022494B6823F417
:10199C007413226A606A024313434B601E4B01228C
:1019AC001A60FFF757F804461A4B1B6813F0007FB8
:1019BC000ED1FFF74FF8001B0228F5D9032022E0C7
:1019CC00144A536823F40033A1680B435360DCE7DB
:1019DC00002018E0002016E0012B16D00D4B5B68A0
:1019EC0003F48031226A914201D001200BE003F410
:1019FC007013626A93420AD0012004E00120704700
:101A0C00012000E0002002B070BD0120FBE70020A7
:101A1C00F9E700BF001002406000424210B487B0EA
:101A2C00164C94E80F000DF1180C0CE90F00238AEA
:101A3C00ADF80430124B5B6803F00C02082A1AD183
:101A4C00C3F38342624412F8102C13F4803F05D187
:101A5C000C4800FB02F007B010BC7047084B5B68E9
:101A6C00C3F34043634413F8143C074800FB02F0F3
:101A7C00B0FBF3F0EFE70448EDE700BFA4990008D2
:101A8C000010024000093D0000127A00002800F00E
:101A9C00A38070B50446524B1B6803F007038B42BE
:101AAC000CD24F4A136823F007030B4313601368DF
:101ABC0003F007038B4201D0012070BD236813F0A3
:101ACC00020F17D013F0040F04D0464A536843F4A6
:101ADC00E0635360236813F0080F04D0414A536845
:101AEC0043F4605353603F4A536823F0F003A068FB
:101AFC00034353600D46236813F0010F31D0636824
:101B0C00012B20D0022B25D0364A126812F0020F7E
:101B1C0064D034494A6822F0030213434B60FEF749
:101B2C0099FF06462F4B5B6803F00C036268B3EB1E
:101B3C00820F16D0FEF78EFF801B41F2883398423D
:101B4C00F0D90320B9E7274A126812F4003FE0D11C
:101B5C000120B2E7234A126812F0007FD9D101208C
:101B6C00ABE71F4B1B6803F00703AB420CD91C4AB5
:101B7C00136823F007032B431360136803F0070368
:101B8C00AB4201D0012098E7236813F0040F06D074
:101B9C00144A536823F4E063E1680B4353602368F1
:101BAC0013F0080F07D00F4A536823F460532169D0
:101BBC0043EAC1035360FFF731FF0A4B5B68C3F381
:101BCC000313094AD35CD840084B1860084B1868BB
:101BDC00FEF7FCFE002070E70120704701206CE747
:101BEC0000200240001002407CA400080C000020E1
:101BFC0004000020014B1868704700BF0C00002047
:101C0C0008B5FFF7F7FF044B5B68C3F30223034AE5
:101C1C00D35CD84008BD00BF001002408CA4000863
:101C2C0008B5FFF7E7FF044B5B68C3F3C223034A15
:101C3C00D35CD84008BD00BF001002408CA4000843
:101C4C0070B582B00446036813F0010F34D03E4BDC
:101C5C00DB6913F0805F48D13B4BDA6942F080526C
:101C6C00DA61DB6903F080530193019B0125374B4B
:101C7C001B6813F4807F3AD0334B1B6A13F4407308
:101C8C0011D0626802F440729A420CD02E4A136A48
:101C9C0023F440702E4901260E6000260E6010625F
:101CAC0013F0010F37D1284A136A23F4407361688B
:101CBC000B431362002D3FD1236813F0020F06D0A3
:101CCC00214A536823F44043A1680B4353602368B3
:101CDC0013F0100F35D01C4A536823F48003E168CD
:101CEC000B435360002002B070BD0025BFE7174ABC
:101CFC00136843F480731360FEF7ACFE0646134B77
:101D0C001B6813F4807FB7D1FEF7A4FE801B6428F8
:101D1C00F5D90320E7E7FEF79DFE06460A4B1B6A42
:101D2C0013F0020FBFD1FEF795FE801B41F28833F2
:101D3C009842F3D90320D6E7D36923F08053D361BB
:101D4C00BAE70020CFE700BF00100240007000404F
:101D5C004004424230B587B00546384C94E80F0039
:101D6C000DF1180C0CE90F00238AADF80430022D8C
:101D7C0050D0102D03D0012D2BD0002054E0304B2F
:101D8C005A681B6813F0807F50D0C2F3834306A9B6
:101D9C000B4413F8100C12F4803F16D0284B5B68E0
:101DAC00C3F340430B4413F8142C264BB3FBF2F350
:101DBC0000FB03F0224B5B6813F4800F34D140001E
:101DCC00214BA3FB003040082EE0204B03FB00F01E
:101DDC00F0E71B4B1B6A40F202321A40B2F5817FCE
:101DEC0026D003F44073B3F5007F04D0B3F5407FE5
:101DFC0009D0002018E0124A526A12F0020FF5D0F6
:101E0C0049F6404010E00E4B1B6813F4003F12D112
:101E1C00002009E0FFF704FF094B5B68C3F3813333
:101E2C0001335B00B0FBF3F007B030BD0020FBE7E3
:101E3C004FF40040F8E74FF22440F5E7B89900085A
:101E4C000010024000127A00ABAAAAAA00093D00B9
:101E5C0070B4036A23F001030362036A4268846965
:101E6C0024F073040D6845EA040623F002048B6821
:101E7C0023430D4DA84209D00B4DA8420DD0426012
:101E8C0086614A684263036270BC704723F00803A2
:101E9C00CC68234323F00403EEE722F440724C6930
:101EAC0014438A692243EAE7002C014030B4036AE8
:101EBC0023F480730362036A4268C46924F07304D8
:101ECC000D682C4323F400738D6843EA05230F4DF2
:101EDC00A84209D00D4DA8420ED04260C4614A6898
:101EEC00C263036230BC704723F40063CD6843EADD
:101EFC00052323F48063EDE722F440524D6942EA56
:101F0C0005128D6942EA0512E7E700BF002C01407B
:101F1C0030B4036A23F480530362036A4468C269D1
:101F2C0022F4E6420D6842EA052223F400538D6840
:101F3C0043EA0533074DA84206D04460C2614A68A3
:101F4C000264036230BC704724F480444D6944EA57
:101F5C008514F2E7002C014003681B4A90420AD01A
:101F6C00B0F1804F07D0A2F59432904203D002F525
:101F7C008062904203D123F070034A681343124AE3
:101F8C0090420AD0B0F1804F07D0A2F59432904223
:101F9C0003D002F58062904203D123F44073CA68E7
:101FAC00134323F080034A69134303608B68C362B5
:101FBC000B688362044B984202D001234361704743
:101FCC000B690363F9E700BF002C0140A8B110B501
:101FDC00044690F83D305BB1022384F83D30211D5E
:101FEC002068FFF7B9FF012384F83D30002010BDB5
:101FFC0080F83C3005F0B6F8EEE701207047A8B148
:10200C0010B5044690F83D305BB1022384F83D30A6
:10201C00211D2068FFF7A0FF012384F83D3000202C
:10202C0010BD80F83C3005F0B1F8EEE701207047A8
:10203C0030B4036A23F010030362036A44688269B4
:10204C0022F4E6420D6842EA052223F020038D6853
:10205C0043EA05130E4DA84209D00D4DA8420ED0EF
:10206C00446082614A688263036230BC704723F02B
:10207C008003CD6843EA051323F04003EDE724F415
:10208C0040644D6944EA85048D6944EA8504E7E7B8
:10209C00002C014090F83C30012B28D010B50446A0
:1020AC00012380F83C30022380F83D300C2A0BD8F9
:1020BC00DFE802F0070A0A0A110A0A0A150A0A0AD4
:1020CC0019000068FFF7C4FE012384F83D3000209E
:1020DC0084F83C0010BD0068FFF7AAFFF4E7006825
:1020EC00FFF7E4FEF0E70068FFF712FFECE70220D1
:1020FC00704738B590F83C30012B66D00D4604463D
:10210C00012380F83C30022380F83D300C2A1AD889
:10211C00DFE802F0071919192019191934191919BE
:10212C0047000068FFF794FE2268936943F00803A8
:10213C0093612268936923F0040393612268936985
:10214C0029690B439361012384F83D30002084F806
:10215C003C0038BD0068FFF76BFF2268936943F4BD
:10216C00006393612268936923F48063936122680E
:10217C009369296943EA01239361E4E70068FFF757
:10218C0095FE2268D36943F00803D3612268D369B2
:10219C0023F00403D3612268D36929690B43D3610B
:1021AC00D1E70068FFF7B4FE2268D36943F40063FB
:1021BC00D3612268D36923F48063D3612268D36925
:1021CC00296943EA0123D361BDE70220C1E710B4BA
:1021DC0001F01F01012303FA01F4036A23EA04034B
:1021EC000362036A8A401343036210BC7047000009
:1021FC0010B5044601220068FFF7E9FF23680A4A7C
:10220C0093420BD02268936803F00703062B03D08C
:10221C00136843F001031360002010BD5A6C42F4A4
:10222C0000425A64EEE700BF002C014010B5044692
:10223C0001220068FFF7CBFF23680A4A93420BD0B8
:10224C002268936803F00703062B03D0136843F04E
:10225C0001031360002010BD5A6C42F400425A6412
:10226C00EEE700BF002C014090F83C30012B1CD055
:10227C0070B4012680F83C60022380F83D3002687F
:10228C005568936825F070050C682C4323F0800585
:10229C004B682B4354600268936080F83D600023C8
:1022AC0080F83C30184670BC7047022070470268BA
:1022BC00D36823F49073D3600268536923F001034D
:1022CC005361202380F83A30704790F83930DBB2F4
:1022DC00212B2AD18368B3F5805F16D0036A5A1C70
:1022EC0002621A7803685A60C38C013B9BB2C384A8
:1022FC00EBB90268D36823F08003D3600268D3681B
:10230C0043F04003D36000207047036A1B880268C7
:10231C00C3F30803536003691BB9036A02330362F6
:10232C00E2E7036A01330362DEE702207047002014
:10233C007047000038B504460268136923F4405313
:10234C00C1680B43136183680269134342691A43E2
:10235C000168CB6823F4B05323F00C031343CB6018
:10236C000268536923F4407381690B43536102681B
:10237C00214B9A421FD0FFF743FC00EB800000EB8F
:10238C00800063689B00B0FBF3F01C4DA5FB003292
:10239C005109642202FB110213013233A5FB032302
:1023AC005B0903F0F00202EB011203F00F0321684A
:1023BC0013448B6038BDFFF733FC00EB800000EB5F
:1023CC00800063689B00B0FBF3F00C4DA5FB003262
:1023DC005109642202FB110213013233A5FB0323C2
:1023EC005B0903F0F00202EB011203F00F0321680A
:1023FC0013448B60DEE700BF003801401F85EB51B2
:10240C002DE9F04105460F4616469846069C2B686A
:10241C001B6837EA03030CBF01230023B3421DD111
:10242C00B4F1FF3FF3D02CB1FEF714FBA0EB080086
:10243C00A042ECD92A68D36823F4D073D3602A68FD
:10244C00536923F001035361202385F8393085F853
:10245C003A30002385F83830032000E00020BDE836
:10246C00F08158B310B5044690F839300BB32423DF
:10247C0084F839302268D36823F40053D3602046A3
:10248C00FFF758FF2268136923F490431361226805
:10249C00536923F02A0353612268D36843F4005331
:1024AC00D3600020E063202384F8393084F83A307C
:1024BC0010BD80F8383004F0B3FED8E70120704727
:1024CC00002830D010B5044690F8393033B32423AB
:1024DC0084F839302268D36823F40053D360204643
:1024EC00FFF728FF2268136923F4904313612268D5
:1024FC00536923F0220353612268536943F00803A4
:10250C0053612268D36843F40053D3600020E06326
:10251C00202384F8393084F83A3010BD80F83830F4
:10252C0004F07EFED3E7012070472DE9F04182B024
:10253C001E4690F83930DBB2202B55D104460D469F
:10254C009046002955D0002A55D090F83830012BF0
:10255C0053D0012380F838300023C363212380F843
:10256C003930FEF777FA0746A4F82480A4F82680C1
:10257C0010E000963B46002280212046FFF740FFEA
:10258C0000283CD12B882268C3F3080353602369CD
:10259C00C3B90235E38C9BB2B3B1E38C013B9BB264
:1025AC00E384A368B3F5805FE3D000963B4600223A
:1025BC0080212046FFF724FF18BB2A7823685A6035
:1025CC000135E7E70135E5E700963B46002240215F
:1025DC002046FFF715FF0346A8B9202284F83920BE
:1025EC00002284F8382000E00223184602B0BDE82F
:1025FC00F0810123F9E70123F7E70223F5E7032331
:10260C00F3E70323F1E70323EFE72DE9F04182B071
:10261C001E4690F83A30DBB2202B5AD104460D46B8
:10262C009046002959D0002A59D090F83830012B07
:10263C0057D0012380F838300023C363222380F85D
:10264C003A30FEF707FA0746A4F82C80A4F82E803F
:10265C001DE000963B46002220212046FFF7D0FECD
:10266C00002840D1236933B923685B68C3F308039E
:10267C0025F8023B0BE023685B68DBB225F8013BD5
:10268C0005E023685B6803F07F032B700135E38D55
:10269C009BB2BBB1E38D013B9BB2E385A368B3F561
:1026AC00805FD6D000963B46002220212046FFF7C3
:1026BC00A7FED0B92369002BE3D123685B682B708C
:1026CC000135E4E7202384F83A30002084F8380000
:1026DC0000E0022002B0BDE8F0810120FAE7012001
:1026EC00F8E70220F6E70320F4E70320F2E770474F
:1026FC0008B50168CB6823F04003CB60202380F839
:10270C003930FFF7F4FF002008BD704708B590F88A
:10271C003A30DBB2222B45D18368B3F5805F0ED003
:10272C00036903BB03685A68836A591C81621A7077
:10273C00C38D013B9BB2C385F3B1002033E0826AA9
:10274C00036943B903685B68C3F308031380836AA6
:10275C0002338362ECE703685B68DBB21380836A45
:10276C0001338362E4E703685B68826A511C81620F
:10277C0003F07F031370DBE70268D36823F02003B8
:10278C00D3600268D36823F48073D3600268536902
:10279C0023F001035361202380F83A30FFF7B5FF93
:1027AC00002000E0022008BD7047000010B5044670
:1027BC0002681368D168526913F00F0005D113F049
:1027CC00200F02D011F0200F53D1002867D012F047
:1027DC00010202D111F4907F61D013F0010F06D0E9
:1027EC0011F4807F03D0E06B40F00100E06313F044
:1027FC00040F04D01AB1E06B40F00200E06313F058
:10280C00020F04D01AB1E06B40F00400E06313F047
:10281C00080F04D01AB1E26B42F00802E263E26BDB
:10282C00002A48D013F0200F02D011F0200F24D131
:10283C0023685B6903F04003E26B12F0080F00D1D0
:10284C003BB32046FFF733FD23685A6912F0400F63
:10285C001BD05A6922F040025A61636B8BB11A4A41
:10286C005A63606BFEF7D4FC28B3606B436B9847DC
:10287C0021E02046FFF74AFF1DE02046FFF746FF08
:10288C00D6E72046FFF790FF15E02046FFF78CFFB8
:10289C0011E02046FFF788FF0023E3630BE013F001
:1028AC00800F02D011F0800F06D113F0400F02D030
:1028BC0011F0400F04D110BD2046FFF706FDFAE7DA
:1028CC002046FFF715FFF6E7D928000808B5406A3F
:1028DC000023C385C384FFF767FF08BD7047002042
:1028EC007047704700207047704700207047704752
:1028FC0000207047704700207047704700207047D9
:10290C0070470020704770470020704708B5036877
:10291C005B68984708BD09B2418181817047B0F965
:10292C000A00704709B2418281827047B0F91200E7
:10293C007047B0F904007047B0F90410094B1A88BD
:10294C00036A023B03FB01F393FBF2F04FF47A733F
:10295C0000FB0333044880FB0320DB17C3EB203060
:10296C00704700BF8AA80008AD8BDB680620704753
:10297C0030B4036A013B2BB1C269002122F8131059
:10298C00013BF8E7C36900221A80B0F90650134BDB
:10299C001C88016A4A1E531E03FB05F393FBF4F3D8
:1029AC00013300D101239A4200D31A46C262436A12
:1029BC009B1ADB038362002B0ADBDA13002A09DB88
:1029CC00B0F90C30C381B0F91430C38230BC7047FD
:1029DC00DA13F3E703EBC1338362F1E78AA800084B
:1029EC0008B503685B68984708BD09B241818181CD
:1029FC007047B0F90A00704709B241828182704772
:102A0C00B0F912007047B0F904007047B0F9041027
:102A1C00094B1A88036A023B03FB01F393FBF2F0A8
:102A2C004FF47A7300FB0333044880FB0320DB175D
:102A3C00C3EB6030704700BF8AA80008AD8BDB6821
:102A4C000120704730B4036A013B2BB1C2690021ED
:102A5C0022F81310013BF8E7C36900221A80B0F981
:102A6C000650134B1C88016A4A1E531E03FB05F3C8
:102A7C0093FBF4F3013300D101239A4200D31A469D
:102A8C00C262436A9B1ADB038362002B0ADBDA13F4
:102A9C00002A09DBB0F90C30C381B0F91430C382C1
:102AAC0030BC7047DA13F3E703EBC1338362F1E711
:102ABC008AA8000808B503685B68984708BDB0F998
:102ACC001C00704709B28184C1847047B0F924009E
:102ADC007047B0F92C00704709B28186C1867047E7
:102AEC00B0F93400704709B28187C1877047B0F9DB
:102AFC003C0070470720704700234361B0F91E303B
:102B0C000384B0F926300385B0F92E300386B0F972
:102B1C0036300387B0F93E30A0F840308368013B73
:102B2C002BB14268002122F81310013BF8E74368EF
:102B3C0000221A80704708B503685B68984708BD87
:102B4C0009B28181C1817047B0F90C00704709B29C
:102B5C008182C1827047B0F914007047B0F904004B
:102B6C0070470000B0F90410094B1A88036A023B45
:102B7C0003FB01F393FBF2F04FF47A7300FB033386
:102B8C00044880FB0320DB17C3EB6030704700BFA9
:102B9C008AA80008AD8BDB68022070470023836293
:102BAC000123C362036A013B2BB1C269002122F8E5
:102BBC001310013BF8E7C36900221A80B0F9063004
:102BCC000381B0F90E300382B0F9163003837047DD
:102BDC0008B503685B68984708BDB0F91C007047DE
:102BEC0009B28185C1857047B0F92C007047B0F9E6
:102BFC00240070470320704708B503685B6898474A
:102C0C0008BDB0F91C007047B0F924007047B0F94A
:102C1C002C007047B0F93400704709B28187C18726
:102C2C007047B0F93C0070470420704708B5036842
:102C3C005B68984708BD00207047704700207047BC
:102C4C0008B503685B68984708BDB0F94800704741
:102C5C0009B2A0F86010A0F862107047B0F96000DB
:102C6C007047B0F95000704709B2A0F85810A0F89E
:102C7C005A107047B0F95800704780F8C41070476C
:102C8C0090F8C400704705207047704708B503687A
:102C9C005B68984708BD09B28180C1807047B0F964
:102CAC000400704708B5B0F90C10C900A1F5B34188
:102CBC001A3942F2D7320023C8034914FDF7CCFC71
:102CCC00054B1B8803FB00F0044B83FB00230344E0
:102CDC00C017C0EBA33008BD8AA800080300018010
:102CEC000B20704708B503685B68984708BD000067
:102CFC0010B4084B1A88D300074C84FB03439B1079
:102D0C0001FB03F191FBF2F109B20181418110BC8D
:102D1C00704700BF8AA8000867666666B0F908208D
:102D2C00054B1888C300054981FB03139B1000FB5E
:102D3C0002F090FBF3F070478AA80008676666669D
:102D4C0009B2018241827047B0F91000704700004F
:102D5C0010B5074B1C88C369033B01FB03F393FBC2
:102D6C00F4F30233436003681B6D984710BD00BF3A
:102D7C008AA80008C269054B19884368023B03FB0B
:102D8C0001F3D01E93FBF0F0704700BF8AA8000837
:102D9C000C20704708B503685B68984708BD09B2FA
:102DAC00018141817047B0F90800704709B2018276
:102DBC0041827047B0F910007047000010B50D4B00
:102DCC0083FB0123C917C1EBA30101EB81014C006B
:102DDC00094B1988C269931E03FB04F393FBF1F3AF
:102DEC00013342689A4203D0436003681B6D9847D5
:102DFC0010BD00BF676666668AA80008C269054BED
:102E0C0019884368013B03FB01F3901E93FBF0F020
:102E1C00704700BF8AA800080D20704708B50368EA
:102E2C005B68984708BD09B2418181817047B0F950
:102E3C000A00704709B2418281827047B0F91200D2
:102E4C0070470000064B1A88036A023B01FB03F132
:102E5C0091FBF2F1013109B28180C180704700BF52
:102E6C008AA80008B0F90630006A044A1288013BAF
:102E7C0003FB02F3023893FBF0F070478AA80008BA
:102E8C000E20704708B503685B68984708BD09B207
:102E9C008181C1817047B0F90C00704709B2818201
:102EAC00C1827047B0F9140070470000064B1A88B5
:102EBC00036A653B01FB03F191FBF2F1643109B24A
:102ECC008180C180704700BF8AA80008B0F9040057
:102EDC0070470F20704708B503685B68984708BDBA
:102EEC0009B2018141817047B0F90800704709B2FD
:102EFC00018241827047B0F910007047054B1A8867
:102F0C00C369023B01FB03F393FBF2F30133436010
:102F1C00704700BF8AA80008C269054B198843682E
:102F2C00013B03FB01F3901E93FBF0F0704700BFD5
:102F3C008AA800081020704770477047704710B57A
:102F4C000446042106F05FFA204610BD10B5044675
:102F5C00C82106F058FA204610BD10B5044642F6BA
:102F6C005C6106F050FA204610BD0000F8B505462D
:102F7C0000F1680600F19004403006F058F9A3689F
:102F8C0033B1012B71D06168304606F050F9F8BDB1
:102F9C00D5F89050E368C5F8A43005F11C0CB5F9D0
:102FAC000830B5F90620934201DA01332B81B5F9CB
:102FBC0008309A4201DA013B2B81B5F90870794B44
:102FCC0019882A6AA2F1650303FB07F393FBF1F35B
:102FDC006433DCF80420934200DD531E002B12DD19
:102FEC00DCF808209A4210DDE96901EB4301DCF8BA
:102FFC000020DCF8087002EB47028A4205D9002257
:10300C0021F8022BF3E70123EAE7CCF80830DCF8CF
:10301C000C20934202DC013BCCF80C30A96A6B6AA1
:10302C002A6B9B1A0133994207D0931E994210D0F8
:10303C002061A3680133A360A5E7EB6A002BF4DDE4
:10304C00531E6B634FF0FF33AB63012385F83C30A9
:10305C00EBE7EB6A002BEBDA013A6A634FF0FF33D4
:10306C00AB63012385F83C30E2E7D5F89030996AE0
:10307C00DA6932F91150C3F8AC5093F83C2072B1B4
:10308C00596B01FB05F21F6B92FBF7F59A6B114420
:10309C005963B2F1FF3F63D09A6B012A65D0C3F834
:1030AC00AC50B3F91020B3F90E108A4201DA013298
:1030BC001A82B3F91020914201DA013A1A82B3F95B
:1030CC00101001FB05F1384A82FB01720A44C91742
:1030DC00C1EBE221D3F8A420511AC3F8A410B3F920
:1030EC001820B3F91670BA4201DA01321A83B3F917
:1030FC001820974201DA013A1A83B3F9182002FB1F
:10310C0005F2294D85FB02751544D217C2EBE52259
:10311C0001F30F01C3F8A41002F30F02C3F8A820A7
:10312C0003F11C0209B2D7689568AF4203DB002596
:10313C00D56001251561D568002D1CDBD768DD69CC
:10314C0025F817101169D5682944D1609568A942F2
:10315C0016DA002919DA0021D1600121116114E07D
:10316C00002999D101229A6396E78F4297D10022C8
:10317C0083F83C2093E70025D56001251561DDE738
:10318C00013DD5604FF0FF311161D3F8A830636079
:10319C0023691844206100EBD0704010E0600023DC
:1031AC00A360F0E68AA80008810008802DE9F04FA2
:1031BC0083B0064601EB41018B00A84981FB03213A
:1031CC00DB1700F1600500F18804C3EBA101383076
:1031DC0006F02DF8A16841B1012976D06168284626
:1031EC0006F025F803B0BDE8F08FD6F88860E368E8
:1031FC00C6F89C3006F11807726802B90122F3690F
:10320C00013B93424AD27362BB68FA689B1A1A4616
:10321C00002B45DB07F1180CD6F818E0530812F018
:10322C00010F40D11EF803301B09DCF80420DFF835
:10323C003CE25EF822904FEAE90E984613F0010F3B
:10324C0001D00EEBA90E13F0020F01D00EEB690E9C
:10325C0013F0040F00D0CE4413F0080F28D0BB6934
:10326C00A3EB0E03BB61BB6913F5004F27DBB3F572
:10327C00004F21DABB617A4F57F82870D21922D44B
:10328C00582A1EDCCCF8042003F30F031BB2C6F83B
:10329C00A4302061A3680133A3609FE71346B2E713
:1032AC007A681A44B6E71EF8033003F00F03BCE744
:1032BC00BB697344BB61D6E747F6FF73DAE7694B2A
:1032CC00D8E75822DEE70A46DCE7D6F88830D3F890
:1032DC00A4C0B3F90C20B3F90A108A4201DA013206
:1032EC009A81B3F90C20914201DA013A9A81B3F92F
:1032FC000C1001FB0CF15C4E86FB01260E44C91729
:10330C00C1EBE621D3F89C700F44C3F89C70B3F961
:10331C001420B3F912108A4201DA01329A82B3F9FD
:10332C001420914201DA013A9A82B3F9142002FB7B
:10333C000CF24D4981FB02611144D217C2EBE12220
:10334C0007F30F07C3F89C7002F30F02C3F8A02019
:10335C0003F1180C3FB2DCF8088003F12809D3F80C
:10336C0028E0B7EB0E0736D40022D9F804103F4EF4
:10337C0056F82160BE4202DC42F00402BF1B4FEA49
:10338C00660ABA4503DC42F00202A7EB0A074FEAD1
:10339C00A60BBB4501DC42F00102F710019212F0C2
:1033AC00010F00D05F4412F0020F00D0574412F00E
:1033BC00040F00D0374412F0080F0FD0AEEB070704
:1033CC009F629E6A16F5004F0BDBB6F5004F09DBCA
:1033DC0047F6FF7606E07F420822C6E777449F62F5
:1033EC00EFE7204E9E621E4E019F56F8276089190A
:1033FC0028D4582924DCC9F8041002F00F029E6965
:10340C004FEA580118F0010F1ED0775C07F0F00757
:10341C003A437254DCF808200132CCF80820DCF86E
:10342C0004108A4216D0D3F8A03063602369184484
:10343C00206100EBD0704010E0600023A360CDE66B
:10344C005821D8E70021D6E7775607F00F0747EA4F
:10345C000212DEE70022CCF80820E4E76766666615
:10346C000C9F00080080FFFF81000880F49F00087B
:10347C0010B50446034B0360806908B105F0BFFF2B
:10348C00204610BD349D000810B50446054B036062
:10349C00806908B105F0B3FFB021204605F0B3FFF9
:1034AC00204610BD349D000810B50446034B036044
:1034BC00806908B105F0A3FF204610BD949D00085B
:1034CC0010B50446054B0360806908B105F097FF01
:1034DC00A821204605F097FF204610BD949D0008BA
:1034EC0010B50446034B0360C06908B105F087FFB3
:1034FC00204610BD349A000810B50446054B0360F5
:10350C00C06908B105F07BFFA021204605F07BFFC8
:10351C00204610BD349A000810B50446034B0360D6
:10352C00C06908B105F06BFF204610BDD4990008A6
:10353C0010B50446054B0360C06908B105F05FFF88
:10354C00C821204605F05FFF204610BDD499000825
:10355C0010B50446034B0360806908B105F04FFFBA
:10356C00204610BDB49E000810B50446054B036000
:10357C00806908B105F043FF7C21204605F043FF2C
:10358C00204610BDB49E000810B50446034B0360E2
:10359C00C06908B105F033FF204610BDF49A00084D
:1035AC0010B50446054B0360C06908B105F027FF50
:1035BC00B021204605F027FF204610BDF49A0008E4
:1035CC0010B50446034B0360406808B105F017FFC3
:1035DC00204610BD949A000810B50446054B0360B4
:1035EC00406808B105F00BFFB821204605F00BFF31
:1035FC00204610BD949A000810B50446034B036096
:10360C00406808B105F0FBFE204610BD549B000835
:10361C0010B50446054B0360406808B105F0EFFE99
:10362C008421204605F0EFFE204610BD549B000877
:10363C0010B50446034B0360406808B105F0DFFE8B
:10364C00204610BDB49B000810B50446054B036022
:10365C00406808B105F0D3FE9421204605F0D3FE56
:10366C00204610BDB49B000810B50446034B036004
:10367C00C06908B105F0C3FE204610BDF49D0008DA
:10368C0010B50446054B0360C06908B105F0B7FEE0
:10369C00A021204605F0B7FE204610BDF49D000881
:1036AC0010B50446034B0360C06908B105F0A7FED2
:1036BC00204610BD549E000810B50446054B03600F
:1036CC00C06908B105F09BFEB021204605F09BFEB9
:1036DC00204610BD549E0008F8B5054600F1580769
:1036EC0000F1A804303005F0A2FD0646A36803BB28
:1036FC00D5F8A810E368C1F8BC30B1F90650664B98
:10370C0018880A6A013A531E03FB05F393FBF0F386
:10371C00013300D101239A4209D2CA622661A368FF
:10372C000133A3606168384605F081FDF8BD1A4687
:10373C00F3E7012B19D0022B00F08C80032BF1D175
:10374C00D5F8A820D2F8C03003F30F03C2F8C0306C
:10375C00636023691E4426613346002EC0F29A80B2
:10376C009B10E3600023A360DCE7D5F8A83003F1DD
:10377C001C0CDCF80C1000295EDBC813DA6932F97A
:10378C001050DCF80820121A1046002A59DBC0032E
:10379C00DCF8102090FBF2F00144CCF80C1000295E
:1037AC0053DBCA13DCF80400824203D3A1EBC03113
:1037BC00CCF80C10C3F8C450B3F90E20B3F90C10AC
:1037CC008A4201DA0132DA81B3F90E20914201DA30
:1037DC00013ADA81B3F90E1001FB05F12F4A82FB95
:1037EC0001020A44C917C1EBE221D3F8BC20511ADB
:1037FC00C3F8BC10B3F91620B3F914108A4201DADD
:10380C000132DA82B3F91620914201DA013ADA82F6
:10381C00B3F9162002FB05F2204981FB0201114489
:10382C00D217C2EBE122C3F8C02023691E442661E3
:10383C00A3680133A36075E701F5FF427F32D01313
:10384C009CE7DCF804001044A1E701F5FF427F324D
:10385C00D213A7E7D5F8A850D5F8BC1005F1800015
:10386C0005F086FC00F30F00C5F8BC006A6AEB6932
:10387C0023F812006B6A01336B622A6A934206D0FA
:10388C0023691E442661A3680133A3604AE7002321
:10389C006B62F5E7F31C63E78AA8000881000880D7
:1038AC00F8B50446743005F063FC0546B4F94C30A9
:1038BC00B4F94A20934202DA0133A4F84C30B4F93B
:1038CC004C309A4202DA013BA4F84C30B4F94C105B
:1038DC00C64B1A88931E03FB01F393FBF2F30233DE
:1038EC0004F16807A16E03FB01F3C14981FB0301DD
:1038FC00DB17C3EB61132367B4F95430B4F95210DE
:10390C008B4202DA0133A4F85430B4F954309942A2
:10391C0002DA013BA4F85430B4F95430C3EBC3338E
:10392C0093FBF2F32364B4F95C30B4F95A108B4274
:10393C0002DA0133A4F85C30B4F95C30994202DA53
:10394C00013BA4F85C30B4F95C1047F2323303FB52
:10395C0001F393FBF2F3E363A66B636BF61A7868DF
:10396C00002844DBC01380B205F0C6FC7A68BB6843
:10397C001A447A60002A3FDB236C03FB00F0C0136F
:10398C0000F5004000EBD070401006FB00F0666BB9
:10399C0006EBE03094F8C430022B32D0042B6DD0FF
:1039AC00062B00F0C88000216164B4F96430B4F9CE
:1039BC006220934202DA0133A4F86430B4F9643023
:1039CC009A4202DA013BA4F86430B4F9643003FB88
:1039DC0001F3884981FB0321CA18D917C1EBE221F5
:1039EC0001F30F0104F19C0005F0C2FBF8BD00F5DA
:1039FC00FF407F30C013B6E722F0004201327A60FC
:103A0C00BAE7002101290BDC04EBC106C0F500422A
:103A1C0000F50043D20392FBF3F373600131F1E73D
:103A2C00E36B626CED0302FB0355002D17DBED130A
:103A3C00E368226903FB1522002A15DBD213ED0380
:103A4C0002FB035525616068A36800FB1233002B51
:103A5C000FDBD913D20301FB0022A260A4E705F50A
:103A6C00FF457F35ED13E3E702F5FF427F32D213BA
:103A7C00E5E703F5FF437F33D913EBE70021032977
:103A8C000BDC04EBC106C0F5004200F50043D20389
:103A9C0092FBF3F373600131F1E7E36B626CED03BE
:103AAC0002FB0355002D2DDBED13E369226A03FBAA
:103ABC001522002A2BDBD213ED0302FB03552562E2
:103ACC006169A36901FB1233002B25DBDB13D203E5
:103ADC0003FB0122A261E168226901FB1322002A87
:103AEC001FDBD213DB0302FB013323616068A36885
:103AFC0000FB1233002B19DBD913D20301FB00227C
:103B0C00A26051E705F5FF457F35ED13CDE702F5D2
:103B1C00FF427F32D213CFE703F5FF437F33DB1332
:103B2C00D5E702F5FF427F32D213DBE703F5FF4303
:103B3C007F33D913E1E7002105290BDC04EBC10627
:103B4C00C0F5004200F50043D20392FBF3F373601F
:103B5C000131F1E7E36B626CED0302FB0355002DC1
:103B6C004ADBED13E36A226B03FB1522002A48DBC8
:103B7C00D213ED0302FB03552563616AA36A01FBB3
:103B8C001233002B42DBDB13D20303FB0122A262B4
:103B9C00E169226A01FB1322002A3CDBD213DB030E
:103BAC0002FB013323626169A36901FB1233002B11
:103BBC0036DBDB13D20303FB0122A261E16822692D
:103BCC0001FB1322002A30DBD213DB0302FB01338F
:103BDC0023616068A36800FB1233002B2ADBD91326
:103BEC00D20301FB0022A260DEE600BF8AA8000817
:103BFC00B5814E1B8100088005F5FF457F35ED131F
:103C0C00B0E702F5FF427F32D213B2E703F5FF4370
:103C1C007F33DB13B8E702F5FF427F32D213BEE7E6
:103C2C0003F5FF437F33DB13C4E702F5FF427F321A
:103C3C00D213CAE703F5FF437F33D913D0E700BF94
:103C4C0010B50446B0F90A308381B0F91230838282
:103C5C00416801B90121E069431E8B4200D219462B
:103C6C00A162226A521AD2036262002A09DBD113C2
:103C7C00002908DB5BB1A269002122F81310013B7B
:103C8C00F8E7D113F4E702EBC0326262F2E7A36902
:103C9C0000221A8004F12C0005F028FB04F15400DA
:103CAC0005F024FB10BD10B50446002343613430ED
:103CBC0005F01CFB04F15C0005F018FBB4F91E3098
:103CCC002384B4F926302385B4F92E302386A368D7
:103CDC00013B2BB16268002122F81310013BF8E77D
:103CEC00636800221A8010BD10B50446B0F91E306E
:103CFC000384B0F926300385B0F92E300386B0F971
:103D0C0036300387B0F93E30A0F840308368013B71
:103D1C002BB16268002122F81310013BF8E76268AE
:103D2C0000231380636104F1440005F0DFFA04F111
:103D3C006C0005F0DBFA10BD10B50446B0F9063086
:103D4C000381B0F90E30038200F536503C3005F09B
:103D5C00CDFA04F53750243005F0C8FA04F5385084
:103D6C000C3005F0C3FA002200E00132072A11DC06
:103D7C000021C2EBC200830023441B6B8B42F4DD99
:103D8C00C2EBC20083002344DB6A002023F811003D
:103D9C000131EEE7002212E002EB420083002344E3
:103DAC00D3F8FC30002023F81100013102EB420063
:103DBC0083002344D3F800318B42EDDC0132032A1B
:103DCC0001DC0021F2E7002342F65862A35042F6D0
:103DDC005462A35042F65062A35042F64C62A35078
:103DEC0042F64862A35004F5385463642364E363D9
:103DFC00A36310BD10B50446B0F90C30C381B0F903
:103E0C001430C382B0F9061001B90121206A421E98
:103E1C008A4200D30A46E262636A9B1ADB03A362FE
:103E2C00002B1ADBDA13002A19DB04F1300005F041
:103E3C005DFA04F1580005F059FA0023C4F89C30DF
:103E4C00C4F89830C4F89430C4F89030C4F88C306E
:103E5C00C4F88830C4F8843010BDDA13E3E703EB00
:103E6C00C033A362E1E700002DE9F047054600F1FD
:103E7C00580700F18004303005F0D9F90646A368E4
:103E8C003BB1012B58D06168384605F0D0F9BDE83C
:103E9C00F087D5F88050E368C5F8943005F11C081C
:103EAC00B5F9062002B901222B6A013B93422ED2AE
:103EBC00EB62D8F80C30002B2BDBDB13EA69D05CFF
:103ECC0005F0D8F8D8F80810D8F80C30002B25DB02
:103EDC00DA13891A0A46002925DBD203D8F8101008
:103EEC0092FBF1F21344C8F80C30002B1FDBDA13F1
:103EFC00D8F804108A4203D3A3EBC133C8F80C30B2
:103F0C00C5F89C002661A3680133A360BBE7134688
:103F1C00CEE703F5FF437F33DB13CFE703F5FF4217
:103F2C007F32D213D5E7D8F804200A44D5E703F53D
:103F3C00FF427F32D213DBE7D5F88050D5F89C10C6
:103F4C00B5F90E30B5F90C20934201DA0133EB814F
:103F5C00B5F90E309A4201DA013BEB81B5F90E202E
:103F6C0002FB01F2254880FB02301044D217C2EB51
:103F7C00E022D5F894000244C5F89420B5F9163027
:103F8C00B5F91400834201DA0133EB82B5F916302E
:103F9C00984201DA013BEB82B5F9163003FB01F3D1
:103FAC00164981FB03011944DB17C3EBE12302F330
:103FBC000F00C5F8940003F30F03C5F89830D5F83B
:103FCC002490D5F81CA000B205F06AF80AF8090094
:103FDC006B6A01336B622A6A93420CD0D5F8983025
:103FEC00636023691E44266106EBD6767610E66084
:103FFC000023A36047E700236B62EFE78100088092
:10400C002DE9F84F0646403005F0B2F8834606F12C
:10401C009005AB684BB1012B00F08980696806F103
:10402C00680005F0A5F8BDE8F88FD6F89040EB686D
:10403C00C4F8A43004F11C02B4F90830B4F9061029
:10404C008B4201DA01332381B4F90830994201DA49
:10405C00013B2381B4F908005368984200DD581ED7
:10406C0000280DDD936883420CDDE169014417687B
:10407C0093681F448F4205D9002301F8013BF6E7F2
:10408C000120EFE79060D368984201DC431ED360B7
:10409C00A26A636A216B5B1A01339A4224D08B1E8D
:1040AC009A422DD0E369985C04F0E4FF0246C4F810
:1040BC00AC0094F83C307BB1636B03FB00F0D4F89C
:1040CC0030C090FBFCF2A16B0B446363B1F1FF3F7A
:1040DC0022D0A16B012924D0C4F8AC20C5F810B0B3
:1040EC00AB680133AB6099E7E36A002BD7DD4B1E5D
:1040FC0063634FF0FF33A363012384F83C30CEE7B6
:10410C00E36A002BCEDA013961634FF0FF33A3630E
:10411C00012384F83C30C5E7002BDAD10121A163DF
:10412C00D7E79C45D8D1002384F83C30D4E7D6F8A7
:10413C009040D4F8AC00B4F91030B4F90E2093428E
:10414C0001DA01332382B4F910309A4201DA013BCF
:10415C002382B4F9102002FB00F23C4981FB0231AE
:10416C001144D217C2EBE122D4F8A4309A1AC4F845
:10417C00A420B4F91830B4F916108B4201DA0133CB
:10418C002383B4F91830994201DA013B2383B4F943
:10419C00183003FB00F32D4981FB03011944DB1795
:1041AC00C3EBE12302F30F00C4F8A40003F30F03E5
:1041BC00C4F8A83004F11C0800B2D8F80C20D8F8C8
:1041CC0008309A4205DB0023C8F80C300123C8F8EC
:1041DC001030D8F80C30002B1BDBD8F80C90D4F82E
:1041EC001CA004F05DFF0AF80900D8F81030D8F8CC
:1041FC000C201344C8F80C30D8F8082093420FDA7E
:10420C00002B14DA0023C8F80C300123C8F8103046
:10421C000DE00023C8F80C300123C8F81030DCE79F
:10422C00013AC8F80C204FF0FF33C8F81030D4F81E
:10423C00A8306B602B690BEB03072F6107EBD7776B
:10424C007F10EF600023AB60E8E600BF81000880C0
:10425C0038B50446B0F906300381B0F90E3003824C
:10426C00B0F91630038300F11C05002004F018FF90
:10427C006B68013B1BB12A68D054013BFAE7E36938
:10428C0018700023EB6001232B61B4F90830B4F9EA
:10429C000620934201DA01332381B4F908309A42A3
:1042AC0001DA013B2381B4F908106B68994200DDF7
:1042BC00591E00290DDDAB688B420CDDE2690A4406
:1042CC002B68A8680344934205D9002302F8013BEC
:1042DC00F6E70121EFE7A960EB68994201DC0139AF
:1042EC00E960002584F83C5004F1400004F0FEFF26
:1042FC0004F1680004F0FAFFC4F8AC50C4F8A850FC
:10430C00C4F8A450C4F8A050C4F89C50C4F89850F9
:10431C00C4F8945038BD0000F8B50446343004F0AD
:10432C0027FFB4F92030B4F91E20934201DA01338F
:10433C002384B4F920309A4201DA013B2384B4F986
:10434C002010594B1A88A2F11B0303FB01F393FBBA
:10435C00F2F31B3304F11005226903FB02F3534AF9
:10436C0082FB03121A44DB17C3EB2223A361B4F9BB
:10437C002830B4F92620934201DA01332385B4F9AD
:10438C0028309A4201DA013B2385B4F928204FF4F6
:10439C00C87303FB02F3464E86FB03261E44DB1751
:1043AC00C3EBE626E268636823F81200E368013386
:1043BC00E360A268934201D30023E360686800289D
:1043CC0055DBC01380B204F097FF6B68AA681344E6
:1043DC006B60002B50DB731CDB0306FB003010F50D
:1043EC00C8004ED4C313A0EBC3305A1C4ED4A668DD
:1043FC00964200D8721EE568AA1A1746002A47DBB7
:10440C00616831F9172000FB02F2C0F50040002B67
:10441C0040DBB34200D3731EEB1A1D46002B3BDB73
:10442C0031F9151000FB0120002837DBC01300F315
:10443C000F0104F15C0004F09BFEB4F93020B4F9D8
:10444C002E10914201DD01322286B4F930209142C6
:10445C0001DA013A2286B4F9303003FB00F3144838
:10446C0080FB03201844DB17C3EBE020F8BD00F5FC
:10447C00FF407F30C013A5E723F0004301336B608E
:10448C00A9E700F5FF437F33DB13ACE70022AEE76F
:10449C00B718B5E70023BCE79D19C1E700F5FF404D
:1044AC007F30C013C3E700BF8AA80008F1000FF0EB
:1044BC00810008802DE9F04104460D46B0F920300A
:1044CC00B0F91E20934201DA01330384B4F9203091
:1044DC009A4201DA013B2384B4F920107C4B1A88F0
:1044EC00931E03FB01F393FBF2F3023304F110066A
:1044FC00226903FB02F3774A82FB0312DB17C3EB3F
:10450C006213A361B4F93030B4F92E20934201DA6E
:10451C0001332386B4F930309A4201DA013B238609
:10452C00B4F930804FF4C87303FB08F36A4880FB7E
:10453C0003289844D817C0EBE828B4F92830B4F90C
:10454C002620934201DA01332385B4F928309A42AC
:10455C0001DA013B2385B4F928004FF4487303FBBF
:10456C0000F35D4F87FB03271F44D817C0EBE727E9
:10457C007068002860DBC01380B204F0BDFE736865
:10458C00B26813447360002B5BDB08F10103DB039F
:10459C0008FB003010EBC73058D4C313A0EBC3306A
:1045AC005A1C58D4A768974200D87A1EE668B21AEB
:1045BC009446002A51DB616831F91C2000FB02F2A1
:1045CC00C0F50040002B4BDBBB4200D37B1EF31A23
:1045DC001E46002B46DB31F9161000FB012000288B
:1045EC0042DBC01300F30F0104F16C0004F0C0FDBA
:1045FC000646B4F93830B4F93620934201DA013367
:10460C002387B4F938309A4201DA013B2387B4F995
:10461C00383003FB06F3304981FB03211944DB17C7
:10462C00C3EBE121691A2D4B994222DB42F2107344
:10463C0099421FDD19461DE000F5FF407F30C01385
:10464C009AE723F00043013373609EE700F5FF43C4
:10465C007F33DB13A2E70022A4E707EB020CAAE7E7
:10466C000023B1E7DE19B6E700F5FF407F30C01339
:10467C00B8E71A4904F1440004F07AFDE268636873
:10468C0023F81200E3680133E360A268934201D37C
:10469C000023E360B4F94030B4F93E209A4202DDC5
:1046AC000133A4F84030B4F94030934202DD013BB1
:1046BC00A4F84030B4F9403003FB06F3064880FB05
:1046CC0003201844DB17C3EBE020BDE8F08100BFEA
:1046DC008AA80008B5814E1B81000880F0D8FFFF26
:1046EC0070B504462C3004F0A2FD04F11803616887
:1046FC0001B90121E269013A8A4200D30A46A26259
:10470C00D96800295DDBCD13A26932F915609A686E
:10471C00521B1546002A59DBED031A6995FBF2F57D
:10472C002944D960002954DBCA135D68AA4202D31C
:10473C00A1EBC531D960B4F90C30B4F90A2093421D
:10474C0001DA0133A381B4F90C309A4201DA013B4E
:10475C00A381B4F90C2002FB06F2224B83FB02135B
:10476C001344D217C2EBE322821AB4F91430B4F911
:10477C0012108B4201DA0133A382B4F9143099423E
:10478C0001DA013BA382B4F9143003FB06F315499B
:10479C0081FB0301CD18D917C1EBE52102F30F0200
:1047AC0001F30F01206AA36923F81020236A013357
:1047BC002362E269934211D004F1540004F037FDF6
:1047CC0070BD01F5FF427F32D5139DE75D6815443E
:1047DC00A2E701F5FF427F32D213A6E70023236242
:1047EC00EAE700BF810008802DE9F047054600F19B
:1047FC006C0700F19404443004F0BAFC0646A3683C
:10480C00002B44D0012B73D0022B00F01581032B0D
:10481C0068D1D5F89430B3F9B400D9685A6822F845
:10482C001100DA680132DA6099688A4201D30022F9
:10483C00DA60D3F8B050B3F94010B3F93E008142BE
:10484C0002DA0131A3F84010B3F94010884202DAC1
:10485C000139A3F84010B3F9402002FB05F28D4951
:10486C0081FB02011144D217C2EBE12202F30F02C9
:10487C00C3F8B020626023691E4426613346002EC3
:10488C00C0F205819B10E3600023A3602AE0D5F8F9
:10489C009420E368C2F8A830B2F92030B2F91E10A7
:1048AC008B4201DA01331384B2F92030994201DAD8
:1048BC00013B1384B2F92000774B19888B1E03FB44
:1048CC0000F393FBF1F3991C136903FB01F3734998
:1048DC0081FB0301DB17C3EB611393612661A368B2
:1048EC000133A3606168384604F042FCBDE8F087F0
:1048FC00D5F89480B8F93030B8F92E20934202DA0A
:10490C000133A8F83030B8F930309A4202DA013B62
:10491C00A8F83030B8F93050C72303FB05F35D4DD0
:10492C0085FB03251D44DB17C3EBE525B8F92830BF
:10493C00B8F92620934202DA0133A8F82830B8F9E6
:10494C0028309A4202DA013BA8F82830B8F928201E
:10495C0041F61F4303FB02F34E4A82FB03299944A1
:10496C00DB17C3EBE92908F1100ADAF80400002878
:10497C0044DBC01380B204F0BFFCDAF80430DAF880
:10498C0008201344CAF80430002B3CDB6B1CDB03FF
:10499C0000FB053515EBC9353BD4EB13A5EBC33543
:1049AC005A1C3BD4D8F80800904200D8421ED8F8C4
:1049BC000C108A1A9646002A32DBD8F804C03CF94F
:1049CC001E2002FB05F2C5F50045002B2BDB98429F
:1049DC0000D8431ECB1A1946002B26DB3CF91130AC
:1049EC0003FB0525002D22DBED13C8F8B05023691D
:1049FC001E442661A3680133A36073E700F5FF40F2
:104A0C007F30C013B6E723F000430133CAF80430FB
:104A1C00BCE705F5FF437F33DB13BFE70022C1E79B
:104A2C0000EB020EC9E70023D1E7C118D6E705F564
:104A3C00FF457F35ED13D8E7D5F89420D2F8A810B0
:104A4C00D2F8B0C0B2F93800B2F93650A84201DA47
:104A5C0001301087B2F93800854201DA013810872D
:104A6C00B2F9383003FB0CF30A4880FB03501844AE
:104A7C00DB17C3EBE023CB1A03F30F03C2F8B430FC
:104A8C0023691E442661A3680133A3602AE7F31C43
:104A9C00F8E600BF810008808AA80008B5814E1B8B
:104AAC00F8B5054600F1580600F18004303004F0EA
:104ABC00BEFBA36833B1012B4DD06168304604F0C6
:104ACC00B6FBF8BDD5F88020E368C2F8943002F14B
:104ADC001C05B2F906C04E4B1F88116A01394B1EDA
:104AEC0003FB0CF393FBF7F3013300D10123994241
:104AFC0022D2D162EB68002B20DBD913D76937F9AE
:104B0C0011C0AF687F1A3946002F1CDBC9032F690F
:104B1C0091FBF7F10B44EB60002B17DBD9136F689B
:104B2C00B94202D3A3EBC733EB60C2F89CC020613F
:104B3C00A3680133A360C0E71946DAE703F5FF4722
:104B4C007F37F913DAE769683944DFE703F5FF418A
:104B5C007F31C913E3E7D5F88030D3F89C70B3F9F3
:104B6C000E20B3F90C108A4201DA0132DA81B3F962
:104B7C000E20914201DA013ADA81B3F90E1001FBF1
:104B8C0007F1244D85FB01250D44C917C1EBE52127
:104B9C00D3F89420511AC3F89410B3F91620B3F932
:104BAC001450AA4201DA0132DA82B3F91620954286
:104BBC0001DA013ADA82B3F9162002FB07F2154D3D
:104BCC0085FB02751544D217C2EBE52201F30F01E8
:104BDC00C3F8941002F30F02C3F898205D6ADA69E7
:104BEC0022F815105A6A01325A62196A8A420CD09C
:104BFC00D3F89830636023691844206100EBD070BF
:104C0C004010E0600023A36057E700225A62EFE7F0
:104C1C008AA80008810008802DE9F0410446B0F90B
:104C2C000A308381B0F912308382383004F05EFB95
:104C3C0004F1600004F05AFB04F1180104F1280798
:104C4C0000230B614B618B61CB611E465B42B3420F
:104C5C0034DB00227868304D55F820509D4202DC40
:104C6C0042F004025B1B4FEA650C9C4503DC42F0EE
:104C7C000202A3EB0C034FEAA50E9E4501DC42F0A9
:104C8C000102EB10904612F0010F00D0734412F0A9
:104C9C00020F00D0634412F0040F00D02B4412F02A
:104CAC00080F0ED0F31AA362A36A13F5004F0ADBA8
:104CBC00B3F5004F08DB47F6FF7305E05B420822B3
:104CCC00C8E7A362F0E7154BA362154B53F82830E5
:104CDC00C0180CD4582808DC78604B685B08013B82
:104CEC003BB10868C254013BFAE75820F4E70020B6
:104CFC00F2E7A3691A700023C4F8A430C4F8A030FA
:104D0C00C4F89C30C4F89830C4F89430C4F890308F
:104D1C00C4F88C30BDE8F081F49F00080080FFFFE0
:104D2C000C9F00082DE9F041B0F90A308381B0F9ED
:104D3C001230838200F11802416801B90121C36964
:104D4C00013B8B4242D2436202F1100700231361F4
:104D5C0053619361D361136253621E465B42B3424B
:104D6C0036DB00217C68314D55F824509D4202DC25
:104D7C0041F004015B1B4FEA650C9C4503DC41F0E0
:104D8C000201A3EB0C034FEAA50E9E4501DC41F09A
:104D9C000101EB10884611F0010F00D0734411F0A3
:104DAC00020F00D0634411F0040F00D02B4411F01B
:104DBC00080F10D0F31A1361136913F5004F0CDBB5
:104DCC00B3F5004F0ADB47F6FF7307E00B46BAE773
:104DDC005B420821C6E71361EEE7154B1361154BD7
:104DEC0053F82830E4180CD4582C08DC7C60536839
:104DFC005B08013B3BB11468E154013BFAE75824D2
:104E0C00F4E70024F2E7836919700023C0F8AC3092
:104E1C00C0F8A830C0F8A430C0F8A030C0F89C305E
:104E2C00C0F89830C0F89430BDE8F081F49F0008C9
:104E3C000080FFFF0C9F00082DE9F843064600F5A3
:104E4C0036503C3004F094F9804642F63463F51841
:104E5C00AA6852B1012A00F0F880696806F537504B
:104E6C00243004F085F9BDE8F883F458E96842F67B
:104E7C004863E150B4F91030B4F90E108B4201DAEA
:104E8C0001332382B4F91030994201DA013B2382B9
:104E9C00B4F91000C000072A07DCC2EBC2018B007A
:104EAC001833234458600132F5E742F64863E15861
:104EBC0004F538500C3004F05BF9636903FB00F027
:104ECC000028C0F29F80C01342F64863E05042F6BF
:104EDC004C630022E25004F11C0CDCF81010DCF8DE
:104EEC00189031F919E0DCF80C30DCF80420DCF80F
:104EFC00087002FB07F203FB0E23002BC0F2878025
:104F0C00DB13CCF80430E26902FB03F3002BC0F294
:104F1C008380DB13034403F30F0321F81930DCF80F
:104F2C0018300133CCF81830DCF81420934202DB33
:104F3C000023CCF8183042F64C62A3587344A350AB
:104F4C0004F1380342F6486254F802C01869D3F8E9
:104F5C00189030F919E0DA6859689F6801FB07F17D
:104F6C0002FB0E12002A5CDBD2135A60A16B01FB10
:104F7C0002F2002A5ADBD213624402F30F0220F829
:104F8C0019209A6901329A6159698A4201DB00221F
:104F9C009A6142F64C62A3587344A35004F1540333
:104FAC0042F6486254F802C01869D3F8189030F9E8
:104FBC0019E0DA6859689F6801FB07F102FB0E12D1
:104FCC00002A38DBD2135A60616D01FB02F2002A11
:104FDC0036DBD213624402F30F0220F819209A69CF
:104FEC0001329A6159698A4201DB00229A6142F6C8
:104FFC004C62A3587344A350C5F81080AB680133BE
:10500C00AB602AE700F5FF407F30C0135CE703F587
:10501C00FF437F33DB1374E703F5FF437F33DB136D
:10502C0078E702F5FF427F32D2139EE702F5FF428A
:10503C007F32D213A0E702F5FF427F32D213C2E7D0
:10504C0002F5FF427F32D213C4E7F35803F170022A
:10505C0042F6486153F801C01469D2F8189034F93B
:10506C0019E0D1685068976800FB07F001FB0E014E
:10507C000029C0F28A81C9135160186F00FB01F13D
:10508C000029C0F28781C913614401F30F0124F890
:10509C0019109169013191615069814201DB002144
:1050AC00916142F64C615A5872445A5003F18C0289
:1050BC0042F6486153F801C01469D2F8189034F9DB
:1050CC0019E0D1685068976800FB07F001FB0E01EE
:1050DC000029C0F26481C9135160D3F88C0000FB25
:1050EC0001F10029C0F26081C913614401F30F0181
:1050FC0024F819109169013191615069814201DBE9
:10510C000021916142F64C615A5872445A5003F195
:10511C00A80242F6486153F801C01469D2F81890FD
:10512C0034F919E0D1685068976800FB07F001FB6F
:10513C000E010029C0F23D81C9135160D3F8A800BB
:10514C0000FB01F10029C0F23981C913614401F35C
:10515C000F0124F819109169013191615069814254
:10516C0001DB0021916142F64C615A5872445A504D
:10517C0003F1C40242F6486153F801C01469D2F835
:10518C00189034F919E0D1685068976800FB07F063
:10519C0001FB0E010029C0F21681C9135160D3F82E
:1051AC00C40000FB01F10029C0F21281C913614453
:1051BC0001F30F0124F819109169013191615069C3
:1051CC00814201DB0021916142F64C615A587244D4
:1051DC005A5003F1E00C42F6486253F802E0DCF856
:1051EC001040DCF8189034F91920DCF80C10DCF8BD
:1051FC000400DCF8087000FB07F001FB0201002939
:10520C00C0F2EB80C913CCF80410D3F8E00000FB1B
:10521C0001F10029C0F2E680C913714401F30F01BA
:10522C0024F81910DCF818100131CCF81810DCF83F
:10523C001400814202DB0021CCF8181042F64C61BC
:10524C00585802445A50D3F8FC40D3F804C134F9EE
:10525C001C00811A00EBD07002EB600202F30F020B
:10526C0024F81C20D3F804210132C3F80421D3F80C
:10527C000001824202DB0022C3F8042142F64C6298
:10528C009950D3F80841D3F810C134F91C00421AD4
:10529C0000EBD07001EB600101F30F0124F81C103E
:1052AC00D3F810110131C3F81011D3F80C0181425D
:1052BC0002DB0021C3F8101142F64C615A50D3F8AE
:1052CC001441D3F81CC134F91C00811A00EBD070C6
:1052DC0002EB600202F30F0224F81C20D3F81C210D
:1052EC000132C3F81C21D3F81801824202DB0022E0
:1052FC00C3F81C2142F64C629950D3F82041D3F8E4
:10530C0028C134F91C00421A00EBD07001EB60018B
:10531C0001F30F0124F81C10D3F828110131C3F844
:10532C002811D3F82401814202DB0021C3F8281193
:10533C0002F30F0142F64C629950B3F90820B3F90D
:10534C000600824201DA01321A81B3F90820904238
:10535C0001DA013A1A81B3F9082002FB01F224495F
:10536C0081FB02011144D217C2EBE12242F64C61DF
:10537C005A506A602B6908EB03072F6107EBD7774C
:10538C007F10EF600023AB6067E501F5FF417F31D3
:10539C00C91371E601F5FF417F31C91374E601F5BC
:1053AC00FF417F31C91397E601F5FF417F31C913E6
:1053BC009BE601F5FF417F31C913BEE601F5FF41C4
:1053CC007F31C913C2E601F5FF417F31C913E5E610
:1053DC0001F5FF417F31C913E9E601F5FF417F314A
:1053EC00C91310E701F5FF417F31C91315E700BF61
:1053FC00810008802DE9F04F83B0064600F1680566
:10540C0000F19004403003F012FFA16849B101296A
:10541C0000F0D4806168284603F009FF03B0BDE8B2
:10542C00F08FD6F890C0E368CCF8A4300CF11803D8
:10543C00DCF8046006B90126DCF81C20013AB24203
:10544C0080F09180CCF824209A68DE68921B164676
:10545C00002AC0F28A8003F11807DCF818E0720801
:10546C0016F0010F00F084801EF8022002F00F02EB
:10547C007E68DFF8DCE25EF826904FEAE90E904693
:10548C0012F0010F01D00EEBA90E12F0020F01D099
:10549C000EEB690E12F0040F00D0CE4412F0080F80
:1054AC006AD09A69A2EB0E029A619A6912F5004FC2
:1054BC0069DBB2F5004F63DA9A61DFF898E25EF8C7
:1054CC0028E016EB0E0662D4582E5EDC7E609E68D9
:1054DC00DF68A6EB57063746002E5ADB03F1200E89
:1054EC00DCF818807E0817F0010F55D118F806600B
:1054FC003609DEF80480964F57F828704FEAE70A11
:10550C00B14616F0010F01D00AEBA70A16F0020FF4
:10551C0001D00AEB670A16F0040F00D0BA4416F05B
:10552C00080F3ED01F6AA7EB0A071F621E6A16F50A
:10553C00004F3DDBB6F5004F37DA1E62854B53F852
:10554C00293018EB030337D4582B33DCCEF8043056
:10555C00324402F30F0212B2CCF8AC202061A368E3
:10556C000133A36056E732466CE75E68164472E777
:10557C001EF8022012097BE79A6972449A6194E73B
:10558C0047F6FF7298E7744A96E758269EE70E4650
:10559C009CE75F683744A1E718F8066006F00F0631
:1055AC00A7E71E6A56441E62C0E747F6FF76C4E7BB
:1055BC00694EC2E75823C9E70B46C7E7D6F89030C7
:1055CC00D3F8ACC0B3F90C20B3F90A108A4201DA53
:1055DC0001329A81B3F90C20914201DA013A9A8195
:1055EC00B3F90C1001FB0CF15C4E86FB01260E444A
:1055FC00C917C1EBE621D3F8A4707F1AC3F8A470C5
:10560C00B3F91420B3F912108A4201DA01329A82EA
:10561C00B3F91420914201DA013A9A82B3F91420B9
:10562C0002FB0CF24D4981FB02611144D217C2EB13
:10563C00E12207F30F07C3F8A47002F30F02C3F8BB
:10564C00A82003F1180C3FB2DCF8088003F12809FC
:10565C00D3F828E0B7EB0E0736D40022D9F80410A3
:10566C003B4E56F82160BE4202DC42F00402BF1BE6
:10567C004FEA660ABA4503DC42F00202A7EB0A07BE
:10568C004FEAA60BBB4501DC42F00102F710019278
:10569C0012F0010F00D05F4412F0020F00D05744FB
:1056AC0012F0040F00D0374412F0080F0FD0AEEBFD
:1056BC0007079F629E6A16F5004F0BDBB6F5004F8D
:1056CC0009DB47F6FF7606E07F420822C6E77744FF
:1056DC009F62EFE7204E9E621E4E019F56F8276098
:1056EC00891928D4582924DCC9F8041002F00F02B7
:1056FC009E694FEA580118F0010F1ED0775C07F035
:10570C00F0073A437254DCF808200132CCF8082038
:10571C00DCF804108A4216D0D3F8A83063602369F1
:10572C001844206100EBD0704010E0600023A360AF
:10573C0070E65821D8E70021D6E7775607F00F0717
:10574C0047EA0212DEE70022CCF80820E4E700BFAB
:10575C00F49F00080C9F00080080FFFF8100088068
:10576C0010B50446064B18680368DB682146984759
:10577C00044B1B7803B1204403F0A2FA10BD00BF08
:10578C000002002008000020002817DB40F6FF7301
:10579C009842A8BF184640F2FE73984210D9A0F266
:1057AC00FF73B3F5006F1AD840F6CC4000FB03F042
:1057BC00002811DBC01200F2333070470020EAE7FA
:1057CC0040F2333303FB00F3064880FB0320C2187E
:1057DC00D817C0EBA220704700F2FF70EAE7002058
:1057EC00704700BF0102108010B5044649F64043D3
:1057FC0003FB01F10E4B83FB0123C917C1EBA31172
:10580C00036A013B002911DD99420DDC094A12881B
:10581C00481E00FB02F0013B90FBF3F000B2A080AD
:10582C00FFF7B2FFE08010BD1946EFE70121EDE76D
:10583C00D34D62108AA8000810B5044608B2A080A7
:10584C00FFF7A2FFE08010BD10B5044644F62063BC
:10585C0003FB01F10E4B83FB0123C917C1EBA31111
:10586C00036A013B002911DD99420DDC094A1288BB
:10587C00481E00FB02F0013B90FBF3F000B2A0804D
:10588C00FFF782FFE08010BD1946EFE70121EDE73D
:10589C00D34D62108AA8000810B5044608B2A08047
:1058AC00FFF772FFE08010BD002817DB40F6FF7396
:1058BC009842A8BF184640F2FE73984210D9A0F245
:1058CC00FF73B3F5006F1AD840F2333000FB03F0CE
:1058DC00002811DBC01200F6CC4070470020EAE72C
:1058EC0040F6CC4303FB00F3064880FB0320C218B0
:1058FC00D817C0EBA220704700F2FF70EAE7002037
:10590C00704700BF0102108010B5044608B2A4F81D
:10591C005000FFF7C9FFA4F8520010BD2DE97848DC
:10592C0004461A4B1D88C1EBC13191FBF5F5284695
:10593C00E917CE00EA0046EA557312EB050B43EB70
:10594C00010C4FEA4C1545EADB654FEA4B16321A4F
:10595C0065EB01039D0045EA92759600321A65EBE2
:10596C000103DD0045EA5275D600321A65EB0103DE
:10597C00D00B40EA434000F5B3401A3040F3CF005F
:10598C00A081FFF791FFE081BDE878888AA8000824
:10599C0000281BDB40F6FF739842A8BF184640F660
:1059AC006423984214D9A0F6652240F29A539A4285
:1059BC0019D840F6CC4303FB02F30C4A82FB0312CA
:1059CC00D817C0EB622000F2333070470020E6E7B6
:1059DC0040F2333303FB00F3054A82FB0312D81762
:1059EC00C0EBA22070470020704700BF7D2F675B83
:1059FC004F6A836210B5044642F2107303FB01F147
:105A0C000E4B83FB0123C917C1EBA311036A013BA6
:105A1C00002911DD99420DDC094A1288481E00FB51
:105A2C0002F0013B90FBF3F000B2A080FFF7B0FF57
:105A3C00E08010BD1946EFE70121EDE7D34D621070
:105A4C008AA8000810B5044608B2A080FFF7A0FF92
:105A5C00E08010BD10B50446074B1A88A2F10A036A
:105A6C0001FB03F090FBF2F00A3000B2A084FFF7C8
:105A7C008FFFE08410BD00BF8AA8000810B5044653
:105A8C00064B1A88531E01FB03F090FBF2F0013019
:105A9C0000B2A083FFF77CFFE08310BD8AA800084A
:105AAC0000281ADB40F6FF739842A8BF1846B0F5E1
:105ABC00B36F14D9A0F2995240F666239A4219D8C2
:105ACC0040F2333303FB02F30B4A82FB0312D81769
