:020000040800F2
:100000000050002005830008392900083B2900081A
:100010003D2900083F290008412900080000000090
:10002000000000000000000000000000432900085C
:100030004529000800000000472900084929000858
:100040004D8300084D8300084D8300084D83000850
:100050004D8300084D8300084D8300084D83000840
:100060004D8300084D8300084D8300085129000886
:100070004D8300084D8300084D8300084D83000820
:100080004D8300084D8300084D8300084D83000810
:100090004D8300084D8300084D8300084D83000800
:1000A0004D8300084D8300084D8300084D830008F0
:1000B0004D8300084D8300084D8300084D830008E0
:1000C0004D8300084D8300084D8300084D830008D0
:1000D0004D830008612900084D8300084D83000806
:1000E0004D8300084D8300084D8300080000000088
:1000F0000000000000000000000000000000000000
:0C01000000000000000000005FF808F1A3
:10010C0010B5054C237833B9044B13B10448AFF345
:10011C0000800123237010BDE001002000000000CE
:10012C007888000808B5034B1BB103490348AFF3AB
:10013C00008008BD00000000E40100207888000861
:10014C00034613F8012B002AFBD1181A013870470B
:10015C007BB972B90029BEBF00204FF0004106E008
:10016C0008BF00281CBF6FF000414FF0FF3000F0BB
:10017C00A7B9ADF1080C6DE904CE002909DB002B01
:10018C001ADB00F035F8DDF804E0DDE9022304B0F9
:10019C007047404261EB4101002B1BDB00F028F85B
:1001AC00DDF804E0DDE9022304B0404261EB4101DB
:1001BC00524263EB43037047524263EB430300F03C
:1001CC0017F8DDF804E0DDE9022304B0404261EBEE
:1001DC0041017047524263EB430300F009F8DDF82C
:1001EC0004E0DDE9022304B0524263EB43037047A1
:1001FC002DE9F0478C460446089E002B4BD18A42D1
:10020C00154667D9B2FA82F24AB1C2F1200701FA57
:10021C0002F320FA07F7954047EA030C94404FEAA3
:10022C00154EBCFBFEF71FFA85F80EFB17C307FB38
:10023C0008F9210C41EA0343994509D9EB1807F158
:10024C00FF3180F01C81994540F21981023F2B440B
:10025C00A3EB0903B3FBFEF00EFB103300FB08F11C
:10026C00A4B244EA0344A14209D92C1900F1FF338A
:10027C0080F00781A14240F2048102382C4440EA0C
:10028C0007400027641A1EB10023D440C6E900437E
:10029C003946BDE8F0878B4209D9002E00F0EC807E
:1002AC000027C6E9000138463946BDE8F087B3FAA5
:1002BC0083F7002F48D18B4202D3824200F2FB809D
:1002CC00841A61EB030301209C46002EE0D0C6E9A2
:1002DC00004CDDE702B9FFDEB2FA82F2002A40F0F0
:1002EC008F800127491B4FEA15481FFA85F9B1FB8E
:1002FC00F8FE08FB1E1109FB0EF04FEA144C4CEAF9
:10030C000143984207D9EB180EF1FF3102D2984203
:10031C0000F2CD808E461B1AB3FBF8F008FB1033AD
:10032C0009FB00F9A4B244EA0344A14507D92C19EE
:10033C0000F1FF3302D2A14500F2B6801846A4EBBF
:10034C00090440EA0E409EE7C7F12005BB4022FAA3
:10035C0005FC4CEA030C21FA05F44FEA1C4EB4FBE5
:10036C00FEF91FFA8CF80EFB194420FA05F3B9407C
:10037C0009FB08FA19430B0C43EA0444A24502FAA0
:10038C0007F200FA07F30BD91CEB040409F1FF3058
:10039C0080F08880A24540F28580A9F1020964446E
:1003AC00A4EB0A04B4FBFEF00EFB104400FB08FAAD
:1003BC0089B241EA0444A24508D91CEB040400F1BB
:1003CC00FF316BD2A24569D90238644440EA094036
:1003DC00A0FB0289A4EB0A044C454146CE4654D3FB
:1003EC0051D0002E69D05A1A64EB0E0404FA05F5AC
:1003FC0022FA07F3FC401D43C6E90054002747E7E7
:10040C009540C2F1200321FA03F04FEA1548B0FBE6
:10041C00F8F71FFA85F908FB170024FA03F391404B
:10042C0007FB09FC0B43190C41EA00418C4504FA0B
:10043C0002F407D9691807F1FF3031D28C452FD956
:10044C00023F2944A1EB0C01B1FBF8F008FB101C96
:10045C0000FB09FE99B241EA0C418E4507D9691897
:10046C0000F1FF3318D28E4516D902382944A1EB7E
:10047C000E0140EA07473AE73746304608E70F4691
:10048C00E6E61846FBE64345ABD2B8EB020169EB56
:10049C000C0201389646A4E71846E8E7084695E7AB
:1004AC000746CFE781467BE702382C4447E7AEF19D
:1004BC00020E2B442FE7384607E73746E8E600BF25
:1004CC00704700BF10B504460E4B18784FF47A7382
:1004DC00B3FBF0F30C4A1068B0FBF3F000F078FBC0
:1004EC0068B90F2C01D901200AE0002221464FF0F7
:1004FC00FF3000F02BFB054B1C60002000E00120BE
:10050C0010BD00BF000000200800002004000020E7
:10051C0008B5074A136843F010031360032000F07A
:10052C0003FB0120FFF7CEFF02F0ECF8002008BD22
:10053C0000200240034A1168034B1B780B441360E4
:10054C00704700BF7C03002000000020014B18689E
:10055C00704700BF7C03002038B50446FFF7F6FF58
:10056C000546B4F1FF3F02D0044B1B781C44FFF747
:10057C00EDFF401BA042FAD338BD00BF00000020A5
:10058C0008B5436A9A6A12F0500F03D01B6A1B6BB2
:10059C00984708BD9A6A42F400729A621A68926887
:1005AC0002F46022B2F5602F03D0184607F048FD24
:1005BC00EFE71A7B002AF8D19A6A22F480729A62C9
:1005CC009A6A12F4805FF0D19A6A42F001029A6240
:1005DC00EBE708B5406A07F093FC08BD704708B517
:1005EC00406A836A43F040038362C36A43F00403A6
:1005FC00C362FFF7F3FF08BD30B482B00023019350
:10060C0090F82430012B00F08B800246012380F8F7
:10061C0024304B68062B29D80568686B03EB8303E1
:10062C00053B1F249C4020EA04000C6804FA03F3E9
:10063C0003436B630B68092B38D91568E86803EB27
:10064C0043031E3B07249C4020EA04008C6804FAF8
:10065C0003F30343EB600B68103B012B34D90020F0
:10066C00002382F8243002B030BC70470C2B0ED81B
:10067C000568286B03EB8303233B1F249C4020EA73
:10068C0004000C6804FA03F303432B63D2E70568F8
:10069C00E86A03EB8303413B1F249C4020EA0400DF
:1006AC000C6804FA03F30343EB62C3E7156828698B
:1006BC0003EB430307249C4020EA04008C6804FAF3
:1006CC0003F303432B61C6E713681648834205D036
:1006DC00936A43F0200393620120C1E7986810F4F9
:1006EC00000F1BD1986840F4000098600B68102B29
:1006FC0001D00020B4E70C4B1B680C49A1FB031381
:10070C009B0C03EB83035900019102E0019B013B1D
:10071C000193019B002BF9D10020A1E700209FE75A
:10072C000220A0E7002401400800002083DE1B43C8
:10073C0030B583B00023019303689A6812F0010F5F
:10074C002ED19A6842F001029A60174B1B68174A27
:10075C00A2FB03239B0C019302E0019B013B019341
:10076C00019B002BF9D10446FFF7F0FE05462368E8
:10077C009B6813F0010F11D1FFF7E8FE401B022814
:10078C00F5D9A36A43F01003A362E36A43F00103B3
:10079C00E362002384F82430012002E0002000E012
:1007AC00002003B030BD00BF0800002083DE1B43D7
:1007BC00F8B50468454DAC425BD0454B9C4258D0D3
:1007CC0090F82440012C7ED016460D460446012399
:1007DC0080F82430FFF7ACFF074600286ED1A36ADF
:1007EC0023F4706323F0010343F48073A362226843
:1007FC00374B9A4244D0A36A23F48013A362536804
:10080C0013F4806F05D0A36A23F4405343F4805350
:10081C00A362A36A13F4805F48D0E36A23F0060353
:10082C00E362002384F82430236A2A4A9A62236AFA
:10083C00294ADA62236A294A1A6323686FF0020292
:10084C001A602268936843F480739360216833467E
:10085C002A464C31206A00F01DFA2268936803F492
:10086C006023B3F5602F24D0936843F48013936016
:10087C0027E0164B5B6813F4702FA1D0012720E002
:10088C00A3F580635B6813F4702FB4D0A36A43F4B0
:10089C008013A3620D4B5B6813F4806FB9D0A36A0D
:1008AC0023F4405343F48053A362B2E70023E36282
:1008BC00B7E7936843F4A003936002E0002384F845
:1008CC0024303846F8BD0227FBE700BF0024014066
:1008DC00002801408D050008DF050008EB05000825
:1008EC0038B503689A6812F0010F01D1002038BDA9
:1008FC0004469A6822F001029A60FFF727FE05462B
:10090C0023689B6813F0010F0ED0FFF71FFE401BEE
:10091C000228F5D9A36A43F01003A362E36A43F0FB
:10092C000103E3620120E2E70020E0E700287FD02A
:10093C0038B50446836A002B33D02046FFF7D0FF2E
:10094C00A36A13F010036DD100286BD1A26A22F4B4
:10095C00885222F0020242F00202A2626268E1694D
:10096C000A43257B42EA4502A168B1F5807F21D07C
:10097C0001291CD0217D01291FD02568696821F42B
:10098C0069410B436B6021688D682A4B2B401343E4
:10099C008B60A368B3F5807F20D0012B1ED0002183
:1009AC001FE0C36280F8243001F0CEFEC5E74FF49F
:1009BC008073DFE74FF48073DCE735B9A169013947
:1009CC0043EA413343F40063D7E7A16A41F02001C5
:1009DC00A162E16A41F00101E162CEE72369013BCA
:1009EC0019052568EB6A23F470030B43EB6223684B
:1009FC009968114B0B409A420BD0A36A23F0120357
:100A0C0043F01003A362E36A43F00103E3620120A5
:100A1C000DE00023E362A36A23F0030343F0010318
:100A2C00A36204E0A36A43F01003A362012038BD63
:100A3C0001207047FDF7E1FFFE0E1FFF70B582B07D
:100A4C000023019390F82430012B68D00446012335
:100A5C0080F82430FFF744FF054628B1002384F8C2
:100A6C002430284602B070BDA36A23F4885323F0C7
:100A7C00020343F00203A3622A4B1E68022000F01B
:100A8C00DDFEB6FBF0F04000019002E0019B013B63
:100A9C000193019B002BF9D12046FFF749FE2268F8
:100AAC00936843F008039360FFF750FD06462368F4
:100ABC009A6812F0080F0FD0FFF748FD801B0A2828
:100ACC00F5D9A36A23F0120343F01003A3620023A9
:100ADC0084F824300125C4E79A6842F004029A6035
:100AEC00FFF734FD064623689B6813F0040F0FD004
:100AFC00FFF72CFD801B0A28F5D9A36A23F01203FB
:100B0C0043F01003A362002384F824300125A8E7E6
:100B1C00A36A23F0030343F00103A3629EE70225BB
:100B2C009FE700BF08000020074AD36823F4E06366
:100B3C001B041B0C000200F4E060184340F0BF6083
:100B4C0040F40030D060704700ED00E030B4174B3B
:100B5C00DB68C3F30223C3F10704042C28BF04246D
:100B6C001D1D062D18D9033B4FF0FF3505FA04F473
:100B7C0021EA0401994005FA03F322EA030319431D
:100B8C0000280BDB0901C9B200F1604000F561409F
:100B9C0080F8001330BC70470023E5E700F00F002D
:100BAC000901C9B2024B1954F4E700BF00ED00E093
:100BBC0014ED00E0002807DB00F01F0240090123C0
:100BCC009340024A42F82030704700BF00E100E039
:100BDC000138B0F1807F0AD2064B5860064AF021EA
:100BEC0082F823100020986007221A6070470120B9
:100BFC00704700BF10E000E000ED00E070B4066C40
:100C0C00C56B0124B4406C60046863604368102BAE
:100C1C0005D0036899600368DA6070BC704703689C
:100C2C009A600368D960F8E760B310B402460168B3
:100C3C00154B0B441548A0FB03031B099B001364C5
:100C4C00134BD363022382F82130086820F47F50C1
:100C5C0020F03000536894682343D468234314690C
:100C6C0023435469234394692343D46923430343A3
:100C7C000B6000209063012382F8213082F8200061
:100C8C0010BC704701207047F8FFFDBFCDCCCCCC19
:100C9C000000024038B590F82040012C32D00124DD
:100CAC0080F8204090F82140012C04D0002380F8DB
:100CBC002030022038BD0446022084F82100002098
:100CCC00A0632568286820F0010028602046FFF703
:100CDC0095FFE36A5BB12268136843F00E0313605F
:100CEC002268136843F0010313600020E2E72268D6
:100CFC00136823F0040313602268136843F00A039B
:100D0C001360EDE70220D5E708B590F82130022BEF
:100D1C0003D004238363012008BD0268136823F009
:100D2C000E0313600268136823F001031360036859
:100D3C00194A934214D0143293421FD01432934266
:100D4C001ED0143293421ED0143293421ED0143251
:100D5C00934202D04FF0807203E04FF4801200E017
:100D6C0001220E4B5A60012380F82130002380F8B9
:100D7C002030436B6BB198470020CDE71022F0E791
:100D8C004FF48072EDE74FF48052EAE74FF4803273
:100D9C00E7E70020C0E700BF080002400000024067
:100DAC0038B5C36B1A6804682568016C04238B4042
:100DBC00134235D015F0040F32D0236813F0200FF6
:100DCC0003D1236823F0040323600368434A93424E
:100DDC0014D01432934218D01432934217D01432D8
:100DEC00934217D01432934217D01432934202D04C
:100DFC004FF0806203E04FF4800200E00422384B95
:100E0C005A60C36A03B1984738BD4022F7E74FF4E4
:100E1C008062F4E74FF48042F1E74FF48022EEE772
:100E2C0002238B4013423CD015F0020F39D02368BB
:100E3C0013F0200F06D1236823F00A03236001234B
:100E4C0080F821300368254A934214D0143293421F
:100E5C001CD0143293421BD0143293421BD0143248
:100E6C0093421BD01432934202D04FF0007203E035
:100E7C004FF4001200E00222194B5A60002380F854
:100E8C002030836A002BBFD09847BDE72022F3E7C0
:100E9C004FF40072F0E74FF40052EDE74FF40032DC
:100EAC00EAE7082303FA01F11142ADD015F0080F5F
:100EBC00AAD0236823F00E032360026CC16B0123BC
:100ECC0003FA02F24A60836380F82130002380F831
:100EDC002030036B002B97D0984795E70800024011
:100EEC0000000240F0B482B000263246A2E0002D91
:100EFC005AD0012D00D1CE68FF2B69D88446FF2B28
:100F0C0069D89500DCF800400F27AF4024EA0704AD
:100F1C0006FA05F52C43CCF800404C6814F0805FC1
:100F2C0000F087805F4CA56945F00105A561A469B7
:100F3C0004F001040194019C9508AF1C5A4C54F820
:100F4C00274002F00307BF004FF00F0C0CFA07FC10
:100F5C0024EA0C0C554CA04243D004F58064A0420A
:100F6C0000F0818004F58064A0427ED004F580649A
:100F7C00A04234D0042435E04D4FBD4214D00BD9DF
:100F8C004C4FBD4210D007F58037BD420CD0A7F5B1
:100F9C008017BD42B0D107E0A7F58017BD4203D042
:100FAC0007F58037BD42A7D18D687DB1012D08D0E2
:100FBC0044610826A0E7CE6808369DE7CE680C365B
:100FCC009AE70461082697E7002695E7042693E73D
:100FDC0000F1040C93E7A2F10805AD0092E703249D
:100FEC0000E00024BC4044EA0C0402352E4F47F8C4
:100FFC0025404C6814F4803F39D02F4D2C681C438D
:10100C002C604C6814F4003F37D02B4D6C681C439B
:10101C006C604C6814F4801F35D0274DAC681C43B1
:10102C00AC604C6814F4001F33D0234DEC682343A0
:10103C00EB6001320B6833FA02F430D00124944097
:10104C0023409C42F5D14D68122DB7D094D8022D77
:10105C00B1D07FF64CAF032DB6D0112D7FF44CAF31
:10106C00CE68043648E70124BCE70224BAE7124DE7
:10107C002C6824EA03042C60C3E70F4D6C6824EA47
:10108C0003046C60C5E70C4DAC6824EA0304AC6047
:10109C00C7E7094DEC6824EA0303EB60C9E702B02B
:1010AC00F0BC7047001002400000014000080140F5
:1010BC0000002110000031100004014012B9090495
:1010CC00016170470161704782B0084B1B68084A88
:1010DC00A2FB03235B0A00FB03F0019000BF019B02
:1010EC005A1E0192002BF9D102B070470800002063
:1010FC00D34D6210002800F0F58170B582B0044623
:10110C00036813F0010F2CD0AB4B5B6803F00C039E
:10111C00042B1DD0A84B5B6803F00C03082B12D0DA
:10112C006368B3F5803F41D0002B55D103F1804368
:10113C0003F504331A6822F480321A601A6822F418
:10114C0080221A6037E09C4B5B6813F4803FE7D039
:10115C00994B1B6813F4003F03D06368002B00F01D
:10116C00C381236813F0020F76D0934B5B6813F0A6
:10117C000C0F5FD0904B5B6803F00C03082B54D022
:10118C002369002B00F08A808C4B01221A60FFF738
:10119C00DDF90546884B1B6813F0020F75D1FFF77C
:1011AC00D5F9401B0228F5D90320A0E1824A136827
:1011BC0043F480331360636843B3FFF7C7F9054604
:1011CC007D4B1B6813F4003FCBD1FFF7BFF9401BDD
:1011DC006428F5D903208AE1B3F5A02F09D0764B0A
:1011EC001A6822F480321A601A6822F480221A607B
:1011FC00E1E703F18043A3F53C331A6842F4802203
:10120C001A601A6842F480321A60D4E7FFF79EF92C
:10121C000546694B1B6813F4003FA2D0FFF796F903
:10122C00401B6428F5D9032061E1634B5B6813F420
:10123C00803FA5D1604B1B6813F0020F04D02369CB
:10124C00012B01D0012052E15B4A136823F0F80313
:10125C00616943EAC1031360236813F0080F32D0AD
:10126C00A369002B5BD0564B01221A60FFF76EF975
:10127C000546514B5B6A13F0020F21D1FFF766F95B
:10128C00401B0228F5D9032031E14B4A136823F0A7
:10129C00F803616943EAC1031360DDE7474B0022A1
:1012AC001A60FFF753F90546434B1B6813F0020F06
:1012BC00D2D0FFF74BF9401B0228F5D9032016E1D9
:1012CC000120FFF701FF236813F0040F00F0988052
:1012DC00394BDB6913F0805F33D1374BDA6942F05D
:1012EC008052DA61DB6903F080530193019B012585
:1012FC00344B1B6813F4807F25D0E368012B36D068
:10130C00002B4CD103F1804303F504331A6A22F00D
:10131C0001021A621A6A22F004021A622CE0284BAB
:10132C0000221A60FFF712F90546234B5B6A13F093
:10133C00020FC8D0FFF70AF9401B0228F5D9032089
:10134C00D5E00025D4E71F4A136843F4807313607B
:10135C00FFF7FCF806461B4B1B6813F4807FCCD1BF
:10136C00FFF7F4F8801B6428F5D90320BFE0124A7C
:10137C00136A43F001031362E3687BB3FFF7E6F8EB
:10138C0006460D4B1B6A13F0020F38D1FFF7DEF83F
:10139C00801B41F288339842F3D90320A7E0052B38
:1013AC0012D0054B1A6A22F001021A621A6A22F054
:1013BC0004021A62E0E700BF001002400000424243
:1013CC0080044242007000404C4B1A6A42F0040206
:1013DC001A621A6A42F001021A62CDE7FFF7B6F8F8
:1013EC000646464B1B6A13F0020F08D0FFF7AEF807
:1013FC00801B41F288339842F3D9032077E0E5B99A
:10140C00E369002B72D03D4A526802F00C02082AA4
:10141C0056D0022B17D03A4B00221A60FFF796F8E1
:10142C000446364B1B6813F0007F47D0FFF78EF84D
:10143C00001B0228F5D9032059E0304AD36923F068
:10144C008053D361DCE72E4B00221A60FFF77EF845
:10145C0005462A4B1B6813F0007F06D0FFF776F881
:10146C00401B0228F5D9032041E0236AB3F5803FE5
:10147C001AD022494B6823F47413226A606A02431F
:10148C0013434B601E4B01221A60FFF75FF80446B2
:10149C001A4B1B6813F0007F0ED1FFF757F8001B97
:1014AC000228F5D9032022E0144A536823F40033B0
:1014BC00A1680B435360DCE7002018E0002016E025
:1014CC00012B16D00D4B5B6803F48031226A9142DC
:1014DC0001D001200BE003F47013626A93420AD02E
:1014EC00012004E001207047012000E0002002B040
:1014FC0070BD0120FBE70020F9E700BF001002409F
:10150C006000424210B487B0164C94E80F000DF105
:10151C00180C0CE90F00238AADF80430124B5B68F1
:10152C0003F00C02082A1AD1C3F38342624412F866
:10153C00102C13F4803F05D10C4800FB02F007B0CF
:10154C0010BC7047084B5B68C3F34043634413F80B
:10155C00143C074800FB02F0B0FBF3F0EFE7044843
:10156C00EDE700BF908800080010024000093D0024
:10157C0000127A00002800F0A38070B50446524B8C
:10158C001B6803F007038B420CD24F4A136823F0FD
:10159C0007030B431360136803F007038B4201D05E
:1015AC00012070BD236813F0020F17D013F0040F45
:1015BC0004D0464A536843F4E0635360236813F045
:1015CC00080F04D0414A536843F4605353603F4AB8
:1015DC00536823F0F003A068034353600D4623685F
:1015EC0013F0010F31D06368012B20D0022B25D0D2
:1015FC00364A126812F0020F64D034494A6822F05D
:10160C00030213434B60FEF7A1FF06462F4B5B68AA
:10161C0003F00C036268B3EB820F16D0FEF796FF53
:10162C00801B41F288339842F0D90320B9E7274A4E
:10163C00126812F4003FE0D10120B2E7234A12688D
:10164C0012F0007FD9D10120ABE71F4B1B6803F0D0
:10165C000703AB420CD91C4A136823F007032B4336
:10166C001360136803F00703AB4201D0012098E725
:10167C00236813F0040F06D0144A536823F4E06374
:10168C00E1680B435360236813F0080F07D00F4A2F
:10169C00536823F46053216943EAC1035360FFF795
:1016AC0031FF0A4B5B68C3F30313094AD35CD84080
:1016BC00084B1860084B1868FEF704FF002070E711
:1016CC000120704701206CE700200240001002400E
:1016DC00E88A00080800002004000020014B18686C
:1016EC00704700BF0800002008B5FFF7F7FF044B58
:1016FC005B68C3F30223034AD35CD84008BD00BF28
:10170C0000100240F88A000808B5FFF7E7FF044B09
:10171C005B68C3F3C223034AD35CD84008BD00BF47
:10172C0000100240F88A000870B582B004460368C5
:10173C0013F0010F34D03E4BDB6913F0805F48D1BE
:10174C003B4BDA6942F08052DA61DB6903F080537B
:10175C000193019B0125374B1B6813F4807F3AD012
:10176C00334B1B6A13F4407311D0626802F440725D
:10177C009A420CD02E4A136A23F440702E4901264B
:10178C000E6000260E60106213F0010F37D1284A4C
:10179C00136A23F4407361680B431362002D3FD12D
:1017AC00236813F0020F06D0214A536823F44043F8
:1017BC00A1680B435360236813F0100F35D01C4AFB
:1017CC00536823F48003E1680B435360002002B09C
:1017DC0070BD0025BFE7174A136843F4807313608C
:1017EC00FEF7B4FE0646134B1B6813F4807FB7D18B
:1017FC00FEF7ACFE801B6428F5D90320E7E7FEF763
:10180C00A5FE06460A4B1B6A13F0020FBFD1FEF76A
:10181C009DFE801B41F288339842F3D90320D6E712
:10182C00D36923F08053D361BAE70020CFE700BF20
:10183C0000100240007000404004424230B587B0B6
:10184C000546384C94E80F000DF1180C0CE90F000C
:10185C00238AADF80430022D50D0102D03D0012D69
:10186C002BD0002054E0304B5A681B6813F0807F5B
:10187C0050D0C2F3834306A90B4413F8100C12F496
:10188C00803F16D0284B5B68C3F340430B4413F8DE
:10189C00142C264BB3FBF2F300FB03F0224B5B68DA
:1018AC0013F4800F34D14000214BA3FB00304008CF
:1018BC002EE0204B03FB00F0F0E71B4B1B6A40F2C1
:1018CC0002321A40B2F5817F26D003F44073B3F58F
:1018DC00007F04D0B3F5407F09D0002018E0124AF5
:1018EC00526A12F0020FF5D049F6404010E00E4B50
:1018FC001B6813F4003F12D1002009E0FFF704FF2E
:10190C00094B5B68C3F3813301335B00B0FBF3F02D
:10191C0007B030BD0020FBE74FF40040F8E74FF272
:10192C002440F5E7A48800080010024000127A0059
:10193C00ABAAAAAA00093D0070B4036A23F0010304
:10194C000362036A4268846924F073040D6845EAF3
:10195C00040623F002048B6823430D4DA84209D0E2
:10196C000B4DA8420DD0426086614A684263036207
:10197C0070BC704723F00803CC68234323F00403A6
:10198C00EEE722F440724C6914438A692243EAE779
:10199C00002C014030B4036A23F480730362036AA1
:1019AC004268C46924F073040D682C4323F400735B
:1019BC008D6843EA05230F4DA84209D00D4DA8426E
:1019CC000ED04260C4614A68C263036230BC704787
:1019DC0023F40063CD6843EA052323F48063EDE729
:1019EC0022F440524D6942EA05128D6942EA051211
:1019FC00E7E700BF002C014030B4036A23F48053A6
:101A0C000362036A4468C26922F4E6420D6842EA42
:101A1C00052223F400538D6843EA0533074DA84291
:101A2C0006D04460C2614A680264036230BC7047ED
:101A3C0024F480444D6944EA8514F2E7002C0140FB
:101A4C0003681B4A90420AD0B0F1804F07D0A2F530
:101A5C009432904203D002F58062904203D123F07D
:101A6C0070034A681343124A90420AD0B0F1804F77
:101A7C0007D0A2F59432904203D002F580629042D6
:101A8C0003D123F44073CA68134323F080034A69DB
:101A9C00134303608B68C3620B688362044B9842E8
:101AAC0002D00123436170470B690363F9E700BF60
:101ABC00002C0140A8B110B5044690F83D305BB144
:101ACC00022384F83D30211D2068FFF7B9FF012364
:101ADC0084F83D30002010BD80F83C3000F084FECE
:101AEC00EEE701207047A8B110B5044690F83D30E0
:101AFC005BB1022384F83D30211D2068FFF7A0FF65
:101B0C00012384F83D30002010BD80F83C3000F0FB
:101B1C007FFEEEE70120704730B4036A23F0100318
:101B2C000362036A4468826922F4E6420D6842EA61
:101B3C00052223F020038D6843EA05130E4DA842BD
:101B4C0009D00D4DA8420ED0446082614A68826370
:101B5C00036230BC704723F08003CD6843EA051361
:101B6C0023F04003EDE724F440644D6944EA850416
:101B7C008D6944EA8504E7E7002C014090F83C307D
:101B8C00012B28D010B50446012380F83C300223E9
:101B9C0080F83D300C2A0BD8DFE802F0070A0A0A5D
:101BAC00110A0A0A150A0A0A19000068FFF7C4FE8E
:101BBC00012384F83D30002084F83C0010BD0068FF
:101BCC00FFF7AAFFF4E70068FFF7E4FEF0E7006810
:101BDC00FFF712FFECE70220704738B590F83C3065
:101BEC00012B66D00D460446012380F83C300223BD
:101BFC0080F83D300C2A1AD8DFE802F007191919C1
:101C0C00201919193419191947000068FFF794FEA7
:101C1C002268936943F0080393612268936923F067
:101C2C00040393612268936929690B43936101232F
:101C3C0084F83D30002084F83C0038BD0068FFF784
:101C4C006BFF2268936943F4006393612268936984
:101C5C0023F48063936122689369296943EA012321
:101C6C009361E4E70068FFF795FE2268D36943F0BF
:101C7C000803D3612268D36923F00403D36122687B
:101C8C00D36929690B43D361D1E70068FFF7B4FE30
:101C9C002268D36943F40063D3612268D36923F4C7
:101CAC008063D3612268D369296943EA0123D36134
:101CBC00BDE70220C1E710B401F01F01012303FAB4
:101CCC0001F4036A23EA04030362036A8A401343A0
:101CDC00036210BC7047000010B504460122006876
:101CEC00FFF7E9FF23680A4A93420BD022689368F6
:101CFC0003F00703062B03D0136843F001031360B2
:101D0C00002010BD5A6C42F400425A64EEE700BF4A
:101D1C00002C014010B5044601220068FFF7CBFFF0
:101D2C0023680A4A93420BD02268936803F0070396
:101D3C00062B03D0136843F001031360002010BD81
:101D4C005A6C42F400425A64EEE700BF002C01408A
:101D5C0090F83C30012B1CD070B4012680F83C600C
:101D6C00022380F83D3002685568936825F07005B1
:101D7C000C682C4323F080054B682B43546002689D
:101D8C00936080F83D60002380F83C30184670BCAE
:101D9C007047022070470268D36823F49073D360B5
:101DAC000268536923F001035361202380F83A3011
:101DBC00704790F83930DBB2212B2AD18368B3F508
:101DCC00805F16D0036A5A1C02621A7803685A6044
:101DDC00C38C013B9BB2C384EBB90268D36823F07C
:101DEC008003D3600268D36843F04003D3600020C3
:101DFC007047036A1B880268C3F3080353600369C6
:101E0C001BB9036A02330362E2E7036A013303621C
:101E1C00DEE70220704700207047000038B504460A
:101E2C000268136923F44053C1680B431361836840
:101E3C000269134342691A430168CB6823F4B05317
:101E4C0023F00C031343CB600268536923F44073F3
:101E5C0081690B4353610268214B9A421FD0FFF7F3
:101E6C0043FC00EB800000EB800063689B00B0FB40
:101E7C00F3F01C4DA5FB00325109642202FB110248
:101E8C0013013233A5FB03235B0903F0F00202EBD1
:101E9C00011203F00F03216813448B6038BDFFF768
:101EAC0033FC00EB800000EB800063689B00B0FB10
:101EBC00F3F00C4DA5FB00325109642202FB110218
:101ECC0013013233A5FB03235B0903F0F00202EB91
:101EDC00011203F00F03216813448B60DEE700BF8F
:101EEC00003801401F85EB512DE9F04105460F46A6
:101EFC0016469846069C2B681B6837EA03030CBFF2
:101F0C0001230023B3421DD1B4F1FF3FF3D02CB118
:101F1C00FEF71CFBA0EB0800A042ECD92A68D368A2
:101F2C0023F4D073D3602A68536923F001035361FF
:101F3C00202385F8393085F83A30002385F838307D
:101F4C00032000E00020BDE8F08158B310B5044632
:101F5C0090F839300BB3242384F839302268D368D5
:101F6C0023F40053D3602046FFF758FF226813690F
:101F7C0023F4904313612268536923F02A035361BD
:101F8C002268D36843F40053D3600020E06320231D
:101F9C0084F8393084F83A3010BD80F8383000F0CD
:101FAC0081FCD8E7012070472DE9F04182B01E4634
:101FBC0090F83930DBB2202B55D104460D469046B3
:101FCC00002955D0002A55D090F83830012B53D029
:101FDC00012380F838300023C363212380F8393083
:101FEC00FEF7B4FA0746A4F82480A4F8268010E083
:101FFC0000963B46002280212046FFF775FF002803
:10200C003CD12B882268C3F3080353602369C3B9FE
:10201C000235E38C9BB2B3B1E38C013B9BB2E384FE
:10202C00A368B3F5805FE3D000963B460022802185
:10203C002046FFF759FF18BB2A7823685A600135F0
:10204C00E7E70135E5E700963B46002240212046B4
:10205C00FFF74AFF0346A8B9202284F83920002252
:10206C0084F8382000E00223184602B0BDE8F08165
:10207C000123F9E70123F7E70223F5E70323F3E74D
:10208C000323F1E70323EFE72DE9F04182B01E466D
:10209C0090F83A30DBB2202B5AD104460D469046CC
:1020AC00002959D0002A59D090F83830012B57D03C
:1020BC00012380F838300023C363222380F83A30A0
:1020CC00FEF744FA0746A4F82C80A4F82E801DE0F5
:1020DC0000963B46002220212046FFF705FF0028F2
:1020EC0040D1236933B923685B68C3F3080325F82F
:1020FC00023B0BE023685B68DBB225F8013B05E093
:10210C0023685B6803F07F032B700135E38D9BB272
:10211C00BBB1E38D013B9BB2E385A368B3F5805F54
:10212C00D6D000963B46002220212046FFF7DCFE4D
:10213C00D0B92369002BE3D123685B682B70013580
:10214C00E4E7202384F83A30002084F8380000E0DB
:10215C00022002B0BDE8F0810120FAE70120F8E787
:10216C000220F6E70320F4E70320F2E7704708B5F6
:10217C000168CB6823F04003CB60202380F8393012
:10218C00FFF7F4FF002008BD704708B590F83A300F
:10219C00DBB2222B45D18368B3F5805F0ED0036987
:1021AC0003BB03685A68836A591C81621A70C38D19
:1021BC00013B9BB2C385F3B1002033E0826A036913
:1021CC0043B903685B68C3F308031380836A023363
:1021DC008362ECE703685B68DBB21380836A0133CC
:1021EC008362E4E703685B68826A511C816203F0D6
:1021FC007F031370DBE70268D36823F02003D360FE
:10220C000268D36823F48073D3600268536923F0A7
:10221C0001035361202380F83A30FFF7B5FF00200B
:10222C0000E0022008BD704710B504460268136830
:10223C00D168526913F00F0005D113F0200F02D0B2
:10224C0011F0200F53D1002867D012F0010202D1F7
:10225C0011F4907F61D013F0010F06D011F4807F40
:10226C0003D0E06B40F00100E06313F0040F04D0E6
:10227C001AB1E06B40F00200E06313F0020F04D0DF
:10228C001AB1E06B40F00400E06313F0080F04D0C7
:10229C001AB1E26B42F00802E263E26B002A48D00A
:1022AC0013F0200F02D011F0200F24D123685B69AA
:1022BC0003F04003E26B12F0080F00D13BB3204651
:1022CC00FFF769FD23685A6912F0400F1BD05A6959
:1022DC0022F040025A61636B8BB11A4A5A63606BED
:1022EC00FEF712FD28B3606B436B984721E0204644
:1022FC00FFF74BFF1DE02046FFF747FFD6E72046D0
:10230C00FFF791FF15E02046FFF78DFF11E0204607
:10231C00FFF789FF0023E3630BE013F0800F02D07B
:10232C0011F0800F06D113F0400F02D011F0400FC6
:10233C0004D110BD2046FFF73CFDFAE72046FFF71D
:10234C0016FFF6E75523000808B5406A0023C3853D
:10235C00C384FFF768FF08BD08B5094805F0BDFF49
:10236C00084805F0BAFF084805F0B7FF074805F024
:10237C00B4FF074805F0B1FF064800F0EFFB08BDBD
:10238C00B88800083C890008A0890008448A000825
:10239C00409100080402002010B582B0684605F098
:1023AC000FFF9DF8000006F005FAC4B20DF1010014
:1023BC0005F0EFFF021E03DB632A02DD632200E05F
:1023CC000022232C08D02146084800F075FB074852
:1023DC0000F0C4FB02B010BD1146044800F040FBF5
:1023EC000028F4D0024A1060F1E700BF040200207C
:1023FC00FC01002070B588B0002404940594069468
:10240C000794214B9A6942F010029A619A6902F082
:10241C0010020092009A9A6942F020029A619A691D
:10242C0002F020020192019A9A6942F008029A6124
:10243C009A6902F008020292029A9A6942F0040226
:10244C009A619B6903F004030393039B0F4D22468F
:10245C004FF400512846FEF731FE4FF4005304931D
:10246C000126059606940223079304A92846FEF735
:10247C0039FD4FF4004304930594069604A92846AD
:10248C00FEF730FD08B070BD001002400010014096
:10249C0000B583B00A4B5A6942F001025A615B697C
:1024AC0003F001030193019B002211460B20FEF760
:1024BC004DFB0B20FEF77EFB03B05DF804FB00BF69
:1024CC000010024070B584B000250195029503956B
:1024DC000C4C0D4B2360A560257325754FF4C02360
:1024EC00E3616560012626612046FEF71FFA08238A
:1024FC0001930296039501A92046FEF77DF804B0DE
:10250C0070BD00BFC00300200024014030B58BB06B
:10251C00002408940994019402940394049405945F
:10252C0006940794104D4FF080432B606C60AC60A8
:10253C001123EB602C61AC612846FFF7BBFA5023EA
:10254C0008938023099308A92846FFF701FC302340
:10255C00019302940394059404220DEB0201284686
:10256C00FFF70CFB0BB030BD7404002008B5084815
:10257C00084B03604FF41653436000238360C36021
:10258C0003610C2242618361C361FFF7DEFC08BD6D
:10259C00F00300200038014030B58BB000240894C3
:1025AC00099401940294039404940594069407945A
:1025BC00144D154B2B606C60AC60FF23EB602C61F1
:1025CC008023AB612846FFF78EFA0894099408A97A
:1025DC002846FFF7BDFB602301937F2302930394EE
:1025EC000594224601A92846FFF7F7FA04220DEBC1
:1025FC0002012846FFF7F1FA284600F01FF90BB04C
:10260C0030BD00BF800300200004004030B595B001
:10261C0000240C940D940F94109405940694079434
:10262C0008940994019402940394049401220A924C
:10263C004FF480330B930E920225119512934FF4A5
:10264C00E01313930AA8FEF755FD0F230593069587
:10265C0007944FF4806308930994294605A8FEF764
:10266C0089FF0195039401A8FFF75EF815B030BD02
:10267C0008B5FDF74DFFFFF7C9FFFFF7BBFEFFF7EE
:10268C0007FFFFF71FFFFFF741FFFFF76FFFFFF794
:10269C0083FF00F011F8002008BD704710B5044608
:1026AC00044B186803689B6821469847204405F042
:1026BC00F3FB10BDFC01002008B504F0B1F90121B9
:1026CC000C4800F0CDF90C4B186005F0D7FB05F069
:1026DC00F1FB0A4805F001FEFFF73EFE4FF47A705D
:1026EC00FDF73AFF064A1378013B1370FFF754FECF
:1026FC00FCE700BF04020020FC010020BC8A00089B
:10270C000C00002082B00E4B9A6942F001029A61D3
:10271C009A6902F001020092009ADA6942F0805242
:10272C00DA61DB6903F080530193019B054A53681E
:10273C0023F0E06343F00073536002B0704700BFB6
:10274C00001002400000014010B586B00023029337
:10275C0003930493059302681F4B9A4201D006B071
:10276C0010BD044603F56C439A6942F400729A61F9
:10277C009A6902F400720092009A9A6942F0080277
:10278C009A619B6903F008030193019B0123029357
:10279C000323039302A91148FEF7A4FB1048114B25
:1027AC0003600023436083608023C3604FF4807315
:1027BC0003614FF480634361202383614FF4005322
:1027CC00C361FEF731FA18B9054B23625C62C6E7A8
:1027DC00FFF763FFF8E700BF00240140000C014045
:1027EC0030040020080002400368B3F1804F00D091
:1027FC00704782B003F50433DA6942F00102DA6102
:10280C00DB6903F001030193019B02B070470000E8
:10281C000268094B9A4200D0704782B003F503332B
:10282C00DA6942F00202DA61DB6903F00203019318
:10283C00019B02B0704700BF0004004000B587B098
:10284C00002302930393049305930268124B9A425C
:10285C0002D007B05DF804FB03F503339A6942F02C
:10286C0008029A619B6903F008030193019B3023D2
:10287C000293022303930323059302A90748FEF74F
:10288C0031FB074A536823F4406343F0E06343F49D
:10289C0000635360DDE700BF00040040000C014002
:1028AC000000014070B586B000230293039304939B
:1028BC00059302681B4B9A4201D006B070BD03F51C
:1028CC0058439A6942F480429A619A6902F48042B0
:1028DC000092009A9A6942F004029A619B6903F093
:1028EC0004030193019B4FF400730293022503959B
:1028FC00032305930C4E02A93046FEF7F3FA4FF46E
:10290C008063029300240394049402A93046FEF7DA
:10291C00E9FA224629462520FEF718F92520FEF76C
:10292C0049F9CAE700380140000801407047FEE74A
:10293C00FEE7FEE7FEE770477047704708B5FDF706
:10294C00F9FD08BD08B50248FEF72AFA08BD00BF1C
:10295C003004002008B50248FFF766FC08BD00BF34
:10296C00F00300200120704708B505F017FD162371
:10297C0003604FF0FF3008BD08B54FF0FF31FFF793
:10298C00F3FFFEE708B503460B4A126842B10A4A48
:10299C00106803446A46934206D8074A136008BD80
:1029AC00054A06491160F2E705F0F8FC0C230360B8
:1029BC004FF0FF30F3E700BF00020020B804002006
:1029CC000F4B1A6842F001021A6059680D4A0A400E
:1029DC005A601A6822F0847222F480321A601A68E3
:1029EC0022F480221A605A6822F4FE025A604FF4D4
:1029FC001F029A60044B4FF000629A60704700BF50
:102A0C00001002400000FFF800ED00E038B504466D
:102A1C0000230360416071B10D4618460BB105F0FF
:102A2C0090FC002323606560084B9D420AD8A800E7
:102A3C0005F089FC20600023A3604FF0FF33E360B6
:102A4C00204638BD4FF0FF30F2E700BFFEFFFF1FFE
:102A5C008268036843F822108368013383607047EF
:102A6C0038B50D1E21DB8368AB4220DD0446114ACC
:102A7C00137801331370C368002B05DB026852F81E
:102A8C0023000368DB689847E560236853F825004A
:102A9C0003689B68984704460368DB6C9847054AB3
:102AAC001378013B1370204638BD0024FBE700244B
:102ABC00F9E700BF0C000020C368002B0DDB10B53C
:102ACC008468A34208DA006800EB830424B150F850
:102ADC00230003685B69984710BD704770B50646C4
:102AEC000024254600E00134B368A3421ADD1648E1
:102AFC0005F0DAFB0A21204605F0DFFB134805F050
:102B0C00D3FB336853F8240003689B69984710483B
:102B1C0005F0CAFB0135032DE5D10E4805F0DDFBB0
:102B2C000025E0E70B4805F0D8FB0B4B83FB052396
:102B3C00A3EBE57303EB43039D4200D170BD054845
:102B4C0005F0CBFBFAE700BF008B0008048B0008F4
:102B5C00088B0008409100085655555510B5044691
:102B6C00FFF7BCFF0D4805F09FFB0A21E06805F05C
:102B7C00A4FB0B4805F098FBE268236853F822008D
:102B8C0003689B699847074805F0A7FBE268236830
:102B9C0053F8220003681B69984710BD008B00088E
:102BAC00048B000840910008704700207047704764
:102BBC000020704770470020704770470020704716
:102BCC007047002070477047002070477047002006
:102BDC007047704700207047436843B110B50446F6
:102BEC001A685268184690470023636010BD7047FE
:102BFC0000BF002070477047002070477047B0F945
:102C0C002400704709B28186C1867047B0F9340040
:102C1C007047B0F92C007047122070470023836175
:102C2C00036543658365C3658367C367C0F88030FC
:102C3C00C0F88430B0F926300385B0F92E30038605
:102C4C00B0F9363003878368013B2BB14268002111
:102C5C0022F81310013BF8E7436800221A80C3687E
:102C6C00DB0343617047000008B54D2922D052297F
:102C7C0002D044290FD008BD027240680368DB689B
:102C8C00C2EB0232134981FB02C11144D217C2EBD1
:102C9C00A1119847EFE7427240680368DB69C2EB09
:102CAC0002320C4981FB02C11144D217C2EBA111B3
:102CBC009847E0E78272406803685B69C2EB0232B6
:102CCC00044981FB02C11144D217C2EBA1119847F0
:102CDC00D1E700BF03B57EA5B0F93800704709B243
:102CEC00A0F84810A0F84A107047B0F94800704797
:102CFC00B0F940007047032070470023C36243665D
:102D0C008366C3660367C0F88C30C0F89030C0F897
:102D1C009430C0F89830C0F8B430C0F8B830C0F86F
:102D2C00BC30C0F8C030B0F93A308387B0F94230CB
:102D3C00A0F84430B0F94A30A0F84C30C369013BDC
:102D4C002BB18269002122F81310013BF8E782694C
:102D5C0000231380026AD203826243610361C36061
:102D6C008360704708B54D2922D0522902D04429DE
:102D7C000FD008BD027240680368DB68C2EB0232F8
:102D8C00134981FB02C11144D217C2EBA111984720
:102D9C00EFE7427240680368DB69C2EB02320C4910
:102DAC0081FB02C11144D217C2EBA1119847E0E795
:102DBC008272406803685B69C2EB0232044981FB92
:102DCC0002C11144D217C2EBA1119847D1E700BF41
:102DDC0003B57EA5B0F960007047B0F9700070477C
:102DEC00B0F968007047B0F97800704709B2A0F8E4
:102DFC008010A0F882107047B0F98000704708204E
:102E0C007047002383644365C0F89C30C0F8A03041
:102E1C00C0F8A430C0F8A830C0F8C430C0F8C8302E
:102E2C00C0F8CC30C0F8D030C0F8EC30C0F8F0307E
:102E3C00C0F8F430C0F8F830B0F96230A0F8643063
:102E4C00B0F96A30A0F86C30B0F97230A0F8743078
:102E5C00B0F97A30A0F87C30B0F98230A0F8843028
:102E6C00436A013B2BB1026A002122F81310013B8B
:102E7C00F8E7036A00221A80836B013B2BB1426B8B
:102E8C00002122F81310013BF8E7426B002313805A
:102E9C0043610361C3608360C36183617047000059
:102EAC0008B54139112918D8DFE801F02717171890
:102EBC003617171717171717451717171709027211
:102ECC0040680368DB68C2EB0232224981FB02C115
:102EDC001144D217C2EBA111984708BD4272406849
:102EEC0003685B69C2EB02321A4981FB02C11144CF
:102EFC00D217C2EBA1119847EFE7827240680368C2
:102F0C00DB69C2EB0232134981FB02C11144D217B7
:102F1C00C2EBA1119847E0E7C272406803685B6A94
:102F2C00C2EB02320B4981FB02C11144D217C2EB36
:102F3C00A1119847D1E7027340680368DB6AC2EBC2
:102F4C000232044981FB02C11144D217C2EBA11118
:102F5C009847C2E703B57EA5B0F94800704709B29F
:102F6C00A0F85810A0F85A107047B0F958007047E4
:102F7C00B0F950007047132070470023C363C36738
:102F8C00C0F88030C0F88430C0F88830C0F8A43065
:102F9C00C0F8A830C0F8AC30C0F8B030C0F8CC30B5
:102FAC00C0F8D030C0F8D430C0F8D830B0F94A30BE
:102FBC00A0F84C30B0F95230A0F85430B0F95A3077
:102FCC00A0F85C30C36A013B2BB1826A002122F865
:102FDC001310013BF8E7826A0023138043610361FD
:102FEC00C360836043620362C36183617047000006
:102FFC0008B54D2922D0522902D044290FD008BD42
:10300C00027240680368DB68C2EB0232134981FB31
:10301C0002C11144D217C2EBA1119847EFE74272DB
:10302C0040680368DB69C2EB02320C4981FB02C1C8
:10303C001144D217C2EBA1119847E0E782724068A5
:10304C0003685B69C2EB0232044981FB02C1114483
:10305C00D217C2EBA1119847D1E700BF03B57EA5EB
:10306C00B0F924007047B0F934007047B0F92C0067
:10307C00704709B28187C1877047B0F93C0070472F
:10308C0009B2A0F84410A0F846107047B0F94400FB
:10309C00704714207047B0F926300385B0F93630EC
:1030AC000387B0F92E300386B0F93E30A0F84030DB
:1030BC00B0F94630A0F848308368013B2BB1426828
:1030CC00002122F81310013BF8E74268002313801B
:1030DC008361036643668366C366704708B54439EB
:1030EC00102918D8DFE801F018173617171717171B
:1030FC00174517171717091727000272406803683E
:10310C00DB68C2EB0232224981FB02C11144D217A7
:10311C00C2EBA111984708BD427240680368DB6995
:10312C00C2EB02321A4981FB02C11144D217C2EB25
:10313C00A1119847EFE7C272406803685B69C2EB64
:10314C000232134981FB02C11144D217C2EBA11107
:10315C009847E0E70273406803685B6AC2EB02328F
:10316C000B4981FB02C11144D217C2EBA111984744
:10317C00D1E7827240680368DB6AC2EB0232044911
:10318C0081FB02C11144D217C2EBA1119847C2E7CF
:10319C0003B57EA5B0F940007047B0F950007047F8
:1031AC00B0F948007047B0F95800704709B2A0F860
:1031BC006010A0F862107047B0F9600070470420EE
:1031CC007047B0F94230A0F84430B0F95230A0F852
:1031DC005430B0F94A30A0F84C30B0F95A30A0F85D
:1031EC005C30B0F96230A0F86430436A013B2BB11B
:1031FC00026A002122F81310013BF8E7026A00234F
:10320C0013804363C367C0F88030C0F88430C0F8C3
:10321C008830C0F8A430C0F8A830C0F8AC30C0F882
:10322C00B030C0F8CC30C0F8D030C0F8D430C0F8D2
:10323C00D83043610361C36083608361C3617047AD
:10324C0008B54439102918D8DFE801F018173617DB
:10325C001717171717451717171709172700027293
:10326C0040680368DB68C2EB0232224981FB02C171
:10327C001144D217C2EBA111984708BD42724068A5
:10328C000368DB69C2EB02321A4981FB02C11144AB
:10329C00D217C2EBA1119847EFE7C27240680368DE
:1032AC005B69C2EB0232134981FB02C11144D21794
:1032BC00C2EBA1119847E0E70273406803685B6AB0
:1032CC00C2EB02320B4981FB02C11144D217C2EB93
:1032DC00A1119847D1E7827240680368DB6AC2EBA0
:1032EC000232044981FB02C11144D217C2EBA11175
:1032FC009847C2E703B57EA5B0F94800704709B2FC
:10330C00A0F86010A0F862107047B0F96000704728
:10331C00B0F95000704709B2A0F85810A0F85A1034
:10332C007047B0F95800704780F8C410704790F897
:10333C00C4007047052070477047000008B541393C
:10334C00112918D8DFE801F03617171817271717A7
:10335C0017171717441717171709027240680368D5
:10336C00DB68C2EB0232224981FB02C11144D21745
:10337C00C2EBA111984708BD427240680368DB6933
:10338C00C2EB02321A4981FB02C11144D217C2EBC3
:10339C00A1119847EFE78272406803685B6AC2EB41
:1033AC000232134981FB02C11144D217C2EBA111A5
:1033BC009847E0E7022A04D0042A02D0062A00D05B
:1033CC000622027340680368DB6A11469847D2E70D
:1033DC00C272406803685B69C2EB0232044981FB2C
:1033EC0002C11144D217C2EBA1119847C3E700BF29
:1033FC0003B57EA509B28180C1807047B0F9040085
:10340C007047000008B5B0F90C10C900A1F5B34124
:10341C001A3942F2D7320023C8034914FCF798FE3C
:10342C00C0EB0030034B83FB00230344C017C0EBFD
:10343C00A33008BD030001800B20704710B4B0F915
:10344C0006300381B0F90E30038200F536530022AA
:10345C001A655A659A65DA6500F537539A63DA632B
:10346C001A645A6400F538531A625A629A62DA6224
:10347C0000E00132072A11DC0021C2EBC204A300D8
:10348C0003441B6B8B42F4DDC2EBC204A300034468
:10349C00DB6A002423F811400131EEE7002212E030
:1034AC0002EB4204A3000344D3F8FC30002423F8BD
:1034BC001140013102EB4204A3000344D3F8003164
:1034CC008B42EDDC0132032A01DC0021F2E7002300
:1034DC0042F65862835042F65462835042F6506270
:1034EC00835042F64C62835042F64862835000F59A
:1034FC00385043640364C363836310BC704700009B
:10350C0008B54D2910D052290DD1027240680368BC
:10351C00DB69C2EB02320C4981FB02C11144D217A8
:10352C00C2EBA111984708BD427240680368DB6882
:10353C00C2EB0232044981FB02C11144D217C2EB27
:10354C00A1119847EFE700BF03B57EA5C1EBC121E0
:10355C004B00064A82FB03121A44DB17C3EBE2232F
:10356C0001331BB28381C381704700BF8100088087
:10357C00B0F90C007047000040F6F57303FB01F145
:10358C00054B83FB01230B44C917C1EBE3210A3123
:10359C0009B28180C180704781000880B0F90400B5
:1035AC00704780F82C10704790F82C007047092059
:1035BC007047B0F906300381B0F90E300382002356
:1035CC00436143627047000008B54D2922D052294F
:1035DC0002D044290FD008BD028140680368DB6823
:1035EC00C2EB0232114981FB02C11144D217C2EB6A
:1035FC00A1119847EFE7428140680368DB69C2EB91
:10360C0002320A4981FB02C11144D217C2EBA1114B
:10361C009847E0E7531E012B05D940680368DB6A25
:10362C0011469847D7E78281F7E700BF03B57EA51F
:10363C00C1EBC1214B00064A82FB03121A44DB1773
:10364C00C3EBE22301331BB28380C380704700BFFE
:10365C0081000880B0F9040070470A207047B0F967
:10366C00063003810023C36070470000462900D058
:10367C00704708B5028140680368DB68C2EB023210
:10368C00044981FB02C11144D217C2EBA111984726
:10369C0008BD00BF03B57EA57047704770477047E3
:1036AC007047704770477047704770477047704756
:1036BC00704770477047704708B5024804F0F4FD36
:1036CC0008BD00BF8C90000808B5024804F0ECFD62
:1036DC0008BD00BFB891000808B5024804F0E4FD2D
:1036EC0008BD00BFA090000808B5024804F0DCFD3E
:1036FC0008BD00BF5092000808B5024804F0D4FD84
:10370C0008BD00BF9C92000808B5024804F0CCFD2F
:10371C0008BD00BFEC91000808B5024804F0C4FDD8
:10372C0008BD00BF6C91000808B5024804F0BCFD50
:10373C0008BD00BFB090000808B5024804F0B4FD05
:10374C0008BD00BF4491000808B5024804F0ACFD68
:10375C0008BD00BF8091000808B5024804F0A4FD24
:10376C0008BD00BFAC92000808B5024804F0B5FDD6
:10377C0008BD00BF9490000810B50446042004F066
:10378C00E6FD024A0260606010BD00BF148B0008A9
:10379C0010B50446182004F0DAFD0D490160002232
:1037AC000281C26002610B4A426132228280C28075
:1037BC006060B4F90830CA68C3EB0333064981FB77
:1037CC0003C11944DB17C3EBA1119047606810BD0E
:1037DC0014900008E494000803B57EA538B504469F
:1037EC00302004F0B4FD194901600022426182616D
:1037FC00174DC561026242628262012280F82C2060
:10380C0032228280C2808281C28102810282606007
:10381C00B4F90830CA68C3EB03330E4D85FB03C102
:10382C001944DB17C3EBA1119047B4F90A30606857
:10383C000268D269C3EB033385FB03511944DB17D0
:10384C00C3EBA1119047606838BD00BF948F00088E
:10385C00E494000803B57EA510B50446042104F0D9
:10386C0074FD204610BD10B50446C82104F06DFD52
:10387C00204610BD10B5044642F65C6104F065FDAF
:10388C00204610BD10B50446302104F05EFD2046E4
:10389C0010BD10B50446182104F057FD204610BD8C
:1038AC0010B50446082104F050FD204610BD10B59B
:1038BC0004460C2104F049FD204610BD10B5044609
:1038CC000C2104F042FD204610BD10B50446102119
:1038DC0004F03BFD204610BD10B504460C2104F04D
:1038EC0034FD204610BD10B50446102104F02DFD0A
:1038FC00204610BD10B50446102104F026FD2046CC
:10390C0010BD10B50446102104F01FFD204610BD5B
:10391C0010B504460C2104F018FD204610BD10B55E
:10392C000446102104F011FD204610BD10B50446CC
:10393C000C2104F00AFD204610BD000010B5044611
:10394C000C4804F0B1FC0A2194F9080004F0CCFCFA
:10395C00094804F0A9FC0A2194F9090004F0C4FCFC
:10396C00064804F0A1FC0A2194F90A0004F0BCFCFE
:10397C0010BD00BFC8910008D4910008E091000868
:10398C0010B504460C4804F08FFC0A2194F9080089
:10399C0004F0AAFC094804F087FC0A2194F90900F8
:1039AC0004F0A2FC064804F07FFC0A2194F90A00FA
:1039BC0004F09AFC10BD00BFC8910008D491000817
:1039CC00E091000810B50446144804F06DFC0A217F
:1039DC0094F9080004F088FC114804F065FC0A21F5
:1039EC0094F9090004F080FC0E4804F05DFC0A21F7
:1039FC0094F90A0004F078FC0B4804F055FC0A21F9
:103A0C0094F90B0004F070FC084804F04DFC0A21FA
:103A1C0094F90C0004F068FC10BD00BF5C92000827
:103A2C006C9200087C9200088C920008E0910008CF
:103A3C0010B504460C4804F037FC0A2194F9080030
:103A4C0004F052FC094804F02FFC0A2194F90900F7
:103A5C0004F04AFC064804F027FC0A2194F90A00F9
:103A6C0004F042FC10BD00BFC8910008D4910008BE
:103A7C00E091000810B50446144804F015FC0A2126
:103A8C0094F9080004F030FC114804F00DFC0A21F4
:103A9C0094F9090004F028FC0E4804F005FC0A21F6
:103AAC0094F90B0004F020FC0B4804F0FDFB0A21F8
:103ABC0094F90C0004F018FC084804F0F5FB0A21FA
:103ACC0094F90A0004F010FC10BD00BF009200082D
:103ADC0010920008209200083092000840920008D2
:103AEC0010B50446144804F0DFFB0A2194F90800D1
:103AFC0004F0FAFB114804F0D7FB0A2194F90900F1
:103B0C0004F0F2FB0E4804F0CFFB0A2194F90B00F1
:103B1C0004F0EAFB0B4804F0C7FB0A2194F90C00F3
:103B2C0004F0E2FB084804F0BFFB0A2194F90A00F8
:103B3C0004F0DAFB10BD00BF0092000810920008E0
:103B4C0020920008309200084092000810B50446FC
:103B5C00144804F0A9FB0A2194F9080004F0C4FBF2
:103B6C00114804F0A1FB0A2194F9090004F0BCFBF4
:103B7C000E4804F099FB0A2194F90A0004F0B4FBF6
:103B8C000B4804F091FB0A2194F90C0004F0ACFBF7
:103B9C00084804F089FB0A2194F90B0004F0A4FBFB
:103BAC0010BD00BFB8900008D4900008F090000839
:103BBC000C9100082891000810B50446084804F040
:103BCC0073FB0A2194F9080004F08EFB054804F0FD
:103BDC006BFB0A2194F9090004F086FB10BD00BFB1
:103BEC004C9100085C91000810B504460C4804F098
:103BFC005BFB0A21B4F9080004F076FB094804F0D9
:103C0C0053FB0A21B4F90A0004F06EFB064804F0D9
:103C1C004BFB0A21B4F90C0004F066FB10BD00BF8D
:103C2C008891000898910008A891000810B50446E6
:103C3C00044804F039FB0A21B4F9080004F054FBE1
:103C4C0010BD00BFBC92000870B504460D46B0F91B
:103C5C001030B0F90E20934201DA01330382B4F92B
:103C6C0010309A4201DA013B2382B4F9102040F65D
:103C7C00E47303FB02F3554A82FB03121A44DB176D
:103C8C00C3EBE2231B3394F82C20012A21D0022A07
:103C9C002BD0012A36D0022A67D005F30F05B4F9D0
:103CAC000830B4F90620934201DA01332381B4F9C8
:103CBC0008309A4201DA013B2381B4F9083003FB46
:103CCC0005F3424880FB03201844DB17C3EBE020CC
:103CDC0070BD3F4901FB03F13E4880FB0160084485
:103CEC00C917C1EB20212162D1E74DF2B61101FBBE
:103CFC0003F3384981FB03011944DB17C3EB212380
:103D0C00A361C6E704F12002516893685BB1012BF3
:103D1C0014D000291FDBCB1305FB03F5002D1FDB93
:103D2C00ED136D42B9E7236A5068034453602A4887
:103D3C008342EEDD506001239360EAE7206A53680A
:103D4C001B1A5360B3F1404FE3DA4FF0404353601A
:103D5C0000239360DDE701F5FF437F33DB13DBE7E3
:103D6C0005F5FF457F35ED13DBE704F114066069BB
:103D7C0000281CDBC013B16880B204F067FA6369D9
:103D8C00726813446361002B16DB00EB8000034662
:103D9C00B0F5004F01DD4FF4004313F5004F00DA8E
:103DAC000E4B05FB03F5002D0BDBED1375E700F552
:103DBC00FF407F30C013DEE723F000430133636123
:103DCC00E3E705F5FF457F35ED1366E781000880D5
:103DDC006AA30100F1000FF00080FF3F0080FFFF9D
:103DEC0010B50446034B0360406808B104F0A9FA0F
:103DFC00204610BD948B000810B50446054B03609B
:103E0C00406808B104F09DFA8C21204604F09DFA1C
:103E1C00204610BD948B000810B50446034B03607C
:103E2C00806908B104F08DFA204610BD148C00088E
:103E3C0010B50446054B0360806908B104F081FAA3
:103E4C00C821204604F081FA204610BD148C0008CD
:103E5C0010B50446054B0360406B08B104F071FAD1
:103E6C00206A08B104F06DFA204610BD948C00084D
:103E7C0010B50446034B0360806A08B104F061FA84
:103E8C00204610BD148D000810B50446054B036088
:103E9C00806A08B104F055FAE021204604F055FA86
:103EAC00204610BD148D000810B50446034B03606A
:103EBC00406808B104F045FA204610BD948D000806
:103ECC0010B50446054B0360406808B104F039FA9C
:103EDC007421204604F039FA204610BD948D000858
:103EEC0010B50446034B0360006A08B104F029FACC
:103EFC00204610BD148E000810B50446054B036017
:103F0C00006A08B104F01DFAE021204604F01DFA05
:103F1C00204610BD148E0008F8B504460D46012845
:103F2C0005D01CB94FF6FF739D426ED0F8BD4FF60D
:103F3C00FF739942F5D10B213748FEF767FD374BDC
:103F4C0000225A6036491960364B5A60364919605E
:103F5C001E211972597246209872344B5A60344E95
:103F6C001E60197259729872324B5A60324919603C
:103F7C003C271F7214265E724FF0280C83F80AC07F
:103F8C00DE7218732D494A602D4B0B6081F808C006
:103F9C0032234B728B722B494A60DFF8D0C0C1F8C8
:103FAC0000C00B724B728B724FF00A0C81F80BC075
:103FBC00087325494A60DFF8B8E0C1F800E00B72DD
:103FCC004B728B7281F80BC0087320494A602048F1
:103FDC0008600B724B728E726320C87206200873D5
:103FEC001C494A601C480860502008724F721B49DB
:103FFC004A601B4E0E600B81488101208881194953
:10400C004A60194A0A600B818BE7034B1868002839
:10401C008CD004F096F989E7040200205C020020A1
:10402C00708B000820020020F08B00081402002086
:10403C00708C00082C020020F08C00088C020020F0
:10404C00708D00084C0200203C020020640200200D
:10405C00F08E000874020020708F00089802002077
:10406C00F08F00088002002070900008F08D00088E
:10407C00708E000810B50446084B0360406B08B105
:10408C0004F05FF9206A08B104F05BF94FF4807119
:10409C00204604F05AF9204610BD00BF948C00084D
:1040AC0070B504460D46B0F90830B0F906209342BD
:1040BC0001DA01330381B4F908309A4201DA013B89
:1040CC002381B4F90830C3EBC31203EB42131B4A30
:1040DC0082FB03121A44DB17C3EBE2231E334DF2AF
:1040EC00B61202FB03F35B10236104F10C06E068CB
:1040FC00002813DBC013B16880B204F0A7F8E368A2
:10410C0072681344E360002B0DDB05FB00F0002804
:10411C000EDBC01300F30F00401B70BD00F5FF4019
:10412C007F30C013E7E723F000430133E360ECE793
:10413C0000F5FF407F30C013ECE700BF8100088022
:10414C002DE9F04F83B0054600F1D804061D00F1AF
:10415C00880301F30F0CD0F8B020D0F8B4004FEA6C
:10416C00E07BD5F8C4E04FEAEE7900FB09F80EFBD2
:10417C000B88A0FB0E9AC2444FEAD93040EA4A4061
:10418C0002FB0C02D5F8B8004FEAE07BD5F8C8105A
:10419C004FEAE17900FB09F801FB0B88A0FB019ABF
:1041AC00C2444FEAD93040EA4A401118D5F8BC0055
:1041BC004FEAE07BD5F8CC204FEAE27900FB09F816
:1041CC0002FB0B88A0FB029AC2444FEAD93040EAAA
:1041DC004A4001440191D5F8C0004FEAE07BD5F884
:1041EC00D0104FEAE17900FB09F801FB0B88A0FB2A
:1041FC00019AC2444FEAD93040EA4A400199084436
:10420C00C5F8D400C5F8C8E04FEACC31C5F8C410E5
:10421C00C5F8D0204242C5F8CC200028C0F2C58099
:10422C0000F5804C4FEAEC3C0CF30F0CD5F88820D1
:10423C0058684FEAE07B5F694FEAE77900FB09FEBB
:10424C0007FB0BEEA0FB070171444FEAD03E4EEA90
:10425C00414E02FB0CEE98684FEAE07B99694FEAFD
:10426C00E17900FB09F201FB0B22A0FB01011144D7
:10427C00C20B42EA41429644D8684FEAE07BDA69C5
:10428C004FEAE27900FB09F802FB0B88A0FB029ACB
:10429C00C2444FEAD93040EA4A40864418694FEA92
:1042AC00E07B196A4FEAE17900FB09F801FB0B8806
:1042BC00A0FB019AC2444FEAD93040EA4A400EEBC7
:1042CC00000159629F614FEACC3058611A624A4230
:1042DC00DA61002970DB01F58041CF13D6F8089024
:1042EC00B9F1000F6DD0B9F1010F00F02D8171689B
:1042FC0001F30F01D5F8D80062684FEAE27B6569DB
:10430C004FEAE57902FB09F605FB0B66A2FB057883
:10431C00B044FA0B42EA484200FB0120A2684FEA83
:10432C00E27BA3694FEAE37902FB09F603FB0B6618
:10433C00A2FB0378B044FA0B42EA48421044E2680C
:10434C004FEAE279D4F81CC06646F71702FB07F671
:10435C000CFB0966A2FB0C78B044FA0B42EA48420B
:10436C001044D4F810E07246D317D4F82080464697
:10437C00F7170EFB07F608FB0366AEFB0878B04494
:10438C00FA0B42EA484210446062A561C9036161BC
:10439C00C4F820C04342E3610028C0F2B68100F5A6
:1043AC008040C01303B0BDE8F08F00F57F5C0CF1CA
:1043BC003F0C4FEAEC3C37E701F57F513F31CF130F
:1043CC008CE7D5F80480F268C8F81820B8F9643086
:1043DC00B8F962108B4202DA0133A8F86430B8F9EC
:1043EC006430994202DA013BA8F86430B8F96410E1
:1043FC0040F6D67303FB01F3C64981FB0301194454
:10440C00DB17C3EBE1232933C34901FB03F3A1F110
:10441C00BF41A1F58B01A1F6E44181FB03011944D5
:10442C00DB17C3EB2123C8F84C3008F1200A12B279
:10443C0002F30F02D8F82C10D8F8203023F81120F2
:10444C00D8F82C300133C8F82C30D8F824209342FB
:10445C005FD008F1480BD8F8480000285DDBC0138A
:10446C00DBF8081080B203F0F1FED8F84830DBF826
:10447C0004201344C8F84830002B53DBB8F97430CF
:10448C00B8F97220934202DA0133A8F87430B8F903
:10449C0074309A4202DA013BA8F87430B8F97420EF
:1044AC00C82303FB02F39B4A82FB03121A44DB175B
:1044BC00C3EBE22300FB03F000F51600C0F30E0380
:1044CC00C3F5FF427F32DAF80C10A1EBE030014665
:1044DC0000282DDB481CDAF804C0604500D081466A
:1044EC00D8F8200030F9111003FB01F3002B23DB6B
:1044FC00DB1330F9191002FB01F2002A20DB03EB6D
:10450C00E2331BB2C8F81C303761B3680133B360B7
:10451C00EDE60023C8F82C309BE700F5FF407F3018
:10452C00C0139DE723F000430133C8F84830A5E7DA
:10453C00DAF804100144CDE703F5FF437F33D7E7E6
:10454C0002F5FF427F32DAE7D5F80480B8F96C3017
:10455C00B8F96A20934202DA0133A8F86C30B8F942
:10456C006C309A4202DA013BA8F86C30B8F96C2036
:10457C0040F6D67303FB02F3664A82FB03121A441D
:10458C00DB17C3EBE2232933634A02FB03F3A2F1EB
:10459C00BF42A2F58B02A2F6E44282FB03121A443C
:1045AC00DB17C3EB2223C8F8583008F13409B8F9EB
:1045BC001C3003F30F03D8F84010D8F8342022F83D
:1045CC001130D8F840300133C8F84030D8F83820D2
:1045DC0093427DD008F1540AD8F8540000287BDBB4
:1045EC00C013DAF8081080B203F030FED8F854305B
:1045FC00DAF804201344C8F85430002B71DBB8F9F6
:10460C007C30B8F97A20934202DA0133A8F87C3076
:10461C00B8F97C309A4202DA013BA8F87C30B8F940
:10462C007C20C82303FB02F33A4A82FB03121A4490
:10463C00DB17C3EBE22300FB03F000F51600C0F31D
:10464C000E03C3F5FF427F32D9F80C10A1EBE0301A
:10465C00014600284BDB481CD9F804C060454AD001
:10466C00D8F834C03CF9111003FB01F3002B44DBE8
:10467C00DB133CF9101002FB01F2002A41DB03EBC7
:10468C00E2331BB2B8F98420B8F982108A4202DAFC
:10469C000132A8F88420B8F98420914202DA013A58
:1046AC00A8F88420B8F9842002FB03F3194A82FB92
:1046BC0003121A44DB17C3EBE223736031693944EC
:1046CC00316101EBD1714910F1600023B3600EE64A
:1046DC000023C8F840307DE700F5FF407F30C01361
:1046EC007FE723F000430133C8F8543087E7D9F84B
:1046FC0004100144AFE70020B2E703F5FF437F331A
:10470C00B6E702F5FF427F32B9E700F57F503F3044
:10471C00C01347E6810008806DA301002DE9F04F1E
:10472C0083B0054600F1B804061D00F1900301F3B7
:10473C000F0C826EC06E4FEAE07BD5F87CE04FEA3E
:10474C00EE7900FB09F80EFB0B88A0FB0E9AC24415
:10475C004FEAD93040EA4A4002FB0C02286F4FEA7C
:10476C00E07BD5F880104FEAE17900FB09F801FBFA
:10477C000B88A0FB019AC2444FEAD93040EA4A4068
:10478C001118686F4FEAE07BD5F884204FEAE27984
:10479C0000FB09F802FB0B88A0FB029AC2444FEA0B
:1047AC00D93040EA4A4001440191A86F4FEAE07BBE
:1047BC00D5F888104FEAE17900FB09F801FB0B886A
:1047CC00A0FB019AC2444FEAD93040EA4A40019911
:1047DC000844C5F88C00C5F880E04FEACC31E96795
:1047EC00C5F888204242C5F884200028C0F2C58054
:1047FC0000F5804C4FEAEC3C0CF30F0CD5F89020F4
:10480C0058684FEAE07B5F694FEAE77900FB09FEE5
:10481C0007FB0BEEA0FB070171444FEAD03E4EEABA
:10482C00414E02FB0CEE98684FEAE07B99694FEA27
:10483C00E17900FB09F201FB0B22A0FB0101114401
:10484C00C20B42EA41429644D8684FEAE07BDA69EF
:10485C004FEAE27900FB09F802FB0B88A0FB029AF5
:10486C00C2444FEAD93040EA4A40864418694FEABC
:10487C00E07B196A4FEAE17900FB09F801FB0B8830
:10488C00A0FB019AC2444FEAD93040EA4A400EEBF1
:10489C00000159629F614FEACC3058611A624A425A
:1048AC00DA61002970DB01F58041CF13D6F808904E
:1048BC00B9F1000F6DD0B9F1010F00F08B81716867
:1048CC0001F30F01D5F8B80062684FEAE27B656925
:1048DC004FEAE57902FB09F605FB0B66A2FB0578AE
:1048EC00B044FA0B42EA484200FB0120A2684FEAAE
:1048FC00E27BA3694FEAE37902FB09F603FB0B6643
:10490C00A2FB0378B044FA0B42EA48421044E26836
:10491C004FEAE279D4F81CC06646F71702FB07F69B
:10492C000CFB0966A2FB0C78B044FA0B42EA484235
:10493C001044D4F810E07246D317D4F820804646C1
:10494C00F7170EFB07F608FB0366AEFB0878B044BE
:10495C00FA0B42EA484210446062A561C9036161E6
:10496C00C4F820C04342E3610028C0F2228200F563
:10497C008040C01303B0BDE8F08F00F57F5C0CF1F4
:10498C003F0C4FEAEC3C37E701F57F513F31CF1339
:10499C008CE7D5F80480F268C8F81820B8F94C30C8
:1049AC00B8F94A108B4202DA0133A8F84C30B8F946
:1049BC004C30994202DA013BA8F84C30B8F94C1053
:1049CC0040F6D67303FB01F3DE4981FB0301194466
:1049DC00DB17C3EBE1232933DB4901FB03F3DB4991
:1049EC0081FB03011944DB17C3EBA123C8F840304A
:1049FC0008F1280A12B202F30F02D8F83410D8F8D2
:104A0C00283023F81120D8F834300133C8F834306A
:104A1C00D8F82C20934200F0AA80B8F95430B8F999
:104A2C005220934202DA0133A8F85430B8F95430CA
:104A3C009A4202DA013BA8F85430B8F95420C82342
:104A4C0003FB02F3BF4A82FB03121A44DB17C3EBCE
:104A5C00E223C8F820304FF4AA73C8F8243008F1C8
:104A6C003C0BD8F83C000028C0F28580C013DBF862
:104A7C00081080B203F0EAFBD8F83C30DBF80420D5
:104A8C001344C8F83C30002B7ADBD8F82010D8F847
:104A9C002430DB0301FB0031C1F30E03C3F5FF42ED
:104AAC007F32DAF80C00A0EBE130844600286DDB95
:104ABC000CF10101DAF8040081426CD0D8F828001E
:104ACC0030F91CC003FB0CF3002B66DBDB1330F955
:104ADC00111002FB01F2002A63DB03EBE2331BB281
:104AEC00C8F81C30D8F83C30994A10680344184672
:104AFC00002B5ADB00285CDBC013DBF8081080B2FB
:104B0C0003F0A4FBD8F82030D8F82420D20303FB00
:104B1C000020C0F30E03C3F5FF427F32DAF80C100D
:104B2C00A1EBE0300146002848DB481CDAF804C051
:104B3C00604500D08146D8F8280030F9111003FBED
:104B4C0001F3002B3EDBDB1330F9191002FB01F2F1
:104B5C00002A3BDB03EBE2331BB2D8F81C201344D6
:104B6C00C8F81C303761B3680133B360A7E6002383
:104B7C00C8F8343051E700F5FF407F30C01376E7BA
:104B8C0023F000430133C8F83C307EE7DAF8041018
:104B9C0000EB010C8CE7494690E703F5FF437F33AC
:104BAC0094E702F5FF427F3297E723F00040013093
:104BBC00A0E700F5FF407F30C0139EE7DAF8041041
:104BCC000144B2E703F5FF437F33BCE702F5FF4234
:104BDC007F32BFE7D5F8048008F1280908F13C0AB8
:104BEC00D8F83C305B4A106803441846002BC0F2DE
:104BFC00A4800028C0F2B280C013DAF8081080B28A
:104C0C0003F024FBD8F82030D8F82420D20303FB7F
:104C1C000020C0F30E03C3F5FF427F32D9F80C100D
:104C2C00A1EBE03001460028C0F29D8001F1010C9F
:104C3C00D9F80400844500F09A80D8F8280030F99F
:104C4C00111003FB01F3002BC0F29480DB1330F93D
:104C5C001C1002FB01F2002AC0F2908003EBE2333D
:104C6C001BB2D8F81C201344C8F81C30D8F83C30C0
:104C7C00394A106803441846002BC0F28380002880
:104C8C00C0F28480C013DAF8081080B203F0DEFAA8
:104C9C00D8F82030D8F82420D20303FB0020C0F32E
:104CAC000E03C3F5FF427F32D9F80C10A1EBE030B4
:104CBC00014600286FDB481CD9F804C060456ED053
:104CCC00D8F828C03CF9111003FB01F3002B68DB6A
:104CDC00DB133CF9101002FB01F2002A65DB03EB3D
:104CEC00E2331BB2D8F81C201344C8F81C30B8F9B6
:104CFC005C20B8F95A108A4202DA0132A8F85C201A
:104D0C00B8F95C20914202DA013AA8F85C20B8F9B3
:104D1C005C2002FB03F30B4A82FB03121A44DB17E1
:104D2C00C3EBE223736031693944316101EBD1711A
:104D3C004910F1600023B360C1E523F0004001305D
:104D4C0057E700BF810008806DA3010001021080AD
:104D5C00E0940008D8940008DC94000800F5FF40AB
:104D6C007F30C01349E7D9F8041001445EE74FF0D7
:104D7C00000C62E703F5FF437F3367E702F5FF4260
:104D8C007F326BE723F00040013078E700F5FF40FD
:104D9C007F30C01377E7D9F8041001448BE700206B
:104DAC008EE703F5FF437F3392E702F5FF427F3234
:104DBC0095E700F57F503F30C013DBE52DE9F04F50
:104DCC0083B0054600F1A004061D00F1500301F369
:104DDC000F0C826FC06F4FEAE07BD5F88CE04FEA86
:104DEC00EE7900FB09F80EFB0B88A0FB0E9AC2446F
:104DFC004FEAD93040EA4A4002FB0C02D5F8800059
:104E0C004FEAE07BD5F890104FEAE17900FB09F806
:104E1C0001FB0B88A0FB019AC2444FEAD93040EA4F
:104E2C004A401118D5F884004FEAE07BD5F894205D
:104E3C004FEAE27900FB09F802FB0B88A0FB029A0F
:104E4C00C2444FEAD93040EA4A4001440191D5F8B6
:104E5C0088004FEAE07BD5F898104FEAE17900FB27
:104E6C0009F801FB0B88A0FB019AC2444FEAD93028
:104E7C0040EA4A4001990844C5F89C00C5F890E006
:104E8C004FEACC31C5F88C10C5F898204242C5F8D1
:104E9C0094200028C0F2C18000F5804C4FEAEC3C15
:104EAC000CF30F0C2A6D58684FEAE07B5F694FEAF0
:104EBC00E77900FB09FE07FB0BEEA0FB0701714431
:104ECC004FEAD03E4EEA414E02FB0CEE98684FEA98
:104EDC00E07B99694FEAE17900FB09F201FB0B22B7
:104EEC00A0FB01011144C20B42EA41429644D8682E
:104EFC004FEAE07BDA694FEAE27900FB09F802FB42
:104F0C000B88A0FB029AC2444FEAD93040EA4A40CF
:104F1C00864418694FEAE07B196A4FEAE17900FB95
:104F2C0009F801FB0B88A0FB019AC2444FEAD93067
:104F3C0040EA4A400EEB000159629F614FEACC30C7
:104F4C0058611A624A42DA6100296DDB01F5804131
:104F5C00CF13B368002B6CD0012B00F0AD807168BF
:104F6C0001F30F01D5F8A00062684FEAE27B656996
:104F7C004FEAE57902FB09F605FB0B66A2FB057807
:104F8C00B044FA0B42EA484200FB0120A2684FEA07
:104F9C00E27BA3694FEAE37902FB09F603FB0B669C
:104FAC00A2FB0378B044FA0B42EA48421044E26890
:104FBC004FEAE279D4F81CC06646F71702FB07F6F5
:104FCC000CFB0966A2FB0C78B044FA0B42EA48428F
:104FDC001044D4F810E07246D317D4F8208046461B
:104FEC00F7170EFB07F608FB0366AEFB0878B04418
:104FFC00FA0B42EA484210446062A561C903616140
:10500C00C4F820C04342E3610028C0F2F08000F5F0
:10501C008040C01303B0BDE8F08F00F57F5C0CF14D
:10502C003F0C4FEAEC3C3BE701F57F513F31CF138E
:10503C008FE76B68F168B3F93C20B3F93A00824210
:10504C0001DA01329A87B3F93C20904201DA013A35
:10505C009A87B3F93C0040F6D67202FB00F2664820
:10506C0080FB02C01044D217C2EBE0222932634805
:10507C0000FB02F2A0F1BF40A0F58B00A0F6E440CB
:10508C0080FB02C01044D217C2EB20221A6309B273
:10509C0001F30F01586A9A6922F810105A6A01320A
:1050AC005A62D9698A4204D03761B3680133B3605C
:1050BC0055E700225A62F7E7D5F8048008F1180981
:1050CC0008F12C0AD8F82C00002877DBC013DAF88A
:1050DC00081080B203F0BAF8D8F82C30DAF80420B3
:1050EC001344C8F82C30002B6DDBB8F94430B8F9F8
:1050FC004220934202DA0133A8F84430B8F9443024
:10510C009A4202DA013BA8F84430B8F94420C8238B
:10511C0003FB02F3384A82FB03121A44DB17C3EB7E
:10512C00E22300FB03F000F51600C0F30E03C3F5F9
:10513C00FF427F32D9F80C10A1EBE0300146002879
:10514C0047DB481CD9F804C0604546D0D8F818C0D5
:10515C003CF9111003FB01F3002B40DBDB133CF992
:10516C00101002FB01F2002A3DDB03EBE2331BB211
:10517C00B8F94C20B8F94A108A4202DA0132A8F880
:10518C004C20B8F94C20914202DA013AA8F84C2094
:10519C00B8F94C2002FB03F3174A82FB03121A44A2
:1051AC00DB17C3EBE223736031693944316101EBE6
:1051BC00D1714910F1600023B360D0E600F5FF40D7
:1051CC007F30C01383E723F000430133C8F82C3041
:1051DC008BE7D9F804100144B3E70020B6E703F5D8
:1051EC00FF437F33BAE702F5FF427F32BDE700F59C
:1051FC007F503F30C0130DE7810008806DA3010084
:10520C002DE9F84F044601F30F0CC56B006C4FEA07
:10521C00E079D4F850E07646F71700FB07F30EFB65
:10522C000933A0FB0E011944C30B43EA414305FBB0
:10523C000C33606CC717616D4FEAE17900FB09F51F
:10524C0001FB0755A0FB01672F44F00B40EA4740D8
:10525C000344A06C4FEAE079A56DEF1700FB07F64D
:10526C0005FB0966A0FB0578B044F80B40EA484002
:10527C000344E06C4FEAE07BE16D4FEAE17900FB1F
:10528C0009F601FB0B66A0FB0178B044F80B40EA71
:10529C00484003442366C4F854E04FEACC312165FE
:1052AC00E5655942A165002BC0F2088103F58043E6
:1052BC00D913B4F92830B4F92620934201DA01331A
:1052CC002385B4F928309A4201DA013B2385B4F9DD
:1052DC00282040F6D67303FB02F38A4A82FB0302B2
:1052EC001A44DB17C3EBE22329334DF2B61202FB4F
:1052FC0003F302F1204202F56D1202F2D34282FB5B
:10530C0003021A44DB17C3EB2223E361251D09B208
:10531C0001F30F012269636823F81210236901332A
:10532C002361A268934200F0CE8004F11806A069B4
:10533C000028C0F2CB80C013B16880B202F086FFA7
:10534C00A26973681A44A261002AC0F2C480B4F93D
:10535C003030B4F92E20934201DA01332386B4F9AC
:10536C0030309A4201DA013B2386B4F930204FF4F5
:10537C00C87303FB02F3634A82FB03121A44DB1764
:10538C00C3EBE22303FB00F000F19670C0F30E03B5
:10539C00C3F5FF417F31EA68A2EBE03002460028FA
:1053AC00C0F29E80501C6D68A84200F09C8065681D
:1053BC0035F9122003FB02F3002BC0F29680DA13AE
:1053CC0035F9103001FB03F3002BC0F2928002EB95
:1053DC00E33212B202F30F02606EA66E4FEAE67B66
:1053EC00A56F4FEAE57906FB09F305FB0B33A6FB2A
:1053FC0005671F44F30B43EA474300FB0233E76E98
:10540C004FEAE779E66F4FEAE67B07FB0BF006FB0A
:10541C000900A7FB06670744F00B40EA474003442A
:10542C00266F4FEAE67BD4F880004FEAE07906FB62
:10543C0009FC00FB0BCCA6FB0078E044FE0B46EA13
:10544C0048463344676F4FEAE779D4F884604FEAF3
:10545C00E67B07FB0BFC06FB09CCA7FB0678E044BC
:10546C00FE0B46EA48463344C4F88830E567D2035D
:10547C00A267C4F884005A42C4F88020002B3CDB9D
:10548C0003F58043DB13B4F93820B4F9361091429C
:10549C0001DD01322287B4F93820914201DA013A58
:1054AC002287B4F9380003FB00F3164880FB032075
:1054BC001844DB17C3EBE020BDE8F88F03F57F53EE
:1054CC003F33D913F5E6002323612EE700F5FF40A7
:1054DC007F30C01330E722F000420132A26136E780
:1054EC006A6802445EE7002061E703F5FF437F33FF
:1054FC0065E703F5FF437F3369E703F57F533F33DC
:10550C00DB13C0E7810008802DE9F04F83B042F631
:10551C00BC53C21801F30F01C65854684FEAE47922
:10552C0057694FEAE77B04FB0BFC07FB09CCA4FB98
:10553C0007456544E30B43EA454306FB0136956892
:10554C004FEAE57994694FEAE47B05FB0BF304FB26
:10555C000933A5FB04451D44E30B43EA454333449F
:10556C00D4684FEAE47BD6694FEAE67904FB09FC80
:10557C0006FB0BCCA4FB0689E1444FEAD83444EA81
:10558C004944234415694FEAE579146A4FEAE47BF0
:10559C0005FB0BFC04FB09CCA5FB0489E1444FEA99
:1055AC00D83444EA4944234453629761C903516196
:1055BC0016625942D161002B6CDB03F58043DB137F
:1055CC00019342F6346281188D68002D68D0012D4C
:1055DC0000F0B8814C6842F6E452811804F30F04D1
:1055EC0080584A684FEAE27B4D694FEAE57902FB45
:1055FC0009F605FB0B66A2FB0578B044FA0B42EAF0
:10560C00484200FB04208A684FEAE27B8B694FEA30
:10561C00E37902FB09F603FB0B66A2FB0378B044AB
:10562C00FA0B42EA48421044CA684FEAE279D1F8D0
:10563C001CC06646F71702FB07F60CFB0966A2FBBB
:10564C000C78B044FA0B42EA48421044D1F810E00E
:10565C007246D317D1F820804646F7170EFB07F693
:10566C0008FB0366AEFB0878B044FA0B42EA4842EA
:10567C00104448628D61E4034C61C1F820C0434280
:10568C00CB610028C0F2308300F58040C01303B01A
:10569C00BDE8F08F03F57F533F33DB13019390E7A5
:1056AC008258CE6842F648641651B2F91040B2F9ED
:1056BC000E60B44201DA01341482B2F91040A642F1
:1056CC0001DA013C1482B2F91070FF00072D07DCDF
:1056DC00C5EBC506B4001834144467600135F5E712
:1056EC0042F60C65541942F64866965906F30F0CAF
:1056FC0052F805E066684FEAE67B65694FEAE579A2
:10570C0006FB09F805FB0B88A6FB059AC2444FEA79
:10571C00D93646EA4A460EFB0C6EA6684FEAE67B83
:10572C00A7694FEAE77906FB09F807FB0B88A6FB8C
:10573C00079AC2444FEAD93646EA4A460EEB0607A8
:10574C00E6684FEAE67BD4F81CE04FEAEE7906FBFC
:10575C0009F80EFB0B88A6FB0E9AC2444FEAD93609
:10576C0046EA4A46BE19334626694FEAE67B276A63
:10577C004FEAE77906FB09F807FB0B88A6FB079AAB
:10578C00C2444FEAD93646EA4A461E446662A561CF
:10579C004FEACC356561C4F820E07542E561002E16
:1057AC00C0F2A88006F58044E413566904FB06F4A5
:1057BC00002CC0F2A480E41342F64865545142F622
:1057CC004C650026565102F11C0CDCF81070DCF80C
:1057DC00189037F919E0DCF80C50DCF80460DCF8B0
:1057EC00083006FB03F605FB0E65002DC0F28C801D
:1057FC00ED13CCF80450D66906FB05F5002DC0F26C
:10580C008880ED13254405F30F0527F81950DCF8B3
:10581C0018400134CCF81840DCF81450AC4202DBD0
:10582C000024CCF8184042F64C6554597444545139
:10583C0002F1380442F6486552F805C02769D4F8DD
:10584C00189037F919E0E5686668A36806FB03F65B
:10585C0005FB0E65002D61DBED136560966B06FB99
:10586C0005F5002D5FDBED13654405F30F0527F8F7
:10587C001950A5690135A5616669B54201DB0025A2
:10588C00A56142F64C6554597444545102F15404C8
:10589C0042F6486552F805C02769D4F8189037F9D4
:1058AC0019E0E5686668A36806FB03F605FB0E6560
:1058BC00002D3DDBED136560566D06FB05F5002DE7
:1058CC003BDBED13654405F30F0527F81950A5696B
:1058DC000135A5616669B54201DB0025A56142F67B
:1058EC004C65545974445451019B0B618B680133C2
:1058FC008B606FE606F57F543F34E41355E704F5EF
:10590C00FF447F34E41357E705F5FF457F35ED136E
:10591C006FE705F5FF457F35ED1373E705F5FF459B
:10592C007F35ED1399E705F5FF457F35ED139BE7C3
:10593C0005F5FF457F35ED13BDE705F5FF457F35D3
:10594C00ED13BFE7825802F1700442F6486552F835
:10595C0005C02769D4F8189037F919E0E56866682E
:10596C00A36806FB03F605FB0E65002DC0F28A81C9
:10597C00ED136560166F06FB05F5002DC0F28781EF
:10598C00ED13654405F30F0527F81950A56901358A
:10599C00A5616669B54201DB0025A56142F64C653F
:1059AC0054597444545102F18C0442F6486552F82F
:1059BC0005C02769D4F8189037F919E0E5686668CE
:1059CC00A36806FB03F605FB0E65002DC0F264818F
:1059DC00ED136560D2F88C6006FB05F5002DC0F266
:1059EC006081ED13654405F30F0527F81950A5697F
:1059FC000135A5616669B54201DB0025A56142F65A
:105A0C004C6554597444545102F1A80442F648654B
:105A1C0052F805C02769D4F8189037F919E0E568F1
:105A2C006668A36806FB03F605FB0E65002DC0F245
:105A3C003D81ED136560D2F8A86006FB05F5002DDD
:105A4C00C0F23981ED13654405F30F0527F81950A1
:105A5C00A5690135A5616669B54201DB0025A56123
:105A6C0042F64C6554597444545102F1C40442F644
:105A7C00486552F805C02769D4F8189037F919E031
:105A8C00E5686668A36806FB03F605FB0E65002D4A
:105A9C00C0F21681ED136560D2F8C46006FB05F503
:105AAC00002DC0F21281ED13654405F30F0527F8A4
:105ABC001950A5690135A5616669B54201DB002560
:105ACC00A56142F64C6554597444545102F1E00CF2
