:020000040800F2
:1000000000500020E96E0008392900083B2900084B
:100010003D2900083F290008412900080000000090
:10002000000000000000000000000000432900085C
:100030004529000800000000472900084929000858
:10004000316F0008316F0008316F0008316F000810
:10005000316F0008316F0008316F0008316F000800
:10006000316F0008316F0008316F00085129000816
:10007000316F0008316F0008316F0008316F0008E0
:10008000316F0008316F0008316F0008316F0008D0
:10009000316F0008316F0008316F0008316F0008C0
:1000A000316F0008316F0008316F0008316F0008B0
:1000B000316F0008316F0008316F0008316F0008A0
:1000C000316F0008316F0008316F0008316F000890
:1000D000316F000861290008316F0008316F000896
:1000E000316F0008316F0008316F00080000000018
:1000F0000000000000000000000000000000000000
:0C01000000000000000000005FF808F1A3
:10010C0010B5054C237833B9044B13B10448AFF345
:10011C0000800123237010BDE001002000000000CE
:10012C005C74000808B5034B1BB103490348AFF3DB
:10013C00008008BD00000000E40100205C74000891
:10014C00034613F8012B002AFBD1181A013870470B
:10015C007BB972B90029BEBF00204FF0004106E008
:10016C0008BF00281CBF6FF000414FF0FF3000F0BB
:10017C00A7B9ADF1080C6DE904CE002909DB002B01
:10018C001ADB00F035F8DDF804E0DDE9022304B0F9
:10019C007047404261EB4101002B1BDB00F028F85B
:1001AC00DDF804E0DDE9022304B0404261EB4101DB
:1001BC00524263EB43037047524263EB430300F03C
:1001CC0017F8DDF804E0DDE9022304B0404261EBEE
:1001DC0041017047524263EB430300F009F8DDF82C
:1001EC0004E0DDE9022304B0524263EB43037047A1
:1001FC002DE9F0478C460446089E002B4BD18A42D1
:10020C00154667D9B2FA82F24AB1C2F1200701FA57
:10021C0002F320FA07F7954047EA030C94404FEAA3
:10022C00154EBCFBFEF71FFA85F80EFB17C307FB38
:10023C0008F9210C41EA0343994509D9EB1807F158
:10024C00FF3180F01C81994540F21981023F2B440B
:10025C00A3EB0903B3FBFEF00EFB103300FB08F11C
:10026C00A4B244EA0344A14209D92C1900F1FF338A
:10027C0080F00781A14240F2048102382C4440EA0C
:10028C0007400027641A1EB10023D440C6E900437E
:10029C003946BDE8F0878B4209D9002E00F0EC807E
:1002AC000027C6E9000138463946BDE8F087B3FAA5
:1002BC0083F7002F48D18B4202D3824200F2FB809D
:1002CC00841A61EB030301209C46002EE0D0C6E9A2
:1002DC00004CDDE702B9FFDEB2FA82F2002A40F0F0
:1002EC008F800127491B4FEA15481FFA85F9B1FB8E
:1002FC00F8FE08FB1E1109FB0EF04FEA144C4CEAF9
:10030C000143984207D9EB180EF1FF3102D2984203
:10031C0000F2CD808E461B1AB3FBF8F008FB1033AD
:10032C0009FB00F9A4B244EA0344A14507D92C19EE
:10033C0000F1FF3302D2A14500F2B6801846A4EBBF
:10034C00090440EA0E409EE7C7F12005BB4022FAA3
:10035C0005FC4CEA030C21FA05F44FEA1C4EB4FBE5
:10036C00FEF91FFA8CF80EFB194420FA05F3B9407C
:10037C0009FB08FA19430B0C43EA0444A24502FAA0
:10038C0007F200FA07F30BD91CEB040409F1FF3058
:10039C0080F08880A24540F28580A9F1020964446E
:1003AC00A4EB0A04B4FBFEF00EFB104400FB08FAAD
:1003BC0089B241EA0444A24508D91CEB040400F1BB
:1003CC00FF316BD2A24569D90238644440EA094036
:1003DC00A0FB0289A4EB0A044C454146CE4654D3FB
:1003EC0051D0002E69D05A1A64EB0E0404FA05F5AC
:1003FC0022FA07F3FC401D43C6E90054002747E7E7
:10040C009540C2F1200321FA03F04FEA1548B0FBE6
:10041C00F8F71FFA85F908FB170024FA03F391404B
:10042C0007FB09FC0B43190C41EA00418C4504FA0B
:10043C0002F407D9691807F1FF3031D28C452FD956
:10044C00023F2944A1EB0C01B1FBF8F008FB101C96
:10045C0000FB09FE99B241EA0C418E4507D9691897
:10046C0000F1FF3318D28E4516D902382944A1EB7E
:10047C000E0140EA07473AE73746304608E70F4691
:10048C00E6E61846FBE64345ABD2B8EB020169EB56
:10049C000C0201389646A4E71846E8E7084695E7AB
:1004AC000746CFE781467BE702382C4447E7AEF19D
:1004BC00020E2B442FE7384607E73746E8E600BF25
:1004CC00704700BF10B504460E4B18784FF47A7382
:1004DC00B3FBF0F30C4A1068B0FBF3F000F078FBC0
:1004EC0068B90F2C01D901200AE0002221464FF0F7
:1004FC00FF3000F02BFB054B1C60002000E00120BE
:10050C0010BD00BF000000200800002004000020E7
:10051C0008B5074A136843F010031360032000F07A
:10052C0003FB0120FFF7CEFF02F0ECF8002008BD22
:10053C0000200240034A1168034B1B780B441360E4
:10054C00704700BF6C03002000000020014B1868AE
:10055C00704700BF6C03002038B50446FFF7F6FF68
:10056C000546B4F1FF3F02D0044B1B781C44FFF747
:10057C00EDFF401BA042FAD338BD00BF00000020A5
:10058C0008B5436A9A6A12F0500F03D01B6A1B6BB2
:10059C00984708BD9A6A42F400729A621A68926887
:1005AC0002F46022B2F5602F03D0184606F06CFA04
:1005BC00EFE71A7B002AF8D19A6A22F480729A62C9
:1005CC009A6A12F4805FF0D19A6A42F001029A6240
:1005DC00EBE708B5406A06F0B7F908BD704708B5F7
:1005EC00406A836A43F040038362C36A43F00403A6
:1005FC00C362FFF7F3FF08BD30B482B00023019350
:10060C0090F82430012B00F08B800246012380F8F7
:10061C0024304B68062B29D80568686B03EB8303E1
:10062C00053B1F249C4020EA04000C6804FA03F3E9
:10063C0003436B630B68092B38D91568E86803EB27
:10064C0043031E3B07249C4020EA04008C6804FAF8
:10065C0003F30343EB600B68103B012B34D90020F0
:10066C00002382F8243002B030BC70470C2B0ED81B
:10067C000568286B03EB8303233B1F249C4020EA73
:10068C0004000C6804FA03F303432B63D2E70568F8
:10069C00E86A03EB8303413B1F249C4020EA0400DF
:1006AC000C6804FA03F30343EB62C3E7156828698B
:1006BC0003EB430307249C4020EA04008C6804FAF3
:1006CC0003F303432B61C6E713681648834205D036
:1006DC00936A43F0200393620120C1E7986810F4F9
:1006EC00000F1BD1986840F4000098600B68102B29
:1006FC0001D00020B4E70C4B1B680C49A1FB031381
:10070C009B0C03EB83035900019102E0019B013B1D
:10071C000193019B002BF9D10020A1E700209FE75A
:10072C000220A0E7002401400800002083DE1B43C8
:10073C0030B583B00023019303689A6812F0010F5F
:10074C002ED19A6842F001029A60174B1B68174A27
:10075C00A2FB03239B0C019302E0019B013B019341
:10076C00019B002BF9D10446FFF7F0FE05462368E8
:10077C009B6813F0010F11D1FFF7E8FE401B022814
:10078C00F5D9A36A43F01003A362E36A43F00103B3
:10079C00E362002384F82430012002E0002000E012
:1007AC00002003B030BD00BF0800002083DE1B43D7
:1007BC00F8B50468454DAC425BD0454B9C4258D0D3
:1007CC0090F82440012C7ED016460D460446012399
:1007DC0080F82430FFF7ACFF074600286ED1A36ADF
:1007EC0023F4706323F0010343F48073A362226843
:1007FC00374B9A4244D0A36A23F48013A362536804
:10080C0013F4806F05D0A36A23F4405343F4805350
:10081C00A362A36A13F4805F48D0E36A23F0060353
:10082C00E362002384F82430236A2A4A9A62236AFA
:10083C00294ADA62236A294A1A6323686FF0020292
:10084C001A602268936843F480739360216833467E
:10085C002A464C31206A00F01DFA2268936803F492
:10086C006023B3F5602F24D0936843F48013936016
:10087C0027E0164B5B6813F4702FA1D0012720E002
:10088C00A3F580635B6813F4702FB4D0A36A43F4B0
:10089C008013A3620D4B5B6813F4806FB9D0A36A0D
:1008AC0023F4405343F48053A362B2E70023E36282
:1008BC00B7E7936843F4A003936002E0002384F845
:1008CC0024303846F8BD0227FBE700BF0024014066
:1008DC00002801408D050008DF050008EB05000825
:1008EC0038B503689A6812F0010F01D1002038BDA9
:1008FC0004469A6822F001029A60FFF727FE05462B
:10090C0023689B6813F0010F0ED0FFF71FFE401BEE
:10091C000228F5D9A36A43F01003A362E36A43F0FB
:10092C000103E3620120E2E70020E0E700287FD02A
:10093C0038B50446836A002B33D02046FFF7D0FF2E
:10094C00A36A13F010036DD100286BD1A26A22F4B4
:10095C00885222F0020242F00202A2626268E1694D
:10096C000A43257B42EA4502A168B1F5807F21D07C
:10097C0001291CD0217D01291FD02568696821F42B
:10098C0069410B436B6021688D682A4B2B401343E4
:10099C008B60A368B3F5807F20D0012B1ED0002183
:1009AC001FE0C36280F8243001F0CEFEC5E74FF49F
:1009BC008073DFE74FF48073DCE735B9A169013947
:1009CC0043EA413343F40063D7E7A16A41F02001C5
:1009DC00A162E16A41F00101E162CEE72369013BCA
:1009EC0019052568EB6A23F470030B43EB6223684B
:1009FC009968114B0B409A420BD0A36A23F0120357
:100A0C0043F01003A362E36A43F00103E3620120A5
:100A1C000DE00023E362A36A23F0030343F0010318
:100A2C00A36204E0A36A43F01003A362012038BD63
:100A3C0001207047FDF7E1FFFE0E1FFF70B582B07D
:100A4C000023019390F82430012B68D00446012335
:100A5C0080F82430FFF744FF054628B1002384F8C2
:100A6C002430284602B070BDA36A23F4885323F0C7
:100A7C00020343F00203A3622A4B1E68022000F01B
:100A8C00DDFEB6FBF0F04000019002E0019B013B63
:100A9C000193019B002BF9D12046FFF749FE2268F8
:100AAC00936843F008039360FFF750FD06462368F4
:100ABC009A6812F0080F0FD0FFF748FD801B0A2828
:100ACC00F5D9A36A23F0120343F01003A3620023A9
:100ADC0084F824300125C4E79A6842F004029A6035
:100AEC00FFF734FD064623689B6813F0040F0FD004
:100AFC00FFF72CFD801B0A28F5D9A36A23F01203FB
:100B0C0043F01003A362002384F824300125A8E7E6
:100B1C00A36A23F0030343F00103A3629EE70225BB
:100B2C009FE700BF08000020074AD36823F4E06366
:100B3C001B041B0C000200F4E060184340F0BF6083
:100B4C0040F40030D060704700ED00E030B4174B3B
:100B5C00DB68C3F30223C3F10704042C28BF04246D
:100B6C001D1D062D18D9033B4FF0FF3505FA04F473
:100B7C0021EA0401994005FA03F322EA030319431D
:100B8C0000280BDB0901C9B200F1604000F561409F
:100B9C0080F8001330BC70470023E5E700F00F002D
:100BAC000901C9B2024B1954F4E700BF00ED00E093
:100BBC0014ED00E0002807DB00F01F0240090123C0
:100BCC009340024A42F82030704700BF00E100E039
:100BDC000138B0F1807F0AD2064B5860064AF021EA
:100BEC0082F823100020986007221A6070470120B9
:100BFC00704700BF10E000E000ED00E070B4066C40
:100C0C00C56B0124B4406C60046863604368102BAE
:100C1C0005D0036899600368DA6070BC704703689C
:100C2C009A600368D960F8E760B310B402460168B3
:100C3C00154B0B441548A0FB03031B099B001364C5
:100C4C00134BD363022382F82130086820F47F50C1
:100C5C0020F03000536894682343D468234314690C
:100C6C0023435469234394692343D46923430343A3
:100C7C000B6000209063012382F8213082F8200061
:100C8C0010BC704701207047F8FFFDBFCDCCCCCC19
:100C9C000000024038B590F82040012C32D00124DD
:100CAC0080F8204090F82140012C04D0002380F8DB
:100CBC002030022038BD0446022084F82100002098
:100CCC00A0632568286820F0010028602046FFF703
:100CDC0095FFE36A5BB12268136843F00E0313605F
:100CEC002268136843F0010313600020E2E72268D6
:100CFC00136823F0040313602268136843F00A039B
:100D0C001360EDE70220D5E708B590F82130022BEF
:100D1C0003D004238363012008BD0268136823F009
:100D2C000E0313600268136823F001031360036859
:100D3C00194A934214D0143293421FD01432934266
:100D4C001ED0143293421ED0143293421ED0143251
:100D5C00934202D04FF0807203E04FF4801200E017
:100D6C0001220E4B5A60012380F82130002380F8B9
:100D7C002030436B6BB198470020CDE71022F0E791
:100D8C004FF48072EDE74FF48052EAE74FF4803273
:100D9C00E7E70020C0E700BF080002400000024067
:100DAC0038B5C36B1A6804682568016C04238B4042
:100DBC00134235D015F0040F32D0236813F0200FF6
:100DCC0003D1236823F0040323600368434A93424E
:100DDC0014D01432934218D01432934217D01432D8
:100DEC00934217D01432934217D01432934202D04C
:100DFC004FF0806203E04FF4800200E00422384B95
:100E0C005A60C36A03B1984738BD4022F7E74FF4E4
:100E1C008062F4E74FF48042F1E74FF48022EEE772
:100E2C0002238B4013423CD015F0020F39D02368BB
:100E3C0013F0200F06D1236823F00A03236001234B
:100E4C0080F821300368254A934214D0143293421F
:100E5C001CD0143293421BD0143293421BD0143248
:100E6C0093421BD01432934202D04FF0007203E035
:100E7C004FF4001200E00222194B5A60002380F854
:100E8C002030836A002BBFD09847BDE72022F3E7C0
:100E9C004FF40072F0E74FF40052EDE74FF40032DC
:100EAC00EAE7082303FA01F11142ADD015F0080F5F
:100EBC00AAD0236823F00E032360026CC16B0123BC
:100ECC0003FA02F24A60836380F82130002380F831
:100EDC002030036B002B97D0984795E70800024011
:100EEC0000000240F0B482B000263246A2E0002D91
:100EFC005AD0012D00D1CE68FF2B69D88446FF2B28
:100F0C0069D89500DCF800400F27AF4024EA0704AD
:100F1C0006FA05F52C43CCF800404C6814F0805FC1
:100F2C0000F087805F4CA56945F00105A561A469B7
:100F3C0004F001040194019C9508AF1C5A4C54F820
:100F4C00274002F00307BF004FF00F0C0CFA07FC10
:100F5C0024EA0C0C554CA04243D004F58064A0420A
:100F6C0000F0818004F58064A0427ED004F580649A
:100F7C00A04234D0042435E04D4FBD4214D00BD9DF
:100F8C004C4FBD4210D007F58037BD420CD0A7F5B1
:100F9C008017BD42B0D107E0A7F58017BD4203D042
:100FAC0007F58037BD42A7D18D687DB1012D08D0E2
:100FBC0044610826A0E7CE6808369DE7CE680C365B
:100FCC009AE70461082697E7002695E7042693E73D
:100FDC0000F1040C93E7A2F10805AD0092E703249D
:100FEC0000E00024BC4044EA0C0402352E4F47F8C4
:100FFC0025404C6814F4803F39D02F4D2C681C438D
:10100C002C604C6814F4003F37D02B4D6C681C439B
:10101C006C604C6814F4801F35D0274DAC681C43B1
:10102C00AC604C6814F4001F33D0234DEC682343A0
:10103C00EB6001320B6833FA02F430D00124944097
:10104C0023409C42F5D14D68122DB7D094D8022D77
:10105C00B1D07FF64CAF032DB6D0112D7FF44CAF31
:10106C00CE68043648E70124BCE70224BAE7124DE7
:10107C002C6824EA03042C60C3E70F4D6C6824EA47
:10108C0003046C60C5E70C4DAC6824EA0304AC6047
:10109C00C7E7094DEC6824EA0303EB60C9E702B02B
:1010AC00F0BC7047001002400000014000080140F5
:1010BC0000002110000031100004014012B9090495
:1010CC00016170470161704782B0084B1B68084A88
:1010DC00A2FB03235B0A00FB03F0019000BF019B02
:1010EC005A1E0192002BF9D102B070470800002063
:1010FC00D34D6210002800F0F58170B582B0044623
:10110C00036813F0010F2CD0AB4B5B6803F00C039E
:10111C00042B1DD0A84B5B6803F00C03082B12D0DA
:10112C006368B3F5803F41D0002B55D103F1804368
:10113C0003F504331A6822F480321A601A6822F418
:10114C0080221A6037E09C4B5B6813F4803FE7D039
:10115C00994B1B6813F4003F03D06368002B00F01D
:10116C00C381236813F0020F76D0934B5B6813F0A6
:10117C000C0F5FD0904B5B6803F00C03082B54D022
:10118C002369002B00F08A808C4B01221A60FFF738
:10119C00DDF90546884B1B6813F0020F75D1FFF77C
:1011AC00D5F9401B0228F5D90320A0E1824A136827
:1011BC0043F480331360636843B3FFF7C7F9054604
:1011CC007D4B1B6813F4003FCBD1FFF7BFF9401BDD
:1011DC006428F5D903208AE1B3F5A02F09D0764B0A
:1011EC001A6822F480321A601A6822F480221A607B
:1011FC00E1E703F18043A3F53C331A6842F4802203
:10120C001A601A6842F480321A60D4E7FFF79EF92C
:10121C000546694B1B6813F4003FA2D0FFF796F903
:10122C00401B6428F5D9032061E1634B5B6813F420
:10123C00803FA5D1604B1B6813F0020F04D02369CB
:10124C00012B01D0012052E15B4A136823F0F80313
:10125C00616943EAC1031360236813F0080F32D0AD
:10126C00A369002B5BD0564B01221A60FFF76EF975
:10127C000546514B5B6A13F0020F21D1FFF766F95B
:10128C00401B0228F5D9032031E14B4A136823F0A7
:10129C00F803616943EAC1031360DDE7474B0022A1
:1012AC001A60FFF753F90546434B1B6813F0020F06
:1012BC00D2D0FFF74BF9401B0228F5D9032016E1D9
:1012CC000120FFF701FF236813F0040F00F0988052
:1012DC00394BDB6913F0805F33D1374BDA6942F05D
:1012EC008052DA61DB6903F080530193019B012585
:1012FC00344B1B6813F4807F25D0E368012B36D068
:10130C00002B4CD103F1804303F504331A6A22F00D
:10131C0001021A621A6A22F004021A622CE0284BAB
:10132C0000221A60FFF712F90546234B5B6A13F093
:10133C00020FC8D0FFF70AF9401B0228F5D9032089
:10134C00D5E00025D4E71F4A136843F4807313607B
:10135C00FFF7FCF806461B4B1B6813F4807FCCD1BF
:10136C00FFF7F4F8801B6428F5D90320BFE0124A7C
:10137C00136A43F001031362E3687BB3FFF7E6F8EB
:10138C0006460D4B1B6A13F0020F38D1FFF7DEF83F
:10139C00801B41F288339842F3D90320A7E0052B38
:1013AC0012D0054B1A6A22F001021A621A6A22F054
:1013BC0004021A62E0E700BF001002400000424243
:1013CC0080044242007000404C4B1A6A42F0040206
:1013DC001A621A6A42F001021A62CDE7FFF7B6F8F8
:1013EC000646464B1B6A13F0020F08D0FFF7AEF807
:1013FC00801B41F288339842F3D9032077E0E5B99A
:10140C00E369002B72D03D4A526802F00C02082AA4
:10141C0056D0022B17D03A4B00221A60FFF796F8E1
:10142C000446364B1B6813F0007F47D0FFF78EF84D
:10143C00001B0228F5D9032059E0304AD36923F068
:10144C008053D361DCE72E4B00221A60FFF77EF845
:10145C0005462A4B1B6813F0007F06D0FFF776F881
:10146C00401B0228F5D9032041E0236AB3F5803FE5
:10147C001AD022494B6823F47413226A606A02431F
:10148C0013434B601E4B01221A60FFF75FF80446B2
:10149C001A4B1B6813F0007F0ED1FFF757F8001B97
:1014AC000228F5D9032022E0144A536823F40033B0
:1014BC00A1680B435360DCE7002018E0002016E025
:1014CC00012B16D00D4B5B6803F48031226A9142DC
:1014DC0001D001200BE003F47013626A93420AD02E
:1014EC00012004E001207047012000E0002002B040
:1014FC0070BD0120FBE70020F9E700BF001002409F
:10150C006000424210B487B0164C94E80F000DF105
:10151C00180C0CE90F00238AADF80430124B5B68F1
:10152C0003F00C02082A1AD1C3F38342624412F866
:10153C00102C13F4803F05D10C4800FB02F007B0CF
:10154C0010BC7047084B5B68C3F34043634413F80B
:10155C00143C074800FB02F0B0FBF3F0EFE7044843
:10156C00EDE700BF747400080010024000093D0054
:10157C0000127A00002800F0A38070B50446524B8C
:10158C001B6803F007038B420CD24F4A136823F0FD
:10159C0007030B431360136803F007038B4201D05E
:1015AC00012070BD236813F0020F17D013F0040F45
:1015BC0004D0464A536843F4E0635360236813F045
:1015CC00080F04D0414A536843F4605353603F4AB8
:1015DC00536823F0F003A068034353600D4623685F
:1015EC0013F0010F31D06368012B20D0022B25D0D2
:1015FC00364A126812F0020F64D034494A6822F05D
:10160C00030213434B60FEF7A1FF06462F4B5B68AA
:10161C0003F00C036268B3EB820F16D0FEF796FF53
:10162C00801B41F288339842F0D90320B9E7274A4E
:10163C00126812F4003FE0D10120B2E7234A12688D
:10164C0012F0007FD9D10120ABE71F4B1B6803F0D0
:10165C000703AB420CD91C4A136823F007032B4336
:10166C001360136803F00703AB4201D0012098E725
:10167C00236813F0040F06D0144A536823F4E06374
:10168C00E1680B435360236813F0080F07D00F4A2F
:10169C00536823F46053216943EAC1035360FFF795
:1016AC0031FF0A4B5B68C3F30313094AD35CD84080
:1016BC00084B1860084B1868FEF704FF002070E711
:1016CC000120704701206CE700200240001002400E
:1016DC00CC7600080800002004000020014B18689C
:1016EC00704700BF0800002008B5FFF7F7FF044B58
:1016FC005B68C3F30223034AD35CD84008BD00BF28
:10170C0000100240DC76000808B5FFF7E7FF044B39
:10171C005B68C3F3C223034AD35CD84008BD00BF47
:10172C0000100240DC76000870B582B004460368F5
:10173C0013F0010F34D03E4BDB6913F0805F48D1BE
:10174C003B4BDA6942F08052DA61DB6903F080537B
:10175C000193019B0125374B1B6813F4807F3AD012
:10176C00334B1B6A13F4407311D0626802F440725D
:10177C009A420CD02E4A136A23F440702E4901264B
:10178C000E6000260E60106213F0010F37D1284A4C
:10179C00136A23F4407361680B431362002D3FD12D
:1017AC00236813F0020F06D0214A536823F44043F8
:1017BC00A1680B435360236813F0100F35D01C4AFB
:1017CC00536823F48003E1680B435360002002B09C
:1017DC0070BD0025BFE7174A136843F4807313608C
:1017EC00FEF7B4FE0646134B1B6813F4807FB7D18B
:1017FC00FEF7ACFE801B6428F5D90320E7E7FEF763
:10180C00A5FE06460A4B1B6A13F0020FBFD1FEF76A
:10181C009DFE801B41F288339842F3D90320D6E712
:10182C00D36923F08053D361BAE70020CFE700BF20
:10183C0000100240007000404004424230B587B0B6
:10184C000546384C94E80F000DF1180C0CE90F000C
:10185C00238AADF80430022D50D0102D03D0012D69
:10186C002BD0002054E0304B5A681B6813F0807F5B
:10187C0050D0C2F3834306A90B4413F8100C12F496
:10188C00803F16D0284B5B68C3F340430B4413F8DE
:10189C00142C264BB3FBF2F300FB03F0224B5B68DA
:1018AC0013F4800F34D14000214BA3FB00304008CF
:1018BC002EE0204B03FB00F0F0E71B4B1B6A40F2C1
:1018CC0002321A40B2F5817F26D003F44073B3F58F
:1018DC00007F04D0B3F5407F09D0002018E0124AF5
:1018EC00526A12F0020FF5D049F6404010E00E4B50
:1018FC001B6813F4003F12D1002009E0FFF704FF2E
:10190C00094B5B68C3F3813301335B00B0FBF3F02D
:10191C0007B030BD0020FBE74FF40040F8E74FF272
:10192C002440F5E7887400080010024000127A0089
:10193C00ABAAAAAA00093D0070B4036A23F0010304
:10194C000362036A4268846924F073040D6845EAF3
:10195C00040623F002048B6823430D4DA84209D0E2
:10196C000B4DA8420DD0426086614A684263036207
:10197C0070BC704723F00803CC68234323F00403A6
:10198C00EEE722F440724C6914438A692243EAE779
:10199C00002C014030B4036A23F480730362036AA1
:1019AC004268C46924F073040D682C4323F400735B
:1019BC008D6843EA05230F4DA84209D00D4DA8426E
:1019CC000ED04260C4614A68C263036230BC704787
:1019DC0023F40063CD6843EA052323F48063EDE729
:1019EC0022F440524D6942EA05128D6942EA051211
:1019FC00E7E700BF002C014030B4036A23F48053A6
:101A0C000362036A4468C26922F4E6420D6842EA42
:101A1C00052223F400538D6843EA0533074DA84291
:101A2C0006D04460C2614A680264036230BC7047ED
:101A3C0024F480444D6944EA8514F2E7002C0140FB
:101A4C0003681B4A90420AD0B0F1804F07D0A2F530
:101A5C009432904203D002F58062904203D123F07D
:101A6C0070034A681343124A90420AD0B0F1804F77
:101A7C0007D0A2F59432904203D002F580629042D6
:101A8C0003D123F44073CA68134323F080034A69DB
:101A9C00134303608B68C3620B688362044B9842E8
:101AAC0002D00123436170470B690363F9E700BF60
:101ABC00002C0140A8B110B5044690F83D305BB144
:101ACC00022384F83D30211D2068FFF7B9FF012364
:101ADC0084F83D30002010BD80F83C3000F084FECE
:101AEC00EEE701207047A8B110B5044690F83D30E0
:101AFC005BB1022384F83D30211D2068FFF7A0FF65
:101B0C00012384F83D30002010BD80F83C3000F0FB
:101B1C007FFEEEE70120704730B4036A23F0100318
:101B2C000362036A4468826922F4E6420D6842EA61
:101B3C00052223F020038D6843EA05130E4DA842BD
:101B4C0009D00D4DA8420ED0446082614A68826370
:101B5C00036230BC704723F08003CD6843EA051361
:101B6C0023F04003EDE724F440644D6944EA850416
:101B7C008D6944EA8504E7E7002C014090F83C307D
:101B8C00012B28D010B50446012380F83C300223E9
:101B9C0080F83D300C2A0BD8DFE802F0070A0A0A5D
:101BAC00110A0A0A150A0A0A19000068FFF7C4FE8E
:101BBC00012384F83D30002084F83C0010BD0068FF
:101BCC00FFF7AAFFF4E70068FFF7E4FEF0E7006810
:101BDC00FFF712FFECE70220704738B590F83C3065
:101BEC00012B66D00D460446012380F83C300223BD
:101BFC0080F83D300C2A1AD8DFE802F007191919C1
:101C0C00201919193419191947000068FFF794FEA7
:101C1C002268936943F0080393612268936923F067
:101C2C00040393612268936929690B43936101232F
:101C3C0084F83D30002084F83C0038BD0068FFF784
:101C4C006BFF2268936943F4006393612268936984
:101C5C0023F48063936122689369296943EA012321
:101C6C009361E4E70068FFF795FE2268D36943F0BF
:101C7C000803D3612268D36923F00403D36122687B
:101C8C00D36929690B43D361D1E70068FFF7B4FE30
:101C9C002268D36943F40063D3612268D36923F4C7
:101CAC008063D3612268D369296943EA0123D36134
:101CBC00BDE70220C1E710B401F01F01012303FAB4
:101CCC0001F4036A23EA04030362036A8A401343A0
:101CDC00036210BC7047000010B504460122006876
:101CEC00FFF7E9FF23680A4A93420BD022689368F6
:101CFC0003F00703062B03D0136843F001031360B2
:101D0C00002010BD5A6C42F400425A64EEE700BF4A
:101D1C00002C014010B5044601220068FFF7CBFFF0
:101D2C0023680A4A93420BD02268936803F0070396
:101D3C00062B03D0136843F001031360002010BD81
:101D4C005A6C42F400425A64EEE700BF002C01408A
:101D5C0090F83C30012B1CD070B4012680F83C600C
:101D6C00022380F83D3002685568936825F07005B1
:101D7C000C682C4323F080054B682B43546002689D
:101D8C00936080F83D60002380F83C30184670BCAE
:101D9C007047022070470268D36823F49073D360B5
:101DAC000268536923F001035361202380F83A3011
:101DBC00704790F83930DBB2212B2AD18368B3F508
:101DCC00805F16D0036A5A1C02621A7803685A6044
:101DDC00C38C013B9BB2C384EBB90268D36823F07C
:101DEC008003D3600268D36843F04003D3600020C3
:101DFC007047036A1B880268C3F3080353600369C6
:101E0C001BB9036A02330362E2E7036A013303621C
:101E1C00DEE70220704700207047000038B504460A
:101E2C000268136923F44053C1680B431361836840
:101E3C000269134342691A430168CB6823F4B05317
:101E4C0023F00C031343CB600268536923F44073F3
:101E5C0081690B4353610268214B9A421FD0FFF7F3
:101E6C0043FC00EB800000EB800063689B00B0FB40
:101E7C00F3F01C4DA5FB00325109642202FB110248
:101E8C0013013233A5FB03235B0903F0F00202EBD1
:101E9C00011203F00F03216813448B6038BDFFF768
:101EAC0033FC00EB800000EB800063689B00B0FB10
:101EBC00F3F00C4DA5FB00325109642202FB110218
:101ECC0013013233A5FB03235B0903F0F00202EB91
:101EDC00011203F00F03216813448B60DEE700BF8F
:101EEC00003801401F85EB512DE9F04105460F46A6
:101EFC0016469846069C2B681B6837EA03030CBFF2
:101F0C0001230023B3421DD1B4F1FF3FF3D02CB118
:101F1C00FEF71CFBA0EB0800A042ECD92A68D368A2
:101F2C0023F4D073D3602A68536923F001035361FF
:101F3C00202385F8393085F83A30002385F838307D
:101F4C00032000E00020BDE8F08158B310B5044632
:101F5C0090F839300BB3242384F839302268D368D5
:101F6C0023F40053D3602046FFF758FF226813690F
:101F7C0023F4904313612268536923F02A035361BD
:101F8C002268D36843F40053D3600020E06320231D
:101F9C0084F8393084F83A3010BD80F8383000F0CD
:101FAC0081FCD8E7012070472DE9F04182B01E4634
:101FBC0090F83930DBB2202B55D104460D469046B3
:101FCC00002955D0002A55D090F83830012B53D029
:101FDC00012380F838300023C363212380F8393083
:101FEC00FEF7B4FA0746A4F82480A4F8268010E083
:101FFC0000963B46002280212046FFF775FF002803
:10200C003CD12B882268C3F3080353602369C3B9FE
:10201C000235E38C9BB2B3B1E38C013B9BB2E384FE
:10202C00A368B3F5805FE3D000963B460022802185
:10203C002046FFF759FF18BB2A7823685A600135F0
:10204C00E7E70135E5E700963B46002240212046B4
:10205C00FFF74AFF0346A8B9202284F83920002252
:10206C0084F8382000E00223184602B0BDE8F08165
:10207C000123F9E70123F7E70223F5E70323F3E74D
:10208C000323F1E70323EFE72DE9F04182B01E466D
:10209C0090F83A30DBB2202B5AD104460D469046CC
:1020AC00002959D0002A59D090F83830012B57D03C
:1020BC00012380F838300023C363222380F83A30A0
:1020CC00FEF744FA0746A4F82C80A4F82E801DE0F5
:1020DC0000963B46002220212046FFF705FF0028F2
:1020EC0040D1236933B923685B68C3F3080325F82F
:1020FC00023B0BE023685B68DBB225F8013B05E093
:10210C0023685B6803F07F032B700135E38D9BB272
:10211C00BBB1E38D013B9BB2E385A368B3F5805F54
:10212C00D6D000963B46002220212046FFF7DCFE4D
:10213C00D0B92369002BE3D123685B682B70013580
:10214C00E4E7202384F83A30002084F8380000E0DB
:10215C00022002B0BDE8F0810120FAE70120F8E787
:10216C000220F6E70320F4E70320F2E7704708B5F6
:10217C000168CB6823F04003CB60202380F8393012
:10218C00FFF7F4FF002008BD704708B590F83A300F
:10219C00DBB2222B45D18368B3F5805F0ED0036987
:1021AC0003BB03685A68836A591C81621A70C38D19
:1021BC00013B9BB2C385F3B1002033E0826A036913
:1021CC0043B903685B68C3F308031380836A023363
:1021DC008362ECE703685B68DBB21380836A0133CC
:1021EC008362E4E703685B68826A511C816203F0D6
:1021FC007F031370DBE70268D36823F02003D360FE
:10220C000268D36823F48073D3600268536923F0A7
:10221C0001035361202380F83A30FFF7B5FF00200B
:10222C0000E0022008BD704710B504460268136830
:10223C00D168526913F00F0005D113F0200F02D0B2
:10224C0011F0200F53D1002867D012F0010202D1F7
:10225C0011F4907F61D013F0010F06D011F4807F40
:10226C0003D0E06B40F00100E06313F0040F04D0E6
:10227C001AB1E06B40F00200E06313F0020F04D0DF
:10228C001AB1E06B40F00400E06313F0080F04D0C7
:10229C001AB1E26B42F00802E263E26B002A48D00A
:1022AC0013F0200F02D011F0200F24D123685B69AA
:1022BC0003F04003E26B12F0080F00D13BB3204651
:1022CC00FFF769FD23685A6912F0400F1BD05A6959
:1022DC0022F040025A61636B8BB11A4A5A63606BED
:1022EC00FEF712FD28B3606B436B984721E0204644
:1022FC00FFF74BFF1DE02046FFF747FFD6E72046D0
:10230C00FFF791FF15E02046FFF78DFF11E0204607
:10231C00FFF789FF0023E3630BE013F0800F02D07B
:10232C0011F0800F06D113F0400F02D011F0400FC6
:10233C0004D110BD2046FFF73CFDFAE72046FFF71D
:10234C0016FFF6E75523000808B5406A0023C3853D
:10235C00C384FFF768FF08BD08B5094804F0AFFD5A
:10236C00084804F0ACFD084804F0A9FD074804F047
:10237C00A6FD074804F0A3FD064800F0EFFB08BDDE
:10238C009C740008207500088475000828760008E5
:10239C00CC7C00080402002010B582B0684604F022
:1023AC0033FC9DF8000004F0F7FFC4B20DF10100FE
:1023BC0004F0E1FD021E03DB632A02DD632200E070
:1023CC000022232C08D02146084800F075FB074852
:1023DC0000F0C4FB02B010BD1146044800F040FBF5
:1023EC000028F4D0024A1060F1E700BF040200207C
:1023FC00FC01002070B588B0002404940594069468
:10240C000794214B9A6942F010029A619A6902F082
:10241C0010020092009A9A6942F020029A619A691D
:10242C0002F020020192019A9A6942F008029A6124
:10243C009A6902F008020292029A9A6942F0040226
:10244C009A619B6903F004030393039B0F4D22468F
:10245C004FF400512846FEF731FE4FF4005304931D
:10246C000126059606940223079304A92846FEF735
:10247C0039FD4FF4004304930594069604A92846AD
:10248C00FEF730FD08B070BD001002400010014096
:10249C0000B583B00A4B5A6942F001025A615B697C
:1024AC0003F001030193019B002211460B20FEF760
:1024BC004DFB0B20FEF77EFB03B05DF804FB00BF69
:1024CC000010024070B584B000250195029503956B
:1024DC000C4C0D4B2360A560257325754FF4C02360
:1024EC00E3616560012626612046FEF71FFA08238A
:1024FC0001930296039501A92046FEF77DF804B0DE
:10250C0070BD00BFB00300200024014030B58BB07B
:10251C00002408940994019402940394049405945F
:10252C0006940794104D4FF080432B606C60AC60A8
:10253C001123EB602C61AC612846FFF7BBFA5023EA
:10254C0008938023099308A92846FFF701FC302340
:10255C00019302940394059404220DEB0201284686
:10256C00FFF70CFB0BB030BD6404002008B5084825
:10257C00084B03604FF41653436000238360C36021
:10258C0003610C2242618361C361FFF7DEFC08BD6D
:10259C00E00300200038014030B58BB000240894D3
:1025AC00099401940294039404940594069407945A
:1025BC00144D154B2B606C60AC60FF23EB602C61F1
:1025CC008023AB612846FFF78EFA0894099408A97A
:1025DC002846FFF7BDFB602301937F2302930394EE
:1025EC000594224601A92846FFF7F7FA04220DEBC1
:1025FC0002012846FFF7F1FA284600F01FF90BB04C
:10260C0030BD00BF700300200004004030B595B011
:10261C0000240C940D940F94109405940694079434
:10262C0008940994019402940394049401220A924C
:10263C004FF480330B930E920225119512934FF4A5
:10264C00E01313930AA8FEF755FD0F230593069587
:10265C0007944FF4806308930994294605A8FEF764
:10266C0089FF0195039401A8FFF75EF815B030BD02
:10267C0008B5FDF74DFFFFF7C9FFFFF7BBFEFFF7EE
:10268C0007FFFFF71FFFFFF741FFFFF76FFFFFF794
:10269C0083FF00F011F8002008BD704710B5044608
:1026AC00044B18680368DB6821469847204404F003
:1026BC0017F910BDFC01002008B503F04DF80121FD
:1026CC000C4800F0CDF90C4B186004F0FBF804F04A
:1026DC0015F90A4804F0F3FBFFF73EFE4FF47A704D
:1026EC00FDF73AFF064A1378013B1370FFF754FECF
:1026FC00FCE700BF04020020FC010020A0760008CB
:10270C000C00002082B00E4B9A6942F001029A61D3
:10271C009A6902F001020092009ADA6942F0805242
:10272C00DA61DB6903F080530193019B054A53681E
:10273C0023F0E06343F00073536002B0704700BFB6
:10274C00001002400000014010B586B00023029337
:10275C0003930493059302681F4B9A4201D006B071
:10276C0010BD044603F56C439A6942F400729A61F9
:10277C009A6902F400720092009A9A6942F0080277
:10278C009A619B6903F008030193019B0123029357
:10279C000323039302A91148FEF7A4FB1048114B25
:1027AC0003600023436083608023C3604FF4807315
:1027BC0003614FF480634361202383614FF4005322
:1027CC00C361FEF731FA18B9054B23625C62C6E7A8
:1027DC00FFF763FFF8E700BF00240140000C014045
:1027EC0020040020080002400368B3F1804F00D0A1
:1027FC00704782B003F50433DA6942F00102DA6102
:10280C00DB6903F001030193019B02B070470000E8
:10281C000268094B9A4200D0704782B003F503332B
:10282C00DA6942F00202DA61DB6903F00203019318
:10283C00019B02B0704700BF0004004000B587B098
:10284C00002302930393049305930268124B9A425C
:10285C0002D007B05DF804FB03F503339A6942F02C
:10286C0008029A619B6903F008030193019B3023D2
:10287C000293022303930323059302A90748FEF74F
:10288C0031FB074A536823F4406343F0E06343F49D
:10289C0000635360DDE700BF00040040000C014002
:1028AC000000014070B586B000230293039304939B
:1028BC00059302681B4B9A4201D006B070BD03F51C
:1028CC0058439A6942F480429A619A6902F48042B0
:1028DC000092009A9A6942F004029A619B6903F093
:1028EC0004030193019B4FF400730293022503959B
:1028FC00032305930C4E02A93046FEF7F3FA4FF46E
:10290C008063029300240394049402A93046FEF7DA
:10291C00E9FA224629462520FEF718F92520FEF76C
:10292C0049F9CAE700380140000801407047FEE74A
:10293C00FEE7FEE7FEE770477047704708B5FDF706
:10294C00F9FD08BD08B50248FEF72AFA08BD00BF1C
:10295C002004002008B50248FFF766FC08BD00BF44
:10296C00E00300200120704708B504F009FB162392
:10297C0003604FF0FF3008BD08B54FF0FF31FFF793
:10298C00F3FFFEE708B503460B4A126842B10A4A48
:10299C00106803446A46934206D8074A136008BD80
:1029AC00054A06491160F2E704F0EAFA0C230360C9
:1029BC004FF0FF30F3E700BF00020020A804002016
:1029CC000F4B1A6842F001021A6059680D4A0A400E
:1029DC005A601A6822F0847222F480321A601A68E3
:1029EC0022F480221A605A6822F4FE025A604FF4D4
:1029FC001F029A60044B4FF000629A60704700BF50
:102A0C00001002400000FFF800ED00E038B504466D
:102A1C0000230360416071B10D4618460BB104F000
:102A2C0082FA002323606560084B9D420AD8A800F7
:102A3C0004F07BFA20600023A3604FF0FF33E360C7
:102A4C00204638BD4FF0FF30F2E700BFFEFFFF1FFE
:102A5C008268036843F822108368013383607047EF
:102A6C0038B50D1E21DB8368AB4220DD0446114ACC
:102A7C00137801331370C368002B05DB026852F81E
:102A8C0023000368DB689847E560236853F825004A
:102A9C0003689B689847044603681B6D9847054A72
:102AAC001378013B1370204638BD0024FBE700244B
:102ABC00F9E700BF0C000020C368002B0DDB10B53C
:102ACC008468A34208DA006800EB830424B150F850
:102ADC00230003685B69984710BD704770B50646C4
:102AEC000024254600E00134B368A3421ADD1648E1
:102AFC0004F0CCF90A21204604F0D1F9134804F073
:102B0C00C5F9336853F8240003689B69984710484B
:102B1C0004F0BCF90135032DE5D10E4804F0CFF9D2
:102B2C000025E0E70B4804F0CAF90B4B83FB0523A7
:102B3C00A3EBE57303EB43039D4200D170BD054845
:102B4C0004F0BDF9FAE700BFE4760008E876000867
:102B5C00EC760008CC7C00085655555510B504464B
:102B6C00FFF7BCFF0D4804F091F90A21E06804F06E
:102B7C0096F90B4804F08AF9E268236853F82200AE
:102B8C0003689B699847074804F099F9E268236841
:102B9C0053F8220003681B69984710BDE4760008BF
:102BAC00E8760008CC7C000870470020704770471E
:102BBC000020704770470020704770470020704716
:102BCC007047002070477047002070477047002006
:102BDC007047704700207047436843B110B50446F6
:102BEC001A689268184690470023636010BD7047BE
:102BFC0008B503685B68984708BD00BF00207047A4
:102C0C00704700207047704708B503685B689847A9
:102C1C0008BDB0F92000704709B2018641867047A3
:102C2C00B0F930007047B0F9280070471220704797
:102C3C0008B54D2926D0522902D0442911D008BDFF
:102C4C000272406803681B691749098801FB02F28C
:102C5C00164981FB02C11144D217C2EBA11198474E
:102C6C00EDE74272406803681B6A0F49098801FB53
:102C7C0002F20E4981FB02C11144D217C2EBA11121
:102C8C009847DCE78272406803689B6906490988AB
:102C9C0001FB02F2054981FB02C11144D217C2EBC0
:102CAC00A1119847CBE700BF3E7E000803B57EA577
:102CBC0008B503685B68984708BDB0F920007047F9
:102CCC0009B2018641867047B0F930007047B0F9FF
:102CDC00280070470320704708B54D2926D052298B
:102CEC0002D0442911D008BD0272406803681B69E8
:102CFC001749098801FB02F2164981FB02C11144F4
:102D0C00D217C2EBA1119847EDE7427240680368F5
:102D1C001B6A0F49098801FB02F20E4981FB02C1B3
:102D2C001144D217C2EBA1119847DCE782724068BC
:102D3C0003689B690649098801FB02F2054981FB7E
:102D4C0002C11144D217C2EBA1119847CBE700BFC7
:102D5C003E7E000803B57EA508B503685B689847FE
:102D6C0008BDB0F93C007047B0F94C007047B0F9A1
:102D7C0044007047B0F95400704709B2A0F85C10D9
:102D8C00A0F85E107047B0F95C00704708207047DF
:102D9C0008B5413911291AD8DFE801F02B19191A95
:102DAC003C191919191919194D19191919090272FE
:102DBC00406803681B692849098801FB02F227490E
:102DCC0081FB02C11144D217C2EBA111984708BD77
:102DDC004272406803689B691F49098801FB02F233
:102DEC001E4981FB02C11144D217C2EBA1119847B5
:102DFC00EDE78272406803681B6A1749098801FB7A
:102E0C0002F2164981FB02C11144D217C2EBA11187
:102E1C009847DCE7C272406803689B6A0E490988D0
:102E2C0001FB02F20D4981FB02C11144D217C2EB26
:102E3C00A1119847CBE70273406803681B6B0649E6
:102E4C00098801FB02F2054981FB02C11144D2172A
:102E5C00C2EBA1119847BAE73E7E000803B57EA5E8
:102E6C0008B503685B68984708BDB0F92000704747
:102E7C0009B2018641867047B0F930007047B0F94D
:102E8C00280070471320704708B54D2926D05229C9
:102E9C0002D0442911D008BD0272406803681B6936
:102EAC001749098801FB02F2164981FB02C1114442
:102EBC00D217C2EBA1119847EDE742724068036844
:102ECC001B6A0F49098801FB02F20E4981FB02C102
:102EDC001144D217C2EBA1119847DCE7827240680B
:102EEC0003689B690649098801FB02F2054981FBCD
:102EFC0002C11144D217C2EBA1119847CBE700BF16
:102F0C003E7E000803B57EA508B503685B6898474C
:102F1C0008BDB0F920007047B0F930007047B0F927
:102F2C002800704709B2018741877047B0F9380013
:102F3C00704709B2A0F84010A0F842107047B0F9E1
:102F4C00400070470420704708B5443910291AD83E
:102F5C00DFE801F01A193C1919191919194D191929
:102F6C00191909192B000272406803681B6928495A
:102F7C00098801FB02F2274981FB02C11144D217D7
:102F8C00C2EBA111984708BD4272406803681B6AE6
:102F9C001F49098801FB02F21E4981FB02C1114441
:102FAC00D217C2EBA1119847EDE7C27240680368D3
:102FBC009B691749098801FB02F2164981FB02C182
:102FCC001144D217C2EBA1119847DCE70273406899
:102FDC0003689B6A0E49098801FB02F20D4981FBCB
:102FEC0002C11144D217C2EBA1119847CBE78272F0
:102FFC00406803681B6B0649098801FB02F205490E
:10300C0081FB02C11144D217C2EBA1119847BAE758
:10301C003E7E000803B57EA508B503685B6898473B
:10302C0008BDB0F94800704709B2A0F86010A0F8CC
:10303C0062107047B0F960007047B0F950007047EB
:10304C0009B2A0F85810A0F85A107047B0F95800FF
:10305C00704780F8C810704790F8C800704705207A
:10306C007047704708B5413911291AD8DFE801F0CB
:10307C003C19191A192B1919191919194A1919194D
:10308C0019090272406803681B692749098801FB0A
:10309C0002F2264981FB02C11144D217C2EBA111E5
:1030AC00984708BD4272406803681B6A1E4909882C
:1030BC0001FB02F21D4981FB02C11144D217C2EB84
:1030CC00A1119847EDE78272406803689B6A164924
:1030DC00098801FB02F2154981FB02C11144D21788
:1030EC00C2EBA1119847DCE7022A04D0042A02D0D3
:1030FC00062A00D006220273406803681B6B114637
:10310C009847CEE7C272406803689B6906490988F4
:10311C0001FB02F2054981FB02C11144D217C2EB3B
:10312C00A1119847BDE700BF3E7E000803B57EA500
:10313C0008B503685B68984708BD09B28180C180F7
:10314C007047B0F90400704708B5B0F90C10C9000D
:10315C00A1F5B3411A3942F2D7320023C8034914FE
:10316C00FCF7F6FF054B1B8803FB00F0044B83FBBD
:10317C0000230344C017C0EBA33008BD3E7E0008FB
:10318C00030001800B20704708B54D2912D052293D
:10319C000FD10272406803681B6A0F49098801FB52
:1031AC0002F20E4981FB02C11144D217C2EBA111EC
:1031BC00984708BD4272406803681B690649098834
:1031CC0001FB02F2054981FB02C11144D217C2EB8B
:1031DC00A1119847EDE700BF3E7E000803B57EA520
:1031EC0008B503685B68984708BD0000054B1A8852
:1031FC00531E01FB03F191FBF2F1013109B2818104
:10320C00C18170473E7E0008B0F90C007047000089
:10321C00064B1A88A2F10A0301FB03F191FBF2F1B0
:10322C000A3109B28180C180704700BF3E7E000820
:10323C00B0F90400704780F83410704790F83400EF
:10324C00704709207047B0F906300381B0F90E3091
:10325C00038200238361C3627047000008B54D29C7
:10326C0026D0522902D0442911D008BD02814068D1
:10327C0003681B691449098801FB02F2134981FB9D
:10328C0002C11144D217C2EBA1119847EDE742815C
:10329C00406803681B6A0C49098801FB02F20B4960
:1032AC0081FB02C11144D217C2EBA1119847DCE794
:1032BC00531E012B05D9406803681B6B11469847B8
:1032CC00D3E78281F7E700BF3E7E000803B57EA5F9
:1032DC0008B503685B68984708BD0000054B1A8861
:1032EC00531E01FB03F191FBF2F1013109B2818014
:1032FC00C18070473E7E0008B0F9040070470A2078
:10330C007047B0F906300381002303617047000059
:10331C00462900D0704708B50281406803681B69D4
:10332C000649098801FB02F2054981FB02C11144DF
:10333C00D217C2EBA111984708BD00BF3E7E000812
:10334C0003B57EA57047704770477047704770474C
:10335C0070477047704770477047704770477047A9
:10336C007047000008B5024803F090FD08BD00BF8F
:10337C00187C000808B5024803F088FD08BD00BFA2
:10338C00887D000808B5024803F080FD08BD00BF29
:10339C002C7C000808B5024803F078FD08BD00BF7E
:1033AC00BC7D000808B5024803F070FD08BD00BFE5
:1033BC00087E000808B5024803F068FD08BD00BF90
:1033CC00F87C000808B5024803F060FD08BD00BF9A
:1033DC003C7C000808B5024803F058FD08BD00BF4E
:1033EC00D07C000808B5024803F050FD08BD00BFB2
:1033FC00507D000808B5024803F048FD08BD00BF29
:10340C00187E000808B5024803F059FD08BD00BF3E
:10341C00207C000810B50446042003F08AFD024A03
:10342C000260606010BD00BFF876000838B5044635
:10343C001C2003F07EFD104D0560002202814DF230
:10344C00B611C160026142610C4A826132228280F3
:10345C00C2806060B4F908102A69094B1B8803FB11
:10346C0001F3084981FB03511944DB17C3EBA1118C
:10347C009047606838BD00BF9C7B00084C800008FA
:10348C003E7E000803B57EA570B50546382003F0D6
:10349C0050FD1D4901604DF2B6124261002282615D
:1034AC00C2611A4C046249F6404444628262C262B0
:1034BC000263012280F8342032228280C280828111
:1034CC00C281028102826860B5F908300A6910492C
:1034DC000C8804FB03F30F4E86FB03C11944DB1766
:1034EC00C3EBA1119047B5F90A3068680268126AFB
:1034FC0004FB03F386FB03411944DB17C3EBA11157
:10350C009047686870BD00BF187B00084C800008AD
:10351C003E7E000803B57EA510B50446042103F0D9
:10352C0006FD204610BD10B50446CC2103F0FFFC6F
:10353C00204610BD10B5044642F65C6103F0F7FC62
:10354C00204610BD10B50446382103F0F0FC20468F
:10355C0010BD10B504461C2103F0E9FC204610BD3B
:10356C0010B50446082103F0E2FC204610BD10B54E
:10357C0004460C2103F0DBFC204610BD10B50446BC
:10358C000C2103F0D4FC204610BD10B504461021CC
:10359C0003F0CDFC204610BD10B504460C2103F001
:1035AC00C6FC204610BD10B50446102103F0BFFC2C
:1035BC00204610BD10B50446102103F0B8FC20467F
:1035CC0010BD10B504460C2103F0B1FC204610BD13
:1035DC0010B50446102103F0AAFC204610BD10B50E
:1035EC0004460C2103F0A3FC204610BD10B5044684
:1035FC000C4803F04BFC0A2194F9080003F066FC1C
:10360C00094803F043FC0A2194F9090003F05EFC1D
:10361C00064803F03BFC0A2194F90A0003F056FC1F
:10362C0010BD00BF987D0008A47D0008B07D000887
:10363C0010B504460C4803F029FC0A2194F9080043
:10364C0003F044FC094803F021FC0A2194F9090019
:10365C0003F03CFC064803F019FC0A2194F90A001B
:10366C0003F034FC10BD00BF987D0008A47D000859
:10367C00B07D000810B50446144803F007FC0A217D
:10368C0094F9080003F022FC114803F0FFFB0A2117
:10369C0094F9090003F01AFC0E4803F0F7FB0A2119
:1036AC0094F90A0003F012FC0B4803F0EFFB0A211B
:1036BC0094F90B0003F00AFC084803F0E7FB0A211D
:1036CC0094F90C0003F002FC10BD00BFC87D00088B
:1036DC00D87D0008E87D0008F87D0008B07D000862
:1036EC0010B504460C4803F0D1FB0A2194F90800EC
:1036FC0003F0ECFB094803F0C9FB0A2194F909001B
:10370C0003F0E4FB064803F0C1FB0A2194F90A001C
:10371C0003F0DCFB10BD00BF987D0008A47D000801
:10372C00B07D000810B50446144803F0AFFB0A2125
:10373C0094F9080003F0CAFB114803F0A7FB0A2117
:10374C0094F9090003F0C2FB0E4803F09FFB0A2119
:10375C0094F90B0003F0BAFB0B4803F097FB0A211A
:10376C0094F90C0003F0B2FB084803F08FFB0A211C
:10377C0094F90A0003F0AAFB10BD00BF007D0008FD
:10378C00107D0008207D0008307D0008407D000879
:10379C0010B50446144803F079FB0A2194F908008B
:1037AC0003F094FB114803F071FB0A2194F9090012
:1037BC0003F08CFB0E4803F069FB0A2194F90A0014
:1037CC0003F084FB0B4803F061FB0A2194F90C0015
:1037DC0003F07CFB084803F059FB0A2194F90B0019
:1037EC0003F074FB10BD00BF447C0008607C000833
:1037FC007C7C0008987C0008B47C000810B504465A
:10380C00084803F043FB0A2194F9080003F05EFB1F
:10381C00054803F03BFB0A2194F9090003F056FB21
:10382C0010BD00BFD87C0008E87C000810B5044629
:10383C000C4803F02BFB0A21B4F9080003F046FBFB
:10384C00094803F023FB0A21B4F90A0003F03EFBFC
:10385C00064803F01BFB0A21B4F90C0003F036FBFD
:10386C0010BD00BF587D0008687D0008787D0008F9
:10387C0010B50446044803F009FB0A21B4F908000A
:10388C0003F024FB10BD00BF287E000870B5044671
:10389C000D46B0F91030B0F90E20934201DA013325
:1038AC000382B4F910309A4201DA013B2382B4F955
:1038BC001010594B1A88A2F11B0303FB01F393FB65
:1038CC00F2F31B3394F83420012A21D0022A33D08E
:1038DC00012A3DD0022A6ED005F30F05B4F9083049
:1038EC00B4F90620934201DA01332381B4F908308C
:1038FC009A4201DA013B2381B4F9083003FB05F34A
:10390C00464880FB03201844DB17C3EBE02070BD56
:10391C00606A00280EDB8010414991FBF0F101FB3D
:10392C0003F1404880FB01600844C917C1EB20211A
:10393C00A162CBE70330EEE7616901FB03F3394980
:10394C0081FB03011944DB17C3EB2123E361BFE7C0
:10395C0004F124029168D3685BB1012B14D00029C7
:10396C001FDBCB1305FB03F5002D1FDBED136D42A5
:10397C00B2E7536890680344936029488342EEDDB4
:10398C0090600123D360EAE7506893681B1A936038
:10399C00B3F1404FE3DA4FF0404393600023D36020
:1039AC00DDE701F5FF437F33DB13DBE705F5FF456F
:1039BC007F35ED13DBE704F11406706800281CDB7F
:1039CC00C013F16880B203F029FA7368B26813442B
:1039DC007360002B16DB00EB80000346B0F5004F44
:1039EC0001DD4FF4004313F5004F00DA0E4B05FBDD
:1039FC0003F5002D0BDBED136EE700F5FF407F3078
:103A0C00C013DEE723F0004301337360E3E705F5F1
:103A1C00FF457F35ED135FE73E7E0008810008808F
:103A2C000080FF3FF1000FF00080FFFF10B504464F
:103A3C00034B0360406808B103F075FA204610BDD3
:103A4C007C77000810B50446054B0360406808B14C
:103A5C0003F069FA8821204603F069FA204610BD6C
:103A6C007C77000810B50446034B0360406808B12E
:103A7C0003F059FA204610BD0078000810B5044632
:103A8C00054B0360406808B103F04DFAA4212046B1
:103A9C0003F04DFA204610BD0078000810B504461E
:103AAC00054B0360006908B103F03DFA606808B18A
:103ABC0003F039FA204610BD8478000810B504468E
:103ACC00034B0360406808B103F02DFA204610BD8B
:103ADC000879000810B50446054B0360406808B12E
:103AEC0003F021FAA421204603F021FA204610BD50
:103AFC000879000810B50446034B0360406808B110
:103B0C0003F011FA204610BD8C79000810B504465C
:103B1C00054B0360406808B103F005FA702120469C
:103B2C0003F005FA204610BD8C7900082DE9F04110
:103B3C0004460D46012806D01CB94FF6FF739D4272
:103B4C0068D0BDE8F0814FF6FF739942F4D10A2199
:103B5C003448FEF75BFF344A00235360334911604D
:103B6C00334A5360334911601E211172517246273A
:103B7C009772314A536031481060117251729772CA
:103B8C002F4A53602F481060322010721426567240
:103B9C009672D67217732C4A5360DFF8D4C0C2F8F1
:103BAC0000C04FF0050C82F808C04FF0500C82F8A2
:103BBC0009C04FF03C0E82F80AE0244A5360DFF84B
:103BCC00B480C2F80080117251729772D67217735A
:103BDC001F4A53601F491160107250729672632114
:103BEC00D172062111731C4A53601C49116082F872
:103BFC0008C082F809E01A4A53601A491160108112
:103C0C00A2F80AC001219181174A5360174B136027
:103C1C00108191E7034B1868002892D003F083F9C8
:103C2C008FE700BF040200204C02002058770008E8
:103C3C0020020020DC7700081402002060780008C5
:103C4C002C020020E47800087C0200203C020020BA
:103C5C0054020020707A000864020020F47A0008F4
:103C6C0088020020787B000870020020FC7B000892
:103C7C0068790008EC79000810B50446002343610C
:103C8C00383003F0C5F804F1600003F0C1F8B4F962
:103C9C002230A384B4F92A30A385B4F93230A38638
:103CAC00A368013B2BB16268002122F81310013B81
:103CBC00F8E7636800221A8010BD10B50446002393
:103CCC004361383003F0A4F804F1600003F0A0F86D
:103CDC00B4F92230A384B4F92A30A385B4F9323074
:103CEC00A386A368013B2BB16268002122F8131054
:103CFC00013BF8E7636800221A8010BD10B504463A
:103D0C00002303620363643003F082F804F18C0037
:103D1C0003F07EF8B4F93E30A4F84030B4F94630E4
:103D2C00A4F84830B4F94E30A4F85030B4F95630F9
:103D3C00A4F85830B4F95E30A4F86030A368013BA5
:103D4C002BB16268002122F81310013BF8E763687D
:103D5C0000221A806369013B2BB12269002122F8F1
:103D6C001310013BF8E7236900221A8010BD10B52F
:103D7C00044600234361383003F04AF804F1600034
:103D8C0003F046F8B4F92230A384B4F92A30A385A1
:103D9C00B4F93230A386A368013B2BB162680021D1
:103DAC0022F81310013BF8E7636800221A8010BD5B
:103DBC0008B5B0F922308384B0F932308386B0F97B
:103DCC002A308385B0F93A308387B0F94230A0F8B5
:103DDC0044308368013B2BB14268002122F8131058
:103DEC00013BF8E74268002313804361483003F03D
:103DFC000FF808BD10B50446B0F906300381B0F9D0
:103E0C000E30038200F536503C3003F001F804F517
:103E1C003750243002F0FCFF04F538500C3002F01F
:103E2C00F7FF002200E00132072A11DC0021C2EB6F
:103E3C00C200830023441B6B8B42F4DDC2EBC20037
:103E4C0083002344DB6A002023F811000131EEE7E4
:103E5C00002212E002EB420083002344D3F8FC3032
:103E6C00002023F81100013102EB420083002344AF
:103E7C00D3F800318B42EDDC0132032A01DC002146
:103E8C00F2E7002342F65862A35042F65462A35064
:103E9C0042F65062A35042F64C62A35042F648627E
:103EAC00A35004F5385463642364E363A36310BD27
:103EBC0010B50446074B0360006908B103F033F8F2
:103ECC00606808B103F02FF8D021204603F02FF8DA
:103EDC00204610BD8478000838B50C46B0F908307F
:103EEC00B0F90620934201DA01330381B0F90830AE
:103EFC009A4201DA013B0381B0F908101B4B1A8876
:103F0C00A2F11E0303FB01F393FBF2F31E3300F14A
:103F1C000C05C26803FB02F303EBD3735B10436124
:103F2C006868002813DBC013E96880B202F076FFE2
:103F3C006B68AA6813446B60002B0DDB04FB00F06C
:103F4C0000280EDBC01300F30F00001B38BD00F57A
:103F5C00FF407F30C013E7E723F0004301336B6071
:103F6C00ECE700F5FF407F30C013ECE73E7E000825
:103F7C002DE9F0470E4600F1600700F18805D5F8F1
:103F8C000880B8F1000F09D0B8F1010F00F0528190
:103F9C006968384602F0DDFEBDE8F087D0F888404D
:103FAC00E968C4F89C10B4F92430B4F92220934287
:103FBC0001DA0133A384B4F924309A4201DA013BCB
:103FCC00A384B4F92400974B1A88A2F1290303FBAC
:103FDC0000F393FBF2F303F1290204F110092369B6
:103FEC0003FB02F3904A82FB03021A44DB17C3EB78
:103FFC00A223A361E268636823F81210E36801331B
:10400C00E360A268934201D30023E360B4F92C303F
:10401C00B4F92A20934201DA0133A385B4F92C3088
:10402C009A4201DA013BA385B4F92C004FF4C87312
:10403C0003FB00F37D4880FB032A9A44D817C0EB9E
:10404C00EA2AD9F804000028C0F2B280C013D9F8CB
:10405C000C1080B202F0E2FED9F80430D9F8082036
:10406C001344C9F80430002BC0F2A7800AF10103F5
:10407C00DB0300FB0A3010F5C80000F1A480C1136B
:10408C00A0EBC1304B1C00F1A380D4F808C09C45B8
:10409C0001D80CF1FF33E268D31A9E46002BC0F214
:1040AC009980D4F804A03AF91EE00EFB00FEC0F58E
:1040BC0000400029C0F291808C4501D80CF1FF31F1
:1040CC00531A1A46002BC0F28A803AF9123003FBBD
:1040DC0000E00028C0F28680C013C4F8A000B4F938
:1040EC002C30B4F92A20934201DA0133A385B4F9B8
:1040FC002C309A4201DA013BA385B4F92C004FF421
:10410C00C87303FB00F3494880FB032A9A44D81771
:10411C00C0EBEA2AD9F80430454A10680344184623
:10412C00002B64DB002866DBC013D9F80C1080B2BE
:10413C0002F074FE0AF10103DB0300FB0A3010F5F8
:10414C00C8005DD4C213A0EBC230531C5DD4D4F8AC
:10415C0008C09C4501D80CF1FF33E168CB1A994695
:10416C00002B54DBD4F804E03EF9193003FB00F3C8
:10417C00C0F50040002A00DB9046C44501D80CF184
:10418C00FF38A1EB08084246B8F1000F42DB3EF9BC
:10419C00122002FB0033002B3FDBDB13D4F8A020F2
:1041AC001344C4F8A0302E61AB680133AB60EFE66A
:1041BC0000F5FF407F30C01349E723F00043013383
:1041CC00C9F8043052E700F5FF437F33D91357E7A2
:1041DC0043465AE70CEB030E63E741466CE70CEBE6
:1041EC00030272E700F5FF407F30C01375E723F040
:1041FC000040013096E700F5FF407F30C01394E794
:10420C0000F5FF427F32D2139DE743469FE70CEB4C
:10421C000309A7E70CEB0802B9E703F5FF437F336B
:10422C00DB13BBE73E7E0008010210808100088092
:10423C00487E0008D0F88840B4F92C30B4F92A2014
:10424C00934201DA0133A385B4F92C309A4201DA96
:10425C00013BA385B4F92C004FF4C87303FB00F3A6
:10426C008C4880FB03299944D817C0EBE92904F149
:10427C001008D8F80430884A106803441846002BFC
:10428C00C0F2CE800028C0F2CF80C013D8F80C103A
:10429C0080B202F0C3FD09F10103DB0300FB09301E
:1042AC0010F5C80000F1C580C213A0EBC230531C3E
:1042BC0000F1C480D4F808C09C4501D80CF1FF3340
:1042CC00E168CB1A9946002BC0F2BA80D4F804E00E
:1042DC003EF9193003FB00F3C0F50040002AC0F290
:1042EC00B280944501D80CF1FF328A1A1146002A8B
:1042FC00C0F2AB803EF9112002FB0033002BC0F260
:10430C00A780DB13D4F8A0201344C4F8A030B4F970
:10431C002C30B4F92A20934201DA0133A385B4F985
:10432C002C309A4201DA013BA385B4F92C004FF4EE
:10433C00C87303FB00F3574880FB03299944D81733
:10434C00C0EBE929D8F80430544A106803441846E5
:10435C00002BC0F282800028C0F28380C013D8F8F2
:10436C000C1080B202F05AFD09F10103DB0300FBD3
:10437C00093010F5C80079D4C213A0EBC230531C1D
:10438C0079D4D4F808C09C4501D80CF1FF33E1680E
:10439C00CB1A9846002B70DBD4F804E03EF91830A9
:1043AC0003FB00F3C0F50040002A69DB944501D8FB
:1043BC000CF1FF328A1A1146002A63DB3EF91120F8
:1043CC0002FB0033002B60DBDB13D4F8A02013447A
:1043DC00C4F8A030B4F93420B4F932108A4201DAAE
:1043EC000132A286B4F93420914201DA013AA28654
:1043FC00B4F9342002FB03F3264A82FB03121A445D
:10440C00DB17C3EBE223C4F8A0306B602B691E44AE
:10441C002E6106EBD6767610EE600023AB60B7E526
:10442C0023F0004001302DE700F5FF407F30C01332
:10443C002CE700F5FF427F32D21336E7002339E731
:10444C000CEB030942E700224BE70CEB020151E7AE
:10445C0003F5FF437F33DB1354E723F000400130B7
:10446C0079E700F5FF407F30C01378E700F5FF4295
:10447C007F32D21381E7002383E70CEB03088BE731
:10448C00002293E70CEB020198E703F5FF437F331F
:10449C00DB139AE781000880407E0008447E000808
:1044AC00F8B50446383002F0F5FBB4F92430B4F911
:1044BC002220934201DA0133A384B4F924309A42C6
:1044CC0001DA013BA384B4F92410594B1A88A2F1E8
:1044DC00290303FB01F393FBF2F3293304F11005D9
:1044EC00226903FB02F3534A82FB03121A44DB17C3
:1044FC00C3EB2223A361B4F92C30B4F92A209342E4
:10450C0001DA0133A385B4F92C309A4201DA013B6C
:10451C00A385B4F92C204FF4C87303FB02F3464E69
:10452C0086FB03261E44DB17C3EBE626E2686368B2
:10453C0023F81200E3680133E360A268934201D3CD
:10454C000023E3606868002856DBC013E96880B27A
:10455C0002F064FC6B68AA6813446B60002B50DBA0
:10456C00731CDB0306FB003010F5C8004ED4C313DC
:10457C00A0EBC3305A1C4ED4A668964200D8721ECB
:10458C00E568AA1A1746002A47DB616831F917203B
:10459C0000FB02F2C0F50040002B40DBB34200D31D
:1045AC00731EEB1A1D46002B3BDB31F9151000FB7B
:1045BC000120002837DBC01300F30F0104F1600069
:1045CC0002F068FBB4F93420B4F93210914201DDE9
:1045DC000132A286B4F93420914201DA013AA28662
:1045EC00B4F9343003FB00F3134880FB0320184468
:1045FC00DB17C3EBE020F8BD00F5FF407F30C013A4
:10460C00A4E723F0004301336B60A9E700F5FF43F7
:10461C007F33DB13ACE70022AEE7B718B5E7002316
:10462C00BCE79D19C1E700F5FF407F30C013C3E71D
:10463C003E7E000889163CA0810008802DE9F041DF
:10464C0004460D46B0F92430B0F92220934201DA29
:10465C0001338384B4F924309A4201DA013BA384F8
:10466C00B4F924107B4B1A88A2F1290303FB01F344
:10467C0093FBF2F3293304F11006226903FB02F3D6
:10468C00754A82FB03121A44DB17C3EB2223A36186
:10469C00B4F92C30B4F92A20934201DA0133A38502
:1046AC00B4F92C309A4201DA013BA385B4F92C8081
:1046BC004FF4C87303FB08F3684880FB0328984445
:1046CC00D817C0EBE828B4F93430B4F9322093424F
:1046DC0001DA0133A386B4F934309A4201DA013B92
:1046EC00A386B4F934004FF4487303FB00F35B4F1B
:1046FC0087FB03271F44D817C0EBE72770680028F7
:10470C005CDBC013F16880B202F088FB7368B2689E
:10471C0013447360002B56DB08F10103DB0308FB29
:10472C00003010EBC73053D4C313A0EBC3305A1C6A
:10473C0053D4A768974200D87A1EE1688A1A944627
:10474C00002A4CDB666836F91C2000FB02F2C0F52F
:10475C000040002B46DBBB4200D37B1ECB1A194614
:10476C00002B41DB36F9116000FB062000283DDBF5
:10477C00C01300F30F06B4F93C30B4F93A2093425D
:10478C0001DA0133A387B4F93C309A4201DA013BD8
:10479C00A387B4F93C3003FB06F3304981FB0321BA
:1047AC001944DB17C3EBE12129442D4B994222DB41
:1047BC0042F2107399421FDD19461DE000F5FF40CF
:1047CC007F30C0139EE723F0004301337360A3E7EF
:1047DC0000F5FF437F33DB13A7E70022A9E707EBC4
:1047EC00020CAFE70023B6E7D919BBE700F5FF4091
:1047FC007F30C013BDE71A4904F1480002F04AFAB1
:10480C00E268636823F81200E3680133E360A2688E
:10481C00934201D30023E360B4F94430B4F942204D
:10482C009A4202DD0133A4F84430B4F94430934287
:10483C0002DD013BA4F84430B4F9440000FB06F659
:10484C00064880FB06303044F617C6EBE020BDE886
:10485C00F08100BF3E7E000889163CA081000880D4
:10486C00F0D8FFFF2DE9F843044600F1600700F192
:10487C008805383002F06DFA0646AB683BB1012B67
:10488C0040D06968384602F064FABDE8F883D4F881
:10489C008830E868C3F89C00B3F92420B3F92210DF
:1048AC008A4201DA01329A84B3F92420914201DA66
:1048BC00013A9A84B3F92440684A1188A1F129027B
:1048CC0002FB04F292FBF1F202F129011A6902FBDC
:1048DC0001F2634981FB02411144D217C2EB212240
:1048EC009A61D9685A6822F81100DA680132DA60E4
:1048FC0099688A4201D30022DA602E61AB680133D9
:10490C00AB60BEE7D4F88840B4F92C30B4F92A2057
:10491C00934201DA0133A385B4F92C309A4201DABF
:10492C00013BA385B4F92C204FF4C87303FB02F3AD
:10493C004C4A82FB03289844DA17C2EBE82804F1AE
:10494C001009D9F80400002869DBC013D9F80C1041
:10495C0080B202F063FAD9F80430D9F80820134475
:10496C00C9F80430002B5FDB08F10102D20300FB15
:10497C00082212F5C8025DD4D113A2EBC1324B1C34
:10498C005DD4D4F808C09C4501D80CF1FF33E06825
:10499C00C31A9846002B54DBD4F804E03EF91830C7
:1049AC0003FB02F3C2F5004200294DDB8C4501D814
:1049BC000CF1FF31411A0846002947DB3EF9101073
:1049CC0001FB0233002B44DBDB1303F30F03C4F8AE
:1049DC00A030B4F93420B4F932108A4201DA013231
:1049EC00A286B4F93420914201DA013AA286B4F9D4
:1049FC00342002FB03F31B4A82FB03121A44DB171D
:104A0C00C3EBE223C4F8A0306B602B691E442E610B
:104A1C0006EBD6767610EE600023AB6031E700F53E
:104A2C00FF407F30C01391E723F000430133C9F8F6
:104A3C00043099E702F5FF417F31C9139DE700234C
:104A4C009FE70CEB0308A7E70021AFE70CEB010095
:104A5C00B4E703F5FF437F33DB13B6E73E7E000874
:104A6C0089163CA0810008802DE9F047044600F12E
:104A7C008C0700F1B405643002F06BF90646D5F8EA
:104A8C000880B8F1000F09D0B8F1010F00F0C88010
:104A9C006968384602F05DF9BDE8F087D4F8B44097
:104AAC00E968C4F8C810B4F94030B4F93E20934218
:104ABC0002DA0133A4F84030B4F940309A4202DAF9
:104ACC00013BA4F84030B4F94000C94B1A88A2F15C
:104ADC00290303FB00F393FBF2F303F1290204F126
:104AEC001C09E36903FB02F3C24A82FB03021A446A
:104AFC00DB17C3EB22236362E268636823F81210AE
:104B0C00E3680133E360A268934201D30023E360BE
:104B1C00B4F95030B4F94E20934202DA0133A4F8C0
:104B2C005030B4F950309A4202DA013BA4F85030BC
:104B3C00B4F950004FF4C87303FB00F3AE4880FB8C
:104B4C00032A9A44D817C0EBEA2AD9F804000028A3
:104B5C0049DBC013D9F80C1080B202F05FF9D9F818
:104B6C000430D9F808201344C9F80430002B3FDB7B
:104B7C000AF10103DB0300FB0A3010F5C8003DD439
:104B8C00C213A0EBC230531C3DD4D4F808C09C45D2
:104B9C0001D80CF1FF33E168CB1A9946002B34DBBA
:104BAC00D4F804E03EF9193003FB00F3C0F50040E3
:104BBC00002A00DB9046C44501D80CF1FF38A1EB6C
:104BCC0008084246B8F1000F22DB3EF9122002FB26
:104BDC000033002B1FDBDB13C4F8CC302E61AB6829
:104BEC000133AB6054E700F5FF407F30C013B1E7F1
:104BFC0023F000430133C9F80430B9E700F5FF4254
:104C0C007F32D213BDE74346BFE70CEB0309C7E77E
:104C1C000CEB0802D9E703F5FF437F33DB13DBE72B
:104C2C00D4F8B440B4F94830B4F94620934202DACF
:104C3C000133A4F84830B4F948309A4202DA013B07
:104C4C00A4F84830B4F94810694B1A88A2F129032A
:104C5C0003FB01F393FBF2F303F1290204F12C089B
:104C6C00E36A03FB02F3634A82FB03121A44DB1769
:104C7C00C3EB22236363B4F9CC10A269236923F834
:104C8C001210A3690133A3616269934201D300231B
:104C9C00A361B4F95830B4F95620934202DA0133C7
:104CAC00A4F85830B4F958309A4202DA013BA4F80F
:104CBC005830B4F958204FF4C87303FB02F34E4A32
:104CCC0082FB03299944DA17C2EBE929D8F80400CE
:104CDC0000286EDBC013D8F80C1080B202F09EF8DE
:104CEC00D8F80430D8F808201344C8F80430002B46
:104CFC0064DB09F10102D20300FB092212F5C802A0
:104D0C0062D4D113A2EBC1324B1C62D4D4F814C0C0
:104D1C009C4501D80CF1FF33A069C31A9846002BAF
:104D2C0059DBD4F810E03EF9183003FB02F3C2F55E
:104D3C000042002952DB8C4501D80CF1FF31411A9D
:104D4C00084600294CDB3EF9101001FB0233002B06
:104D5C0049DBDB13D4F8CC20134403F30F03C4F862
:104D6C00CC30B4F96020B4F95E108A4202DA013218
:104D7C00A4F86020B4F96020914202DA013AA4F858
:104D8C006020B4F9602002FB03F31B4A82FB031280
:104D9C001A44DB17C3EBE223C4F8CC306B602B69ED
:104DAC001E442E6106EBD6767610EE600023AB60C7
:104DBC006EE600F5FF407F30C0138CE723F0004314
:104DCC000133C8F8043094E702F5FF417F31C91371
:104DDC0098E700239AE70CEB0308A2E70021AAE767
:104DEC000CEB0100AFE703F5FF437F33DB13B1E7B7
:104DFC003E7E000889163CA081000880F8B5044668
:104E0C00783001F047FF0546B4F94C30B4F94A202C
:104E1C00934202DA0133A4F84C30B4F94C309A4284
:104E2C0002DA013BA4F84C30B4F94C10C64B1A888A
:104E3C00931E03FB01F393FBF2F3023304F16807B7
:104E4C00A16E03FB01F3C14981FB0301DB17C3EB2B
:104E5C0061132367B4F95430B4F952108B4202DA5F
:104E6C000133A4F85430B4F95430994202DA013BBE
:104E7C00A4F85430B4F95430C3EBC33393FBF2F3BE
:104E8C002364B4F95C30B4F95A108B4202DA013362
:104E9C00A4F85C30B4F95C30994202DA013BA4F816
:104EAC005C30B4F95C1047F2323303FB01F393FB33
:104EBC00F2F3E363A66B636BF61A7868002845DBA4
:104ECC00C013F96880B201F0A9FF7A68BB681A4474
:104EDC007A60002A3FDB236C03FB00F0C01300F563
:104EEC00004000EBD070401006FB00F0666B06EB48
:104EFC00E03094F8C830022B32D0042B6DD0062B46
:104F0C0000F0C88000216164B4F96430B4F9622007
:104F1C00934202DA0133A4F86430B4F964309A4253
:104F2C0002DA013BA4F86430B4F9643003FB01F3FA
:104F3C00874981FB0321CA18D917C1EBE22101F380
:104F4C000F0104F1A00001F0A5FEF8BD00F5FF4033
:104F5C007F30C013B5E722F0004201327A60BAE725
:104F6C00002101290BDC04EBC106C0F5004200F561
:104F7C000043D20392FBF3F373600131F1E7E36B6F
:104F8C00626CED0302FB0355002D17DBED13E36898
:104F9C00226903FB1522002A15DBD213ED0302FB59
:104FAC00035525616068A36800FB1233002B0FDBEF
:104FBC00D913D20301FB0022A260A4E705F5FF453B
:104FCC007F35ED13E3E702F5FF427F32D213E5E7BD
:104FDC0003F5FF437F33D913EBE7002103290BDCE7
:104FEC0004EBC106C0F5004200F50043D20392FB6E
:104FFC00F3F373600131F1E7E36B626CED0302FBD9
:10500C000355002D2DDBED13E369226A03FB1522FA
:10501C00002A2BDBD213ED0302FB035525626169D9
:10502C00A36901FB1233002B25DBDB13D20303FB3B
:10503C000122A261E168226901FB1322002A1FDB15
:10504C00D213DB0302FB013323616068A36800FB0E
:10505C001233002B19DBD913D20301FB0022A260FF
:10506C0051E705F5FF457F35ED13CDE702F5FF421E
:10507C007F32D213CFE703F5FF437F33DB13D5E742
:10508C0002F5FF427F32D213DBE703F5FF437F3398
:10509C00D913E1E7002105290BDC04EBC106C0F5AF
:1050AC00004200F50043D20392FBF3F3736001312D
:1050BC00F1E7E36B626CED0302FB0355002D49DB5A
:1050CC00ED13E36A226B03FB1522002A47DBD21394
:1050DC00ED0302FB03552563616AA36A01FB1233DE
:1050EC00002B41DBDB13D20303FB0122A262E1693B
:1050FC00226A01FB1322002A3BDBD213DB0302FBE7
:10510C00013323626169A36901FB1233002B35DB88
:10511C00DB13D20303FB0122A261E168226901FBCC
:10512C001322002A2FDBD213DB0302FB0133236192
:10513C006068A36800FB1233002B29DBD913D20360
:10514C0001FB0022A260DEE63E7E0008B5814E1B0C
:10515C008100088005F5FF457F35ED13B1E702F5B9
:10516C00FF427F32D213B3E703F5FF437F33DB13E8
:10517C00B9E702F5FF427F32D213BFE703F5FF43D5
:10518C007F33DB13C5E702F5FF427F32D213CBE747
:10519C0003F5FF437F33D913D1E700BF2DE9F84363
:1051AC00064600F536503C3001F074FD804642F660
:1051BC003463F518AA6852B1012A00F0F8806968C6
:1051CC0006F53750243001F065FDBDE8F883F4583E
:1051DC00E96842F64863E150B4F91030B4F90E10A6
:1051EC008B4201DA01332382B4F91030994201DA8F
:1051FC00013B2382B4F91000C000072A07DCC2EB84
:10520C00C2018B001833234458600132F5E742F693
:10521C004863E15804F538500C3001F03BFD6369EC
:10522C0003FB00F00028C0F29F80C01342F64863D5
:10523C00E05042F64C630022E25004F11C0CDCF806
:10524C001010DCF8189031F919E0DCF80C30DCF8AF
:10525C000420DCF8087002FB07F203FB0E23002B82
:10526C00C0F28780DB13CCF80430E26902FB03F355
:10527C00002BC0F28380DB13034403F30F0321F8EC
:10528C001930DCF818300133CCF81830DCF8142065
:10529C00934202DB0023CCF8183042F64C62A35840
:1052AC007344A35004F1380342F6486254F802C028
:1052BC001869D3F8189030F919E0DA6859689F68C2
:1052CC0001FB07F102FB0E12002A5CDBD2135A60C1
:1052DC00A16B01FB02F2002A5ADBD213624402F3E7
:1052EC000F0220F819209A6901329A6159698A4291
:1052FC0001DB00229A6142F64C62A3587344A3501E
:10530C0004F1540342F6486254F802C01869D3F809
:10531C00189030F919E0DA6859689F6801FB07F1B9
:10532C0002FB0E12002A38DBD2135A60616D01FBAE
:10533C0002F2002A36DBD213624402F30F0220F889
:10534C0019209A6901329A6159698A4201DB00225B
:10535C009A6142F64C62A3587344A350C5F810806E
:10536C00AB680133AB602AE700F5FF407F30C01318
:10537C005CE703F5FF437F33DB1374E703F5FF436F
:10538C007F33DB1378E702F5FF427F32D2139EE7BF
:10539C0002F5FF427F32D213A0E702F5FF427F32C3
:1053AC00D213C2E702F5FF427F32D213C4E7F3589F
:1053BC0003F1700242F6486153F801C01469D2F847
:1053CC00189034F919E0D1685068976800FB07F021
:1053DC0001FB0E010029C0F28A81C9135160186FBC
:1053EC0000FB01F10029C0F28781C913614401F36C
:1053FC000F0124F8191091690131916150698142B2
:10540C0001DB0021916142F64C615A5872445A50AA
:10541C0003F18C0242F6486153F801C01469D2F8CA
:10542C00189034F919E0D1685068976800FB07F0C0
:10543C0001FB0E010029C0F26481C9135160D3F83D
:10544C008C0000FB01F10029C0F26081C91361449A
:10545C0001F30F0124F81910916901319161506920
:10546C00814201DB0021916142F64C615A58724431
:10547C005A5003F1A80242F6486153F801C014696E
:10548C00D2F8189034F919E0D1685068976800FB8D
:10549C0007F001FB0E010029C0F23D81C9135160D8
:1054AC00D3F8A80000FB01F10029C0F23981C9131F
:1054BC00614401F30F0124F81910916901319161D4
:1054CC005069814201DB0021916142F64C615A58CE
:1054DC0072445A5003F1C40242F6486153F801C0B9
:1054EC001469D2F8189034F919E0D16850689768AB
:1054FC0000FB07F001FB0E010029C0F21681C91355
:10550C005160D3F8C40000FB01F10029C0F21281F4
:10551C00C913614401F30F0124F819109169013189
:10552C0091615069814201DB0021916142F64C612D
:10553C005A5872445A5003F1E00C42F6486253F840
:10554C0002E0DCF81040DCF8189034F91920DCF893
:10555C000C10DCF80400DCF8087000FB07F001FB11
:10556C0002010029C0F2EB80C913CCF80410D3F867
:10557C00E00000FB01F10029C0F2E680C913714480
:10558C0001F30F0124F81910DCF818100131CCF8D4
:10559C001810DCF81400814202DB0021CCF8181042
:1055AC0042F64C61585802445A50D3F8FC40D3F898
:1055BC0004C134F91C00811A00EBD07002EB6002BC
:1055CC0002F30F0224F81C20D3F804210132C3F893
:1055DC000421D3F80001824202DB0022C3F804212B
:1055EC0042F64C629950D3F80841D3F810C134F903
:1055FC001C00421A00EBD07001EB600101F30F01AB
:10560C0024F81C10D3F810110131C3F81011D3F881
:10561C000C01814202DB0021C3F8101142F64C61EF
:10562C005A50D3F81441D3F81CC134F91C00811A18
:10563C0000EBD07002EB600202F30F0224F81C2086
:10564C00D3F81C210132C3F81C21D3F81801824273
:10565C0002DB0022C3F81C2142F64C629950D3F8AD
:10566C002041D3F828C134F91C00421A00EBD07049
:10567C0001EB600101F30F0124F81C10D3F8281181
:10568C000131C3F82811D3F82401814202DB002137
:10569C00C3F8281102F30F0142F64C629950B3F98A
:1056AC000820B3F90600824201DA01321A81B3F9FB
:1056BC000820904201DA013A1A81B3F9082002FB62
:1056CC0001F2244981FB02011144D217C2EBE12201
:1056DC0042F64C615A506A602B6908EB03072F6144
:1056EC0007EBD7777F10EF600023AB6067E501F520
:1056FC00FF417F31C91371E601F5FF417F31C913B9
:10570C0074E601F5FF417F31C91397E601F5FF41BE
:10571C007F31C9139BE601F5FF417F31C913BEE60A
:10572C0001F5FF417F31C913C2E601F5FF417F311D
:10573C00C913E5E601F5FF417F31C913E9E601F52F
:10574C00FF417F31C91310E701F5FF417F31C913C8
:10575C0015E700BF8100088010B5154C154920468F
:10576C00FDF776F914492046FDF772F913492046E6
:10577C00FDF76EF912492046FDF76AF911492046EA
:10578C00FDF766F910492046FDF762F90F492046EE
:10579C00FDF75EF90E492046FDF75AF90D492046F2
:1057AC00FDF756F90C492046FDF752F910BD00BF24
:1057BC00040200204C0200202002002014020020D1
:1057CC002C0200207C0200203C020020540200200D
:1057DC00640200208802002070020020002817DBE1
:1057EC0040F6FF739842A8BF184640F2FE739842E9
:1057FC0010D9A0F2FF73B3F5006F1AD840F2333012
:10580C0000FB03F0002811DBC01200F6CC407047FF
:10581C000020EAE740F6CC4303FB00F3064880FB8C
:10582C000320C218D817C0EBA220704700F2FF70FB
:10583C00EAE70020704700BF0102108010B5044653
:10584C0008B2A4F85000FFF7C9FFA4F8520010BD2D
:10585C002DE9784804461A4B1D88C1EBC13191FBE8
:10586C00F5F52846E917CE00EA0046EA557312EB27
:10587C00050B43EB010C4FEA4C1545EADB654FEA8F
:10588C004B16321A65EB01039D0045EA92759600A2
:10589C00321A65EB0103DD0045EA5275D600321A67
:1058AC0065EB0103D00B40EA434000F5B3401A30DE
:1058BC0040F3CF00A081FFF791FFE081BDE878882D
:1058CC003E7E0008F8B5054642F65C6001F031FBFF
:1058DC0004469F4B036000268680C6800681868125
:1058EC003046FFF77BFF00B2E081208240F21F536D
:1058FC006361A66104F11C030721002908DB002267
:10590C001A609A60DA605A609A611C330139F4E7C4
:10591C0004F1FC020323002B04DB002191600C3208
:10592C00013BF8E7002642F6BC53E65004F537532A
:10593C001E6042F6C453E65042F6C853E65042F697
:10594C00CC53E65042F6D053E65042F6D453E650D0
:10595C0042F6D853E65042F6DC53E65042F6E0539A
:10596C00E65042F6E453E65042F6E853E65042F66F
:10597C00EC53E65042F6F053E65042F6F453E65040
:10598C0042F6F853E65042F6FC53E65004F5385311
:10599C001E6042F60463E65042F60863E65042F697
:1059AC000C63E65042F61063E65042F61463E65080
:1059BC0042F61863E65042F61C63E65042F620634A
:1059CC00E65042F62463E65042F62863E65042F66F
:1059DC002C63E65042F63063E65042F63462A3186C
:1059EC00A4505E609E60DE601E6142F64863E65025
:1059FC0042F64C63E65004F59673E3624FF4FD7384
:105A0C00236304F5A463A36440F21A23E36404F64D
:105A1C005413636640F24323A36604F6DA53C4F8C6
:105A2C00803040F26623C4F8843004F59553063375
:105A3C00C4F89C304FF42173C4F8A03004F5BD5366
:105A4C000E33C4F8B8304FF42973C4F8BC3004F5E5
:105A5C00E7531633C4F8D43040F2C223C4F8D8301C
:105A6C0004F509533A33C4F8F03040F2DD23C4F89E
:105A7C00F43004F520533433C4F8FC30FC23C4F860
:105A8C00003104F528532C33C4F80831C823C4F86A
:105A9C000C3104F52E533C33C4F814319A23C4F85A
:105AAC00183104F533533033C4F820316623C4F86D
:105ABC0024314FF45760A081FFF790FEE08140F253
:105ACC001E53A3613246072A0CDCC2EBC2018B00C9
