:020000040800F2
:1000000000500020396E0008CD250008CF250008DB
:10001000D1250008D3250008D525000800000000E0
:10002000000000000000000000000000D7250008CC
:10003000D925000800000000DB250008DD250008A8
:10004000816E0008816E0008816E0008816E0008D4
:10005000816E0008816E0008816E0008816E0008C4
:10006000816E0008816E0008816E0008E525000899
:10007000816E0008816E0008816E0008816E0008A4
:10008000816E0008816E0008816E0008816E000894
:10009000816E0008816E0008816E0008816E000884
:1000A000816E0008816E0008816E0008816E000874
:1000B000816E0008816E0008816E0008816E000864
:1000C000816E0008816E0008816E0008816E000854
:1000D000816E0008F5250008816E0008816E000819
:1000E000816E0008816E0008816E0008000000002B
:1000F0000000000000000000000000000000000000
:0C01000000000000000000005FF808F1A3
:10010C0010B5054C237833B9044B13B10448AFF345
:10011C0000800123237010BDE001002000000000CE
:10012C00AC73000808B5034B1BB103490348AFF38C
:10013C00008008BD00000000E4010020AC73000842
:10014C00034613F8012B002AFBD1181A013870470B
:10015C0010B504460E4B18784FF47A73B3FBF0F3DA
:10016C000C4A1068B0FBF3F000F078FB68B90F2C68
:10017C0001D901200AE0002221464FF0FF3000F0A7
:10018C002BFB054B1C60002000E0012010BD00BFC4
:10019C0000000020080000200400002008B5074AD9
:1001AC00136843F010031360032000F003FB0120DD
:1001BC00FFF7CEFF02F0F0F8002008BD002002404F
:1001CC00034A1168034B1B780B441360704700BF44
:1001DC006803002000000020014B1868704700BF26
:1001EC006803002038B50446FFF7F6FF0546B4F166
:1001FC00FF3F02D0044B1B781C44FFF7EDFF401B64
:10020C00A042FAD338BD00BF0000002008B5436AF5
:10021C009A6A12F0500F03D01B6A1B6B984708BDEB
:10022C009A6A42F400729A621A68926802F4602226
:10023C00B2F5602F03D0184606F046FCEFE71A7BA8
:10024C00002AF8D19A6A22F480729A629A6A12F49D
:10025C00805FF0D19A6A42F001029A62EBE708B52E
:10026C00406A06F091FB08BD704708B5406A836A86
:10027C0043F040038362C36A43F00403C362FFF795
:10028C00F3FF08BD30B482B00023019390F8243002
:10029C00012B00F08B800246012380F824304B6840
:1002AC00062B29D80568686B03EB8303053B1F24D9
:1002BC009C4020EA04000C6804FA03F303436B63CC
:1002CC000B68092B38D91568E86803EB43031E3B10
:1002DC0007249C4020EA04008C6804FA03F30343CF
:1002EC00EB600B68103B012B34D90020002382F803
:1002FC00243002B030BC70470C2B0ED80568286B2C
:10030C0003EB8303233B1F249C4020EA04000C686E
:10031C0004FA03F303432B63D2E70568E86A03EBA3
:10032C008303413B1F249C4020EA04000C6804FA20
:10033C0003F30343EB62C3E71568286903EB43033C
:10034C0007249C4020EA04008C6804FA03F303435E
:10035C002B61C6E713681648834205D0936A43F0B5
:10036C00200393620120C1E7986810F4000F1BD1A1
:10037C00986840F4000098600B68102B01D00020A6
:10038C00B4E70C4B1B680C49A1FB03139B0C03EB50
:10039C0083035900019102E0019B013B0193019BF6
:1003AC00002BF9D10020A1E700209FE70220A0E755
:1003BC00002401400800002083DE1B4330B583B0CD
:1003CC000023019303689A6812F0010F2ED19A68EA
:1003DC0042F001029A60174B1B68174AA2FB0323D9
:1003EC009B0C019302E0019B013B0193019B002BB1
:1003FC00F9D10446FFF7F0FE054623689B6813F01D
:10040C00010F11D1FFF7E8FE401B0228F5D9A36AB2
:10041C0043F01003A362E36A43F00103E362002399
:10042C0084F82430012002E0002000E0002003B01A
:10043C0030BD00BF0800002083DE1B43F8B5046804
:10044C00454DAC425BD0454B9C4258D090F8244073
:10045C00012C7ED016460D460446012380F824302C
:10046C00FFF7ACFF074600286ED1A36A23F4706334
:10047C0023F0010343F48073A3622268374B9A4242
:10048C0044D0A36A23F48013A362536813F4806FDF
:10049C0005D0A36A23F4405343F48053A362A36AA8
:1004AC0013F4805F48D0E36A23F00603E362002371
:1004BC0084F82430236A2A4A9A62236A294ADA6227
:1004CC00236A294A1A6323686FF002021A602268B1
:1004DC00936843F480739360216833462A464C3109
:1004EC00206A00F01DFA2268936803F46023B3F5C8
:1004FC00602F24D0936843F48013936027E0164B4D
:10050C005B6813F4702FA1D0012720E0A3F5806362
:10051C005B6813F4702FB4D0A36A43F48013A36206
:10052C000D4B5B6813F4806FB9D0A36A23F440536E
:10053C0043F48053A362B2E70023E362B7E7936806
:10054C0043F4A003936002E0002384F8243038467F
:10055C00F8BD0227FBE700BF002401400028014042
:10056C00190200086B0200087702000838B503680E
:10057C009A6812F0010F01D1002038BD04469A6828
:10058C0022F001029A60FFF727FE054623689B685C
:10059C0013F0010F0ED0FFF71FFE401B0228F5D9F8
:1005AC00A36A43F01003A362E36A43F00103E3621E
:1005BC000120E2E70020E0E700287FD038B50446B0
:1005CC00836A002B33D02046FFF7D0FFA36A13F0C9
:1005DC0010036DD100286BD1A26A22F4885222F04C
:1005EC00020242F00202A2626268E1690A43257BC0
:1005FC0042EA4502A168B1F5807F21D001291CD0C7
:10060C00217D01291FD02568696821F469410B43BC
:10061C006B6021688D682A4B2B4013438B60A36859
:10062C00B3F5807F20D0012B1ED000211FE0C362C8
:10063C0080F8243001F0D2FEC5E74FF48073DFE779
:10064C004FF48073DCE735B9A169013943EA4133D2
:10065C0043F40063D7E7A16A41F02001A162E16A8B
:10066C0041F00101E162CEE72369013B19052568E0
:10067C00EB6A23F470030B43EB6223689968114B0C
:10068C000B409A420BD0A36A23F0120343F01003E1
:10069C00A362E36A43F00103E36201200DE000234F
:1006AC00E362A36A23F0030343F00103A36204E0B3
:1006BC00A36A43F01003A362012038BD01207047E8
:1006CC00FDF7E1FFFE0E1FFF70B582B00023019312
:1006DC0090F82430012B68D00446012380F8243094
:1006EC00FFF744FF054628B1002384F82430284640
:1006FC0002B070BDA36A23F4885323F0020343F0C5
:10070C000203A3622A4B1E68022000F0DDFEB6FB3A
:10071C00F0F04000019002E0019B013B0193019B32
:10072C00002BF9D12046FFF749FE2268936843F06D
:10073C0008039360FFF750FD064623689A6812F091
:10074C00080F0FD0FFF748FD801B0A28F5D9A36AC4
:10075C0023F0120343F01003A362002384F8243027
:10076C000125C4E79A6842F004029A60FFF734FD51
:10077C00064623689B6813F0040F0FD0FFF72CFD7F
:10078C00801B0A28F5D9A36A23F0120343F0100347
:10079C00A362002384F824300125A8E7A36A23F080
:1007AC00030343F00103A3629EE702259FE700BF0A
:1007BC0008000020074AD36823F4E0631B041B0CD9
:1007CC00000200F4E060184340F0BF6040F40030D9
:1007DC00D060704700ED00E030B4174BDB68C3F31A
:1007EC000223C3F10704042C28BF04241D1D062D6D
:1007FC0018D9033B4FF0FF3505FA04F421EA040144
:10080C00994005FA03F322EA0303194300280BDB92
:10081C000901C9B200F1604000F5614080F8001395
:10082C0030BC70470023E5E700F00F000901C9B2A6
:10083C00024B1954F4E700BF00ED00E014ED00E0AA
:10084C00002807DB00F01F02400901239340024AF5
:10085C0042F82030704700BF00E100E00138B0F1F1
:10086C00807F0AD2064B5860064AF02182F823108A
:10087C000020986007221A6070470120704700BF63
:10088C0010E000E000ED00E070B4066CC56B0124D4
:10089C00B4406C60046863604368102B05D0036837
:1008AC0099600368DA6070BC704703689A600368EB
:1008BC00D960F8E760B310B402460168154B0B44DD
:1008CC001548A0FB03031B099B001364134BD36354
:1008DC00022382F82130086820F47F5020F0300089
:1008EC00536894682343D46823431469234354699D
:1008FC00234394692343D469234303430B600020AF
:10090C009063012382F8213082F8200010BC7047DC
:10091C0001207047F8FFFDBFCDCCCCCC00000240CD
:10092C0038B590F82040012C32D0012480F82040BA
:10093C0090F82140012C04D0002380F820300220B4
:10094C0038BD0446022084F821000020A0632568ED
:10095C00286820F0010028602046FFF795FFE36A25
:10096C005BB12268136843F00E03136022681368AE
:10097C0043F0010313600020E2E72268136823F0C0
:10098C00040313602268136843F00A031360EDE755
:10099C000220D5E708B590F82130022B03D00423B0
:1009AC008363012008BD0268136823F00E031360F3
:1009BC000268136823F0010313600368194A934219
:1009CC0014D0143293421FD0143293421ED01432DE
:1009DC0093421ED0143293421ED01432934202D052
:1009EC004FF0807203E04FF4801200E001220E4BB6
:1009FC005A60012380F82130002380F82030436BAB
:100A0C006BB198470020CDE71022F0E74FF48072CD
:100A1C00EDE74FF48052EAE74FF48032E7E700202D
:100A2C00C0E700BF080002400000024038B5C36BAD
:100A3C001A6804682568016C04238B40134235D076
:100A4C0015F0040F32D0236813F0200F03D1236864
:100A5C0023F0040323600368434A934214D01432F6
:100A6C00934218D01432934217D01432934217D0B9
:100A7C001432934217D01432934202D04FF080625A
:100A8C0003E04FF4800200E00422384B5A60C36A42
:100A9C0003B1984738BD4022F7E74FF48062F4E782
:100AAC004FF48042F1E74FF48022EEE702238B40B3
:100ABC0013423CD015F0020F39D0236813F0200FED
:100ACC0006D1236823F00A032360012380F8213028
:100ADC000368254A934214D0143293421CD014322A
:100AEC0093421BD0143293421BD0143293421BD02E
:100AFC001432934202D04FF0007203E04FF4001214
:100B0C0000E00222194B5A60002380F82030836ADF
:100B1C00002BBFD09847BDE72022F3E74FF40072BB
:100B2C00F0E74FF40052EDE74FF40032EAE7082308
:100B3C0003FA01F11142ADD015F0080FAAD02368C9
:100B4C0023F00E032360026CC16B012303FA02F243
:100B5C004A60836380F82130002380F82030036BD7
:100B6C00002B97D0984795E7080002400000024000
:100B7C00F0B482B000263246A2E0002D5AD0012DEE
:100B8C0000D1CE68FF2B69D88446FF2B69D895001D
:100B9C00DCF800400F27AF4024EA070406FA05F5FD
:100BAC002C43CCF800404C6814F0805F00F0878038
:100BBC005F4CA56945F00105A561A46904F0010429
:100BCC000194019C9508AF1C5A4C54F8274002F034
:100BDC000307BF004FF00F0C0CFA07FC24EA0C0CB7
:100BEC00554CA04243D004F58064A04200F08180B3
:100BFC0004F58064A0427ED004F58064A04234D019
:100C0C00042435E04D4FBD4214D00BD94C4FBD429E
:100C1C0010D007F58037BD420CD0A7F58017BD4228
:100C2C00B0D107E0A7F58017BD4203D007F5803798
:100C3C00BD42A7D18D687DB1012D08D04461082635
:100C4C00A0E7CE6808369DE7CE680C369AE70461BB
:100C5C00082697E7002695E7042693E700F1040C95
:100C6C0093E7A2F10805AD0092E7032400E000240D
:100C7C00BC4044EA0C0402352E4F47F825404C6822
:100C8C0014F4803F39D02F4D2C681C432C604C68D9
:100C9C0014F4003F37D02B4D6C681C436C604C68CF
:100CAC0014F4801F35D0274DAC681C43AC604C68E5
:100CBC0014F4001F33D0234DEC682343EB60013256
:100CCC000B6833FA02F430D00124944023409C4248
:100CDC00F5D14D68122DB7D094D8022DB1D07FF636
:100CEC004CAF032DB6D0112D7FF44CAFCE6804362B
:100CFC0048E70124BCE70224BAE7124D2C6824EA29
:100D0C0003042C60C3E70F4D6C6824EA03046C6089
:100D1C00C5E70C4DAC6824EA0304AC60C7E7094D89
:100D2C00EC6824EA0303EB60C9E702B0F0BC70473F
:100D3C00001002400000014000080140000021109A
:100D4C00000031100004014012B909040161704720
:100D5C000161704782B0084B1B68084AA2FB032351
:100D6C005B0A00FB03F0019000BF019B5A1E01922D
:100D7C00002BF9D102B0704708000020D34D62104F
:100D8C00002800F0F58170B582B00446036813F0BA
:100D9C00010F2CD0AB4B5B6803F00C03042B1DD064
:100DAC00A84B5B6803F00C03082B12D06368B3F5F7
:100DBC00803F41D0002B55D103F1804303F5043320
:100DCC001A6822F480321A601A6822F480221A609F
:100DDC0037E09C4B5B6813F4803FE7D0994B1B6862
:100DEC0013F4003F03D06368002B00F0C381236829
:100DFC0013F0020F76D0934B5B6813F00C0F5FD09F
:100E0C00904B5B6803F00C03082B54D02369002B28
:100E1C0000F08A808C4B01221A60FFF7DDF9054641
:100E2C00884B1B6813F0020F75D1FFF7D5F9401BE7
:100E3C000228F5D90320A0E1824A136843F48033D9
:100E4C001360636843B3FFF7C7F905467D4B1B6816
:100E5C0013F4003FCBD1FFF7BFF9401B6428F5D941
:100E6C0003208AE1B3F5A02F09D0764B1A6822F43F
:100E7C0080321A601A6822F480221A60E1E703F1CA
:100E8C008043A3F53C331A6842F480221A601A6836
:100E9C0042F480321A60D4E7FFF79EF90546694B9D
:100EAC001B6813F4003FA2D0FFF796F9401B64288F
:100EBC00F5D9032061E1634B5B6813F4803FA5D146
:100ECC00604B1B6813F0020F04D02369012B01D077
:100EDC00012052E15B4A136823F0F803616943EA8D
:100EEC00C1031360236813F0080F32D0A369002BE1
:100EFC005BD0564B01221A60FFF76EF90546514B39
:100F0C005B6A13F0020F21D1FFF766F9401B022830
:100F1C00F5D9032031E14B4A136823F0F8036169DA
:100F2C0043EAC1031360DDE7474B00221A60FFF769
:100F3C0053F90546434B1B6813F0020FD2D0FFF751
:100F4C004BF9401B0228F5D9032016E10120FFF7CD
:100F5C0001FF236813F0040F00F09880394BDB6914
:100F6C0013F0805F33D1374BDA6942F08052DA618B
:100F7C00DB6903F080530193019B0125344B1B6803
:100F8C0013F4807F25D0E368012B36D0002B4CD195
:100F9C0003F1804303F504331A6A22F001021A624A
:100FAC001A6A22F004021A622CE0284B00221A6002
:100FBC00FFF712F90546234B5B6A13F0020FC8D0FA
:100FCC00FFF70AF9401B0228F5D90320D5E00025CC
:100FDC00D4E71F4A136843F480731360FFF7FCF8DF
:100FEC0006461B4B1B6813F4807FCCD1FFF7F4F83B
:100FFC00801B6428F5D90320BFE0124A136A43F022
:10100C0001031362E3687BB3FFF7E6F806460D4B6A
:10101C001B6A13F0020F38D1FFF7DEF8801B41F288
:10102C0088339842F3D90320A7E0052B12D0054B47
:10103C001A6A22F001021A621A6A22F004021A6277
:10104C00E0E700BF00100240000042428004424230
:10105C00007000404C4B1A6A42F004021A621A6A81
:10106C0042F001021A62CDE7FFF7B6F80646464B8E
:10107C001B6A13F0020F08D0FFF7AEF8801B41F289
:10108C0088339842F3D9032077E0E5B9E369002B64
:10109C0072D03D4A526802F00C02082A56D0022B3C
:1010AC0017D03A4B00221A60FFF796F80446364BDD
:1010BC001B6813F0007F47D0FFF78EF8001B022847
:1010CC00F5D9032059E0304AD36923F08053D3611A
:1010DC00DCE72E4B00221A60FFF77EF805462A4B00
:1010EC001B6813F0007F06D0FFF776F8401B022830
:1010FC00F5D9032041E0236AB3F5803F1AD0224989
:10110C004B6823F47413226A606A024313434B60E6
:10111C001E4B01221A60FFF75FF804461A4B1B683E
:10112C0013F0007F0ED1FFF757F8001B0228F5D9FA
:10113C00032022E0144A536823F40033A1680B43C4
:10114C005360DCE7002018E0002016E0012B16D0DD
:10115C000D4B5B6803F48031226A914201D001206F
:10116C000BE003F47013626A93420AD0012004E08E
:10117C0001207047012000E0002002B070BD01206A
:10118C00FBE70020F9E700BF00100240600042427C
:10119C0010B487B0164C94E80F000DF1180C0CE944
:1011AC000F00238AADF80430124B5B6803F00C027D
:1011BC00082A1AD1C3F38342624412F8102C13F498
:1011CC00803F05D10C4800FB02F007B010BC704703
:1011DC00084B5B68C3F34043634413F8143C074863
:1011EC0000FB02F0B0FBF3F0EFE70448EDE700BFC3
:1011FC00C47300080010024000093D0000127A0080
:10120C00002800F0A38070B50446524B1B6803F015
:10121C0007038B420CD24F4A136823F007030B438E
:10122C001360136803F007038B4201D0012070BDDB
:10123C00236813F0020F17D013F0040F04D0464AA2
:10124C00536843F4E0635360236813F0080F04D031
:10125C00414A536843F4605353603F4A536823F048
:10126C00F003A068034353600D46236813F0010F8D
:10127C0031D06368012B20D0022B25D0364A12685E
:10128C0012F0020F64D034494A6822F0030213436F
:10129C004B60FEF7A1FF06462F4B5B6803F00C0377
:1012AC006268B3EB820F16D0FEF796FF801B41F2FB
:1012BC0088339842F0D90320B9E7274A126812F410
:1012CC00003FE0D10120B2E7234A126812F0007F00
:1012DC00D9D10120ABE71F4B1B6803F00703AB42CE
:1012EC000CD91C4A136823F007032B4313601368B3
:1012FC0003F00703AB4201D0012098E7236813F0F9
:10130C00040F06D0144A536823F4E063E1680B43DE
:10131C005360236813F0080F07D00F4A536823F467
:10132C006053216943EAC1035360FFF731FF0A4B55
:10133C005B68C3F30313094AD35CD840084B1860AD
:10134C00084B1868FEF704FF002070E70120704777
:10135C0001206CE700200240001002401C760008BF
:10136C000800002004000020014B1868704700BFE3
:10137C000800002008B5FFF7F7FF044B5B68C3F3C8
:10138C000223034AD35CD84008BD00BF00100240C2
:10139C002C76000808B5FFF7E7FF044B5B68C3F336
:1013AC00C223034AD35CD84008BD00BF00100240E2
:1013BC002C76000870B582B00446036813F0010F58
:1013CC0034D03E4BDB6913F0805F48D13B4BDA697C
:1013DC0042F08052DA61DB6903F080530193019B88
:1013EC000125374B1B6813F4807F3AD0334B1B6AB3
:1013FC0013F4407311D0626802F440729A420CD01C
:10140C002E4A136A23F440702E4901260E600026E2
:10141C000E60106213F0010F37D1284A136A23F4BF
:10142C00407361680B431362002D3FD1236813F0A6
:10143C00020F06D0214A536823F44043A1680B43A2
:10144C005360236813F0100F35D01C4A536823F4F3
:10145C008003E1680B435360002002B070BD00258F
:10146C00BFE7174A136843F480731360FEF7B4FEAA
:10147C000646134B1B6813F4807FB7D1FEF7ACFE06
:10148C00801B6428F5D90320E7E7FEF7A5FE064686
:10149C000A4B1B6A13F0020FBFD1FEF79DFE801B97
:1014AC0041F288339842F3D90320D6E7D36923F06D
:1014BC008053D361BAE70020CFE700BF0010024091
:1014CC00007000404004424230B587B00546384CAD
:1014DC0094E80F000DF1180C0CE90F00238AADF8FD
:1014EC000430022D50D0102D03D0012D2BD0002014
:1014FC0054E0304B5A681B6813F0807F50D0C2F315
:10150C00834306A90B4413F8100C12F4803F16D039
:10151C00284B5B68C3F340430B4413F8142C264B45
:10152C00B3FBF2F300FB03F0224B5B6813F4800F68
:10153C0034D14000214BA3FB003040082EE0204B5F
:10154C0003FB00F0F0E71B4B1B6A40F202321A401F
:10155C00B2F5817F26D003F44073B3F5007F04D03D
:10156C00B3F5407F09D0002018E0124A526A12F0FD
:10157C00020FF5D049F6404010E00E4B1B6813F4F7
:10158C00003F12D1002009E0FFF704FF094B5B6814
:10159C00C3F3813301335B00B0FBF3F007B030BD14
:1015AC000020FBE74FF40040F8E74FF22440F5E74A
:1015BC00D87300080010024000127A00ABAAAAAA45
:1015CC0000093D0070B4036A23F001030362036A4F
:1015DC004268846924F073040D6845EA040623F01C
:1015EC0002048B6823430D4DA84209D00B4DA84231
:1015FC000DD0426086614A684263036270BC7047DA
:10160C0023F00803CC68234323F00403EEE722F411
:10161C0040724C6914438A692243EAE7002C01406A
:10162C0030B4036A23F480730362036A4268C469AA
:10163C0024F073040D682C4323F400738D6843EA83
:10164C0005230F4DA84209D00D4DA8420ED0426083
:10165C00C4614A68C263036230BC704723F4006300
:10166C00CD6843EA052323F48063EDE722F440526E
:10167C004D6942EA05128D6942EA0512E7E700BF9F
:10168C00002C014030B4036A23F480530362036AD4
:10169C004468C26922F4E6420D6842EA052223F44A
:1016AC0000538D6843EA0533074DA84206D04460C9
:1016BC00C2614A680264036230BC704724F48044FF
:1016CC004D6944EA8514F2E7002C014003681B4A7B
:1016DC0090420AD0B0F1804F07D0A2F594329042DC
:1016EC0003D002F58062904203D123F070034A6864
:1016FC001343124A90420AD0B0F1804F07D0A2F5A2
:10170C009432904203D002F58062904203D123F4CC
:10171C004073CA68134323F080034A691343036080
:10172C008B68C3620B688362044B984202D001231E
:10173C00436170470B690363F9E700BF002C01405C
:10174C00A8B110B5044690F83D305BB1022384F883
:10175C003D30211D2068FFF7B9FF012384F83D308F
:10176C00002010BD80F83C3000F088FEEEE7012030
:10177C007047A8B110B5044690F83D305BB1022318
:10178C0084F83D30211D2068FFF7A0FF012384F869
:10179C003D30002010BD80F83C3000F083FEEEE7B9
:1017AC000120704730B4036A23F010030362036A0C
:1017BC004468826922F4E6420D6842EA052223F06D
:1017CC0020038D6843EA05130E4DA84209D00D4D38
:1017DC00A8420ED0446082614A688263036230BCC6
:1017EC00704723F08003CD6843EA051323F04003D0
:1017FC00EDE724F440644D6944EA85048D6944EABC
:10180C008504E7E7002C014090F83C30012B28D0F0
:10181C0010B50446012380F83C30022380F83D309B
:10182C000C2A0BD8DFE802F0070A0A0A110A0A0A86
:10183C00150A0A0A19000068FFF7C4FE012384F890
:10184C003D30002084F83C0010BD0068FFF7AAFF73
:10185C00F4E70068FFF7E4FEF0E70068FFF712FF1B
:10186C00ECE70220704738B590F83C30012B66D07D
:10187C000D460446012380F83C30022380F83D30AD
:10188C000C2A1AD8DFE802F00719191920191919AE
:10189C003419191947000068FFF794FE2268936900
:1018AC0043F0080393612268936923F00403936166
:1018BC002268936929690B439361012384F83D30B5
:1018CC00002084F83C0038BD0068FFF76BFF2268ED
:1018DC00936943F4006393612268936923F48063F2
:1018EC00936122689369296943EA01239361E4E7D0
:1018FC000068FFF795FE2268D36943F00803D361B3
:10190C002268D36923F00403D3612268D36929695F
:10191C000B43D361D1E70068FFF7B4FE2268D369AB
:10192C0043F40063D3612268D36923F48063D361E9
:10193C002268D369296943EA0123D361BDE70220F8
:10194C00C1E710B401F01F01012303FA01F4036A8B
:10195C0023EA04030362036A8A401343036210BC44
:10196C007047000010B5044601220068FFF7E9FF3C
:10197C0023680A4A93420BD02268936803F007034A
:10198C00062B03D0136843F001031360002010BD35
:10199C005A6C42F400425A64EEE700BF002C01403E
:1019AC0010B5044601220068FFF7CBFF23680A4AF2
:1019BC0093420BD02268936803F00703062B03D0E5
:1019CC00136843F001031360002010BD5A6C42F4FD
:1019DC0000425A64EEE700BF002C014090F83C3006
:1019EC00012B1CD070B4012680F83C60022380F8D7
:1019FC003D3002685568936825F070050C682C43DF
:101A0C0023F080054B682B4354600268936080F888
:101A1C003D60002380F83C30184670BC70470220B3
:101A2C0070470268D36823F49073D36002685369DB
:101A3C0023F001035361202380F83A30704790F86B
:101A4C003930DBB2212B2AD18368B3F5805F16D0F5
:101A5C00036A5A1C02621A7803685A60C38C013BF1
:101A6C009BB2C384EBB90268D36823F08003D360C4
:101A7C000268D36843F04003D36000207047036AC8
:101A8C001B880268C3F30803536003691BB9036A1C
:101A9C0002330362E2E7036A01330362DEE70220EA
:101AAC00704700207047000038B50446026813697F
:101ABC0023F44053C1680B431361836802691343D9
:101ACC0042691A430168CB6823F4B05323F00C032A
:101ADC001343CB600268536923F4407381690B4351
:101AEC0053610268214B9A421FD0FFF743FC00EB75
:101AFC00800000EB800063689B00B0FBF3F01C4D92
:101B0C00A5FB00325109642202FB1102130132338E
:101B1C00A5FB03235B0903F0F00202EB011203F0B7
:101B2C000F03216813448B6038BDFFF733FC00EBC7
:101B3C00800000EB800063689B00B0FBF3F00C4D61
:101B4C00A5FB00325109642202FB1102130132334E
:101B5C00A5FB03235B0903F0F00202EB011203F077
:101B6C000F03216813448B60DEE700BF003801408F
:101B7C001F85EB512DE9F04105460F461646984658
:101B8C00069C2B681B6837EA03030CBF0123002358
:101B9C00B3421DD1B4F1FF3FF3D02CB1FEF71CFBC7
:101BAC00A0EB0800A042ECD92A68D36823F4D073C8
:101BBC00D3602A68536923F001035361202385F80D
:101BCC00393085F83A30002385F83830032000E0AE
:101BDC000020BDE8F08158B310B5044690F83930B8
:101BEC000BB3242384F839302268D36823F40053D0
:101BFC00D3602046FFF758FF2268136923F4904303
:101C0C0013612268536923F02A0353612268D36855
:101C1C0043F40053D3600020E063202384F8393070
:101C2C0084F83A3010BD80F8383000F085FCD8E7E5
:101C3C00012070472DE9F04182B01E4690F83930F2
:101C4C00DBB2202B55D104460D469046002955D0C9
:101C5C00002A55D090F83830012B53D0012380F84E
:101C6C0038300023C363212380F83930FEF7B4FAEF
:101C7C000746A4F82480A4F8268010E000963B4682
:101C8C00002280212046FFF775FF00283CD12B88CD
:101C9C002268C3F3080353602369C3B90235E38C8C
:101CAC009BB2B3B1E38C013B9BB2E384A368B3F565
:101CBC00805FE3D000963B46002280212046FFF750
:101CCC0059FF18BB2A7823685A600135E7E70135BC
:101CDC00E5E700963B46002240212046FFF74AFFED
:101CEC000346A8B9202284F83920002284F8382031
:101CFC0000E00223184602B0BDE8F0810123F9E7A9
:101D0C000123F7E70223F5E70323F3E70323F1E7C6
:101D1C000323EFE72DE9F04182B01E4690F83A30EC
:101D2C00DBB2202B5AD104460D469046002959D0DF
:101D3C00002A59D090F83830012B57D0012380F865
:101D4C0038300023C363222380F83A30FEF744FA7C
:101D5C000746A4F82C80A4F82E801DE000963B4684
:101D6C00002220212046FFF705FF002840D12369DF
:101D7C0033B923685B68C3F3080325F8023B0BE017
:101D8C0023685B68DBB225F8013B05E023685B68E0
:101D9C0003F07F032B700135E38D9BB2BBB1E38D58
:101DAC00013B9BB2E385A368B3F5805FD6D0009668
:101DBC003B46002220212046FFF7DCFED0B92369E8
:101DCC00002BE3D123685B682B700135E4E72023FB
:101DDC0084F83A30002084F8380000E0022002B089
:101DEC00BDE8F0810120FAE70120F8E70220F6E7D0
:101DFC000320F4E70320F2E7704708B50168CB68CD
:101E0C0023F04003CB60202380F83930FFF7F4FF38
:101E1C00002008BD704708B590F83A30DBB2222B91
:101E2C0045D18368B3F5805F0ED0036903BB0368AB
:101E3C005A68836A591C81621A70C38D013B9BB22C
:101E4C00C385F3B1002033E0826A036943B90368A8
:101E5C005B68C3F308031380836A02338362ECE785
:101E6C0003685B68DBB21380836A01338362E4E747
:101E7C0003685B68826A511C816203F07F031370F4
:101E8C00DBE70268D36823F02003D3600268D368D1
:101E9C0023F48073D3600268536923F00103536108
:101EAC00202380F83A30FFF7B5FF002000E0022035
:101EBC0008BD704710B5044602681368D1685269B2
:101ECC0013F00F0005D113F0200F02D011F0200FEA
:101EDC0053D1002867D012F0010202D111F4907F87
:101EEC0061D013F0010F06D011F4807F03D0E06BAA
:101EFC0040F00100E06313F0040F04D01AB1E06B62
:101F0C0040F00200E06313F0020F04D01AB1E06B52
:101F1C0040F00400E06313F0080F04D01AB1E26B38
:101F2C0042F00802E263E26B002A48D013F0200F63
:101F3C0002D011F0200F24D123685B6903F0400319
:101F4C00E26B12F0080F00D13BB32046FFF769FD9E
:101F5C0023685A6912F0400F1BD05A6922F04002D4
:101F6C005A61636B8BB11A4A5A63606BFEF712FDB0
:101F7C0028B3606B436B984721E02046FFF74BFF7B
:101F8C001DE02046FFF747FFD6E72046FFF791FFFD
:101F9C0015E02046FFF78DFF11E02046FFF789FF83
:101FAC000023E3630BE013F0800F02D011F0800FDD
:101FBC0006D113F0400F02D011F0400F04D110BD28
:101FCC002046FFF73CFDFAE72046FFF716FFF6E741
:101FDC00E11F000808B5406A0023C385C384FFF7DE
:101FEC0068FF08BD08B5094804F011FF084804F063
:101FFC000EFF084804F00BFF074804F008FF0748E1
:10200C0004F005FF064800F0F3FB08BDEC73000874
:10201C0070740008D4740008787500080C7C0008F3
:10202C000402002010B582B0684604F00DFE9DF845
:10203C00000005F059F9C4B20DF1010004F043FFA2
:10204C00021E03DB632A02DD632200E00022232C44
:10205C0008D02146084800F079FB074800F0C8FB7F
:10206C0002B010BD1146044800F044FB0028F4D027
:10207C00024A1060F1E700BF04020020FC010020BE
:10208C0070B588B000240494059406940794214BF1
:10209C009A6942F010029A619A6902F01002009259
:1020AC00009A9A6942F020029A619A6902F0200221
:1020BC000192019A9A6942F008029A619A6902F0B7
:1020CC0008020292029A9A6942F004029A619B6990
:1020DC0003F004030393039B0F4D22464FF400516E
:1020EC002846FEF731FE4FF4005304930126059663
:1020FC0006940223079304A92846FEF739FD4FF4F2
:10210C00004304930594069604A92846FEF730FD77
:10211C0008B070BD001002400010014000B583B043
:10212C000A4B5A6942F001025A615B6903F00103E0
:10213C000193019B002211460B20FEF74DFB0B2057
:10214C00FEF77EFB03B05DF804FB00BF00100240FD
:10215C0070B584B000250195029503950C4C0D4B80
:10216C002360A560257325754FF4C023E36165607A
:10217C00012626612046FEF71FFA082301930296DA
:10218C00039501A92046FEF77DF804B070BD00BF91
:10219C00AC0300200024014030B58BB0002408941F
:1021AC00099401940294039404940594069407945E
:1021BC00104D4FF080432B606C60AC601123EB60D2
:1021CC002C61AC612846FFF7BBFA5023089380239F
:1021DC00099308A92846FFF701FC302301930294C8
:1021EC000394059404220DEB02012846FFF70CFB27
:1021FC000BB030BD6004002008B50848084B0360E4
:10220C004FF41653436000238360C36003610C22B8
:10221C0042618361C361FFF7DEFC08BDDC03002073
:10222C000038014030B58BB0002408940994019417
:10223C00029403940494059406940794144D154B3E
:10224C002B606C60AC60FF23EB602C618023AB6176
:10225C002846FFF78EFA0894099408A92846FFF738
:10226C00BDFB602301937F230293039405942246C4
:10227C0001A92846FFF7F7FA04220DEB02012846C4
:10228C00FFF7F1FA284600F023F90BB030BD00BF80
:10229C006C0300200004004030B595B000240C9471
:1022AC000D940F9410940594069407940894099433
:1022BC00019402940394049401220A924FF4803303
:1022CC000B930E920225119512934FF4E013139376
:1022DC000AA8FEF755FD0F230593069507944FF4B6
:1022EC00806308930994294605A8FEF789FF019598
:1022FC00039401A8FFF75EF815B030BD08B5FDF7E3
:10230C004DFFFFF7C9FFFFF7BBFEFFF707FFFFF716
:10231C001FFFFFF741FFFFF76FFFFFF783FF00F091
:10232C0011F8002008BD704710B50446044B18681E
:10233C0003689B6821469847204404F0F1FA10BDCD
:10234C00FC01002008B54FF47A5004F0C3FC03F0F4
:10235C003FFE01210C4800F0CDF90C4B186004F045
:10236C00D1FA04F0EBFA0A4804F051FDFFF73AFEFB
:10237C004FF47A70FDF736FF064A1378013B137061
:10238C00FFF750FEFCE700BF04020020FC01002018
:10239C00F07500080C00002082B00E4B9A6942F0D8
:1023AC0001029A619A6902F001020092009ADA69BC
:1023BC0042F08052DA61DB6903F080530193019B98
:1023CC00054A536823F0E06343F00073536002B096
:1023DC00704700BF001002400000014010B586B0ED
:1023EC000023029303930493059302681F4B9A42B4
:1023FC0001D006B010BD044603F56C439A6942F453
:10240C0000729A619A6902F400720092009A9A69B9
:10241C0042F008029A619B6903F008030193019B47
:10242C00012302930323039302A91148FEF7A0FB97
:10243C001048114B03600023436083608023C3600A
:10244C004FF4807303614FF48063436120238361F5
:10245C004FF40053C361FEF72DFA18B9054B2362F4
:10246C005C62C6E7FFF75FFFF8E700BF002401409E
:10247C00000C01401C040020080002400368B3F16A
:10248C00804F00D0704782B003F50433DA6942F014
:10249C000102DA61DB6903F001030193019B02B0D5
:1024AC00704700000268094B9A4200D0704782B016
:1024BC0003F50333DA6942F00202DA61DB6903F0F7
:1024CC0002030193019B02B0704700BF000400405F
:1024DC0000B587B00023029303930493059302681D
:1024EC00124B9A4202D007B05DF804FB03F503339C
:1024FC009A6942F008029A619B6903F00803019300
:10250C00019B30230293022303930323059302A917
:10251C000748FEF72DFB074A536823F4406343F04A
:10252C00E06343F400635360DDE700BF0004004048
:10253C00000C01400000014070B586B000230293EE
:10254C0003930493059302681B4B9A4201D006B087
:10255C0070BD03F558439A6942F480429A619A69B6
:10256C0002F480420092009A9A6942F004029A6145
:10257C009B6903F004030193019B4FF400730293D6
:10258C0002250395032305930C4E02A93046FEF752
:10259C00EFFA4FF48063029300240394049402A98D
:1025AC003046FEF7E5FA224629462520FEF714F9B7
:1025BC002520FEF745F9CAE7003801400008014024
:1025CC007047FEE7FEE7FEE7FEE77047704770478F
:1025DC0008B5FDF7F5FD08BD08B50248FEF726FA6B
:1025EC0008BD00BF1C04002008B50248FFF762FCC0
:1025FC0008BD00BFDC0300200120704708B504F0C3
:10260C0067FC162303604FF0FF3008BD08B54FF090
:10261C00FF31FFF7F3FFFEE708B503460B4A1268DC
:10262C0042B10A4A106803446A46934206D8074AE4
:10263C00136008BD054A06491160F2E704F048FC36
:10264C000C2303604FF0FF30F3E700BF00020020C3
:10265C00A80400200F4B1A6842F001021A60596856
:10266C000D4A0A405A601A6822F0847222F48032B1
:10267C001A601A6822F480221A605A6822F4FE0248
:10268C005A604FF41F029A60044B4FF000629A603C
:10269C00704700BF001002400000FFF800ED00E0A2
:1026AC0038B5044600230360416071B10D461846ED
:1026BC000BB104F0E0FB002323606560084B9D42E6
:1026CC000AD8A80004F0D9FB20600023A3604FF0C7
:1026DC00FF33E360204638BD4FF0FF30F2E700BF18
:1026EC00FEFFFF1F8268036843F8221083680133E2
:1026FC008360704738B50D1E21DB8368AB4220DD4B
:10270C000446114A137801331370C368002B05DBA0
:10271C00026852F823000368DB689847E560236879
:10272C0053F8250003689B68984704460368DB6CE4
:10273C009847054A1378013B1370204638BD002496
:10274C00FBE70024F9E700BF0C000020C368002B56
:10275C000DDB10B58468A34208DA006800EB830433
:10276C0024B150F8230003685B69984710BD70478B
:10277C0070B506460024254600E00134B368A34238
:10278C001ADD164804F02AFB0A21204604F02FFB20
:10279C00134804F023FB336853F8240003689B6947
:1027AC009847104804F01AFB0135032DE5D10E486B
:1027BC0004F02DFB0025E0E70B4804F028FB0B4B45
:1027CC0083FB0523A3EBE57303EB43039D4200D18D
:1027DC0070BD054804F01BFBFAE700BF3476000817
:1027EC00387600083C7600080C7C00085655555588
:1027FC0010B50446FFF7BCFF0D4804F0EFFA0A21B0
:10280C00E06804F0F4FA0B4804F0E8FAE268236894
:10281C0053F8220003689B699847074804F0F7FABD
:10282C00E268236853F8220003681B69984710BDBF
:10283C0034760008387600080C7C000870470020BD
:10284C0070477047002070477047002070477047F2
:10285C000020704770470020704770470020704779
:10286C00704700207047704700207047436843B1A1
:10287C0010B504461A6852681846904700236360E6
:10288C0010BD704700BF0020704770470020704794
:10289C00704709B2418181817047B0F90A007047D5
:1028AC0009B2418281827047B0F91200704709B2B7
:1028BC008180C1807047B0F90400704749F64043ED
:1028CC0003FB01F10C4B83FB0123C917C1EBA311D3
:1028DC00036A013B00290DDD994209DC0139C1EB8A
:1028EC000131013B91FBF3F109B28180C18070474A
:1028FC001946F3E70121F1E7D34D6210B0F904203A
:10290C00036A023B03FB02F3084880FB03201844D4
:10291C00DB17C3EBE0234FF47A7003FB000304488E
:10292C0080FB0320DB17C3EBA030704781000880CD
:10293C00AD8BDB681020704710B4036A013B2BB1E0
:10294C00C269002122F81310013BF8E7C369002289
:10295C001A80B0F90620046A611E4B1E03FB02F3B9
:10296C00124A82FB03C21A44DB17C3EBE223013386
:10297C0000D10123994200D31946C162436A5B1A04
:10298C00DB038362002B0ADBDA13002A09DBB0F9C4
:10299C000C30C381B0F91430C38210BC7047DA1309
:1029AC00F3E703EBC4338362F1E700BF81000880D7
:1029BC0008B54D2922D0542902D046290FD008BD84
:1029CC00027240680368DB69C2EB0232134981FB77
:1029DC0002C11144D217C2EBA1119847EFE7427222
:1029EC0040680368DB68C2EB02320C4981FB02C110
:1029FC001144D217C2EBA1119847E0E782724068EC
:102A0C0003685B69C2EB0232044981FB02C11144C9
:102A1C00D217C2EBA1119847D1E700BF03B57EA531
:102A2C0009B2418181817047B0F90A00704709B23F
:102A3C00418281827047B0F912007047B0F90400EE
:102A4C0070470000B0F90420036A023B03FB02F359
:102A5C00084880FB03201844DB17C3EBE0234FF43A
:102A6C007A7003FB0003044880FB0320DB17C3EBE5
:102A7C006030704781000880AD8BDB6801207047A7
:102A8C0010B4036A013B2BB1C269002122F8131068
:102A9C00013BF8E7C36900221A80B0F90620046AEA
:102AAC00611E4B1E03FB02F3124A82FB03C21A4443
:102ABC00DB17C3EBE223013300D10123994200D38E
:102ACC001946C162436A5B1ADB038362002B0ADB83
:102ADC00DA13002A09DBB0F90C30C381B0F91430D9
:102AEC00C38210BC7047DA13F3E703EBC433836281
:102AFC00F1E700BF8100088008B54D2922D0542988
:102B0C0002D046290FD008BD027240680368DB6909
:102B1C00C2EB0232134981FB02C11144D217C2EB42
:102B2C00A1119847EFE7427240680368DB68C2EB7B
:102B3C0002320C4981FB02C11144D217C2EBA11124
:102B4C009847E0E78272406803685B69C2EB023227
:102B5C00044981FB02C11144D217C2EBA111984761
:102B6C00D1E700BF03B57EA509B2418181817047D1
:102B7C00B0F90A00704709B2418281827047B0F9FE
:102B8C0012007047B0F9040070470000B0F904203F
:102B9C00036A023B03FB02F3084880FB0320184442
:102BAC00DB17C3EBE0234FF47A7003FB00030448FC
:102BBC0080FB0320DB17C3EB2030704781000880BB
:102BCC00AD8BDB680620704710B4036A013B2BB158
:102BDC00C269002122F81310013BF8E7C3690022F7
:102BEC001A80B0F90620046A611E4B1E03FB02F327
:102BFC00124A82FB03C21A44DB17C3EBE2230133F4
:102C0C0000D10123994200D31946C162436A5B1A71
:102C1C00DB038362002B0ADBDA13002A09DBB0F931
:102C2C000C30C381B0F91430C38210BC7047DA1376
:102C3C00F3E703EBC4338362F1E700BF8100088044
:102C4C0008B54D2922D0542902D046290FD008BDF1
:102C5C00027240680368DB69C2EB0232134981FBE4
:102C6C0002C11144D217C2EBA1119847EFE742728F
:102C7C0040680368DB68C2EB02320C4981FB02C17D
:102C8C001144D217C2EBA1119847E0E78272406859
:102C9C0003685B69C2EB0232044981FB02C1114437
:102CAC00D217C2EBA1119847D1E700BF03B57EA59F
:102CBC0009B2418181817047B0F90A00704709B2AD
:102CCC00418281827047B0F912007047036A023B5F
:102CDC0001FB03F1054B83FB01230B44C917C1EB2B
:102CEC00E321013109B28180C180704781000880E5
:102CFC00B0F90630026A581EC0EB0030023A90FB65
:102D0C00F2F070470E20704708B54D2922D0542997
:102D1C0002D046290FD008BD027240680368DB69F7
:102D2C00C2EB0232134981FB02C11144D217C2EB30
:102D3C00A1119847EFE7427240680368DB68C2EB69
:102D4C0002320C4981FB02C11144D217C2EBA11112
:102D5C009847E0E78272406803685B69C2EB023215
:102D6C00044981FB02C11144D217C2EBA11198474F
:102D7C00D1E700BF03B57EA509B20181418170473F
:102D8C00B0F90800704709B2018241827047B0F96E
:102D9C001000704708B50E4B83FB0123C917C1EB1C
:102DAC00A30101EB81014A00C369023B03FB02F35F
:102DBC00084A82FB03121A44DB17C3EBE2230133EC
:102DCC0042689A4203D043600368DB6C984708BDA5
:102DDC006766666681000880C36940680138C0EB8D
:102DEC000030023B90FBF3F070470D207047000061
:102DFC0008B54D2922D0542902D046290FD008BD40
:102E0C00027240680368DB69C2EB0232134981FB32
:102E1C0002C11144D217C2EBA1119847EFE74272DD
:102E2C0040680368DB68C2EB02320C4981FB02C1CB
:102E3C001144D217C2EBA1119847E0E782724068A7
:102E4C0003685B69C2EB0232044981FB02C1114485
:102E5C00D217C2EBA1119847D1E700BF03B57EA5ED
:102E6C0040F6CC4303FB01F1054B83FB01230B44E0
:102E7C00C917C1EBE32109B201814181704700BF41
:102E8C0081000880B0F90830C3EB0333034880FBA2
:102E9C0003201844DB17C3EBE0207047A1000AA005
:102EAC0009B2018241827047B0F9100070470000EE
:102EBC0008B5C369033B01FB03F1064B83FB01C35C
:102ECC000B44C917C1EBE321023141600368DB6C91
:102EDC00984708BD81000880C36940680238C0EB80
:102EEC000030033B90FBF3F070470C207047000060
:102EFC0008B54D2922D0542902D046290FD008BD3F
:102F0C00027240680368DB69C2EB0232134981FB31
:102F1C0002C11144D217C2EBA1119847EFE74272DC
:102F2C0040680368DB68C2EB02320C4981FB02C1CA
:102F3C001144D217C2EBA1119847E0E782724068A6
:102F4C0003685B69C2EB0232044981FB02C1114484
:102F5C00D217C2EBA1119847D1E700BF03B57EA5EC
:102F6C0009B28181C1817047B0F90C00704709B278
:102F7C008182C1827047B0F914007047B0F9040027
:102F8C0070470000B0F90420036A023B03FB02F314
:102F9C00084880FB03201844DB17C3EBE0234FF4F5
:102FAC007A7003FB0003044880FB0320DB17C3EBA0
:102FBC006030704781000880AD8BDB680220704761
:102FCC00002383620123C362036A013B2BB1C269F4
:102FDC00002122F81310013BF8E7C36900221A8084
:102FEC00B0F906300381B0F90E300382B0F9163017
:102FFC000383704708B54D2922D0542902D04629A5
:10300C000FD008BD027240680368DB69C2EB023264
:10301C00134981FB02C11144D217C2EBA11198478D
:10302C00EFE7427240680368DB68C2EB02320C497E
:10303C0081FB02C11144D217C2EBA1119847E0E702
:10304C008272406803685B69C2EB0232044981FBFF
:10305C0002C11144D217C2EBA1119847D1E700BFAE
:10306C0003B57EA509B28181C1817047B0F90C000E
:10307C00704709B28182C1827047B0F91400704761
:10308C00036A653B01FB03F1054B83FB01230B44F6
:10309C00C917C1EBE321643109B28180C18070474B
:1030AC0081000880B0F9040070470F2070470000C1
:1030BC0008B54D2922D0542902D046290FD008BD7D
:1030CC00027240680368DB69C2EB0232134981FB70
:1030DC0002C11144D217C2EBA1119847EFE742721B
:1030EC0040680368DB68C2EB02320C4981FB02C109
:1030FC001144D217C2EBA1119847E0E782724068E5
:10310C0003685B69C2EB0232044981FB02C11144C2
:10311C00D217C2EBA1119847D1E700BF03B57EA52A
:10312C00B0F92000704709B2018541857047B0F9AC
:10313C0028007047B0F93000704709B20187418709
:10314C007047B0F93800704709B2A0F84010A0F8E9
:10315C0042107047B0F940007047072070470023B9
:10316C004361B0F922308384B0F92A308385B0F9F9
:10317C0032308386B0F93A308387B0F94230A0F808
:10318C0044308368013B2BB14268002122F81310B4
:10319C00013BF8E7436800221A80704708B54439B0
:1031AC00102918D8DFE801F045171817171717174B
:1031BC00172717171717361709000272406803688C
:1031CC005B69C2EB0232224981FB02C11144D21766
:1031DC00C2EBA111984708BD4272406803685B6A54
:1031EC00C2EB02321A4981FB02C11144D217C2EB65
:1031FC00A1119847EFE7827240680368DB6AC2EB63
:10320C000232134981FB02C11144D217C2EBA11146
:10321C009847E0E7C27240680368DB68C2EB023291
:10322C000B4981FB02C11144D217C2EBA111984783
:10323C00D1E7027340680368DB69C2EB02320449D0
:10324C0081FB02C11144D217C2EBA1119847C2E70E
:10325C0003B57EA57047704770477047704770473D
:10326C0070477047704770477047000008B50248B8
:10327C0003F0B4FD08BD00BF407B000808B5024850
:10328C0003F0ACFD08BD00BF647B000808B5024824
:10329C0003F0A4FD08BD00BF547B000808B502482C
:1032AC0003F09CFD08BD00BFD07B000808B50248A8
:1032BC0003F094FD08BD00BFA47B000808B50248CC
:1032CC0003F08CFD08BD00BFB87B000808B50248B0
:1032DC0003F084FD08BD00BFF87B000808B5024868
:1032EC0003F07CFD08BD00BFE87B000808B5024870
:1032FC0003F074FD08BD00BF447C000808B502480B
:10330C0003F06CFD08BD00BF107C000808B5024836
:10331C0003F07DFD08BD00BF487B000810B50446D6
:10332C00042003F0AEFD024A0260606010BD00BFD5
:10333C004876000810B50446042103F0A0FD204691
:10334C0010BD10B50446082103F099FD204610BDB0
:10335C0010B504460C2103F092FD204610BD10B5AB
:10336C0004460C2103F08BFD204610BD10B504461D
:10337C000C2103F084FD204610BD10B504460C2131
:10338C0003F07DFD204610BD10B504460C2103F062
:10339C0076FD204610BD10B504460C2103F06FFDE0
:1033AC00204610BD10B504460C2103F068FD2046E4
:1033BC0010BD10B504460C2103F061FD204610BD74
:1033CC0010B50446102103F05AFD204610BD000034
:1033DC0010B504460C4803F001FD0A2194F90800CD
:1033EC0003F01CFD094803F0F9FC0A2194F90900CB
:1033FC0003F014FD064803F0F1FC0A2194F90A00CD
:10340C0003F00CFD10BD00BF747B0008847B00082A
:10341C00947B000810B504460C4803F0DFFC0A212D
:10342C0094F9080003F0FAFC094803F0D7FC0A21D0
:10343C0094F9090003F0F2FC064803F0CFFC0A21D2
:10344C0094F90A0003F0EAFC10BD00BF747B00087D
:10345C00847B0008947B000810B504460C4803F0EC
:10346C00BDFC0A2194F9080003F0D8FC094803F0CC
:10347C00B5FC0A2194F9090003F0D0FC064803F0CE
:10348C00ADFC0A2194F90A0003F0C8FC10BD00BF82
:10349C00747B0008847B0008947B000810B50446FC
:1034AC000C4803F09BFC0A2194F9080003F0B6FCCD
:1034BC00094803F093FC0A2194F9090003F0AEFCCF
:1034CC00064803F08BFC0A2194F90A0003F0A6FCD1
:1034DC0010BD00BF747B0008847B0008947B00083F
:1034EC0010B504460C4803F079FC0A2194F9080045
:1034FC0003F094FC094803F071FC0A2194F90900CB
:10350C0003F08CFC064803F069FC0A2194F90A00CC
:10351C0003F084FC10BD00BF747B0008847B0008A2
:10352C00947B000810B504460C4803F057FC0A21A4
:10353C0094F9080003F072FC094803F04FFC0A21CF
:10354C0094F9090003F06AFC064803F047FC0A21D1
:10355C0094F90A0003F062FC10BD00BF747B0008F4
:10356C00847B0008947B000810B504460C4803F0DB
:10357C0035FC0A2194F9080003F050FC094803F0CB
:10358C002DFC0A2194F9090003F048FC064803F0CD
:10359C0025FC0A2194F90A0003F040FC10BD00BF81
:1035AC00747B0008847B0008947B000810B50446EB
:1035BC000C4803F013FC0A2194F9080003F02EFCCC
:1035CC00094803F00BFC0A2194F9090003F026FCCE
:1035DC00064803F003FC0A2194F90A0003F01EFCD0
:1035EC0010BD00BF747B0008847B0008947B00082E
:1035FC0010B50446144803F0F1FB0A2194F90800B5
:10360C0003F00CFC114803F0E9FB0A2194F90B00C0
:10361C0003F004FC0E4803F0E1FB0A2194F90C00C2
:10362C0003F0FCFB0B4803F0D9FB0A2194F90900C9
:10363C0003F0F4FB084803F0D1FB0A2194F90A00CB
:10364C0003F0ECFB10BD00BF747B0008247C000869
:10365C00347C0008847B0008947B000810B5044679
:10366C00034B0360806908B103F052FB204610BD88
:10367C00C878000810B50446054B0360806908B192
:10368C0003F046FBA821204603F0F9FB204610BDB1
:10369C00C878000810B50446034B0360806908B174
:1036AC0003F036FB204610BD4879000810B50446DF
:1036BC00054B0360806908B103F02AFBB02120465A
:1036CC0003F0DDFB204610BD4879000810B5044618
:1036DC00034B0360C06908B103F01AFB204610BD10
:1036EC00C876000810B50446054B0360C06908B1E4
:1036FC0003F00EFB8021204603F0C1FB204610BDD9
:10370C00C876000810B50446034B0360C06908B1C5
:10371C0003F0FEFA204610BD4877000810B50446A9
:10372C00054B0360C06908B103F0F2FAA0212046F2
:10373C0003F0A5FB204610BD4877000810B50446E1
:10374C00034B0360C06908B103F0E2FA204610BDD8
:10375C00C877000810B50446054B0360C06908B172
:10376C0003F0D6FAC821204603F089FB204610BD91
:10377C00C877000810B50446034B0360C06908B154
:10378C0003F0C6FA204610BDC879000810B50446EF
:10379C00054B0360C06908B103F0BAFAA4212046B6
:1037AC0003F06DFB204610BDC879000810B5044627
:1037BC00034B0360406808B103F0AAFA204610BD21
:1037CC00C87A000810B50446054B0360406808B180
:1037DC0003F09EFABC21204603F051FB204610BD9D
:1037EC00C87A000810B50446034B0360C06908B1E1
:1037FC0003F08EFA204610BD4878000810B5044638
:10380C00054B0360C06908B103F082FAA021204681
:10381C0003F035FB204610BD4878000810B504466F
:10382C00034B0360C06908B103F072FA204610BD67
:10383C00487A000810B50446054B0360C06908B10E
:10384C0003F066FAA421204603F019FB204610BDB4
:10385C00487A0008F8B50646A42003F012FB04468B
:10386C00424B036000238380C38003818381C38127
:10387C0003828382C382038300F11C07C36143F676
:10388C00BE430362002008B103F042FA0025E56153
:10389C0043F6BE40786003F02BFAE061236A636262
:1038AC00A5620123E362282384F8303084F8313098
:1038BC0084F8325084F833502564A564E56425659A
:1038CC006565A565A56625676567A567E567C4F8A1
:1038DC008050C4F88440C4F88850C4F88C50C4F8A4
:1038EC009050C4F89450C4F89850C4F89C50C4F844
:1038FC00A05042F26663636344F6CD41A163E36377
:10390C0041F69A126264E36521666366E26674604E
:10391C0096F908302268D269C3EB0333144D85FB4A
:10392C0003011944DB17C3EBA1112046904796F90C
:10393C00093070680268D268C3EB033385FB03411E
:10394C001944DB17C3EBA111904796F90A30706844
:10395C0002685269C3EB033385FB03411944DB173F
:10396C00C3EBA11190477068F8BD00BF487A0008FE
:10397C0003B57EA510B50446B0F90C30C381B0F97F
:10398C001430C382B0F9061001B90121206A421E1D
:10399C008A4200D30A46E262636A9B1ADB03A36283
:1039AC00002B0DDBDA13002A0CDB002003F0C6F928
:1039BC000023226A9A4209D9E269D0540133F8E70C
:1039CC00DA13F0E703EBC033A362EEE70023636482
:1039DC00A364E3642365E36623676367A367C4F8A2
:1039EC009C30C4F89830C4F89430C4F89030C4F8C3
:1039FC008C30C4F88830C4F8843010BDF8B5044657
:103A0C00B0F90A308381B0F9123083820025C56485
:103A1C0005654565856545678567C567C0F8805050
:103A2C0000F1180600F12807384602F067FF04F190
:103A3C00300002F007FF2946384602F00BFF73688E
:103A4C005B08013B1BB13268D054013BFAE7A36918
:103A5C0018700023C4F8A430C4F8A030C4F89C300B
:103A6C00C4F89830C4F89430C4F89030C4F88C3052
:103A7C00F8BD70B50446B0F90A308381B0F9123044
:103A8C00838200F11805426802B90122E369013B07
:103A9C00934219D2636205F11006304602F02EFFF4
:103AAC0005F1180002F0CEFE05F1200002F0CAFE6E
:103ABC000021304602F0CEFE6B685B08013B2BB157
:103ACC002A68D054013BFAE71346E3E7A369187060
:103ADC000023C4F8AC30C4F8A830C4F8A430C4F83F
:103AEC00A030C4F89C30C4F89830C4F8943070BD41
:103AFC00F8B50646B02003F0C4F904463E4B03600B
:103B0C000023436003814381838103824382838248
:103B1C001D46A36147F6AE13C36143F6D74003F0CD
:103B2C00E7F8A0612562656204F1280002F08EFEC0
:103B3C0004F1300002F042FE04F1380002F03EFEC7
:103B4C00E5646565A565E565256665666567E56794
:103B5C00C4F88050C4F88450C4F88850C4F88C5011
:103B6C00C4F89040C4F89450C4F89850C4F89C50D1
:103B7C00C4F8A050C4F8A450C4F8A850C4F8AC5071
:103B8C0042F26663236444F6CD416164A36441F65A
:103B9C009A122265A366E1662367A267746096F9A0
:103BAC0008302268D269C3EB0333144D85FB030143
:103BBC001944DB17C3EBA1112046904796F9093045
:103BCC0070680268D268C3EB033385FB0341194468
:103BDC00DB17C3EBA111904796F90A3070680268A5
:103BEC005269C3EB033385FB03411944DB17C3EB69
:103BFC00A11190477068F8BD4879000803B57EA5FF
:103C0C00F8B504460D46012805D01CB94FF6FF73D4
:103C1C009D4253D0F8BD4FF6FF739942F5D109215F
:103C2C002A48FEF73DFD2A4A0023536029491160BA
:103C3C0029484360294A0260632202723221417290
:103C4C004626867226484360264F076002724172F0
:103C5C00867225484360254F076001724672817257
:103C6C0023484360234F07600272437282722248DA
:103C7C004360224F07600272437282722048436095
:103C8C00204F07600272437282721F4843601F4FBD
:103C9C0007600272437282721D4843601D4F0760B9
:103CAC000272437282721C4A53601C4B13601E23B7
:103CBC00137256729172D1721173A6E7034B186886
:103CCC000028A7D003F0D7F8A4E700BF0402002017
:103CDC0060020020A47600082C0200202477000843
:103CEC0020020020A4770008140200202478000889
:103CFC0044020020A478000838020020247900082F
:103D0C0080020020A479000868020020247A0008B0
:103D1C0074020020A47A000850020020247B0008C2
:103D2C00F8B50646A02003F0ACF804463B4B036004
:103D3C0000238380C38043818381C3814382838238
:103D4C00C38200F11C07C36143F6BE43036200202B
:103D5C0008B102F0DDFF0025E56143F6BE40786056
:103D6C0002F0C6FFE0616562A562E562E563656429
:103D7C00A564E564256565656566E5662567656723
:103D8C00A567E567C4F88040C4F88450C4F888502F
:103D9C00C4F88C50C4F89050C4F89450C4F898509F
:103DAC00C4F89C5042F26663236344F6CD416163D0
:103DBC00A36341F69A122264A365E1652366A266A9
:103DCC00746096F908302268D269C3EB0333144D42
:103DDC0085FB03011944DB17C3EBA1112046904767
:103DEC0096F9093070680268D268C3EB033385FB1F
:103DFC0003411944DB17C3EBA111904796F90A3024
:103E0C00706802685269C3EB033385FB03411944A4
:103E1C00DB17C3EBA11190477068F8BD4878000818
:103E2C0003B57EA5F8B50646A82003F02AF804468B
:103E3C003B4B0360002343600381438183810382F6
:103E4C00438283821D46A36147F6AE13C36143F6DA
:103E5C00D74002F04DFFA0612562656204F1280095
:103E6C0002F0F4FC04F1300002F0A8FC6564E56497
:103E7C0025656565A565E565E5666567A567E5671F
:103E8C00C4F88050C4F88450C4F88840C4F88C50EE
:103E9C00C4F89050C4F89450C4F89850C4F89C508E
:103EAC00C4F8A050C4F8A45042F26663A36344F66D
:103EBC00CD41E163236441F69A12A26423666166E4
:103ECC00A3662267746096F908302268D269C3EB46
:103EDC000333144D85FB03011944DB17C3EBA1110C
:103EEC002046904796F9093070680268D268C3EB97
:103EFC00033385FB03411944DB17C3EBA111904736
:103F0C0096F90A30706802685269C3EB033385FB7B
:103F1C0003411944DB17C3EBA11190477068F8BD3E
:103F2C00C878000803B57EA52DE9F041064680202F
:103F3C0002F0A7FF0446354B036000238380C38047
:103F4C0043818381C38143828382C38200F11C0835
:103F5C00C36141F678630362002008B102F0D8FE19
:103F6C000025E56141F67867C8F8047043F6F04027
:103F7C0002F0BEFEE0616562A562E7626564A5645D
:103F8C00E56425656565E56625676567A567E5678D
:103F9C004FF4004323634FF480326263A363E26304
:103FAC002364A365E26523666266A366746096F972
:103FBC0008302268D269C3EB0333154D85FB03012E
:103FCC001944DB17C3EBA1112046904796F9093031
:103FDC0070680268D268C3EB033385FB0341194454
:103FEC00DB17C3EBA111904796F90A307068026891
:103FFC005269C3EB033385FB03411944DB17C3EB55
:10400C00A11190477068BDE8F08100BFC876000828
:10401C0003B57EA538B50446B0F906300381B0F976
:10402C000E300382B0F91630038300F11C0500201A
:10403C0002F084FE6B68013B1BB12A68D054013B33
:10404C00FAE7E36918700023EB6001232B61B4F9E4
:10405C000830B4F90620934201DA01332381B4F914
:10406C0008309A4201DA013B2381B4F908106B68DD
:10407C00994200DD591E00290DDDAB688B420CDD29
:10408C00E2690A442B68A8680344934205D90023CB
:10409C0002F8013BF6E70121EFE7A960EB689942D2
:1040AC0001DC0139E960002384F83330A364E36454
:1040BC002365636523676367A367E367C4F8A03070
:1040CC00C4F89C30C4F89830C4F89430C4F89030DC
:1040DC00C4F88C30C4F8883038BD00002DE9F04F9E
:1040EC008C4600F15C0300F18407466B846B4FEA4D
:1040FC00E47B816C4FEAE17904FB09FE01FB0BEEDA
:10410C00A4FB014575444FEAD43E4EEA454E06FBEE
:10411C000CEEC46B4FEAE47BC56C4FEAE57904FB0B
:10412C0009F605FB0B66A4FB0589B1444FEAD834AC
:10413C0044EA4944A644046C4FEAE47B066D4FEA1A
:10414C00E67904FB09F806FB0B88A4FB069AC2442B
:10415C004FEAD93444EA4A44A644446C4FEAE47B1F
:10416C00456D4FEAE57904FB09F805FB0B88A4FBC8
:10417C00059AC2444FEAD93444EA4A4474448465EB
:10418C00C1644FEACC318164466561420165002C03
:10419C0063DB04F58044E413BA68002A62D0012A78
:1041AC0000F0D4807A68D0F85CC05C684FEAE47B9D
:1041BC0059694FEAE17904FB09F601FB0B66A4FB94
:1041CC0001453544E00B40EA454002FB0C009C687D
:1041DC004FEAE47B9D694FEAE57904FB09F605FBA0
:1041EC000B66A4FB0578B044FC0B44EA484420441D
:1041FC00DC684FEAE479D3F81CC06646F71704FB79
:10420C0007F60CFB0966A4FB0C78B044FC0B44EAE3
:10421C0048442044D3F810E07446E517D3F82080C6
:10422C004646F7170EFB07F608FB0566AEFB08784B
:10423C00B044FC0B44EA4844204458629961D203D0
:10424C005A61C3F820C04242DA610028C0F22381CF
:10425C0000F58040C013BDE8F08F04F57F543F3467
:10426C00E41399E7D0F88450FA68C5F8982005F162
:10427C001C0CB5F90820B5F906108A4201DA013296
:10428C002A81B5F90820914201DA013A2A81B5F95F
:10429C000820296A653901FB02F1814A82FB01621F
:1042AC005618CA17C2EBE6226432DCF804108A42B4
:1042BC0000DD4A1E002A12DDDCF80810914210DDE8
:1042CC00E96901EB420EDCF80010DCF8086001EB48
:1042DC004601714505D900212EF8021BF3E7012296
:1042EC00EAE7CCF80820DCF80C108A4202DC013A30
:1042FC00CCF80C20AE6A6A6A95F93010521A013269
:10430C00964207D08A1E964212D03C61BA6801329E
:10431C00BA6047E7EA6A002AF4DDCAB2013A85F8C6
:10432C003120FF2285F83220012285F83320E9E77D
:10433C00EA6A002AE9DACAB2013A85F83120FF228A
:10434C0085F83220012285F83320DEE7D0F884206E
:10435C00956AD16931F91560C2F8A06092F83310F2
:10436C00A1B192F9315005FB06F192F930C091FBE5
:10437C00FCF692F932100D446DB282F83150B1F165
:10438C00FF3F65D092F93210012967D0C2F8A060C6
:10439C00B2F91010B2F90E50A94201DA01311182B2
:1043AC00B2F910108D4201DA01391182B2F91050B4
:1043BC0005FB06F53A4981FB05C12944ED17C5EB10
:1043CC00E125D2F898104D1BC2F89850B2F918108C
:1043DC00B2F916C0614501DA01311183B2F9181036
:1043EC008C4501DA01391183B2F9181001FB06F181
:1043FC002B4E86FB01C60E44C917C1EBE62105F313
:10440C000F05C2F8985001F30F01C2F89C1002F18D
:10441C001C010FFA85FC8E68CD68B54203DB0026C3
:10442C00CE6001260E61CE68002E1DDBD669CD68EC
:10443C0026F815C00D69CE683544CD608E68B5423E
:10444C0017DA002D1ADA0025CD6001250D6115E073
:10445C00002D97D1012182F8321093E7AC4595D10C
:10446C00002182F8331091E70026CE6001260E6100
:10447C00DCE7013ECE604FF0FF350D61D2F89C2099
:10448C007A603A6914443C6104EBD4746410FC60A7
:10449C000022BA6086E600F57F503F30C013DAE6A2
:1044AC00810008802DE9F04F8C4600F1580300F193
:1044BC008007066B446B4FEAE47B416C4FEAE17971
:1044CC0004FB09FE01FB0BEEA4FB014575444FEA0E
:1044DC00D43E4EEA454E06FB0CEE846B4FEAE47B71
:1044EC00856C4FEAE57904FB09F605FB0B66A4FB2A
:1044FC000589B1444FEAD83444EA4944A644C46B14
:10450C004FEAE47BC66C4FEAE67904FB09F806FB3C
:10451C000B88A4FB069AC2444FEAD93444EA4A44B5
:10452C00A644046C4FEAE47B056D4FEAE57904FB85
:10453C0009F805FB0B88A4FB059AC2444FEAD93451
:10454C0044EA4A447444446581644FEACC31416482
:10455C0006656142C164002C63DB04F58044E413FE
:10456C00BA68002A62D0012A00F0B4807A68D0F8C8
:10457C0058C05C684FEAE47B59694FEAE17904FB67
:10458C0009F601FB0B66A4FB01453544E00B40EA40
:10459C00454002FB0C009C684FEAE47B9D694FEAA6
:1045AC00E57904FB09F605FB0B66A4FB0578B04422
:1045BC00FC0B44EA48442044DC684FEAE479D3F825
:1045CC001CC06646F71704FB07F60CFB0966A4FB38
:1045DC000C78B044FC0B44EA48442044D3F810E077
:1045EC007446E517D3F820804646F7170EFB07F6FE
:1045FC0008FB0566AEFB0878B044FC0B44EA484463
:10460C00204458629961D2035A61C3F820C04242D7
:10461C00DA610028C0F2BB8000F58040C013BDE811
:10462C00F08F04F57F543F34E41399E7D0F88010F1
:10463C00FA68C1F8942001F11C05B1F906C00E6AA4
:10464C00013E721E02FB0CF2DFF84CC18CFB02EC3B
:10465C009444D217C2EBEC22013200D101229642D3
:10466C0027D2CE62EA68002A25DB4FEAE23ECE6909
:10467C0036F91EC0AE68A6EB0E0E7646BEF1000FE4
:10468C0020DB4FEAC63E2E699EFBF6F63244EA600A
:10469C00002A1ADBD613D5F804E0764502D3A2EB38
:1046AC00CE32EA60C1F89CC03C61BA680132BA6093
:1046BC005CE71646D5E702F5FF4E0EF17F0E4FEA8A
:1046CC00EE3ED4E76E687644DBE702F5FF467F36B4
:1046DC00F613E0E7D0F88020D2F89CC0B2F90E10A7
:1046EC00B2F90C50A94201DA0131D181B2F90E10A4
:1046FC008D4201DA0139D181B2F90E5005FB0CF56E
:10470C00254E86FB05162E44ED17C5EBE625D2F893
:10471C0094104D1BC2F89450B2F91610B2F91460F3
:10472C00B14201DA0131D182B2F916108E4201DAAE
:10473C000139D182B2F9161001FB0CF1164E86FB31
:10474C0001C60E44C917C1EBE62105F30F05C2F8EB
:10475C00945001F30F01C2F89810566AD16921F8F0
:10476C001650516A01315162156AA9420CD0D2F827
:10477C0098207A603A6914443C6104EBD474641058
:10478C00FC600022BA60F1E600215162EFE700F50F
:10479C007F503F30C01342E7810008802DE9F84F6D
:1047AC0005468C4600F1700400F19806826CC06CD2
:1047BC004FEAE07BEF6D4FEAE77900FB09FE07FB60
:1047CC000BEEA0FB070171444FEAD03E4EEA414E7E
:1047DC0002FB0CEE286D4FEAE07B296E4FEAE17983
:1047EC0000FB09F201FB0B22A0FB018991444FEA6B
:1047FC00D83040EA49408644686D4FEAE07B6A6EE7
:10480C004FEAE27900FB09F802FB0B88A0FB029A45
:10481C00C2444FEAD93040EA4A408644A86D4FEA78
:10482C00E07BA96E4FEAE17900FB09F801FB0B88EC
:10483C00A0FB019AC2444FEAD93040EA4A40704486
:10484C00E8662F664FEACC31E965AA6642426A6691
:10485C000028C0F2908000F58040C713B368002B8D
:10486C0040F08E80D5F89820F368C2F8AC30B2F9DD
:10487C002430B2F922108B4201DA01339384B2F95D
:10488C002430994201DA013B9384B2F92430C3EB12
:10489C00832103EB8103CA4981FB03011944DB1714
:1048AC00C3EBE1230233116901FB03F3C54981FB1F
:1048BC000301DB17C3EB611393613761B3680133F9
:1048CC00B3607168286F62684FEAE27B65694FEAF2
:1048DC00E57902FB09F605FB0B66A2FB0578B044F3
:1048EC00FA0B42EA484201FB0020A2684FEAE27B45
:1048FC00A3694FEAE37902FB09F603FB0B66A2FB03
:10490C000378B044FA0B42EA48421044E2684FEA9A
:10491C00E279D4F81CC06646F71702FB07F60CFBCD
:10492C000966A2FB0C78B044FA0B42EA48421044E8
:10493C00D4F810E07246D317D4F820804646F71707
:10494C000EFB07F608FB0366AEFB0878B044FA0BC7
:10495C0042EA484210446062A561C9036161C4F82F
:10496C0020C04342E3610028C0F2248100F580405E
:10497C00C013BDE8F88F00F57F503F30C7136DE7CB
:10498C00012B42D0022B00F0E880032B99D1D5F8F3
:10499C009820B2F9B800D168536823F81100D36895
:1049AC000133D36091688B4201D30023D360D2F8DA
:1049BC00B4C0B2F94410B2F94200814202DA0131BA
:1049CC00A2F84410B2F94410884202DA0139A2F874
:1049DC004410B2F9443003FB0CF3794981FB030119
:1049EC001944DB17C3EBE12303F30F03C2F8B43014
:1049FC00736030693844306103460028C0F2D880B7
:104A0C009B10F3600023B3605BE7D5F89890B9F97D
:104A1C003430B9F93220934202DA0133A9F8343038
:104A2C00B9F934309A4202DA013BA9F83430B9F9B9
:104A3C003480C72303FB08F3614A82FB03289844A4
:104A4C00DB17C3EBE828B9F92C30B9F92A209342CB
:104A5C0002DA0133A9F82C30B9F92C309A4202DA77
:104A6C00013BA9F82C30B9F92C2041F6834303FB08
:104A7C0002F3534A82FB032A9A44DB17C3EBEA2A5C
:104A8C0009F1100BDBF80400002848DBC013DBF83D
:104A9C000C1080B202F074F9DBF80430DBF808205B
:104AAC001344CBF80430002B3EDB08F10103DB038D
:104ABC0000FB083818EBCA383CD44FEAE832A8EBB4
:104ACC00C238531C3BD4D9F80800984200D8431E76
:104ADC00D9F80C10CB1A9E46002B32DBD9F804C047
:104AEC003CF91E3003FB08F3C8F50048002A2BDB09
:104AFC00904200D8421E8A1A1146002A26DB3CF945
:104B0C00112002FB0833002B22DBDB13C9F8B43075
:104B1C00306938443061B3680133B360D1E600F5D5
:104B2C00FF407F30C013B2E723F000430133CBF8D2
:104B3C000430BAE708F5FF427F32D213BFE70023F7
:104B4C00C1E700EB030EC9E70022D1E78118D6E7D5
:104B5C0003F5FF437F33DB13D8E7D5F89810D1F872
:104B6C00AC00D1F8B4E0B1F93C20B1F93AC06245DF
:104B7C0001DA01328A87B1F93C20944501DA013A15
:104B8C008A87B1F93C3003FB0EF30D4A82FB03C25A
:104B9C001A44DB17C3EBE223C31A03F30F03C1F868
:104BAC00B830306938443061B3680133B36088E69B
:104BBC00C31C25E700F57F503F30C013D9E600BF7A
:104BCC0081000880B5814E1B2DE9F04F85B08C46D5
:104BDC0000F1580300F1A806016B446B4FEAE47B2B
:104BEC00476C4FEAE77904FB09FE07FB0BEEA4FBCD
:104BFC00074575444FEAD43E4EEA454E01FB0CEE98
:104C0C00846B4FEAE47B856C4FEAE57904FB09F190
:104C1C0005FB0B11A4FB058989444FEAD83444EAFF
:104C2C004944A644C46B4FEAE47BC16C4FEAE1797A
:104C3C0004FB09F801FB0B88A4FB019AC2444FEA60
:104C4C00D93444EA4A44A644046C4FEAE47B056D2B
:104C5C004FEAE57904FB09F805FB0B88A4FB059AE0
:104C6C00C2444FEAD93444EA4A44744444658764E4
:104C7C004FEACC35456401656142C164002C7EDB92
:104C8C0004F58042D213B16800297FD1D0F8A87006
:104C9C00F168C7F8BC10B7F906503C6A013C611EBC
:104CAC0001FB05F1D64D85FB01C50D44C917C1EBC0
:104CBC00E521013100D101218C4265D2FC623261C7
:104CCC00B2680132B2607268D0F858C05C684FEAC2
:104CDC00E47B59694FEAE17904FB09F601FB0B66A9
:104CEC00A4FB01453544E00B40EA454002FB0C00B7
:104CFC009C684FEAE47B9D694FEAE57904FB09F671
:104D0C0005FB0B66A4FB0578B044FC0B44EA484455
:104D1C002044DC684FEAE479D3F81CC06646F717E8
:104D2C0004FB07F60CFB0966A4FB0C78B044FC0BE7
:104D3C0044EA48442044D3F810E07446E517D3F80D
:104D4C0020804646F7170EFB07F608FB0566AEFB00
:104D5C000878B044FC0B44EA4844204458629961FA
:104D6C00D2035A61C3F820C04242DA610028C0F273
:104D7C004B8100F58040C01305B0BDE8F08F04F501
:104D8C007F523F32D2137EE70C4697E7012919D0A8
:104D9C00022900F09280032995D1D0F8A840D4F8CC
:104DAC00C01001F30F01C4F8C010716031690A44DE
:104DBC0032611146002AC0F225818910F16000226F
:104DCC00B26080E7D0F8A81001F11C0CDCF80C5094
:104DDC00002D62DB4FEAE53ECF6937F91E70DCF837
:104DEC000840A4EB0E0E7446BEF1000F5CDB4FEADC
:104DFC00C43EDCF810409EFBF4F42544CCF80C5077
:104E0C00002D55DBEC13DCF804E0744503D3A5EB63
:104E1C00CE35CCF80C50C1F8C470B1F90E40B1F9D4
:104E2C000C50AC4201DA0134CC81B1F90E40A542F0
:104E3C0001DA013CCC81B1F90E5005FB07F5704C41
:104E4C0084FB05C42C44ED17C5EBE425D1F8BC401C
:104E5C00651BC1F8BC50B1F91640B1F91450AC4205
:104E6C0001DA0134CC82B1F91640A54201DA013CD9
:104E7C00CC82B1F9164004FB07F4614D85FB047537
:104E8C002544E417C4EBE524C1F8C04031690A4459
:104E9C003261B2680132B26015E705F5FF4E0EF1D2
:104EAC007F0E4FEAEE3E97E7DCF8044074449EE731
:104EBC0005F5FF447F34E413A5E7D0F8A8C0DCF86F
:104ECC00BCA0DCF884703C46FD17CDE90045DCF84D
:104EDC0094E07446E51707FB05F8019C0EFB04886B
:104EEC00A7FB0E45CDE900452C4644440194DDE971
:104EFC000078FC0B44EA4844DCF8805005FB0A447B
:104F0C000094DCF888B04FEAEB79DCF898502F4627
:104F1C00ED170BFB05F407FB0949ABFB07452746CF
:104F2C002C464C44A046FC0B44EA4844009D2544C6
:104F3C000295DCF88CB04FEAEB79DCF89C502F46EC
:104F4C000095ED170BFB05F407FB0949ABFB077844
:104F5C003C4647464F443D46E40B44EA4544029DDB
:104F6C002544A946DCF890502F464FEAE578CDE968
:104F7C000278DCF8A0404FEAE47805FB08F8039FC0
:104F8C0004FB0787A5FB04453D44E70B47EA45476F
:104F9C004F44CCF8A470CCF898E04FEACA34CCF863
:104FAC009440009DCCF8A0507C42CCF89C40002F43
:104FBC001CDB07F58047FF1307F30F07CCF8BC7019
:104FCC00DCF82440DCF81C1021F81470DCF82410F8
:104FDC000131CCF82410DCF82040A1420BD031690F
:104FEC000A443261B2680132B2606CE607F57F5751
:104FFC003F37FF13E0E70021CCF82410EFE700BFA8
:10500C0081000880D11CD8E600F57F503F30C013DA
:10501C00B2E600BF2DE9F84F05468C4600F1580466
:10502C0000F18006026B406B4FEAE07B6F6C4FEA3D
:10503C00E77900FB09FE07FB0BEEA0FB07017144AF
:10504C004FEAD03E4EEA414E02FB0CEEA86B4FEA03
:10505C00E07BA96C4FEAE17900FB09F201FB0B2222
:10506C00A0FB018991444FEAD83040EA494086447C
:10507C00E86B4FEAE07BEA6C4FEAE27900FB09F857
:10508C0002FB0B88A0FB029AC2444FEAD93040EADB
:10509C004A408644286C4FEAE07B296D4FEAE1795F
:1050AC0000FB09F801FB0B88A0FB019AC2444FEAF4
:1050BC00D93040EA4A4070446865AF644FEACC315D
:1050CC0069642A654242EA64002862DB00F580408C
:1050DC00C713B368002B61D0012B00F0B580716849
:1050EC00A86D62684FEAE27B65694FEAE57902FBDD
:1050FC0009F605FB0B66A2FB0578B044FA0B42EAF5
:10510C00484201FB0020A2684FEAE27BA3694FEA08
:10511C00E37902FB09F603FB0B66A2FB0378B044B0
:10512C00FA0B42EA48421044E2684FEAE279D4F8BA
:10513C001CC06646F71702FB07F60CFB0966A2FBC0
:10514C000C78B044FA0B42EA48421044D4F810E010
:10515C007246D317D4F820804646F7170EFB07F695
:10516C0008FB0366AEFB0878B044FA0B42EA4842EF
:10517C0010446062A561C9036161C4F820C0434258
:10518C00E3610028C0F2CA8000F58040C013BDE87E
:10519C00F88F00F57F503F30C7139AE7D5F8808021
:1051AC00F368C8F8943008F11C09B8F9062002B964
:1051BC000122D8F82030013B934230D2C8F82C3071
:1051CC00D9F80C30002B2CDBDB13D8F81C20D05C6E
:1051DC0001F09FFDD9F80810D9F80C30002B25DB15
:1051EC00DA13891A0A46002925DBD203D9F81010E4
:1051FC0092FBF1F21344C9F80C30002B1FDBDA13CD
:10520C00D9F804108A4203D3A3EBC133C9F80C308C
:10521C00C8F89C003761B3680133B3605FE713468D
:10522C00CCE703F5FF437F33DB13CEE703F5FF42F7
:10523C007F32D213D5E7D9F804200A44D5E703F519
:10524C00FF427F32D213DBE7D5F88080D8F89C1070
:10525C00B8F90E30B8F90C20934202DA0133A8F8F1
:10526C000E30B8F90E309A4202DA013BA8F80E3033
:10527C00B8F90E2002FB01F22B4880FB02301044DF
:10528C00D217C2EBE022D8F894000244C8F894205C
:10529C00B8F91630B8F91400834202DA0133A8F8D1
:1052AC001630B8F91630984202DA013BA8F81630DD
:1052BC00B8F9163003FB01F31B4981FB03011944B8
:1052CC00DB17C3EBE12302F30F00C8F8940003F3E0
:1052DC000F03C8F89830D8F824A0D8F81CB000B246
:1052EC0001F02CFD0BF80A00D8F824300133C8F873
:1052FC002430D8F8202093420CD0D8F89830736022
:10530C0030693844306100EBD0704010F0600023FD
:10531C00B360E4E60023C8F82430EEE700F57F50D4
:10532C003F30C01333E700BF810008802DE9F84FF0
:10533C0005468C4600F1680400F19006026C406C46
:10534C004FEAE07B6F6D4FEAE77900FB09FE07FB44
:10535C000BEEA0FB070171444FEAD03E4EEA414EE2
:10536C0002FB0CEEA86C4FEAE07BA96D4FEAE179E9
:10537C0000FB09F201FB0B22A0FB018991444FEACF
:10538C00D83040EA49408644E86C4FEAE07BEA6D4D
:10539C004FEAE27900FB09F802FB0B88A0FB029AAA
:1053AC00C2444FEAD93040EA4A408644286D4FEA5D
:1053BC00E07B296E4FEAE17900FB09F801FB0B88D1
:1053CC00A0FB019AC2444FEAD93040EA4A407044EB
:1053DC006866AF654FEACC3169652A664242EA6578
:1053EC00002862DB00F58040C713B368002B61D046
:1053FC00012B00F0B8807168A86E62684FEAE27BFE
:10540C0065694FEAE57902FB09F605FB0B66A2FB21
:10541C000578B044FA0B42EA484201FB0020A2682E
:10542C004FEAE27BA3694FEAE37902FB09F603FB3F
:10543C000B66A2FB0378B044FA0B42EA48421044D4
:10544C00E2684FEAE279D4F81CC06646F71702FB13
:10545C0007F60CFB0966A2FB0C78B044FA0B42EA87
:10546C0048421044D4F810E07246D317D4F8208088
:10547C004646F7170EFB07F608FB0366AEFB0878EB
:10548C00B044FA0B42EA484210446062A561C90379
:10549C006161C4F820C04342E3610028C0F2E1809E
:1054AC0000F58040C013BDE8F88F00F57F503F3009
:1054BC00C7139AE7D5F89090F368C9F8A43009F1AE
:1054CC001808D9F8042002B90122D9F81C30013B84
:1054DC00934237D2C9F82430D8F80830D8F80C20C9
:1054EC009B1A1A46002B2FDB08F11800D9F818105C
:1054FC00530812F0010F2BD0C95C01F00F0101F021
:10550C0061F98246D8F80830D8F80C20A3EB520386
:10551C001A46002B1FDB08F12000D9F8181053088D
:10552C0012F0010F1BD1C95C090901F04BF9504471
:10553C0000F30F0000B2C9F8AC003761B368013357
:10554C00B36058E71346C5E7D8F804201A44CBE7F4
:10555C00C95C0909D3E7D8F804201A44DBE7C95C15
:10556C0001F00F01E1E7D5F89080D8F8AC00B8F95C
:10557C000C30B8F90A20934202DA0133A8F80C3047
:10558C00B8F90C309A4202DA013BA8F80C30B8F9A1
:10559C000C2002FB00F2354981FB02311144D21779
:1055AC00C2EBE122D8F8A4108A1AC8F8A420B8F9E2
:1055BC001430B8F912108B4202DA0133A8F8143007
:1055CC00B8F91430994202DA013BA8F81430B8F952
:1055DC00143003FB00F3254981FB03011944DB174D
:1055EC00C3EBE12302F30F01C8F8A41003F30F037C
:1055FC00C8F8A83008F11809D9F808A009B208F1C0
:10560C00280001F027F900F00F00D8F818204FEA15
:10561C005A031AF0010F1AD0D15C01F0F0010843C3
:10562C00D054D9F808300133C9F80830D9F804201F
:10563C00934212D0D8F8A830736030693844306186
:10564C0000EBD0704010F0600023B360D3E6D1566D
:10565C0001F00F0141EA0010E2E70023C9F808301D
:10566C00E8E700F57F503F30C0131CE7810008804D
:10567C002DE9F84F05468C46446B806B4FEAE07978
:10568C00D5F848E07646F71700FB07F30EFB093315
:10569C00A0FB0E011944C30B43EA414304FB0C333A
:1056AC00E86BC717E96C4FEAE17900FB09F401FBE1
:1056BC000744A0FB01672744F00B40EA4740034432
:1056CC00286C4FEAE0792C6DE71700FB07F604FB1A
:1056DC000966A0FB0478B044F80B40EA4840034448
:1056EC00686C4FEAE07B696D4FEAE17900FB09F6E3
:1056FC0001FB0B66A0FB0178B044F80B40EA484074
:10570C000344AB65C5F84CE04FEACC31A9646C6539
:10571C0059422965002B67DB03F580434FEAE33BD5
:10572C0005F18407BB68002B64D0012B00F0EF80DF
:10573C007C6805F15C01E86D2A6E4FEAE27B2D6F07
:10574C004FEAE57902FB09F605FB0B66A2FB05782F
:10575C00B044FA0B42EA484204FB00208A684FEA44
:10576C00E27B8B694FEAE37902FB09F603FB0B66DC
:10577C00A2FB0378B044FA0B42EA48421044CA68D0
:10578C004FEAE279D1F81CC06646F71702FB07F620
:10579C000CFB0966A2FB0C78B044FA0B42EA4842B7
:1057AC001044D1F810E07246D317D1F82080464649
:1057BC00F7170EFB07F608FB0366AEFB0878B04440
:1057CC00FA0B42EA4842104448628D61E4034C6192
:1057DC00C1F820C04342CB610028C0F2258100F5FE
:1057EC008040C013BDE8F88F03F57F533F334FEA79
:1057FC00E33B95E7D5F88460FB68C6F8983006F172
:10580C001C02B6F90830B6F906108B4201DA0133E6
:10581C003381B6F90830994201DA013B3381B6F98C
:10582C0008005368984200DD581E00280DDD93686F
:10583C0083420CDDF1690144146893681C448C426A
:10584C0005D9002301F8013BF6E70120EFE7906052
:10585C00D368984201DC431ED360B26A736A96F92E
:10586C0030105B1A01339A4229D08B1E9A4234D0E5
:10587C00F369985C01F04DFA0246C6F8A00096F860
:10588C003330A3B196F9313003FB00F096F930C0F8
:10589C0090FBFCF296F932100B445BB286F8313077
:1058AC00B1F1FF3F27D096F93210012929D0C6F863
:1058BC00A020C7F810B0BB680133BB6038E7F36AAF
:1058CC00002BD2DDCBB2013B86F83130FF2386F8BA
:1058DC003230012386F83330C7E7F36A002BC7DA7E
:1058EC00CBB2013B86F83130FF2386F832300123EE
:1058FC0086F83330BCE7002BD5D1012186F8321065
:10590C00D1E79C45D3D1002386F83330CFE7D5F8C7
:10591C008460D6F8A000B6F91030B6F90E20934288
:10592C0001DA01333382B6F910309A4201DA013BC5
:10593C003382B6F9102002FB00F23E4981FB0231A2
:10594C001144D217C2EBE122D6F898309A1AC6F855
:10595C009820B6F91830B6F916108B4201DA0133DB
:10596C003383B6F91830994201DA013B3383B6F927
:10597C00183003FB00F32F4981FB03011944DB179B
:10598C00C3EBE12302F30F00C6F8980003F30F03F7
:10599C00C6F89C3006F11C0800B2D8F80C20D8F8D8
:1059AC0008309A4205DB0023C8F80C300123C8F8F4
:1059BC001030D8F80C30002B1BDBD8F80C90D6F834
:1059CC001CA001F0BBF90AF80900D8F81030D8F87F
:1059DC000C201344C8F80C30D8F8082093420FDA86
:1059EC00002B14DA0023C8F80C300123C8F810304F
:1059FC000DE00023C8F80C300123C8F81030DCE7A8
:105A0C00013AC8F80C204FF0FF33C8F81030D6F824
:105A1C009C307B603B695B443B6103EBD3735B1055
:105A2C00FB600023BB6083E600F57F503F30C01362
:105A3C00D8E600BF810008802DE9F84F054601EB40
:105A4C0041018B00BF4A82FB032CDB17C3EBAC0C70
:105A5C0000F1600400F18806826BC06B4FEAE07BBA
:105A6C00EF6C4FEAE77900FB09FE07FB0BEEA0FB9E
:105A7C00070171444FEAD03E4EEA414E02FB0CEE58
:105A8C00286C4FEAE07B296D4FEAE17900FB09F2C3
:105A9C0001FB0B22A0FB01011144C20B42EA414263
:105AAC009644686C4FEAE07B6A6D4FEAE27900FB42
:105ABC0009F802FB0B88A0FB029AC2444FEAD930CA
:105ACC0040EA4A408644A86C4FEAE07BA96D4FEA55
