:020000040800F2
:1000000000500020A5780008392900083B29000885
:100010003D2900083F290008412900080000000090
:10002000000000000000000000000000432900085C
:100030004529000800000000472900084929000858
:10004000ED780008ED780008ED780008ED780008FC
:10005000ED780008ED780008ED780008ED780008EC
:10006000ED780008ED780008ED78000851290008C7
:10007000ED780008ED780008ED780008ED780008CC
:10008000ED780008ED780008ED780008ED780008BC
:10009000ED780008ED780008ED780008ED780008AC
:1000A000ED780008ED780008ED780008ED7800089C
:1000B000ED780008ED780008ED780008ED7800088C
:1000C000ED780008ED780008ED780008ED7800087C
:1000D000ED78000861290008ED780008ED78000847
:1000E000ED780008ED780008ED78000800000000C9
:1000F0000000000000000000000000000000000000
:0C01000000000000000000005FF808F1A3
:10010C0010B5054C237833B9044B13B10448AFF345
:10011C0000800123237010BDE001002000000000CE
:10012C00187E000808B5034B1BB103490348AFF315
:10013C00008008BD00000000E4010020187E0008CB
:10014C00034613F8012B002AFBD1181A013870470B
:10015C007BB972B90029BEBF00204FF0004106E008
:10016C0008BF00281CBF6FF000414FF0FF3000F0BB
:10017C00A7B9ADF1080C6DE904CE002909DB002B01
:10018C001ADB00F035F8DDF804E0DDE9022304B0F9
:10019C007047404261EB4101002B1BDB00F028F85B
:1001AC00DDF804E0DDE9022304B0404261EB4101DB
:1001BC00524263EB43037047524263EB430300F03C
:1001CC0017F8DDF804E0DDE9022304B0404261EBEE
:1001DC0041017047524263EB430300F009F8DDF82C
:1001EC0004E0DDE9022304B0524263EB43037047A1
:1001FC002DE9F0478C460446089E002B4BD18A42D1
:10020C00154667D9B2FA82F24AB1C2F1200701FA57
:10021C0002F320FA07F7954047EA030C94404FEAA3
:10022C00154EBCFBFEF71FFA85F80EFB17C307FB38
:10023C0008F9210C41EA0343994509D9EB1807F158
:10024C00FF3180F01C81994540F21981023F2B440B
:10025C00A3EB0903B3FBFEF00EFB103300FB08F11C
:10026C00A4B244EA0344A14209D92C1900F1FF338A
:10027C0080F00781A14240F2048102382C4440EA0C
:10028C0007400027641A1EB10023D440C6E900437E
:10029C003946BDE8F0878B4209D9002E00F0EC807E
:1002AC000027C6E9000138463946BDE8F087B3FAA5
:1002BC0083F7002F48D18B4202D3824200F2FB809D
:1002CC00841A61EB030301209C46002EE0D0C6E9A2
:1002DC00004CDDE702B9FFDEB2FA82F2002A40F0F0
:1002EC008F800127491B4FEA15481FFA85F9B1FB8E
:1002FC00F8FE08FB1E1109FB0EF04FEA144C4CEAF9
:10030C000143984207D9EB180EF1FF3102D2984203
:10031C0000F2CD808E461B1AB3FBF8F008FB1033AD
:10032C0009FB00F9A4B244EA0344A14507D92C19EE
:10033C0000F1FF3302D2A14500F2B6801846A4EBBF
:10034C00090440EA0E409EE7C7F12005BB4022FAA3
:10035C0005FC4CEA030C21FA05F44FEA1C4EB4FBE5
:10036C00FEF91FFA8CF80EFB194420FA05F3B9407C
:10037C0009FB08FA19430B0C43EA0444A24502FAA0
:10038C0007F200FA07F30BD91CEB040409F1FF3058
:10039C0080F08880A24540F28580A9F1020964446E
:1003AC00A4EB0A04B4FBFEF00EFB104400FB08FAAD
:1003BC0089B241EA0444A24508D91CEB040400F1BB
:1003CC00FF316BD2A24569D90238644440EA094036
:1003DC00A0FB0289A4EB0A044C454146CE4654D3FB
:1003EC0051D0002E69D05A1A64EB0E0404FA05F5AC
:1003FC0022FA07F3FC401D43C6E90054002747E7E7
:10040C009540C2F1200321FA03F04FEA1548B0FBE6
:10041C00F8F71FFA85F908FB170024FA03F391404B
:10042C0007FB09FC0B43190C41EA00418C4504FA0B
:10043C0002F407D9691807F1FF3031D28C452FD956
:10044C00023F2944A1EB0C01B1FBF8F008FB101C96
:10045C0000FB09FE99B241EA0C418E4507D9691897
:10046C0000F1FF3318D28E4516D902382944A1EB7E
:10047C000E0140EA07473AE73746304608E70F4691
:10048C00E6E61846FBE64345ABD2B8EB020169EB56
:10049C000C0201389646A4E71846E8E7084695E7AB
:1004AC000746CFE781467BE702382C4447E7AEF19D
:1004BC00020E2B442FE7384607E73746E8E600BF25
:1004CC00704700BF10B504460E4B18784FF47A7382
:1004DC00B3FBF0F30C4A1068B0FBF3F000F078FBC0
:1004EC0068B90F2C01D901200AE0002221464FF0F7
:1004FC00FF3000F02BFB054B1C60002000E00120BE
:10050C0010BD00BF000000200800002004000020E7
:10051C0008B5074A136843F010031360032000F07A
:10052C0003FB0120FFF7CEFF02F0ECF8002008BD22
:10053C0000200240034A1168034B1B780B441360E4
:10054C00704700BF6C03002000000020014B1868AE
:10055C00704700BF6C03002038B50446FFF7F6FF68
:10056C000546B4F1FF3F02D0044B1B781C44FFF747
:10057C00EDFF401BA042FAD338BD00BF00000020A5
:10058C0008B5436A9A6A12F0500F03D01B6A1B6BB2
:10059C00984708BD9A6A42F400729A621A68926887
:1005AC0002F46022B2F5602F03D0184607F018F859
:1005BC00EFE71A7B002AF8D19A6A22F480729A62C9
:1005CC009A6A12F4805FF0D19A6A42F001029A6240
:1005DC00EBE708B5406A06F063FF08BD704708B545
:1005EC00406A836A43F040038362C36A43F00403A6
:1005FC00C362FFF7F3FF08BD30B482B00023019350
:10060C0090F82430012B00F08B800246012380F8F7
:10061C0024304B68062B29D80568686B03EB8303E1
:10062C00053B1F249C4020EA04000C6804FA03F3E9
:10063C0003436B630B68092B38D91568E86803EB27
:10064C0043031E3B07249C4020EA04008C6804FAF8
:10065C0003F30343EB600B68103B012B34D90020F0
:10066C00002382F8243002B030BC70470C2B0ED81B
:10067C000568286B03EB8303233B1F249C4020EA73
:10068C0004000C6804FA03F303432B63D2E70568F8
:10069C00E86A03EB8303413B1F249C4020EA0400DF
:1006AC000C6804FA03F30343EB62C3E7156828698B
:1006BC0003EB430307249C4020EA04008C6804FAF3
:1006CC0003F303432B61C6E713681648834205D036
:1006DC00936A43F0200393620120C1E7986810F4F9
:1006EC00000F1BD1986840F4000098600B68102B29
:1006FC0001D00020B4E70C4B1B680C49A1FB031381
:10070C009B0C03EB83035900019102E0019B013B1D
:10071C000193019B002BF9D10020A1E700209FE75A
:10072C000220A0E7002401400800002083DE1B43C8
:10073C0030B583B00023019303689A6812F0010F5F
:10074C002ED19A6842F001029A60174B1B68174A27
:10075C00A2FB03239B0C019302E0019B013B019341
:10076C00019B002BF9D10446FFF7F0FE05462368E8
:10077C009B6813F0010F11D1FFF7E8FE401B022814
:10078C00F5D9A36A43F01003A362E36A43F00103B3
:10079C00E362002384F82430012002E0002000E012
:1007AC00002003B030BD00BF0800002083DE1B43D7
:1007BC00F8B50468454DAC425BD0454B9C4258D0D3
:1007CC0090F82440012C7ED016460D460446012399
:1007DC0080F82430FFF7ACFF074600286ED1A36ADF
:1007EC0023F4706323F0010343F48073A362226843
:1007FC00374B9A4244D0A36A23F48013A362536804
:10080C0013F4806F05D0A36A23F4405343F4805350
:10081C00A362A36A13F4805F48D0E36A23F0060353
:10082C00E362002384F82430236A2A4A9A62236AFA
:10083C00294ADA62236A294A1A6323686FF0020292
:10084C001A602268936843F480739360216833467E
:10085C002A464C31206A00F01DFA2268936803F492
:10086C006023B3F5602F24D0936843F48013936016
:10087C0027E0164B5B6813F4702FA1D0012720E002
:10088C00A3F580635B6813F4702FB4D0A36A43F4B0
:10089C008013A3620D4B5B6813F4806FB9D0A36A0D
:1008AC0023F4405343F48053A362B2E70023E36282
:1008BC00B7E7936843F4A003936002E0002384F845
:1008CC0024303846F8BD0227FBE700BF0024014066
:1008DC00002801408D050008DF050008EB05000825
:1008EC0038B503689A6812F0010F01D1002038BDA9
:1008FC0004469A6822F001029A60FFF727FE05462B
:10090C0023689B6813F0010F0ED0FFF71FFE401BEE
:10091C000228F5D9A36A43F01003A362E36A43F0FB
:10092C000103E3620120E2E70020E0E700287FD02A
:10093C0038B50446836A002B33D02046FFF7D0FF2E
:10094C00A36A13F010036DD100286BD1A26A22F4B4
:10095C00885222F0020242F00202A2626268E1694D
:10096C000A43257B42EA4502A168B1F5807F21D07C
:10097C0001291CD0217D01291FD02568696821F42B
:10098C0069410B436B6021688D682A4B2B401343E4
:10099C008B60A368B3F5807F20D0012B1ED0002183
:1009AC001FE0C36280F8243001F0CEFEC5E74FF49F
:1009BC008073DFE74FF48073DCE735B9A169013947
:1009CC0043EA413343F40063D7E7A16A41F02001C5
:1009DC00A162E16A41F00101E162CEE72369013BCA
:1009EC0019052568EB6A23F470030B43EB6223684B
:1009FC009968114B0B409A420BD0A36A23F0120357
:100A0C0043F01003A362E36A43F00103E3620120A5
:100A1C000DE00023E362A36A23F0030343F0010318
:100A2C00A36204E0A36A43F01003A362012038BD63
:100A3C0001207047FDF7E1FFFE0E1FFF70B582B07D
:100A4C000023019390F82430012B68D00446012335
:100A5C0080F82430FFF744FF054628B1002384F8C2
:100A6C002430284602B070BDA36A23F4885323F0C7
:100A7C00020343F00203A3622A4B1E68022000F01B
:100A8C00DDFEB6FBF0F04000019002E0019B013B63
:100A9C000193019B002BF9D12046FFF749FE2268F8
:100AAC00936843F008039360FFF750FD06462368F4
:100ABC009A6812F0080F0FD0FFF748FD801B0A2828
:100ACC00F5D9A36A23F0120343F01003A3620023A9
:100ADC0084F824300125C4E79A6842F004029A6035
:100AEC00FFF734FD064623689B6813F0040F0FD004
:100AFC00FFF72CFD801B0A28F5D9A36A23F01203FB
:100B0C0043F01003A362002384F824300125A8E7E6
:100B1C00A36A23F0030343F00103A3629EE70225BB
:100B2C009FE700BF08000020074AD36823F4E06366
:100B3C001B041B0C000200F4E060184340F0BF6083
:100B4C0040F40030D060704700ED00E030B4174B3B
:100B5C00DB68C3F30223C3F10704042C28BF04246D
:100B6C001D1D062D18D9033B4FF0FF3505FA04F473
:100B7C0021EA0401994005FA03F322EA030319431D
:100B8C0000280BDB0901C9B200F1604000F561409F
:100B9C0080F8001330BC70470023E5E700F00F002D
:100BAC000901C9B2024B1954F4E700BF00ED00E093
:100BBC0014ED00E0002807DB00F01F0240090123C0
:100BCC009340024A42F82030704700BF00E100E039
:100BDC000138B0F1807F0AD2064B5860064AF021EA
:100BEC0082F823100020986007221A6070470120B9
:100BFC00704700BF10E000E000ED00E070B4066C40
:100C0C00C56B0124B4406C60046863604368102BAE
:100C1C0005D0036899600368DA6070BC704703689C
:100C2C009A600368D960F8E760B310B402460168B3
:100C3C00154B0B441548A0FB03031B099B001364C5
:100C4C00134BD363022382F82130086820F47F50C1
:100C5C0020F03000536894682343D468234314690C
:100C6C0023435469234394692343D46923430343A3
:100C7C000B6000209063012382F8213082F8200061
:100C8C0010BC704701207047F8FFFDBFCDCCCCCC19
:100C9C000000024038B590F82040012C32D00124DD
:100CAC0080F8204090F82140012C04D0002380F8DB
:100CBC002030022038BD0446022084F82100002098
:100CCC00A0632568286820F0010028602046FFF703
:100CDC0095FFE36A5BB12268136843F00E0313605F
:100CEC002268136843F0010313600020E2E72268D6
:100CFC00136823F0040313602268136843F00A039B
:100D0C001360EDE70220D5E708B590F82130022BEF
:100D1C0003D004238363012008BD0268136823F009
:100D2C000E0313600268136823F001031360036859
:100D3C00194A934214D0143293421FD01432934266
:100D4C001ED0143293421ED0143293421ED0143251
:100D5C00934202D04FF0807203E04FF4801200E017
:100D6C0001220E4B5A60012380F82130002380F8B9
:100D7C002030436B6BB198470020CDE71022F0E791
:100D8C004FF48072EDE74FF48052EAE74FF4803273
:100D9C00E7E70020C0E700BF080002400000024067
:100DAC0038B5C36B1A6804682568016C04238B4042
:100DBC00134235D015F0040F32D0236813F0200FF6
:100DCC0003D1236823F0040323600368434A93424E
:100DDC0014D01432934218D01432934217D01432D8
:100DEC00934217D01432934217D01432934202D04C
:100DFC004FF0806203E04FF4800200E00422384B95
:100E0C005A60C36A03B1984738BD4022F7E74FF4E4
:100E1C008062F4E74FF48042F1E74FF48022EEE772
:100E2C0002238B4013423CD015F0020F39D02368BB
:100E3C0013F0200F06D1236823F00A03236001234B
:100E4C0080F821300368254A934214D0143293421F
:100E5C001CD0143293421BD0143293421BD0143248
:100E6C0093421BD01432934202D04FF0007203E035
:100E7C004FF4001200E00222194B5A60002380F854
:100E8C002030836A002BBFD09847BDE72022F3E7C0
:100E9C004FF40072F0E74FF40052EDE74FF40032DC
:100EAC00EAE7082303FA01F11142ADD015F0080F5F
:100EBC00AAD0236823F00E032360026CC16B0123BC
:100ECC0003FA02F24A60836380F82130002380F831
:100EDC002030036B002B97D0984795E70800024011
:100EEC0000000240F0B482B000263246A2E0002D91
:100EFC005AD0012D00D1CE68FF2B69D88446FF2B28
:100F0C0069D89500DCF800400F27AF4024EA0704AD
:100F1C0006FA05F52C43CCF800404C6814F0805FC1
:100F2C0000F087805F4CA56945F00105A561A469B7
:100F3C0004F001040194019C9508AF1C5A4C54F820
:100F4C00274002F00307BF004FF00F0C0CFA07FC10
:100F5C0024EA0C0C554CA04243D004F58064A0420A
:100F6C0000F0818004F58064A0427ED004F580649A
:100F7C00A04234D0042435E04D4FBD4214D00BD9DF
:100F8C004C4FBD4210D007F58037BD420CD0A7F5B1
:100F9C008017BD42B0D107E0A7F58017BD4203D042
:100FAC0007F58037BD42A7D18D687DB1012D08D0E2
:100FBC0044610826A0E7CE6808369DE7CE680C365B
:100FCC009AE70461082697E7002695E7042693E73D
:100FDC0000F1040C93E7A2F10805AD0092E703249D
:100FEC0000E00024BC4044EA0C0402352E4F47F8C4
:100FFC0025404C6814F4803F39D02F4D2C681C438D
:10100C002C604C6814F4003F37D02B4D6C681C439B
:10101C006C604C6814F4801F35D0274DAC681C43B1
:10102C00AC604C6814F4001F33D0234DEC682343A0
:10103C00EB6001320B6833FA02F430D00124944097
:10104C0023409C42F5D14D68122DB7D094D8022D77
:10105C00B1D07FF64CAF032DB6D0112D7FF44CAF31
:10106C00CE68043648E70124BCE70224BAE7124DE7
:10107C002C6824EA03042C60C3E70F4D6C6824EA47
:10108C0003046C60C5E70C4DAC6824EA0304AC6047
:10109C00C7E7094DEC6824EA0303EB60C9E702B02B
:1010AC00F0BC7047001002400000014000080140F5
:1010BC0000002110000031100004014012B9090495
:1010CC00016170470161704782B0084B1B68084A88
:1010DC00A2FB03235B0A00FB03F0019000BF019B02
:1010EC005A1E0192002BF9D102B070470800002063
:1010FC00D34D6210002800F0F58170B582B0044623
:10110C00036813F0010F2CD0AB4B5B6803F00C039E
:10111C00042B1DD0A84B5B6803F00C03082B12D0DA
:10112C006368B3F5803F41D0002B55D103F1804368
:10113C0003F504331A6822F480321A601A6822F418
:10114C0080221A6037E09C4B5B6813F4803FE7D039
:10115C00994B1B6813F4003F03D06368002B00F01D
:10116C00C381236813F0020F76D0934B5B6813F0A6
:10117C000C0F5FD0904B5B6803F00C03082B54D022
:10118C002369002B00F08A808C4B01221A60FFF738
:10119C00DDF90546884B1B6813F0020F75D1FFF77C
:1011AC00D5F9401B0228F5D90320A0E1824A136827
:1011BC0043F480331360636843B3FFF7C7F9054604
:1011CC007D4B1B6813F4003FCBD1FFF7BFF9401BDD
:1011DC006428F5D903208AE1B3F5A02F09D0764B0A
:1011EC001A6822F480321A601A6822F480221A607B
:1011FC00E1E703F18043A3F53C331A6842F4802203
:10120C001A601A6842F480321A60D4E7FFF79EF92C
:10121C000546694B1B6813F4003FA2D0FFF796F903
:10122C00401B6428F5D9032061E1634B5B6813F420
:10123C00803FA5D1604B1B6813F0020F04D02369CB
:10124C00012B01D0012052E15B4A136823F0F80313
:10125C00616943EAC1031360236813F0080F32D0AD
:10126C00A369002B5BD0564B01221A60FFF76EF975
:10127C000546514B5B6A13F0020F21D1FFF766F95B
:10128C00401B0228F5D9032031E14B4A136823F0A7
:10129C00F803616943EAC1031360DDE7474B0022A1
:1012AC001A60FFF753F90546434B1B6813F0020F06
:1012BC00D2D0FFF74BF9401B0228F5D9032016E1D9
:1012CC000120FFF701FF236813F0040F00F0988052
:1012DC00394BDB6913F0805F33D1374BDA6942F05D
:1012EC008052DA61DB6903F080530193019B012585
:1012FC00344B1B6813F4807F25D0E368012B36D068
:10130C00002B4CD103F1804303F504331A6A22F00D
:10131C0001021A621A6A22F004021A622CE0284BAB
:10132C0000221A60FFF712F90546234B5B6A13F093
:10133C00020FC8D0FFF70AF9401B0228F5D9032089
:10134C00D5E00025D4E71F4A136843F4807313607B
:10135C00FFF7FCF806461B4B1B6813F4807FCCD1BF
:10136C00FFF7F4F8801B6428F5D90320BFE0124A7C
:10137C00136A43F001031362E3687BB3FFF7E6F8EB
:10138C0006460D4B1B6A13F0020F38D1FFF7DEF83F
:10139C00801B41F288339842F3D90320A7E0052B38
:1013AC0012D0054B1A6A22F001021A621A6A22F054
:1013BC0004021A62E0E700BF001002400000424243
:1013CC0080044242007000404C4B1A6A42F0040206
:1013DC001A621A6A42F001021A62CDE7FFF7B6F8F8
:1013EC000646464B1B6A13F0020F08D0FFF7AEF807
:1013FC00801B41F288339842F3D9032077E0E5B99A
:10140C00E369002B72D03D4A526802F00C02082AA4
:10141C0056D0022B17D03A4B00221A60FFF796F8E1
:10142C000446364B1B6813F0007F47D0FFF78EF84D
:10143C00001B0228F5D9032059E0304AD36923F068
:10144C008053D361DCE72E4B00221A60FFF77EF845
:10145C0005462A4B1B6813F0007F06D0FFF776F881
:10146C00401B0228F5D9032041E0236AB3F5803FE5
:10147C001AD022494B6823F47413226A606A02431F
:10148C0013434B601E4B01221A60FFF75FF80446B2
:10149C001A4B1B6813F0007F0ED1FFF757F8001B97
:1014AC000228F5D9032022E0144A536823F40033B0
:1014BC00A1680B435360DCE7002018E0002016E025
:1014CC00012B16D00D4B5B6803F48031226A9142DC
:1014DC0001D001200BE003F47013626A93420AD02E
:1014EC00012004E001207047012000E0002002B040
:1014FC0070BD0120FBE70020F9E700BF001002409F
:10150C006000424210B487B0164C94E80F000DF105
:10151C00180C0CE90F00238AADF80430124B5B68F1
:10152C0003F00C02082A1AD1C3F38342624412F866
:10153C00102C13F4803F05D10C4800FB02F007B0CF
:10154C0010BC7047084B5B68C3F34043634413F80B
:10155C00143C074800FB02F0B0FBF3F0EFE7044843
:10156C00EDE700BF307E00080010024000093D008E
:10157C0000127A00002800F0A38070B50446524B8C
:10158C001B6803F007038B420CD24F4A136823F0FD
:10159C0007030B431360136803F007038B4201D05E
:1015AC00012070BD236813F0020F17D013F0040F45
:1015BC0004D0464A536843F4E0635360236813F045
:1015CC00080F04D0414A536843F4605353603F4AB8
:1015DC00536823F0F003A068034353600D4623685F
:1015EC0013F0010F31D06368012B20D0022B25D0D2
:1015FC00364A126812F0020F64D034494A6822F05D
:10160C00030213434B60FEF7A1FF06462F4B5B68AA
:10161C0003F00C036268B3EB820F16D0FEF796FF53
:10162C00801B41F288339842F0D90320B9E7274A4E
:10163C00126812F4003FE0D10120B2E7234A12688D
:10164C0012F0007FD9D10120ABE71F4B1B6803F0D0
:10165C000703AB420CD91C4A136823F007032B4336
:10166C001360136803F00703AB4201D0012098E725
:10167C00236813F0040F06D0144A536823F4E06374
:10168C00E1680B435360236813F0080F07D00F4A2F
:10169C00536823F46053216943EAC1035360FFF795
:1016AC0031FF0A4B5B68C3F30313094AD35CD84080
:1016BC00084B1860084B1868FEF704FF002070E711
:1016CC000120704701206CE700200240001002400E
:1016DC00888000080800002004000020014B1868D6
:1016EC00704700BF0800002008B5FFF7F7FF044B58
:1016FC005B68C3F30223034AD35CD84008BD00BF28
:10170C00001002409880000808B5FFF7E7FF044B73
:10171C005B68C3F3C223034AD35CD84008BD00BF47
:10172C00001002409880000870B582B0044603682F
:10173C0013F0010F34D03E4BDB6913F0805F48D1BE
:10174C003B4BDA6942F08052DA61DB6903F080537B
:10175C000193019B0125374B1B6813F4807F3AD012
:10176C00334B1B6A13F4407311D0626802F440725D
:10177C009A420CD02E4A136A23F440702E4901264B
:10178C000E6000260E60106213F0010F37D1284A4C
:10179C00136A23F4407361680B431362002D3FD12D
:1017AC00236813F0020F06D0214A536823F44043F8
:1017BC00A1680B435360236813F0100F35D01C4AFB
:1017CC00536823F48003E1680B435360002002B09C
:1017DC0070BD0025BFE7174A136843F4807313608C
:1017EC00FEF7B4FE0646134B1B6813F4807FB7D18B
:1017FC00FEF7ACFE801B6428F5D90320E7E7FEF763
:10180C00A5FE06460A4B1B6A13F0020FBFD1FEF76A
:10181C009DFE801B41F288339842F3D90320D6E712
:10182C00D36923F08053D361BAE70020CFE700BF20
:10183C0000100240007000404004424230B587B0B6
:10184C000546384C94E80F000DF1180C0CE90F000C
:10185C00238AADF80430022D50D0102D03D0012D69
:10186C002BD0002054E0304B5A681B6813F0807F5B
:10187C0050D0C2F3834306A90B4413F8100C12F496
:10188C00803F16D0284B5B68C3F340430B4413F8DE
:10189C00142C264BB3FBF2F300FB03F0224B5B68DA
:1018AC0013F4800F34D14000214BA3FB00304008CF
:1018BC002EE0204B03FB00F0F0E71B4B1B6A40F2C1
:1018CC0002321A40B2F5817F26D003F44073B3F58F
:1018DC00007F04D0B3F5407F09D0002018E0124AF5
:1018EC00526A12F0020FF5D049F6404010E00E4B50
:1018FC001B6813F4003F12D1002009E0FFF704FF2E
:10190C00094B5B68C3F3813301335B00B0FBF3F02D
:10191C0007B030BD0020FBE74FF40040F8E74FF272
:10192C002440F5E7447E00080010024000127A00C3
:10193C00ABAAAAAA00093D0070B4036A23F0010304
:10194C000362036A4268846924F073040D6845EAF3
:10195C00040623F002048B6823430D4DA84209D0E2
:10196C000B4DA8420DD0426086614A684263036207
:10197C0070BC704723F00803CC68234323F00403A6
:10198C00EEE722F440724C6914438A692243EAE779
:10199C00002C014030B4036A23F480730362036AA1
:1019AC004268C46924F073040D682C4323F400735B
:1019BC008D6843EA05230F4DA84209D00D4DA8426E
:1019CC000ED04260C4614A68C263036230BC704787
:1019DC0023F40063CD6843EA052323F48063EDE729
:1019EC0022F440524D6942EA05128D6942EA051211
:1019FC00E7E700BF002C014030B4036A23F48053A6
:101A0C000362036A4468C26922F4E6420D6842EA42
:101A1C00052223F400538D6843EA0533074DA84291
:101A2C0006D04460C2614A680264036230BC7047ED
:101A3C0024F480444D6944EA8514F2E7002C0140FB
:101A4C0003681B4A90420AD0B0F1804F07D0A2F530
:101A5C009432904203D002F58062904203D123F07D
:101A6C0070034A681343124A90420AD0B0F1804F77
:101A7C0007D0A2F59432904203D002F580629042D6
:101A8C0003D123F44073CA68134323F080034A69DB
:101A9C00134303608B68C3620B688362044B9842E8
:101AAC0002D00123436170470B690363F9E700BF60
:101ABC00002C0140A8B110B5044690F83D305BB144
:101ACC00022384F83D30211D2068FFF7B9FF012364
:101ADC0084F83D30002010BD80F83C3000F084FECE
:101AEC00EEE701207047A8B110B5044690F83D30E0
:101AFC005BB1022384F83D30211D2068FFF7A0FF65
:101B0C00012384F83D30002010BD80F83C3000F0FB
:101B1C007FFEEEE70120704730B4036A23F0100318
:101B2C000362036A4468826922F4E6420D6842EA61
:101B3C00052223F020038D6843EA05130E4DA842BD
:101B4C0009D00D4DA8420ED0446082614A68826370
:101B5C00036230BC704723F08003CD6843EA051361
:101B6C0023F04003EDE724F440644D6944EA850416
:101B7C008D6944EA8504E7E7002C014090F83C307D
:101B8C00012B28D010B50446012380F83C300223E9
:101B9C0080F83D300C2A0BD8DFE802F0070A0A0A5D
:101BAC00110A0A0A150A0A0A19000068FFF7C4FE8E
:101BBC00012384F83D30002084F83C0010BD0068FF
:101BCC00FFF7AAFFF4E70068FFF7E4FEF0E7006810
:101BDC00FFF712FFECE70220704738B590F83C3065
:101BEC00012B66D00D460446012380F83C300223BD
:101BFC0080F83D300C2A1AD8DFE802F007191919C1
:101C0C00201919193419191947000068FFF794FEA7
:101C1C002268936943F0080393612268936923F067
:101C2C00040393612268936929690B43936101232F
:101C3C0084F83D30002084F83C0038BD0068FFF784
:101C4C006BFF2268936943F4006393612268936984
:101C5C0023F48063936122689369296943EA012321
:101C6C009361E4E70068FFF795FE2268D36943F0BF
:101C7C000803D3612268D36923F00403D36122687B
:101C8C00D36929690B43D361D1E70068FFF7B4FE30
:101C9C002268D36943F40063D3612268D36923F4C7
:101CAC008063D3612268D369296943EA0123D36134
:101CBC00BDE70220C1E710B401F01F01012303FAB4
:101CCC0001F4036A23EA04030362036A8A401343A0
:101CDC00036210BC7047000010B504460122006876
:101CEC00FFF7E9FF23680A4A93420BD022689368F6
:101CFC0003F00703062B03D0136843F001031360B2
:101D0C00002010BD5A6C42F400425A64EEE700BF4A
:101D1C00002C014010B5044601220068FFF7CBFFF0
:101D2C0023680A4A93420BD02268936803F0070396
:101D3C00062B03D0136843F001031360002010BD81
:101D4C005A6C42F400425A64EEE700BF002C01408A
:101D5C0090F83C30012B1CD070B4012680F83C600C
:101D6C00022380F83D3002685568936825F07005B1
:101D7C000C682C4323F080054B682B43546002689D
:101D8C00936080F83D60002380F83C30184670BCAE
:101D9C007047022070470268D36823F49073D360B5
:101DAC000268536923F001035361202380F83A3011
:101DBC00704790F83930DBB2212B2AD18368B3F508
:101DCC00805F16D0036A5A1C02621A7803685A6044
:101DDC00C38C013B9BB2C384EBB90268D36823F07C
:101DEC008003D3600268D36843F04003D3600020C3
:101DFC007047036A1B880268C3F3080353600369C6
:101E0C001BB9036A02330362E2E7036A013303621C
:101E1C00DEE70220704700207047000038B504460A
:101E2C000268136923F44053C1680B431361836840
:101E3C000269134342691A430168CB6823F4B05317
:101E4C0023F00C031343CB600268536923F44073F3
:101E5C0081690B4353610268214B9A421FD0FFF7F3
:101E6C0043FC00EB800000EB800063689B00B0FB40
:101E7C00F3F01C4DA5FB00325109642202FB110248
:101E8C0013013233A5FB03235B0903F0F00202EBD1
:101E9C00011203F00F03216813448B6038BDFFF768
:101EAC0033FC00EB800000EB800063689B00B0FB10
:101EBC00F3F00C4DA5FB00325109642202FB110218
:101ECC0013013233A5FB03235B0903F0F00202EB91
:101EDC00011203F00F03216813448B60DEE700BF8F
:101EEC00003801401F85EB512DE9F04105460F46A6
:101EFC0016469846069C2B681B6837EA03030CBFF2
:101F0C0001230023B3421DD1B4F1FF3FF3D02CB118
:101F1C00FEF71CFBA0EB0800A042ECD92A68D368A2
:101F2C0023F4D073D3602A68536923F001035361FF
:101F3C00202385F8393085F83A30002385F838307D
:101F4C00032000E00020BDE8F08158B310B5044632
:101F5C0090F839300BB3242384F839302268D368D5
:101F6C0023F40053D3602046FFF758FF226813690F
:101F7C0023F4904313612268536923F02A035361BD
:101F8C002268D36843F40053D3600020E06320231D
:101F9C0084F8393084F83A3010BD80F8383000F0CD
:101FAC0081FCD8E7012070472DE9F04182B01E4634
:101FBC0090F83930DBB2202B55D104460D469046B3
:101FCC00002955D0002A55D090F83830012B53D029
:101FDC00012380F838300023C363212380F8393083
:101FEC00FEF7B4FA0746A4F82480A4F8268010E083
:101FFC0000963B46002280212046FFF775FF002803
:10200C003CD12B882268C3F3080353602369C3B9FE
:10201C000235E38C9BB2B3B1E38C013B9BB2E384FE
:10202C00A368B3F5805FE3D000963B460022802185
:10203C002046FFF759FF18BB2A7823685A600135F0
:10204C00E7E70135E5E700963B46002240212046B4
:10205C00FFF74AFF0346A8B9202284F83920002252
:10206C0084F8382000E00223184602B0BDE8F08165
:10207C000123F9E70123F7E70223F5E70323F3E74D
:10208C000323F1E70323EFE72DE9F04182B01E466D
:10209C0090F83A30DBB2202B5AD104460D469046CC
:1020AC00002959D0002A59D090F83830012B57D03C
:1020BC00012380F838300023C363222380F83A30A0
:1020CC00FEF744FA0746A4F82C80A4F82E801DE0F5
:1020DC0000963B46002220212046FFF705FF0028F2
:1020EC0040D1236933B923685B68C3F3080325F82F
:1020FC00023B0BE023685B68DBB225F8013B05E093
:10210C0023685B6803F07F032B700135E38D9BB272
:10211C00BBB1E38D013B9BB2E385A368B3F5805F54
:10212C00D6D000963B46002220212046FFF7DCFE4D
:10213C00D0B92369002BE3D123685B682B70013580
:10214C00E4E7202384F83A30002084F8380000E0DB
:10215C00022002B0BDE8F0810120FAE70120F8E787
:10216C000220F6E70320F4E70320F2E7704708B5F6
:10217C000168CB6823F04003CB60202380F8393012
:10218C00FFF7F4FF002008BD704708B590F83A300F
:10219C00DBB2222B45D18368B3F5805F0ED0036987
:1021AC0003BB03685A68836A591C81621A70C38D19
:1021BC00013B9BB2C385F3B1002033E0826A036913
:1021CC0043B903685B68C3F308031380836A023363
:1021DC008362ECE703685B68DBB21380836A0133CC
:1021EC008362E4E703685B68826A511C816203F0D6
:1021FC007F031370DBE70268D36823F02003D360FE
:10220C000268D36823F48073D3600268536923F0A7
:10221C0001035361202380F83A30FFF7B5FF00200B
:10222C0000E0022008BD704710B504460268136830
:10223C00D168526913F00F0005D113F0200F02D0B2
:10224C0011F0200F53D1002867D012F0010202D1F7
:10225C0011F4907F61D013F0010F06D011F4807F40
:10226C0003D0E06B40F00100E06313F0040F04D0E6
:10227C001AB1E06B40F00200E06313F0020F04D0DF
:10228C001AB1E06B40F00400E06313F0080F04D0C7
:10229C001AB1E26B42F00802E263E26B002A48D00A
:1022AC0013F0200F02D011F0200F24D123685B69AA
:1022BC0003F04003E26B12F0080F00D13BB3204651
:1022CC00FFF769FD23685A6912F0400F1BD05A6959
:1022DC0022F040025A61636B8BB11A4A5A63606BED
:1022EC00FEF712FD28B3606B436B984721E0204644
:1022FC00FFF74BFF1DE02046FFF747FFD6E72046D0
:10230C00FFF791FF15E02046FFF78DFF11E0204607
:10231C00FFF789FF0023E3630BE013F0800F02D07B
:10232C0011F0800F06D113F0400F02D011F0400FC6
:10233C0004D110BD2046FFF73CFDFAE72046FFF71D
:10234C0016FFF6E75523000808B5406A0023C3853D
:10235C00C384FFF768FF08BD08B5094805F08DFA7E
:10236C00084805F08AFA084805F087FA074805F08E
:10237C0084FA074805F081FA064800F0EFFB08BD27
:10238C00587E0008DC7E0008407F0008E47F0008CF
:10239C00608600080402002010B582B0684605F083
:1023AC00DFF99DF8000005F0D5FCC4B20DF1010079
:1023BC0005F0BFFA021E03DB632A02DD632200E094
:1023CC000022232C08D02146084800F075FB074852
:1023DC0000F0C4FB02B010BD1146044800F040FBF5
:1023EC000028F4D0024A1060F1E700BF040200207C
:1023FC00FC01002070B588B0002404940594069468
:10240C000794214B9A6942F010029A619A6902F082
:10241C0010020092009A9A6942F020029A619A691D
:10242C0002F020020192019A9A6942F008029A6124
:10243C009A6902F008020292029A9A6942F0040226
:10244C009A619B6903F004030393039B0F4D22468F
:10245C004FF400512846FEF731FE4FF4005304931D
:10246C000126059606940223079304A92846FEF735
:10247C0039FD4FF4004304930594069604A92846AD
:10248C00FEF730FD08B070BD001002400010014096
:10249C0000B583B00A4B5A6942F001025A615B697C
:1024AC0003F001030193019B002211460B20FEF760
:1024BC004DFB0B20FEF77EFB03B05DF804FB00BF69
:1024CC000010024070B584B000250195029503956B
:1024DC000C4C0D4B2360A560257325754FF4C02360
:1024EC00E3616560012626612046FEF71FFA08238A
:1024FC0001930296039501A92046FEF77DF804B0DE
:10250C0070BD00BFB00300200024014030B58BB07B
:10251C00002408940994019402940394049405945F
:10252C0006940794104D4FF080432B606C60AC60A8
:10253C001123EB602C61AC612846FFF7BBFA5023EA
:10254C0008938023099308A92846FFF701FC302340
:10255C00019302940394059404220DEB0201284686
:10256C00FFF70CFB0BB030BD6404002008B5084825
:10257C00084B03604FF41653436000238360C36021
:10258C0003610C2242618361C361FFF7DEFC08BD6D
:10259C00E00300200038014030B58BB000240894D3
:1025AC00099401940294039404940594069407945A
:1025BC00144D154B2B606C60AC60FF23EB602C61F1
:1025CC008023AB612846FFF78EFA0894099408A97A
:1025DC002846FFF7BDFB602301937F2302930394EE
:1025EC000594224601A92846FFF7F7FA04220DEBC1
:1025FC0002012846FFF7F1FA284600F01FF90BB04C
:10260C0030BD00BF700300200004004030B595B011
:10261C0000240C940D940F94109405940694079434
:10262C0008940994019402940394049401220A924C
:10263C004FF480330B930E920225119512934FF4A5
:10264C00E01313930AA8FEF755FD0F230593069587
:10265C0007944FF4806308930994294605A8FEF764
:10266C0089FF0195039401A8FFF75EF815B030BD02
:10267C0008B5FDF74DFFFFF7C9FFFFF7BBFEFFF7EE
:10268C0007FFFFF71FFFFFF741FFFFF76FFFFFF794
:10269C0083FF00F011F8002008BD704710B5044608
:1026AC00044B186803689B6821469847204404F043
:1026BC00C3FE10BDFC01002008B503F0E5FD0121AF
:1026CC000C4800F0CDF90C4B186004F0A7FE04F098
:1026DC00C1FE0A4805F0D1F8FFF73EFE4FF47A70C0
:1026EC00FDF73AFF064A1378013B1370FFF754FECF
:1026FC00FCE700BF04020020FC0100205C80000805
:10270C000C00002082B00E4B9A6942F001029A61D3
:10271C009A6902F001020092009ADA6942F0805242
:10272C00DA61DB6903F080530193019B054A53681E
:10273C0023F0E06343F00073536002B0704700BFB6
:10274C00001002400000014010B586B00023029337
:10275C0003930493059302681F4B9A4201D006B071
:10276C0010BD044603F56C439A6942F400729A61F9
:10277C009A6902F400720092009A9A6942F0080277
:10278C009A619B6903F008030193019B0123029357
:10279C000323039302A91148FEF7A4FB1048114B25
:1027AC0003600023436083608023C3604FF4807315
:1027BC0003614FF480634361202383614FF4005322
:1027CC00C361FEF731FA18B9054B23625C62C6E7A8
:1027DC00FFF763FFF8E700BF00240140000C014045
:1027EC0020040020080002400368B3F1804F00D0A1
:1027FC00704782B003F50433DA6942F00102DA6102
:10280C00DB6903F001030193019B02B070470000E8
:10281C000268094B9A4200D0704782B003F503332B
:10282C00DA6942F00202DA61DB6903F00203019318
:10283C00019B02B0704700BF0004004000B587B098
:10284C00002302930393049305930268124B9A425C
:10285C0002D007B05DF804FB03F503339A6942F02C
:10286C0008029A619B6903F008030193019B3023D2
:10287C000293022303930323059302A90748FEF74F
:10288C0031FB074A536823F4406343F0E06343F49D
:10289C0000635360DDE700BF00040040000C014002
:1028AC000000014070B586B000230293039304939B
:1028BC00059302681B4B9A4201D006B070BD03F51C
:1028CC0058439A6942F480429A619A6902F48042B0
:1028DC000092009A9A6942F004029A619B6903F093
:1028EC0004030193019B4FF400730293022503959B
:1028FC00032305930C4E02A93046FEF7F3FA4FF46E
:10290C008063029300240394049402A93046FEF7DA
:10291C00E9FA224629462520FEF718F92520FEF76C
:10292C0049F9CAE700380140000801407047FEE74A
:10293C00FEE7FEE7FEE770477047704708B5FDF706
:10294C00F9FD08BD08B50248FEF72AFA08BD00BF1C
:10295C002004002008B50248FFF766FC08BD00BF44
:10296C00E00300200120704708B504F0E7FF1623B0
:10297C0003604FF0FF3008BD08B54FF0FF31FFF793
:10298C00F3FFFEE708B503460B4A126842B10A4A48
:10299C00106803446A46934206D8074A136008BD80
:1029AC00054A06491160F2E704F0C8FF0C230360E6
:1029BC004FF0FF30F3E700BF00020020A804002016
:1029CC000F4B1A6842F001021A6059680D4A0A400E
:1029DC005A601A6822F0847222F480321A601A68E3
:1029EC0022F480221A605A6822F4FE025A604FF4D4
:1029FC001F029A60044B4FF000629A60704700BF50
:102A0C00001002400000FFF800ED00E038B504466D
:102A1C0000230360416071B10D4618460BB104F000
:102A2C0060FF002323606560084B9D420AD8A80014
:102A3C0004F059FF20600023A3604FF0FF33E360E4
:102A4C00204638BD4FF0FF30F2E700BFFEFFFF1FFE
:102A5C008268036843F822108368013383607047EF
:102A6C0038B50D1E21DB8368AB4220DD0446114ACC
:102A7C00137801331370C368002B05DB026852F81E
:102A8C0023000368DB689847E560236853F825004A
:102A9C0003689B68984704460368DB6C9847054AB3
:102AAC001378013B1370204638BD0024FBE700244B
:102ABC00F9E700BF0C000020C368002B0DDB10B53C
:102ACC008468A34208DA006800EB830424B150F850
:102ADC00230003685B69984710BD704770B50646C4
:102AEC000024254600E00134B368A3421ADD1648E1
:102AFC0004F0AAFE0A21204604F0AFFE134804F0AD
:102B0C00A3FE336853F8240003689B699847104868
:102B1C0004F09AFE0135032DE5D10E4804F0ADFE0C
:102B2C000025E0E70B4804F0A8FE0B4B83FB0523C4
:102B3C00A3EBE57303EB43039D4200D170BD054845
:102B4C0004F09BFEFAE700BFA0800008A4800008F8
:102B5C00A8800008608600085655555510B50446E7
:102B6C00FFF7BCFF0D4804F06FFE0A21E06804F08B
:102B7C0074FE0B4804F068FEE268236853F82200E8
:102B8C0003689B699847074804F077FEE26823685E
:102B9C0053F8220003681B69984710BDA0800008F9
:102BAC00A4800008608600087047002070477047BA
:102BBC000020704770470020704770470020704716
:102BCC007047002070477047002070477047002006
:102BDC007047704700207047436843B110B50446F6
:102BEC001A685268184690470023636010BD7047FE
:102BFC0000BF002070477047002070477047B0F945
:102C0C002000704709B2018641867047B0F9300048
:102C1C007047B0F9280070471220704700234361B9
:102C2C00C36403654365836543678367C367C0F803
:102C3C008030B0F922308384B0F92A308385B0F922
:102C4C00323083868368013B2BB14268002122F825
:102C5C001310013BF8E7436800221A80704700000C
:102C6C0008B54D2922D0522902D044290FD008BDD5
:102C7C00027240680368DB68C2EB0232134981FBC5
:102C8C0002C11144D217C2EBA1119847EFE742726F
:102C9C0040680368DB69C2EB02320C4981FB02C15C
:102CAC001144D217C2EBA1119847E0E78272406839
:102CBC0003685B69C2EB0232044981FB02C1114417
:102CCC00D217C2EBA1119847D1E700BF03B57EA57F
:102CDC00B0F92000704709B2018641867047B0F9FF
:102CEC0030007047B0F9280070470320704700236C
:102CFC004361C36403654365836543678367C36747
:102D0C00C0F88030B0F922308384B0F92A30838542
:102D1C00B0F9323083868368013B2BB142680021C5
:102D2C0022F81310013BF8E7436800221A80704721
:102D3C0008B54D2922D0522902D044290FD008BD04
:102D4C00027240680368DB68C2EB0232134981FBF4
:102D5C0002C11144D217C2EBA1119847EFE742729E
:102D6C0040680368DB69C2EB02320C4981FB02C18B
:102D7C001144D217C2EBA1119847E0E78272406868
:102D8C0003685B69C2EB0232044981FB02C1114446
:102D9C00D217C2EBA1119847D1E700BF03B57EA5AE
:102DAC00B0F93C007047B0F94C007047B0F94400E2
:102DBC007047B0F95400704709B2A0F85C10A0F845
:102DCC005E107047B0F95C00704708207047002314
:102DDC00036203638367C367C0F88030C0F8843034
:102DEC00C0F8A030C0F8A430C0F8A830C0F8AC309F
:102DFC00B0F93E30A0F84030B0F94630A0F8483079
:102E0C00B0F94E30A0F85030B0F95630A0F8583028
:102E1C00B0F95E30A0F860308368013B2BB142689A
:102E2C00002122F81310013BF8E7436800221A80B6
:102E3C004369013B2BB10269002122F81310013BBD
:102E4C00F8E7036900221A807047000008B5413981
:102E5C00112918D8DFE801F027171718361717179C
:102E6C0017171717451717171709027240680368C9
:102E7C00DB68C2EB0232224981FB02C11144D2173A
:102E8C00C2EBA111984708BD4272406803685B69A8
:102E9C00C2EB02321A4981FB02C11144D217C2EBB8
:102EAC00A1119847EFE7827240680368DB69C2EBB7
:102EBC000232134981FB02C11144D217C2EBA1119A
:102ECC009847E0E7C272406803685B6AC2EB023263
:102EDC000B4981FB02C11144D217C2EBA1119847D7
:102EEC00D1E7027340680368DB6AC2EB0232044923
:102EFC0081FB02C11144D217C2EBA1119847C2E762
:102F0C0003B57EA5B0F92000704709B20186418651
:102F1C007047B0F930007047B0F9280070471320A3
:102F2C00704700234361C36403654365836543674E
:102F3C008367C367C0F88030B0F922308384B0F95E
:102F4C002A308385B0F9323083868368013B2BB1FC
:102F5C004268002122F81310013BF8E74368002275
:102F6C001A80704708B54D2922D0522902D0442925
:102F7C000FD008BD027240680368DB68C2EB0232F6
:102F8C00134981FB02C11144D217C2EBA11198471E
:102F9C00EFE7427240680368DB69C2EB02320C490E
:102FAC0081FB02C11144D217C2EBA1119847E0E793
:102FBC008272406803685B69C2EB0232044981FB90
:102FCC0002C11144D217C2EBA1119847D1E700BF3F
:102FDC0003B57EA5B0F920007047B0F930007047FA
:102FEC00B0F928007047B0F93800704709B2A0F862
:102FFC004010A0F842107047B0F940007047042010
:10300C007047B0F922308384B0F932308386B0F93E
:10301C002A308385B0F93A308387B0F94230A0F872
:10302C0044308368013B2BB14268002122F8131015
:10303C00013BF8E74268002313804361C3650366D4
:10304C0043668366C0F88430C0F88830C0F88C3092
:10305C00C0F89030C0F8AC30C0F8B030C0F8B43024
:10306C00C0F8B830C0F8D030C0F8CC30C0F8C83098
:10307C00C0F8C4307047000008B54439102918D87E
:10308C00DFE801F01817361717171717174517171A
:10309C00171709172700027240680368DB68C2EB38
:1030AC000232224981FB02C11144D217C2EBA11199
:1030BC00984708BD427240680368DB69C2EB023274
:1030CC001A4981FB02C11144D217C2EBA1119847D6
:1030DC00EFE7C272406803685B69C2EB02321349C6
:1030EC0081FB02C11144D217C2EBA1119847E0E752
:1030FC000273406803685B6AC2EB02320B4981FBC6
:10310C0002C11144D217C2EBA1119847D1E78272C8
:10311C0040680368DB6AC2EB0232044981FB02C1DE
:10312C001144D217C2EBA1119847C2E703B57EA593
:10313C00B0F94800704709B2A0F86010A0F862100E
:10314C007047B0F960007047B0F95000704709B291
:10315C00A0F85810A0F85A107047B0F958007047F2
:10316C0080F8C810704790F8C80070470520704769
:10317C007047000008B54139112918D8DFE801F073
:10318C003617171817271717171717174417171766
:10319C001709027240680368DB68C2EB02322249ED
:1031AC0081FB02C11144D217C2EBA111984708BD93
:1031BC00427240680368DB69C2EB02321A4981FB38
:1031CC0002C11144D217C2EBA1119847EFE78272EA
:1031DC00406803685B6AC2EB0232134981FB02C18F
:1031EC001144D217C2EBA1119847E0E7022A04D090
:1031FC00042A02D0062A00D0062202734068036813
:10320C00DB6A11469847D2E7C272406803685B6973
:10321C00C2EB0232044981FB02C11144D217C2EB4A
:10322C00A1119847C3E700BF03B57EA509B2818001
:10323C00C1807047B0F904007047000008B5B0F9C0
:10324C000C10C900A1F5B3411A3942F2D732002350
:10325C00C8034914FCF77CFFC0EB0030034B83FB25
:10326C0000230344C017C0EBA33008BD030001804A
:10327C000B20704710B4B0F906300381B0F90E3052
:10328C00038200F5365300221A655A659A65DA6591
:10329C0000F537539A63DA631A645A6400F53853AD
:1032AC001A625A629A62DA6200E00132072A11DC71
:1032BC000021C2EBC204A30003441B6B8B42F4DD60
:1032CC00C2EBC204A3000344DB6A002423F81140C0
:1032DC000131EEE7002212E002EB4204A3000344AA
:1032EC00D3F8FC30002423F81140013102EB4204E6
:1032FC00A3000344D3F800318B42EDDC0132032AE6
:10330C0001DC0021F2E7002342F65862835042F6BA
:10331C005462835042F65062835042F64C628350A2
:10332C0042F64862835000F5385043640364C3632B
:10333C00836310BC7047000008B54D2910D052298A
:10334C000DD1027240680368DB69C2EB02320C4992
:10335C0081FB02C11144D217C2EBA111984708BDE1
:10336C00427240680368DB68C2EB0232044981FB9D
:10337C0002C11144D217C2EBA1119847EFE700BF6D
:10338C0003B57EA5C1EBC1214B00064A82FB03129B
:10339C001A44DB17C3EBE22301331BB28381C381D5
:1033AC00704700BF81000880B0F90C007047000026
:1033BC0040F6F57303FB01F1054B83FB01230B4432
:1033CC00C917C1EBE3210A3109B28180C180704772
:1033DC0081000880B0F90400704780F83410704701
:1033EC0090F83400704709207047B0F9063003811B
:1033FC00B0F90E30038200238361C3627047000072
:10340C0008B54D2922D0522902D044290FD008BD2D
:10341C00028140680368DB68C2EB0232114981FB10
:10342C0002C11144D217C2EBA1119847EFE74281B8
:10343C0040680368DB69C2EB02320A4981FB02C1B6
:10344C001144D217C2EBA1119847E0E7531E012B90
:10345C0005D940680368DB6A11469847D7E7828133
:10346C00F7E700BF03B57EA5C1EBC1214B00064AAF
:10347C0082FB03121A44DB17C3EBE22301331BB2AA
:10348C008380C380704700BF81000880B0F90400BE
:10349C0070470A207047B0F906300381002303619E
:1034AC0070470000462900D0704708B5028140687B
:1034BC000368DB68C2EB0232044981FB02C1114490
:1034CC00D217C2EBA111984708BD00BF03B57EA56A
:1034DC007047704770477047704770477047704728
:1034EC0070477047704770477047704770470000CF
:1034FC0008B5024804F0A8F908BD00BFAC85000867
:10350C0008B5024804F0A0F908BD00BF1C870008EC
:10351C0008B5024804F098F908BD00BFC085000842
:10352C0008B5024804F090F908BD00BF50870008A8
:10353C0008B5024804F088F908BD00BF9C87000854
:10354C0008B5024804F080F908BD00BF8C8600085D
:10355C0008B5024804F078F908BD00BFD085000812
:10356C0008B5024804F070F908BD00BF6486000875
:10357C0008B5024804F068F908BD00BFE4860008ED
:10358C0008B5024804F060F908BD00BFAC8700081C
:10359C0008B5024804F071F908BD00BFB4850008F5
:1035AC0010B50446042004F0A2F9024A02606060DF
:1035BC0010BD00BFB480000838B504461C2004F0D0
:1035CC0096F90F490160002202814DF2B615C560D3
:1035DC00026142610B4A826132228280C280606049
:1035EC00B4F90830CA68C3EB0333074981FB0351B4
:1035FC001944DB17C3EBA1119047606838BD00BFBD
:10360C0034850008E489000803B57EA538B5044666
:10361C00382004F06CF91C4901604DF2B61242617D
:10362C0000228261C261194D056249F6404545622E
:10363C008262C2620263012280F8342032228280CC
:10364C00C2808281C281028102826060B4F908303A
:10365C00CA68C3EB03330E4D85FB03C11944DB175A
:10366C00C3EBA1119047B4F90A3060680268D269C3
:10367C00C3EB033385FB03511944DB17C3EBA111D7
:10368C009047606838BD00BFB4840008E489000826
:10369C0003B57EA510B50446042104F026F9204696
:1036AC0010BD10B50446CC2104F01FF9204610BD06
:1036BC0010B5044642F65C6104F017F9204610BDC3
:1036CC0010B50446382104F010F9204610BD10B591
:1036DC0004461C2104F009F9204610BD10B504461F
:1036EC00082104F002F9204610BD10B504460C2147
:1036FC0004F0FBF8204610BD10B504460C2104F074
:10370C00F4F8204610BD10B50446102104F0EDF875
:10371C00204610BD10B504460C2104F0E6F82046F6
:10372C0010BD10B50446102104F0DFF8204610BD82
:10373C0010B50446102104F0D8F8204610BD10B581
:10374C0004460C2104F0D1F8204610BD10B50446F7
:10375C00102104F0CAF8204610BD10B504460C2107
:10376C0004F0C3F8204610BD10B504460C4804F014
:10377C006BF80A2194F9080004F086F8094804F063
:10378C0063F80A2194F9090004F07EF8064804F065
:10379C005BF80A2194F90A0004F076F810BD00BF1A
:1037AC002C870008388700084487000810B50446A9
:1037BC000C4804F049F80A2194F9080004F064F864
:1037CC00094804F041F80A2194F9090004F05CF866
:1037DC00064804F039F80A2194F90A0004F054F868
:1037EC0010BD00BF2C8700083887000844870008EC
:1037FC0010B50446144804F027F80A2194F908007F
:10380C0004F042F8114804F01FF80A2194F9090059
:10381C0004F03AF80E4804F017F80A2194F90A005B
:10382C0004F032F80B4804F00FF80A2194F90B005D
:10383C0004F02AF8084804F007F80A2194F90C005F
:10384C0004F022F810BD00BF5C8700086C870008EC
:10385C007C8700088C8700084487000810B5044654
:10386C000C4803F0F1FF0A2194F9080004F00CF85D
:10387C00094803F0E9FF0A2194F9090004F004F85F
:10388C00064803F0E1FF0A2194F90A0003F0FCFF5B
:10389C0010BD00BF2C87000838870008448700083B
:1038AC0010B50446144803F0CFFF0A2194F9080020
:1038BC0003F0EAFF114803F0C7FF0A2194F909004D
:1038CC0003F0E2FF0E4803F0BFFF0A2194F90B004E
:1038DC0003F0DAFF0B4803F0B7FF0A2194F90C0050
:1038EC0003F0D2FF084803F0AFFF0A2194F90A0055
:1038FC0003F0CAFF10BD00BF94860008A486000820
:10390C00B4860008C4860008D486000810B50446A6
:10391C00144803F099FF0A2194F9080003F0B4FF4E
:10392C00114803F091FF0A2194F9090003F0ACFF50
:10393C000E4803F089FF0A2194F90A0003F0A4FF52
:10394C000B4803F081FF0A2194F90C0003F09CFF53
:10395C00084803F079FF0A2194F90B0003F094FF57
:10396C0010BD00BFD8850008F4850008108600083B
:10397C002C8600084886000810B50446084803F059
:10398C0063FF0A2194F9080003F07EFF054803F059
:10399C005BFF0A2194F9090003F076FF10BD00BF0C
:1039AC006C8600087C86000810B504460C4803F0B1
:1039BC004BFF0A21B4F9080003F066FF094803F035
:1039CC0043FF0A21B4F90A0003F05EFF064803F036
:1039DC003BFF0A21B4F90C0003F056FF10BD00BFE9
:1039EC00EC860008FC8600080C87000810B504461D
:1039FC00044803F029FF0A21B4F9080003F044FF3E
:103A0C0010BD00BFBC87000870B504460D46B0F968
:103A1C001030B0F90E20934201DA01330382B4F96D
:103A2C0010309A4201DA013B2382B4F9102040F69F
:103A3C00E47303FB02F3594A82FB03121A44DB17AB
:103A4C00C3EBE2231B3394F83420012A21D0022A41
:103A5C0033D0012A3DD0022A6ED005F30F05B4F9FC
:103A6C000830B4F90620934201DA01332381B4F90A
:103A7C0008309A4201DA013B2381B4F9083003FB88
:103A8C0005F3464880FB03201844DB17C3EBE0200A
:103A9C0070BD606A00280EDB8010414991FBF0F18B
:103AAC0001FB03F13F4880FB01600844C917C1EBDF
:103ABC002021A162CBE70330EEE7616901FB03F340
:103ACC00384981FB03011944DB17C3EB2123E36164
:103ADC00BFE704F124029168D3685BB1012B14D0C9
:103AEC0000291FDBCB1305FB03F5002D1FDBED13AA
:103AFC006D42B2E753689068034493602848834250
:103B0C00EEDD90600123D360EAE7506893681B1ADE
:103B1C009360B3F1404FE3DA4FF0404393600023DE
:103B2C00D360DDE701F5FF437F33DB13DBE705F5FE
:103B3C00FF457F35ED13DBE704F1140670680028B0
:103B4C001CDBC013F16880B203F050FE7368B268DE
:103B5C0013447360002B16DB00EB80000346B0F5BA
:103B6C00004F01DD4FF4004313F5004F00DA0E4B0C
:103B7C0005FB03F5002D0BDBED136EE700F5FF40A5
:103B8C007F30C013DEE723F0004301337360E3E7BB
:103B9C0005F5FF457F35ED135FE700BF8100088019
:103BAC000080FF3FF1000FF00080FFFF10B50446CE
:103BBC00034B0360406808B103F093FE204610BD30
:103BCC003481000810B50446054B0360406808B109
:103BDC0003F087FE8821204603F087FE204610BDA7
:103BEC003481000810B50446034B0360406808B1EB
:103BFC0003F077FE204610BDB481000810B50446D2
:103C0C00054B0360406808B103F06BFEA42120460D
:103C1C0003F06BFE204610BDB481000810B50446BD
:103C2C00054B0360006908B103F05BFE606808B1E6
:103C3C0003F057FE204610BD3482000810B5044630
:103C4C00034B0360406808B103F04BFE204610BDE7
:103C5C00B482000810B50446054B0360406808B1F7
:103C6C0003F03FFEA421204603F03FFE204610BD8A
:103C7C00B482000810B50446034B0360406808B1D9
:103C8C0003F02FFE204610BD3483000810B5044607
:103C9C00054B0360406808B103F023FEE021204689
:103CAC0003F023FE204610BD348300082DE9F041BB
:103CBC0004460D46012806D01CB94FF6FF739D42F1
:103CCC0069D0BDE8F0814FF6FF739942F4D10A2117
:103CDC003448FEF79BFE344A00235360334911608D
:103CEC00334A5360334911601E21117251724627B9
:103CFC009772314A53603148106011725172977249
:103D0C002F4A53602F4810603220107214265672BE
:103D1C009672D67217732C4A5360DFF8D4C0C2F86F
:103D2C0000C04FF0050C82F808C04FF0500C82F820
:103D3C0009C04FF03C0E82F80AE0244A5360DFF8C9
:103D4C00B480C2F80080117251729772D6725A21E7
:103D5C0011731F4A53601F49116010725072967292
:103D6C006321D172062111731B4A53601B491160E8
:103D7C0082F808C082F809E0194A536019491160A9
:103D8C001081A2F80AC001219181174A5360174B88
:103D9C001360108190E7034B1868002891D003F052
:103DAC00A0FD8EE7040200204C02002010810008C8
:103DBC0020020020908100081402002010820008CC
:103DCC002C020020908200087C0200203C02002083
:103DDC005402002010840008640200209084000823
:103DEC0088020020108500087002002090850008D1
:103DFC00108300089083000810B50446074B03603D
:103E0C00006908B103F06DFD606808B103F069FD4D
:103E1C00D021204603F069FD204610BD34820008F5
:103E2C0038B50C46B0F90830B0F90620934201DAE7
:103E3C0001330381B0F908309A4201DA013B038166
:103E4C00B0F90830C3EBC31203EB42131B4A82FBDD
:103E5C0003121A44DB17C3EBE2231E3300F10C05EB
:103E6C00C26803FB02F303EBD3735B104361686816
:103E7C00002813DBC013E96880B203F0B7FC6B6851
:103E8C00AA6813446B60002B0DDB04FB00F00028C8
:103E9C000EDBC01300F30F00001B38BD00F5FF4014
:103EAC007F30C013E7E723F0004301336B60ECE78E
:103EBC0000F5FF407F30C013ECE700BF81000880A5
:103ECC002DE9F84F0746894600F1600400F1880699
:103EDC00D6F80880B8F1000F5DD0B8F1010F00F0F2
:103EEC00A7817168386E62684FEAE27B65694FEAB8
:103EFC00E57902FB09F605FB0B66A2FB0578B044DD
:103F0C00FA0B42EA484201FB0020A2684FEAE27B2E
:103F1C00A3694FEAE37902FB09F603FB0B66A2FBEC
:103F2C000378B044FA0B42EA48421044E2684FEA84
:103F3C00E279D4F81CC06646F71702FB07F60CFBB7
:103F4C000966A2FB0C78B044FA0B42EA48421044D2
:103F5C00D4F810E07246D317D4F820804646F717F1
:103F6C000EFB07F608FB0366AEFB0878B044FA0BB1
:103F7C0042EA484210446062A561C9036161C4F819
:103F8C0020C04342E3610028C0F2828200F58040E9
:103F9C00C013BDE8F88FD0F88850F268C5F89C20A3
:103FAC00B5F92430B5F922108B4201DA0133AB8418
:103FBC00B5F92430994201DA013BAB84B5F92410F0
:103FCC0040F6D67303FB01F3964981FB03011944B8
:103FDC00DB17C3EBE123293305F1100A296901FB37
:103FEC0003F3914981FB03011944DB17C3EBA123B4
:103FFC00AB61E9686B6823F81120EB680133EB6067
:10400C00AA68934201D30023EB60B5F92C30B5F9C3
:10401C002A20934201DA0133AB85B5F92C309A4250
:10402C0001DA013BAB85B5F92C004FF4C87303FBE7
:10403C0000F37C4880FB032B9B44D817C0EBEB2B85
:10404C00DAF804000028C0F2B380C013DAF80C10C0
:10405C0080B203F0CBFBDAF80430DAF80820134412
:10406C00CAF80430002BC0F2A8800BF10103DB036B
:10407C0000FB0B3010F5C80000F1A580C213A0EBBB
:10408C00C230531C00F1A480D5F808C09C4501D85F
:10409C000CF1FF33E968CB1A9E46002BC0F29A80D4
:1040AC00D5F804B03BF91EE00EFB00FEC0F5004055
:1040BC00002AC0F29280944501D80CF1FF328B1A81
:1040CC001A46002BC0F28B803BF9123003FB00E048
:1040DC000028C0F28780C013C5F8A000B5F92C30B9
:1040EC00B5F92A20934201DA0133AB85B5F92C30AE
:1040FC009A4201DA013BAB85B5F92C004FF4C87339
:10410C0003FB00F3474880FB032B9B44D817C0EB01
:10411C00EB2BDAF80430454A106803441846002BA0
:10412C0065DB002867DBC013DAF80C1080B203F0F3
:10413C005DFB0BF10103DB0300FB0B3010F5C8003A
:10414C005ED4C113A0EBC1304B1C5ED4D5F808C0B3
:10415C009C4501D80CF1FF33EA68D31A9A46002B20
:10416C0055DBD5F804E03EF91A3003FB00F3C0F53B
:10417C000040002900DB8846C44501D80CF1FF380B
:10418C00A2EB08084246B8F1000F43DB3EF91220BF
:10419C0002FB0030002840DBC013D5F8A0301844D7
:1041AC00C5F8A000C6F81090B3680133B36098E668
:1041BC0000F5FF407F30C01348E723F00043013384
:1041CC00CAF8043051E700F5FF437F33DA1356E7A2
:1041DC00434659E70CEB030E62E742466BE70CEBE8
:1041EC00030271E700F5FF407F30C01374E723F042
:1041FC000040013095E700F5FF407F30C01393E796
:10420C0000F5FF417F31C9139CE743469EE70CEB59
:10421C00030AA6E70CEB0802B8E700F5FF407F3075
:10422C00C013BAE78100088001021080DC87000807
:10423C00D0F88850B5F92C30B5F92A20934201DA20
:10424C000133AB85B5F92C309A4201DA013BAB85D1
:10425C00B5F92C004FF4C87303FB00F38F4880FBB7
:10426C00032A9A44D817C0EBEA2A05F11008D8F8AB
:10427C0004308B4A106803441846002BC0F2CE80E1
:10428C000028C0F2CF80C013D8F80C1080B203F015
:10429C00ADFA0AF10103DB0300FB0A3010F5C8008C
:1042AC0000F1C580C313A0EBC3305A1C00F1C480CD
:1042BC00D5F808C0944501D80CF1FF32E9688A1A88
:1042CC009246002AC0F2BA80D5F804E03EF91A20D2
:1042DC0002FB00F2C0F50040002BC0F2B2809C45FE
:1042EC0001D80CF1FF33CB1A1946002BC0F2AB806E
:1042FC003EF9113003FB00200028C0F2A780C01348
:10430C00D5F8A0301844C5F8A000B5F92C30B5F993
:10431C002A20934201DA0133AB85B5F92C309A424D
:10432C0001DA013BAB85B5F92C004FF4C87303FBE4
:10433C0000F35A4880FB032A9A44D817C0EBEA2AA8
:10434C00D8F80430574A106803441846002BC0F2C2
:10435C0082800028C0F28380C013D8F80C1080B281
:10436C0003F044FA0AF10103DB0300FB0A3010F5F9
:10437C00C80079D4C213A0EBC230531C79D4D5F841
:10438C0008C09C4501D80CF1FF33E968CB1A98465C
:10439C00002B70DBD5F804E03EF9183003FB00F37A
:1043AC00C0F50040002A69DB944501D80CF1FF32BE
:1043BC008A1A1146002A63DB3EF9112002FB0033F6
:1043CC00002B60DBDB13D5F8A0201344C5F8A0301C
:1043DC00B5F93420B5F932108A4201DA0132AA86D5
:1043EC00B5F93420914201DA013AAA86B5F93420A4
:1043FC0002FB03F3294A82FB03121A44DB17C3EBBB
:10440C00E223C5F8A030736033694B44336103EB8E
:10441C00D3735B10F3600023B36062E523F00040BC
:10442C0001302DE700F5FF407F30C0132CE700F57D
:10443C00FF437F33DB1336E7002239E70CEB020A2C
:10444C0042E700234BE70CEB030151E700F5FF407B
:10445C007F30C01354E723F00040013079E700F5BA
:10446C00FF407F30C01378E700F5FF427F32D21354
:10447C0081E7002383E70CEB03088BE7002293E72B
:10448C000CEB020198E703F5FF437F33DB139AE74C
:10449C0000F57F503F30C0137BE500BF81000880E2
:1044AC00D4870008D88700082DE9F84F05468C46BC
:1044BC0000F1600400F18806826BC06B4FEAE07B70
:1044CC00EF6C4FEAE77900FB09FE07FB0BEEA0FB54
:1044DC00070171444FEAD03E4EEA414E02FB0CEE0E
:1044EC00286C4FEAE07B296D4FEAE17900FB09F279
:1044FC0001FB0B22A0FB018991444FEAD83040EA22
:10450C0049408644686C4FEAE07B6A6D4FEAE27979
:10451C0000FB09F802FB0B88A0FB029AC2444FEA8D
:10452C00D93040EA4A408644A86C4FEAE07BA96D3A
:10453C004FEAE17900FB09F801FB0B88A0FB019A1B
:10454C00C2444FEAD93040EA4A407044E8652F65CE
:10455C004FEACC31E964AA6542426A65002862DB05
:10456C0000F58040C713B368002B61D0012B00F01D
:10457C009C807168286E62684FEAE27B65694FEA3D
:10458C00E57902FB09F605FB0B66A2FB0578B04446
:10459C00FA0B42EA484201FB0020A2684FEAE27B98
:1045AC00A3694FEAE37902FB09F603FB0B66A2FB56
:1045BC000378B044FA0B42EA48421044E2684FEAEE
:1045CC00E279D4F81CC06646F71702FB07F60CFB21
:1045DC000966A2FB0C78B044FA0B42EA484210443C
:1045EC00D4F810E07246D317D4F820804646F7175B
:1045FC000EFB07F608FB0366AEFB0878B044FA0B1B
:10460C0042EA484210446062A561C9036161C4F882
:10461C0020C04342E3610028C0F2F88000F58040DE
:10462C00C013BDE8F88F00F57F503F30C7139AE7F1
:10463C00D5F88830F068C3F89C00B3F92420B3F99E
:10464C0022108A4201DA01329A84B3F92420914271
:10465C0001DA013A9A84B3F9241040F6D67202FBBF
:10466C0001F26D4981FB02C11144D217C2EBE12268
:10467C002932196901FB02F2684981FB02C111441C
:10468C00D217C2EB21229A61D9685A6822F811001C
:10469C00DA680132DA6099688A4201D30022DA6062
:1046AC003761B3680133B36063E7D5F88880B8F934
:1046BC002C30B8F92A20934202DA0133A8F82C30B6
:1046CC00B8F92C309A4202DA013BA8F82C30B8F930
:1046DC002C204FF4C87303FB02F34F4A82FB0329CF
:1046EC009944DA17C2EBE92908F1100ADAF8040048
:1046FC0000286CDBC013DAF80C1080B203F076F8EB
:10470C00DAF80430DAF808201344CAF80430002B25
:10471C0062DB09F10102D20300FB092212F5C80287
:10472C0060D4D113A2EBC1324B1C60D4D8F808C0B2
:10473C009C4501D80CF1FF33D8F80C00C31A9946EC
:10474C00002B56DBD8F804E03EF9193003FB02F3DA
:10475C00C2F5004200294FDB8C4501D80CF1FF312A
:10476C00411A0846002949DB3EF9101001FB0233BF
:10477C00002B46DBDB1303F30F03C8F8A030B8F9AA
:10478C003420B8F932108A4202DA0132A8F8342007
:10479C00B8F93420914202DA013AA8F83420B8F979
:1047AC00342002FB03F31C4A82FB03121A44DB176E
:1047BC00C3EBE223C8F8A030736030693844306131
:1047CC0000EBD0704010F0600023B360D1E600F530
:1047DC00FF407F30C0138EE723F000430133CAF84B
:1047EC00043096E702F5FF417F31C9139AE70023A5
:1047FC009CE70CEB0309A5E70021ADE70CEB0100EE
:10480C00B2E703F5FF437F33DB13B4E700F57F50CA
:10481C003F30C01305E700BF8100088089163CA01B
:10482C002DE9F84F05468C4600F18C0400F1B406D6
:10483C00426E806E4FEAE07BAF6F4FEAE77900FB88
:10484C0009FE07FB0BEEA0FB070171444FEAD03EBB
:10485C004EEA414E02FB0CEEE86E4FEAE07BE96F4C
:10486C004FEAE17900FB09F201FB0B22A0FB018965
:10487C0091444FEAD83040EA49408644286F4FEAC9
:10488C00E07BD5F880204FEAE27900FB09F802FBC7
:10489C000B88A0FB029AC2444FEAD93040EA4A4046
:1048AC008644686F4FEAE07BD5F884104FEAE179D3
:1048BC0000FB09F801FB0B88A0FB019AC2444FEAEC
:1048CC00D93040EA4A407044C5F88800EF674FEA97
:1048DC00CC31A967C5F884204242C5F88020002855
:1048EC0066DB00F58040C713D6F80890B9F1000FCD
:1048FC0063D0B9F1010F00F02D817168D5F88C00EF
:10490C0062684FEAE27B65694FEAE57902FB09F6DA
:10491C0005FB0B66A2FB0578B044FA0B42EA484251
:10492C0001FB0020A2684FEAE27BA3694FEAE3791E
:10493C0002FB09F603FB0B66A2FB0378B044FA0BEF
:10494C0042EA48421044E2684FEAE279D4F81CC0CB
:10495C006646F71702FB07F60CFB0966A2FB0C7800
:10496C00B044FA0B42EA48421044D4F810E07246C4
:10497C00D317D4F820804646F7170EFB07F608FB32
:10498C000366AEFB0878B044FA0B42EA4842104486
:10499C006062A561C9036161C4F820C04342E36150
:1049AC000028C0F2CA8100F58040C013BDE8F88F22
:1049BC0000F57F503F30C71396E7D5F8B480F26806
:1049CC00C8F8C820B8F94030B8F93E108B4202DA6A
:1049DC000133A8F84030B8F94030994202DA013B73
:1049EC00A8F84030B8F9401040F6D67303FB01F339
:1049FC00D44981FB03011944DB17C3EBE1232933B1
:104A0C0008F11C0AD8F81C1001FB03F3CE4981FBFA
:104A1C0003011944DB17C3EB2123C8F82430D8F861
:104A2C000C10D8F8043023F81120D8F80C300133CE
:104A3C00C8F80C30D8F80820934202D30023C8F8E9
:104A4C000C30B8F95030B8F94E20934202DA0133E9
:104A5C00A8F85030B8F950309A4202DA013BA8F865
:104A6C005030B8F950004FF4C87303FB00F3B5484D
:104A7C0080FB032B9B44D817C0EBEB2BDAF804001C
:104A8C0000284ADBC013DAF80C1080B202F0AEFE3C
:104A9C00DAF80430DAF808201344CAF80430002B92
:104AAC0040DB0BF10103DB0300FB0B3010F5C800FE
:104ABC003ED4C113A0EBC1304B1C3ED4D8F808C077
:104ACC009C4501D80CF1FF33D8F80C20D31A9A4628
:104ADC00002B34DBD8F804E03EF91A3003FB00F36A
:104AEC00C0F50040002900DB8946CC4501D80CF10B
:104AFC00FF39A2EB09094A46B9F1000F22DB3EF956
:104B0C00122002FB003000281FDBC013C8F8CC00B9
:104B1C003761B3680133B360EFE600F5FF407F30D7
:104B2C00C013B0E723F000430133CAF80430B8E7F0
:104B3C0000F5FF417F31C913BCE74B46BEE70CEBD8
:104B4C00030AC7E70CEB0902D9E700F5FF407F30F9
:104B5C00C013DBE7D5F8B480B8F94830B8F9462073
:104B6C00934202DA0133A8F84830B8F948309A4237
:104B7C0002DA013BA8F84830B8F9482040F6D67361
:104B8C0003FB02F36F4A82FB03121A44DB17C3EBDD
:104B9C00E223293308F12C09D8F82C2002FB03F36B
:104BAC00694A82FB03121A44DB17C3EB2223C8F8B1
:104BBC003430B8F9CC10D8F81820D8F8103023F8C5
:104BCC001210D8F818300133C8F81830D8F814205F
:104BDC00934202D30023C8F81830B8F95830B8F90A
:104BEC005620934202DA0133A8F85830B8F95830FD
:104BFC009A4202DA013BA8F85830B8F958204FF421
:104C0C00C87303FB02F34F4A82FB032A9A44DA1758
:104C1C00C2EBEA2AD9F8040000286FDBC013D9F8DC
:104C2C000C1080B202F0E2FDD9F80430D9F808205B
:104C3C001344C9F80430002B65DB0AF10102D203DE
:104C4C0000FB0A2212F5C80263D4D113A2EBC132C5
:104C5C004B1C63D4D8F814C09C4501D80CF1FF331D
:104C6C00D8F81800C31A9946002B59DBD8F810E075
:104C7C003EF9193003FB02F3C2F50042002952DB66
:104C8C008C4501D80CF1FF31411A084600294CDB48
:104C9C003EF9101001FB0233002B49DBDB13D8F873
:104CAC00CC20134403F30F03C8F8CC30B8F96020C0
:104CBC00B8F95E108A4202DA0132A8F86020B8F91D
:104CCC006020914202DA013AA8F86020B8F960201D
:104CDC0002FB03F31B4A82FB03121A44DB17C3EBE0
:104CEC00E223C8F8CC30736030693844306100EB93
:104CFC00D0704010F0600023B360FEE500F5FF407B
:104D0C007F30C0138BE723F000430133C9F8043024
:104D1C0093E702F5FF417F31C91397E7002399E729
:104D2C000CEB0309A2E70021AAE70CEB0100AFE7AB
:104D3C0003F5FF437F33DB13B1E700F57F503F30C2
:104D4C00C01333E68100088089163CA02DE9F04F92
:104D5C0083B042F6BC53C218C65854684FEAE47983
:104D6C0057694FEAE77B04FB0BFC07FB09CCA4FB60
:104D7C0007456544E30B43EA454306FB013695685A
:104D8C004FEAE57994694FEAE47B05FB0BF304FBEE
:104D9C000933A5FB04451D44E30B43EA4543334467
:104DAC00D4684FEAE47BD6694FEAE67904FB09FC48
:104DBC0006FB0BCCA4FB0689E1444FEAD83444EA49
:104DCC004944234415694FEAE579146A4FEAE47BB8
:104DDC0005FB0BFC04FB09CCA5FB0489E1444FEA61
:104DEC00D83444EA4944234453629761C90351615E
:104DFC0016625942D161002B6ADB03F58043DB1349
:104E0C00019342F6346281188D68002D66D0012D15
:104E1C0000F0B5814C6842F6E453C118C0584A689A
:104E2C004FEAE27B4D694FEAE57902FB09F605FB97
:104E3C000B66A2FB0578B044FA0B42EA484204FB2D
:104E4C0000208A684FEAE27B8B694FEAE37902FB28
:104E5C0009F603FB0B66A2FB0378B044FA0B42EA9B
:104E6C0048421044CA684FEAE279D1F81CC0664641
:104E7C00F71702FB07F60CFB0966A2FB0C78B04493
:104E8C00FA0B42EA48421044D1F810E07246D317AC
:104E9C00D1F820804646F7170EFB07F608FB036691
:104EAC00AEFB0878B044FA0B42EA48421044486220
:104EBC008D61E4034C61C1F820C04342CB610028F2
:104ECC00C0F22F8300F58040C01303B0BDE8F08F13
:104EDC0003F57F533F33DB13019392E78258CE687F
:104EEC0042F648641651B2F91040B2F90E60B44261
:104EFC0001DA01341482B2F91040A64201DA013C05
:104F0C001482B2F91070FF00072D07DCC5EBC50643
:104F1C00B4001834144467600135F5E742F60C65AB
:104F2C00541942F6486652F806C052F805E0666815
:104F3C004FEAE67B65694FEAE57906FB09F805FB64
:104F4C000B88A6FB059AC2444FEAD93646EA4A4674
:104F5C000EFB0C6EA6684FEAE67BA7694FEAE77971
:104F6C0006FB09F807FB0B88A6FB079AC2444FEA1D
:104F7C00D93646EA4A460EEB0607E6684FEAE67B68
:104F8C00D4F81CE04FEAEE7906FB09F80EFB0B880F
:104F9C00A6FB0E9AC2444FEAD93646EA4A46BE19D7
:104FAC00334626694FEAE67B276A4FEAE77906FB28
:104FBC0009F807FB0B88A6FB079AC2444FEAD936BF
:104FCC0046EA4A461E446662A5614FEACC356561E5
:104FDC00C4F820E07542E561002EC0F2A88006F509
:104FEC008044E413566904FB06F4002CC0F2A48040
:104FFC00E41342F64865545142F64C65002656516E
:10500C0002F11C0CDCF81070DCF8189037F919E080
:10501C00DCF80C50DCF80460DCF8083006FB03F616
:10502C0005FB0E65002DC0F28C80ED13CCF80450FE
:10503C00D66906FB05F5002DC0F28880ED132544DA
:10504C0005F30F0527F81950DCF818400134CCF89B
:10505C001840DCF81450AC4202DB0024CCF81840A9
:10506C0042F64C6554597444545102F1380442F6DA
:10507C00486552F805C02769D4F8189037F919E03B
:10508C00E5686668A36806FB03F605FB0E65002D54
:10509C0061DBED136560966B06FB05F5002D5FDBA0
:1050AC00ED13654405F30F0527F81950A569013573
:1050BC00A5616669B54201DB0025A56142F64C6528
:1050CC0054597444545102F1540442F6486552F850
:1050DC0005C02769D4F8189037F919E0E5686668B7
:1050EC00A36806FB03F605FB0E65002D3DDBED13F7
:1050FC006560566D06FB05F5002D3BDBED13654435
:10510C0005F30F0527F81950A5690135A5616669E6
:10511C00B54201DB0025A56142F64C655459744437
:10512C005451019B0B618B6801338B6072E606F561
:10513C007F543F34E41355E704F5FF447F34E41304
:10514C0057E705F5FF457F35ED136FE705F5FF458F
:10515C007F35ED1373E705F5FF457F35ED1399E7C3
:10516C0005F5FF457F35ED139BE705F5FF457F35CD
:10517C00ED13BDE705F5FF457F35ED13BFE782580D
:10518C0002F1700442F6486552F805C02769D4F85C
:10519C00189037F919E0E5686668A36806FB03F612
:1051AC0005FB0E65002DC0F28A81ED136560166F4C
:1051BC0006FB05F5002DC0F28781ED13654405F360
:1051CC000F0527F81950A5690135A5616669B54227
:1051DC0001DB0025A56142F64C65545974445451C9
:1051EC0002F18C0442F6486552F805C02769D4F8E0
:1051FC00189037F919E0E5686668A36806FB03F6B2
:10520C0005FB0E65002DC0F26481ED136560D2F8CC
:10521C008C6006FB05F5002DC0F26081ED13654432
:10522C0005F30F0527F81950A5690135A5616669C5
:10523C00B54201DB0025A56142F64C655459744416
:10524C00545102F1A80442F6486552F805C027698A
:10525C00D4F8189037F919E0E5686668A36806FB7E
:10526C0003F605FB0E65002DC0F23D81ED13656064
:10527C00D2F8A86006FB05F5002DC0F23981ED13BC
:10528C00654405F30F0527F81950A5690135A5618B
:10529C006669B54201DB0025A56142F64C6554599F
:1052AC007444545102F1C40442F6486552F805C0E6
:1052BC002769D4F8189037F919E0E5686668A3688F
:1052CC0006FB03F605FB0E65002DC0F21681ED13EF
:1052DC006560D2F8C46006FB05F5002DC0F21281A2
:1052EC00ED13654405F30F0527F81950A569013531
:1052FC00A5616669B54201DB0025A56142F64C65E6
:10530C0054597444545102F1E00C42F6486452F87A
:10531C0004E0DCF81070DCF8189037F91940DCF870
:10532C000C50DCF80460DCF8083006FB03F605FBD7
:10533C000465002DC0F2EB80ED13CCF80450D2F8CC
:10534C00E06006FB05F5002DC0F2E680ED13754418
:10535C0005F30F0527F81950DCF818500135CCF877
:10536C001850DCF81460B54202DB0025CCF818505C
:10537C0042F64C65565934445451D2F8FC70D2F86C
:10538C0004C137F91C60351B06EBD67604EB6604BA
:10539C0004F30F0427F81C40D2F804410134C2F87E
:1053AC000441D2F80061B44202DB0024C2F804418B
:1053BC0042F64C641551D2F80871D2F810C137F985
:1053CC001C60741B06EBD67605EB660505F30F0522
:1053DC0027F81C50D2F810510135C2F81051D2F8F0
:1053EC000C61B54202DB0025C2F8105142F64C6547
:1053FC005451D2F81471D2F81CC137F91C60351B0A
:10540C0006EBD67604EB660404F30F0427F81C4075
:10541C00D2F81C410134C2F81C41D2F81861B442D4
:10542C0002DB0024C2F81C4142F64C641551D2F840
:10543C002071D2F828C137F91C60741B06EBD676A4
:10544C0005EB660505F30F0527F81C50D2F828511B
:10545C000135C2F82851D2F82461B54202DB00258F
:10546C00C2F8285104F30F0542F64C641551B2F9F9
:10547C000840B2F90660B44201DA01341481B2F981
:10548C000840A64201DA013C1481B2F9084004FB41
:10549C0005F4264D85FB04352544E417C4EBE524BF
:1054AC0042F64C6554514C600A69019B13440B61E4
:1054BC0003EBD3735B10CB6000238B60AAE405F580
:1054CC00FF457F35ED1371E605F5FF457F35ED138F
:1054DC0074E605F5FF457F35ED1397E605F5FF45B9
:1054EC007F35ED139BE605F5FF457F35ED13BEE6E5
:1054FC0005F5FF457F35ED13C2E605F5FF457F3514
:10550C00ED13E5E605F5FF457F35ED13E9E605F509
:10551C00FF457F35ED1310E705F5FF457F35ED139E
:10552C0015E700F57F503F30C013CEE481000880B2
:10553C002DE9F84F04460D46866BC06B4FEAE07BB5
:10554C00D4F84CC04FEAEC7900FB09F30CFB0B339D
:10555C00A0FB0C011944C30B43EA414306FB053382
:10556C00206C4FEAE07B216D4FEAE17900FB09F6F4
:10557C0001FB0B66A0FB0178B044F80B40EA4840F5
:10558C000344606C4FEAE079D4F854E07646F717A0
:10559C0000FB07F60EFB0966A0FB0E78B044F80B77
:1055AC0040EA48400344D4F848804046C117D4F838
:1055BC0058904E46F71708FB07F609FB0166A8FB47
:1055CC000978B044F80B40EA48400344E365C4F85A
:1055DC0050C0ED03E564C4F858E059426165002BF6
:1055EC00C0F2078103F58043D913B4F92430B4F920
:1055FC002220934201DA0133A384B4F924309A4275
:10560C0001DA013BA384B4F9243040F6D67202FBD4
:10561C0003F28B4B83FB02039818D317C3EBE023E5
:10562C00293304F11005226903FB02F3854A82FB3E
:10563C0003021A44DB17C3EB2223A361B4F92C3009
:10564C00B4F92A20934201DA0133A385B4F92C3042
:10565C009A4201DA013BA385B4F92C004FF4C873CC
:10566C0003FB00F3764E86FB03261E44D817C0EBD3
:10567C00E626E268636823F81210E3680133E360FE
:10568C00A268934201D30023E36068680028C0F24B
:10569C00B580C013E96880B202F0A8F86B68AA68FC
:1056AC0013446B60002BC0F2AE80731CDB0306FB53
:1056BC00003010F5C80000F1AB80C313A0EBC33071
:1056CC005A1C00F1AA80A568954200D86A1EE168B0
:1056DC008A1A1746002AC0F2A280666836F917208B
:1056EC0000FB02F2C0F50040002BC0F29A80AB42E6
:1056FC0000D36B1ECB1A1946002BC0F2948036F9DE
:10570C00113000FB03200028C0F28F80C01300F37F
:10571C000F00216E666E4FEAE67B656F4FEAE57906
:10572C0006FB09F305FB0B33A6FB05671F44F30BC4
:10573C0043EA474301FB0033A76E4FEAE779A66FB4
:10574C004FEAE67B07FB0BF106FB0911A7FB06678B
:10575C000F44F10B41EA47410B44E66E4FEAE67BFE
:10576C00E16F4FEAE17906FB09FC01FB0BCCA6FBD0
:10577C000178E044FE0B46EA48463344276F4FEA73
:10578C00E779D4F880604FEAE67B07FB0BFC06FB5D
:10579C0009CCA7FB0678E044FE0B46EA48463344A6
:1057AC00C4F88430A567C0036067C4F88010594200
:1057BC00E167002B3EDB03F58043DB13B4F93420A7
:1057CC00B4F93210914201DD0132A286B4F93420D1
:1057DC00914201DA013AA286B4F9340003FB00F3DA
:1057EC00174880FB03201844DB17C3EBE020BDE80F
:1057FC00F88F03F57F533F33D913F6E600F5FF40DE
:10580C007F30C01346E723F0004301336B604CE755
:10581C0000F5FF437F33DB1350E7002253E7AF184B
:10582C005BE7002363E7591969E700F5FF407F3018
:10583C00C0136CE703F57F533F33DB13BEE700BFA8
:10584C008100088089163CA02DE9F04F85B0824676
:10585C000A4600F1980400F1C00B066F406F074632
:10586C004FEAE078CDE90078DAF884504FEAE57930
:10587C0000FB09F7019905FB0177A0FB05013944F1
:10588C004FEAD03E4EEA414E06FB02EEDAF878C003
:10589C006046C117DAF888804646F7170CFB07F606
:1058AC0008FB0166ACFB08013144C60B46EA4146D5
:1058BC00B644DAF87C004FEAE079DAF88CC0664638
:1058CC00F71700FB07F60CFB0966A0FB0C01314433
:1058DC00C60B46EA4146B644DAF880000646C717BE
:1058EC00CDE90067DAF890104FEAE17900FB09F690
:1058FC00019F01FB0766A0FB01013144C60B46EA80
:10590C0041467644CAF89460CAF88850D203CAF863
:10591C008420CAF890C07242CAF88C20002E67DB33
:10592C0006F580484FEAE838DBF80830002B66D0E3
:10593C00012B00F0D280DBF80410DAF898006268D2
:10594C004FEAE27B65694FEAE57902FB09F605FB54
:10595C000B66A2FB0578B044FA0B42EA484201FB05
:10596C000020A2684FEAE27BA3694FEAE37902FBCD
:10597C0009F603FB0B66A2FB0378B044FA0B42EA70
:10598C0048421044E2684FEAE279D4F81CC06646FB
:10599C00F71702FB07F60CFB0966A2FB0C78B04468
:1059AC00FA0B42EA48421044D4F810E07246D3177E
:1059BC00D4F820804646F7170EFB07F608FB036663
:1059CC00AEFB0878B044FA0B42EA484210446062DD
:1059DC00A561C9036161C4F820C04342E36100289A
:1059EC00C0F2AA8100F58040C01305B0BDE8F08F6D
:1059FC0006F57F5808F13F084FEAE83894E7DAF8E3
:105A0C00C030DBF80C20C3F8D420B3F92420B3F950
:105A1C0022108A4201DA01329A84B3F9242091428D
:105A2C0001DA013A9A84B3F9241040F6D67202FBDB
:105A3C0001F2C44981FB02011144D217C2EBE122ED
:105A4C002932196901FB02F2BF4981FB02011144A1
:105A5C00D217C2EB21229A61B3F92C20B3F92A1088
:105A6C008A4201DA01329A85B3F92C20914201DA8B
:105A7C00013A9A85B3F92C10C82202FB01F2B14904
:105A8C0081FB02011144D217C2EBE122C3F8D820EA
:105A9C00B3F93420B3F932108A4201DA01329A8612
:105AAC00B3F93420914201DA013A9A86B3F93410F1
:105ABC004FF4C87202FB01F2A24981FB02011144AE
:105ACC00D217C2EBE122C3F8DC20CBF81080DBF854
