:020000040800F2
:10000000005000200D5D0008CD250008CF25000818
:10001000D1250008D3250008D525000800000000E0
:10002000000000000000000000000000D7250008CC
:10003000D925000800000000DB250008DD250008A8
:10004000555D0008555D0008555D0008555D0008C8
:10005000555D0008555D0008555D0008555D0008B8
:10006000555D0008555D0008555D0008E525000850
:10007000555D0008555D0008555D0008555D000898
:10008000555D0008555D0008555D0008555D000888
:10009000555D0008555D0008555D0008555D000878
:1000A000555D0008555D0008555D0008555D000868
:1000B000555D0008555D0008555D0008555D000858
:1000C000555D0008555D0008555D0008555D000848
:1000D000555D0008F5250008555D0008555D0008D0
:1000E000555D0008555D0008555D000800000000E2
:1000F0000000000000000000000000000000000000
:0C01000000000000000000005FF808F1A3
:10010C0010B5054C237833B9044B13B10448AFF345
:10011C0000800123237010BDE001002000000000CE
:10012C008062000808B5034B1BB103490348AFF3C9
:10013C00008008BD00000000E4010020806200087F
:10014C00034613F8012B002AFBD1181A013870470B
:10015C0010B504460E4B18784FF47A73B3FBF0F3DA
:10016C000C4A1068B0FBF3F000F078FB68B90F2C68
:10017C0001D901200AE0002221464FF0FF3000F0A7
:10018C002BFB054B1C60002000E0012010BD00BFC4
:10019C0000000020080000200400002008B5074AD9
:1001AC00136843F010031360032000F003FB0120DD
:1001BC00FFF7CEFF02F0F0F8002008BD002002404F
:1001CC00034A1168034B1B780B441360704700BF44
:1001DC005C03002000000020014B1868704700BF32
:1001EC005C03002038B50446FFF7F6FF0546B4F172
:1001FC00FF3F02D0044B1B781C44FFF7EDFF401B64
:10020C00A042FAD338BD00BF0000002008B5436AF5
:10021C009A6A12F0500F03D01B6A1B6B984708BDEB
:10022C009A6A42F400729A621A68926802F4602226
:10023C00B2F5602F03D0184605F0E2FAEFE71A7B0F
:10024C00002AF8D19A6A22F480729A629A6A12F49D
:10025C00805FF0D19A6A42F001029A62EBE708B52E
:10026C00406A05F02DFA08BD704708B5406A836AEC
:10027C0043F040038362C36A43F00403C362FFF795
:10028C00F3FF08BD30B482B00023019390F8243002
:10029C00012B00F08B800246012380F824304B6840
:1002AC00062B29D80568686B03EB8303053B1F24D9
:1002BC009C4020EA04000C6804FA03F303436B63CC
:1002CC000B68092B38D91568E86803EB43031E3B10
:1002DC0007249C4020EA04008C6804FA03F30343CF
:1002EC00EB600B68103B012B34D90020002382F803
:1002FC00243002B030BC70470C2B0ED80568286B2C
:10030C0003EB8303233B1F249C4020EA04000C686E
:10031C0004FA03F303432B63D2E70568E86A03EBA3
:10032C008303413B1F249C4020EA04000C6804FA20
:10033C0003F30343EB62C3E71568286903EB43033C
:10034C0007249C4020EA04008C6804FA03F303435E
:10035C002B61C6E713681648834205D0936A43F0B5
:10036C00200393620120C1E7986810F4000F1BD1A1
:10037C00986840F4000098600B68102B01D00020A6
:10038C00B4E70C4B1B680C49A1FB03139B0C03EB50
:10039C0083035900019102E0019B013B0193019BF6
:1003AC00002BF9D10020A1E700209FE70220A0E755
:1003BC00002401400800002083DE1B4330B583B0CD
:1003CC000023019303689A6812F0010F2ED19A68EA
:1003DC0042F001029A60174B1B68174AA2FB0323D9
:1003EC009B0C019302E0019B013B0193019B002BB1
:1003FC00F9D10446FFF7F0FE054623689B6813F01D
:10040C00010F11D1FFF7E8FE401B0228F5D9A36AB2
:10041C0043F01003A362E36A43F00103E362002399
:10042C0084F82430012002E0002000E0002003B01A
:10043C0030BD00BF0800002083DE1B43F8B5046804
:10044C00454DAC425BD0454B9C4258D090F8244073
:10045C00012C7ED016460D460446012380F824302C
:10046C00FFF7ACFF074600286ED1A36A23F4706334
:10047C0023F0010343F48073A3622268374B9A4242
:10048C0044D0A36A23F48013A362536813F4806FDF
:10049C0005D0A36A23F4405343F48053A362A36AA8
:1004AC0013F4805F48D0E36A23F00603E362002371
:1004BC0084F82430236A2A4A9A62236A294ADA6227
:1004CC00236A294A1A6323686FF002021A602268B1
:1004DC00936843F480739360216833462A464C3109
:1004EC00206A00F01DFA2268936803F46023B3F5C8
:1004FC00602F24D0936843F48013936027E0164B4D
:10050C005B6813F4702FA1D0012720E0A3F5806362
:10051C005B6813F4702FB4D0A36A43F48013A36206
:10052C000D4B5B6813F4806FB9D0A36A23F440536E
:10053C0043F48053A362B2E70023E362B7E7936806
:10054C0043F4A003936002E0002384F8243038467F
:10055C00F8BD0227FBE700BF002401400028014042
:10056C00190200086B0200087702000838B503680E
:10057C009A6812F0010F01D1002038BD04469A6828
:10058C0022F001029A60FFF727FE054623689B685C
:10059C0013F0010F0ED0FFF71FFE401B0228F5D9F8
:1005AC00A36A43F01003A362E36A43F00103E3621E
:1005BC000120E2E70020E0E700287FD038B50446B0
:1005CC00836A002B33D02046FFF7D0FFA36A13F0C9
:1005DC0010036DD100286BD1A26A22F4885222F04C
:1005EC00020242F00202A2626268E1690A43257BC0
:1005FC0042EA4502A168B1F5807F21D001291CD0C7
:10060C00217D01291FD02568696821F469410B43BC
:10061C006B6021688D682A4B2B4013438B60A36859
:10062C00B3F5807F20D0012B1ED000211FE0C362C8
:10063C0080F8243001F0D2FEC5E74FF48073DFE779
:10064C004FF48073DCE735B9A169013943EA4133D2
:10065C0043F40063D7E7A16A41F02001A162E16A8B
:10066C0041F00101E162CEE72369013B19052568E0
:10067C00EB6A23F470030B43EB6223689968114B0C
:10068C000B409A420BD0A36A23F0120343F01003E1
:10069C00A362E36A43F00103E36201200DE000234F
:1006AC00E362A36A23F0030343F00103A36204E0B3
:1006BC00A36A43F01003A362012038BD01207047E8
:1006CC00FDF7E1FFFE0E1FFF70B582B00023019312
:1006DC0090F82430012B68D00446012380F8243094
:1006EC00FFF744FF054628B1002384F82430284640
:1006FC0002B070BDA36A23F4885323F0020343F0C5
:10070C000203A3622A4B1E68022000F0DDFEB6FB3A
:10071C00F0F04000019002E0019B013B0193019B32
:10072C00002BF9D12046FFF749FE2268936843F06D
:10073C0008039360FFF750FD064623689A6812F091
:10074C00080F0FD0FFF748FD801B0A28F5D9A36AC4
:10075C0023F0120343F01003A362002384F8243027
:10076C000125C4E79A6842F004029A60FFF734FD51
:10077C00064623689B6813F0040F0FD0FFF72CFD7F
:10078C00801B0A28F5D9A36A23F0120343F0100347
:10079C00A362002384F824300125A8E7A36A23F080
:1007AC00030343F00103A3629EE702259FE700BF0A
:1007BC0008000020074AD36823F4E0631B041B0CD9
:1007CC00000200F4E060184340F0BF6040F40030D9
:1007DC00D060704700ED00E030B4174BDB68C3F31A
:1007EC000223C3F10704042C28BF04241D1D062D6D
:1007FC0018D9033B4FF0FF3505FA04F421EA040144
:10080C00994005FA03F322EA0303194300280BDB92
:10081C000901C9B200F1604000F5614080F8001395
:10082C0030BC70470023E5E700F00F000901C9B2A6
:10083C00024B1954F4E700BF00ED00E014ED00E0AA
:10084C00002807DB00F01F02400901239340024AF5
:10085C0042F82030704700BF00E100E00138B0F1F1
:10086C00807F0AD2064B5860064AF02182F823108A
:10087C000020986007221A6070470120704700BF63
:10088C0010E000E000ED00E070B4066CC56B0124D4
:10089C00B4406C60046863604368102B05D0036837
:1008AC0099600368DA6070BC704703689A600368EB
:1008BC00D960F8E760B310B402460168154B0B44DD
:1008CC001548A0FB03031B099B001364134BD36354
:1008DC00022382F82130086820F47F5020F0300089
:1008EC00536894682343D46823431469234354699D
:1008FC00234394692343D469234303430B600020AF
:10090C009063012382F8213082F8200010BC7047DC
:10091C0001207047F8FFFDBFCDCCCCCC00000240CD
:10092C0038B590F82040012C32D0012480F82040BA
:10093C0090F82140012C04D0002380F820300220B4
:10094C0038BD0446022084F821000020A0632568ED
:10095C00286820F0010028602046FFF795FFE36A25
:10096C005BB12268136843F00E03136022681368AE
:10097C0043F0010313600020E2E72268136823F0C0
:10098C00040313602268136843F00A031360EDE755
:10099C000220D5E708B590F82130022B03D00423B0
:1009AC008363012008BD0268136823F00E031360F3
:1009BC000268136823F0010313600368194A934219
:1009CC0014D0143293421FD0143293421ED01432DE
:1009DC0093421ED0143293421ED01432934202D052
:1009EC004FF0807203E04FF4801200E001220E4BB6
:1009FC005A60012380F82130002380F82030436BAB
:100A0C006BB198470020CDE71022F0E74FF48072CD
:100A1C00EDE74FF48052EAE74FF48032E7E700202D
:100A2C00C0E700BF080002400000024038B5C36BAD
:100A3C001A6804682568016C04238B40134235D076
:100A4C0015F0040F32D0236813F0200F03D1236864
:100A5C0023F0040323600368434A934214D01432F6
:100A6C00934218D01432934217D01432934217D0B9
:100A7C001432934217D01432934202D04FF080625A
:100A8C0003E04FF4800200E00422384B5A60C36A42
:100A9C0003B1984738BD4022F7E74FF48062F4E782
:100AAC004FF48042F1E74FF48022EEE702238B40B3
:100ABC0013423CD015F0020F39D0236813F0200FED
:100ACC0006D1236823F00A032360012380F8213028
:100ADC000368254A934214D0143293421CD014322A
:100AEC0093421BD0143293421BD0143293421BD02E
:100AFC001432934202D04FF0007203E04FF4001214
:100B0C0000E00222194B5A60002380F82030836ADF
:100B1C00002BBFD09847BDE72022F3E74FF40072BB
:100B2C00F0E74FF40052EDE74FF40032EAE7082308
:100B3C0003FA01F11142ADD015F0080FAAD02368C9
:100B4C0023F00E032360026CC16B012303FA02F243
:100B5C004A60836380F82130002380F82030036BD7
:100B6C00002B97D0984795E7080002400000024000
:100B7C00F0B482B000263246A2E0002D5AD0012DEE
:100B8C0000D1CE68FF2B69D88446FF2B69D895001D
:100B9C00DCF800400F27AF4024EA070406FA05F5FD
:100BAC002C43CCF800404C6814F0805F00F0878038
:100BBC005F4CA56945F00105A561A46904F0010429
:100BCC000194019C9508AF1C5A4C54F8274002F034
:100BDC000307BF004FF00F0C0CFA07FC24EA0C0CB7
:100BEC00554CA04243D004F58064A04200F08180B3
:100BFC0004F58064A0427ED004F58064A04234D019
:100C0C00042435E04D4FBD4214D00BD94C4FBD429E
:100C1C0010D007F58037BD420CD0A7F58017BD4228
:100C2C00B0D107E0A7F58017BD4203D007F5803798
:100C3C00BD42A7D18D687DB1012D08D04461082635
:100C4C00A0E7CE6808369DE7CE680C369AE70461BB
:100C5C00082697E7002695E7042693E700F1040C95
:100C6C0093E7A2F10805AD0092E7032400E000240D
:100C7C00BC4044EA0C0402352E4F47F825404C6822
:100C8C0014F4803F39D02F4D2C681C432C604C68D9
:100C9C0014F4003F37D02B4D6C681C436C604C68CF
:100CAC0014F4801F35D0274DAC681C43AC604C68E5
:100CBC0014F4001F33D0234DEC682343EB60013256
:100CCC000B6833FA02F430D00124944023409C4248
:100CDC00F5D14D68122DB7D094D8022DB1D07FF636
:100CEC004CAF032DB6D0112D7FF44CAFCE6804362B
:100CFC0048E70124BCE70224BAE7124D2C6824EA29
:100D0C0003042C60C3E70F4D6C6824EA03046C6089
:100D1C00C5E70C4DAC6824EA0304AC60C7E7094D89
:100D2C00EC6824EA0303EB60C9E702B0F0BC70473F
:100D3C00001002400000014000080140000021109A
:100D4C00000031100004014012B909040161704720
:100D5C000161704782B0084B1B68084AA2FB032351
:100D6C005B0A00FB03F0019000BF019B5A1E01922D
:100D7C00002BF9D102B0704708000020D34D62104F
:100D8C00002800F0F58170B582B00446036813F0BA
:100D9C00010F2CD0AB4B5B6803F00C03042B1DD064
:100DAC00A84B5B6803F00C03082B12D06368B3F5F7
:100DBC00803F41D0002B55D103F1804303F5043320
:100DCC001A6822F480321A601A6822F480221A609F
:100DDC0037E09C4B5B6813F4803FE7D0994B1B6862
:100DEC0013F4003F03D06368002B00F0C381236829
:100DFC0013F0020F76D0934B5B6813F00C0F5FD09F
:100E0C00904B5B6803F00C03082B54D02369002B28
:100E1C0000F08A808C4B01221A60FFF7DDF9054641
:100E2C00884B1B6813F0020F75D1FFF7D5F9401BE7
:100E3C000228F5D90320A0E1824A136843F48033D9
:100E4C001360636843B3FFF7C7F905467D4B1B6816
:100E5C0013F4003FCBD1FFF7BFF9401B6428F5D941
:100E6C0003208AE1B3F5A02F09D0764B1A6822F43F
:100E7C0080321A601A6822F480221A60E1E703F1CA
:100E8C008043A3F53C331A6842F480221A601A6836
:100E9C0042F480321A60D4E7FFF79EF90546694B9D
:100EAC001B6813F4003FA2D0FFF796F9401B64288F
:100EBC00F5D9032061E1634B5B6813F4803FA5D146
:100ECC00604B1B6813F0020F04D02369012B01D077
:100EDC00012052E15B4A136823F0F803616943EA8D
:100EEC00C1031360236813F0080F32D0A369002BE1
:100EFC005BD0564B01221A60FFF76EF90546514B39
:100F0C005B6A13F0020F21D1FFF766F9401B022830
:100F1C00F5D9032031E14B4A136823F0F8036169DA
:100F2C0043EAC1031360DDE7474B00221A60FFF769
:100F3C0053F90546434B1B6813F0020FD2D0FFF751
:100F4C004BF9401B0228F5D9032016E10120FFF7CD
:100F5C0001FF236813F0040F00F09880394BDB6914
:100F6C0013F0805F33D1374BDA6942F08052DA618B
:100F7C00DB6903F080530193019B0125344B1B6803
:100F8C0013F4807F25D0E368012B36D0002B4CD195
:100F9C0003F1804303F504331A6A22F001021A624A
:100FAC001A6A22F004021A622CE0284B00221A6002
:100FBC00FFF712F90546234B5B6A13F0020FC8D0FA
:100FCC00FFF70AF9401B0228F5D90320D5E00025CC
:100FDC00D4E71F4A136843F480731360FFF7FCF8DF
:100FEC0006461B4B1B6813F4807FCCD1FFF7F4F83B
:100FFC00801B6428F5D90320BFE0124A136A43F022
:10100C0001031362E3687BB3FFF7E6F806460D4B6A
:10101C001B6A13F0020F38D1FFF7DEF8801B41F288
:10102C0088339842F3D90320A7E0052B12D0054B47
:10103C001A6A22F001021A621A6A22F004021A6277
:10104C00E0E700BF00100240000042428004424230
:10105C00007000404C4B1A6A42F004021A621A6A81
:10106C0042F001021A62CDE7FFF7B6F80646464B8E
:10107C001B6A13F0020F08D0FFF7AEF8801B41F289
:10108C0088339842F3D9032077E0E5B9E369002B64
:10109C0072D03D4A526802F00C02082A56D0022B3C
:1010AC0017D03A4B00221A60FFF796F80446364BDD
:1010BC001B6813F0007F47D0FFF78EF8001B022847
:1010CC00F5D9032059E0304AD36923F08053D3611A
:1010DC00DCE72E4B00221A60FFF77EF805462A4B00
:1010EC001B6813F0007F06D0FFF776F8401B022830
:1010FC00F5D9032041E0236AB3F5803F1AD0224989
:10110C004B6823F47413226A606A024313434B60E6
:10111C001E4B01221A60FFF75FF804461A4B1B683E
:10112C0013F0007F0ED1FFF757F8001B0228F5D9FA
:10113C00032022E0144A536823F40033A1680B43C4
:10114C005360DCE7002018E0002016E0012B16D0DD
:10115C000D4B5B6803F48031226A914201D001206F
:10116C000BE003F47013626A93420AD0012004E08E
:10117C0001207047012000E0002002B070BD01206A
:10118C00FBE70020F9E700BF00100240600042427C
:10119C0010B487B0164C94E80F000DF1180C0CE944
:1011AC000F00238AADF80430124B5B6803F00C027D
:1011BC00082A1AD1C3F38342624412F8102C13F498
:1011CC00803F05D10C4800FB02F007B010BC704703
:1011DC00084B5B68C3F34043634413F8143C074863
:1011EC0000FB02F0B0FBF3F0EFE70448EDE700BFC3
:1011FC00986200080010024000093D0000127A00BD
:10120C00002800F0A38070B50446524B1B6803F015
:10121C0007038B420CD24F4A136823F007030B438E
:10122C001360136803F007038B4201D0012070BDDB
:10123C00236813F0020F17D013F0040F04D0464AA2
:10124C00536843F4E0635360236813F0080F04D031
:10125C00414A536843F4605353603F4A536823F048
:10126C00F003A068034353600D46236813F0010F8D
:10127C0031D06368012B20D0022B25D0364A12685E
:10128C0012F0020F64D034494A6822F0030213436F
:10129C004B60FEF7A1FF06462F4B5B6803F00C0377
:1012AC006268B3EB820F16D0FEF796FF801B41F2FB
:1012BC0088339842F0D90320B9E7274A126812F410
:1012CC00003FE0D10120B2E7234A126812F0007F00
:1012DC00D9D10120ABE71F4B1B6803F00703AB42CE
:1012EC000CD91C4A136823F007032B4313601368B3
:1012FC0003F00703AB4201D0012098E7236813F0F9
:10130C00040F06D0144A536823F4E063E1680B43DE
:10131C005360236813F0080F07D00F4A536823F467
:10132C006053216943EAC1035360FFF731FF0A4B55
:10133C005B68C3F30313094AD35CD840084B1860AD
:10134C00084B1868FEF704FF002070E70120704777
:10135C0001206CE70020024000100240F0640008FD
:10136C000800002004000020014B1868704700BFE3
:10137C000800002008B5FFF7F7FF044B5B68C3F3C8
:10138C000223034AD35CD84008BD00BF00100240C2
:10139C000065000808B5FFF7E7FF044B5B68C3F373
:1013AC00C223034AD35CD84008BD00BF00100240E2
:1013BC000065000870B582B00446036813F0010F95
:1013CC0034D03E4BDB6913F0805F48D13B4BDA697C
:1013DC0042F08052DA61DB6903F080530193019B88
:1013EC000125374B1B6813F4807F3AD0334B1B6AB3
:1013FC0013F4407311D0626802F440729A420CD01C
:10140C002E4A136A23F440702E4901260E600026E2
:10141C000E60106213F0010F37D1284A136A23F4BF
:10142C00407361680B431362002D3FD1236813F0A6
:10143C00020F06D0214A536823F44043A1680B43A2
:10144C005360236813F0100F35D01C4A536823F4F3
:10145C008003E1680B435360002002B070BD00258F
:10146C00BFE7174A136843F480731360FEF7B4FEAA
:10147C000646134B1B6813F4807FB7D1FEF7ACFE06
:10148C00801B6428F5D90320E7E7FEF7A5FE064686
:10149C000A4B1B6A13F0020FBFD1FEF79DFE801B97
:1014AC0041F288339842F3D90320D6E7D36923F06D
:1014BC008053D361BAE70020CFE700BF0010024091
:1014CC00007000404004424230B587B00546384CAD
:1014DC0094E80F000DF1180C0CE90F00238AADF8FD
:1014EC000430022D50D0102D03D0012D2BD0002014
:1014FC0054E0304B5A681B6813F0807F50D0C2F315
:10150C00834306A90B4413F8100C12F4803F16D039
:10151C00284B5B68C3F340430B4413F8142C264B45
:10152C00B3FBF2F300FB03F0224B5B6813F4800F68
:10153C0034D14000214BA3FB003040082EE0204B5F
:10154C0003FB00F0F0E71B4B1B6A40F202321A401F
:10155C00B2F5817F26D003F44073B3F5007F04D03D
:10156C00B3F5407F09D0002018E0124A526A12F0FD
:10157C00020FF5D049F6404010E00E4B1B6813F4F7
:10158C00003F12D1002009E0FFF704FF094B5B6814
:10159C00C3F3813301335B00B0FBF3F007B030BD14
:1015AC000020FBE74FF40040F8E74FF22440F5E74A
:1015BC00AC6200080010024000127A00ABAAAAAA82
:1015CC0000093D0070B4036A23F001030362036A4F
:1015DC004268846924F073040D6845EA040623F01C
:1015EC0002048B6823430D4DA84209D00B4DA84231
:1015FC000DD0426086614A684263036270BC7047DA
:10160C0023F00803CC68234323F00403EEE722F411
:10161C0040724C6914438A692243EAE7002C01406A
:10162C0030B4036A23F480730362036A4268C469AA
:10163C0024F073040D682C4323F400738D6843EA83
:10164C0005230F4DA84209D00D4DA8420ED0426083
:10165C00C4614A68C263036230BC704723F4006300
:10166C00CD6843EA052323F48063EDE722F440526E
:10167C004D6942EA05128D6942EA0512E7E700BF9F
:10168C00002C014030B4036A23F480530362036AD4
:10169C004468C26922F4E6420D6842EA052223F44A
:1016AC0000538D6843EA0533074DA84206D04460C9
:1016BC00C2614A680264036230BC704724F48044FF
:1016CC004D6944EA8514F2E7002C014003681B4A7B
:1016DC0090420AD0B0F1804F07D0A2F594329042DC
:1016EC0003D002F58062904203D123F070034A6864
:1016FC001343124A90420AD0B0F1804F07D0A2F5A2
:10170C009432904203D002F58062904203D123F4CC
:10171C004073CA68134323F080034A691343036080
:10172C008B68C3620B688362044B984202D001231E
:10173C00436170470B690363F9E700BF002C01405C
:10174C00A8B110B5044690F83D305BB1022384F883
:10175C003D30211D2068FFF7B9FF012384F83D308F
:10176C00002010BD80F83C3000F088FEEEE7012030
:10177C007047A8B110B5044690F83D305BB1022318
:10178C0084F83D30211D2068FFF7A0FF012384F869
:10179C003D30002010BD80F83C3000F083FEEEE7B9
:1017AC000120704730B4036A23F010030362036A0C
:1017BC004468826922F4E6420D6842EA052223F06D
:1017CC0020038D6843EA05130E4DA84209D00D4D38
:1017DC00A8420ED0446082614A688263036230BCC6
:1017EC00704723F08003CD6843EA051323F04003D0
:1017FC00EDE724F440644D6944EA85048D6944EABC
:10180C008504E7E7002C014090F83C30012B28D0F0
:10181C0010B50446012380F83C30022380F83D309B
:10182C000C2A0BD8DFE802F0070A0A0A110A0A0A86
:10183C00150A0A0A19000068FFF7C4FE012384F890
:10184C003D30002084F83C0010BD0068FFF7AAFF73
:10185C00F4E70068FFF7E4FEF0E70068FFF712FF1B
:10186C00ECE70220704738B590F83C30012B66D07D
:10187C000D460446012380F83C30022380F83D30AD
:10188C000C2A1AD8DFE802F00719191920191919AE
:10189C003419191947000068FFF794FE2268936900
:1018AC0043F0080393612268936923F00403936166
:1018BC002268936929690B439361012384F83D30B5
:1018CC00002084F83C0038BD0068FFF76BFF2268ED
:1018DC00936943F4006393612268936923F48063F2
:1018EC00936122689369296943EA01239361E4E7D0
:1018FC000068FFF795FE2268D36943F00803D361B3
:10190C002268D36923F00403D3612268D36929695F
:10191C000B43D361D1E70068FFF7B4FE2268D369AB
:10192C0043F40063D3612268D36923F48063D361E9
:10193C002268D369296943EA0123D361BDE70220F8
:10194C00C1E710B401F01F01012303FA01F4036A8B
:10195C0023EA04030362036A8A401343036210BC44
:10196C007047000010B5044601220068FFF7E9FF3C
:10197C0023680A4A93420BD02268936803F007034A
:10198C00062B03D0136843F001031360002010BD35
:10199C005A6C42F400425A64EEE700BF002C01403E
:1019AC0010B5044601220068FFF7CBFF23680A4AF2
:1019BC0093420BD02268936803F00703062B03D0E5
:1019CC00136843F001031360002010BD5A6C42F4FD
:1019DC0000425A64EEE700BF002C014090F83C3006
:1019EC00012B1CD070B4012680F83C60022380F8D7
:1019FC003D3002685568936825F070050C682C43DF
:101A0C0023F080054B682B4354600268936080F888
:101A1C003D60002380F83C30184670BC70470220B3
:101A2C0070470268D36823F49073D36002685369DB
:101A3C0023F001035361202380F83A30704790F86B
:101A4C003930DBB2212B2AD18368B3F5805F16D0F5
:101A5C00036A5A1C02621A7803685A60C38C013BF1
:101A6C009BB2C384EBB90268D36823F08003D360C4
:101A7C000268D36843F04003D36000207047036AC8
:101A8C001B880268C3F30803536003691BB9036A1C
:101A9C0002330362E2E7036A01330362DEE70220EA
:101AAC00704700207047000038B50446026813697F
:101ABC0023F44053C1680B431361836802691343D9
:101ACC0042691A430168CB6823F4B05323F00C032A
:101ADC001343CB600268536923F4407381690B4351
:101AEC0053610268214B9A421FD0FFF743FC00EB75
:101AFC00800000EB800063689B00B0FBF3F01C4D92
:101B0C00A5FB00325109642202FB1102130132338E
:101B1C00A5FB03235B0903F0F00202EB011203F0B7
:101B2C000F03216813448B6038BDFFF733FC00EBC7
:101B3C00800000EB800063689B00B0FBF3F00C4D61
:101B4C00A5FB00325109642202FB1102130132334E
:101B5C00A5FB03235B0903F0F00202EB011203F077
:101B6C000F03216813448B60DEE700BF003801408F
:101B7C001F85EB512DE9F04105460F461646984658
:101B8C00069C2B681B6837EA03030CBF0123002358
:101B9C00B3421DD1B4F1FF3FF3D02CB1FEF71CFBC7
:101BAC00A0EB0800A042ECD92A68D36823F4D073C8
:101BBC00D3602A68536923F001035361202385F80D
:101BCC00393085F83A30002385F83830032000E0AE
:101BDC000020BDE8F08158B310B5044690F83930B8
:101BEC000BB3242384F839302268D36823F40053D0
:101BFC00D3602046FFF758FF2268136923F4904303
:101C0C0013612268536923F02A0353612268D36855
:101C1C0043F40053D3600020E063202384F8393070
:101C2C0084F83A3010BD80F8383000F085FCD8E7E5
:101C3C00012070472DE9F04182B01E4690F83930F2
:101C4C00DBB2202B55D104460D469046002955D0C9
:101C5C00002A55D090F83830012B53D0012380F84E
:101C6C0038300023C363212380F83930FEF7B4FAEF
:101C7C000746A4F82480A4F8268010E000963B4682
:101C8C00002280212046FFF775FF00283CD12B88CD
:101C9C002268C3F3080353602369C3B90235E38C8C
:101CAC009BB2B3B1E38C013B9BB2E384A368B3F565
:101CBC00805FE3D000963B46002280212046FFF750
:101CCC0059FF18BB2A7823685A600135E7E70135BC
:101CDC00E5E700963B46002240212046FFF74AFFED
:101CEC000346A8B9202284F83920002284F8382031
:101CFC0000E00223184602B0BDE8F0810123F9E7A9
:101D0C000123F7E70223F5E70323F3E70323F1E7C6
:101D1C000323EFE72DE9F04182B01E4690F83A30EC
:101D2C00DBB2202B5AD104460D469046002959D0DF
:101D3C00002A59D090F83830012B57D0012380F865
:101D4C0038300023C363222380F83A30FEF744FA7C
:101D5C000746A4F82C80A4F82E801DE000963B4684
:101D6C00002220212046FFF705FF002840D12369DF
:101D7C0033B923685B68C3F3080325F8023B0BE017
:101D8C0023685B68DBB225F8013B05E023685B68E0
:101D9C0003F07F032B700135E38D9BB2BBB1E38D58
:101DAC00013B9BB2E385A368B3F5805FD6D0009668
:101DBC003B46002220212046FFF7DCFED0B92369E8
:101DCC00002BE3D123685B682B700135E4E72023FB
:101DDC0084F83A30002084F8380000E0022002B089
:101DEC00BDE8F0810120FAE70120F8E70220F6E7D0
:101DFC000320F4E70320F2E7704708B50168CB68CD
:101E0C0023F04003CB60202380F83930FFF7F4FF38
:101E1C00002008BD704708B590F83A30DBB2222B91
:101E2C0045D18368B3F5805F0ED0036903BB0368AB
:101E3C005A68836A591C81621A70C38D013B9BB22C
:101E4C00C385F3B1002033E0826A036943B90368A8
:101E5C005B68C3F308031380836A02338362ECE785
:101E6C0003685B68DBB21380836A01338362E4E747
:101E7C0003685B68826A511C816203F07F031370F4
:101E8C00DBE70268D36823F02003D3600268D368D1
:101E9C0023F48073D3600268536923F00103536108
:101EAC00202380F83A30FFF7B5FF002000E0022035
:101EBC0008BD704710B5044602681368D1685269B2
:101ECC0013F00F0005D113F0200F02D011F0200FEA
:101EDC0053D1002867D012F0010202D111F4907F87
:101EEC0061D013F0010F06D011F4807F03D0E06BAA
:101EFC0040F00100E06313F0040F04D01AB1E06B62
:101F0C0040F00200E06313F0020F04D01AB1E06B52
:101F1C0040F00400E06313F0080F04D01AB1E26B38
:101F2C0042F00802E263E26B002A48D013F0200F63
:101F3C0002D011F0200F24D123685B6903F0400319
:101F4C00E26B12F0080F00D13BB32046FFF769FD9E
:101F5C0023685A6912F0400F1BD05A6922F04002D4
:101F6C005A61636B8BB11A4A5A63606BFEF712FDB0
:101F7C0028B3606B436B984721E02046FFF74BFF7B
:101F8C001DE02046FFF747FFD6E72046FFF791FFFD
:101F9C0015E02046FFF78DFF11E02046FFF789FF83
:101FAC000023E3630BE013F0800F02D011F0800FDD
:101FBC0006D113F0400F02D011F0400F04D110BD28
:101FCC002046FFF73CFDFAE72046FFF716FFF6E741
:101FDC00E11F000808B5406A0023C385C384FFF7DE
:101FEC0068FF08BD08B5094803F07BFE084803F0FC
:101FFC0078FE084803F075FE074803F072FE0748A8
:10200C0003F06FFE064800F0F3FB08BDC062000849
:10201C0044630008A86300084C6400086C6A00085C
:10202C000402002010B582B0684603F0A9FC9DF8AC
:10203C00000004F0C3F8C4B20DF1010003F0ADFED2
:10204C00021E03DB632A02DD632200E00022232C44
:10205C0008D02146084800F079FB074800F0C8FB7F
:10206C0002B010BD1146044800F044FB0028F4D027
:10207C00024A1060F1E700BF04020020FC010020BE
:10208C0070B588B000240494059406940794214BF1
:10209C009A6942F010029A619A6902F01002009259
:1020AC00009A9A6942F020029A619A6902F0200221
:1020BC000192019A9A6942F008029A619A6902F0B7
:1020CC0008020292029A9A6942F004029A619B6990
:1020DC0003F004030393039B0F4D22464FF400516E
:1020EC002846FEF731FE4FF4005304930126059663
:1020FC0006940223079304A92846FEF739FD4FF4F2
:10210C00004304930594069604A92846FEF730FD77
:10211C0008B070BD001002400010014000B583B043
:10212C000A4B5A6942F001025A615B6903F00103E0
:10213C000193019B002211460B20FEF74DFB0B2057
:10214C00FEF77EFB03B05DF804FB00BF00100240FD
:10215C0070B584B000250195029503950C4C0D4B80
:10216C002360A560257325754FF4C023E36165607A
:10217C00012626612046FEF71FFA082301930296DA
:10218C00039501A92046FEF77DF804B070BD00BF91
:10219C00A00300200024014030B58BB0002408942B
:1021AC00099401940294039404940594069407945E
:1021BC00104D4FF080432B606C60AC601123EB60D2
:1021CC002C61AC612846FFF7BBFA5023089380239F
:1021DC00099308A92846FFF701FC302301930294C8
:1021EC000394059404220DEB02012846FFF70CFB27
:1021FC000BB030BD5404002008B50848084B0360F0
:10220C004FF41653436000238360C36003610C22B8
:10221C0042618361C361FFF7DEFC08BDD00300207F
:10222C000038014030B58BB0002408940994019417
:10223C00029403940494059406940794144D154B3E
:10224C002B606C60AC60FF23EB602C618023AB6176
:10225C002846FFF78EFA0894099408A92846FFF738
:10226C00BDFB602301937F230293039405942246C4
:10227C0001A92846FFF7F7FA04220DEB02012846C4
:10228C00FFF7F1FA284600F023F90BB030BD00BF80
:10229C00600300200004004030B595B000240C947D
:1022AC000D940F9410940594069407940894099433
:1022BC00019402940394049401220A924FF4803303
:1022CC000B930E920225119512934FF4E013139376
:1022DC000AA8FEF755FD0F230593069507944FF4B6
:1022EC00806308930994294605A8FEF789FF019598
:1022FC00039401A8FFF75EF815B030BD08B5FDF7E3
:10230C004DFFFFF7C9FFFFF7BBFEFFF707FFFFF716
:10231C001FFFFFF741FFFFF76FFFFFF783FF00F091
:10232C0011F8002008BD704710B50446044B18681E
:10233C000368DB6821469847204403F08DF910BDF3
:10234C00FC01002008B54FF47A5003F05FFB02F05B
:10235C00CFFD01210C4800F0CDF90C4B186003F0B7
:10236C006DF903F087F90A4803F0BBFCFFF73AFE5E
:10237C004FF47A70FDF736FF064A1378013B137061
:10238C00FFF750FEFCE700BF04020020FC01002018
:10239C00C46400080C00002082B00E4B9A6942F015
:1023AC0001029A619A6902F001020092009ADA69BC
:1023BC0042F08052DA61DB6903F080530193019B98
:1023CC00054A536823F0E06343F00073536002B096
:1023DC00704700BF001002400000014010B586B0ED
:1023EC000023029303930493059302681F4B9A42B4
:1023FC0001D006B010BD044603F56C439A6942F453
:10240C0000729A619A6902F400720092009A9A69B9
:10241C0042F008029A619B6903F008030193019B47
:10242C00012302930323039302A91148FEF7A0FB97
:10243C001048114B03600023436083608023C3600A
:10244C004FF4807303614FF48063436120238361F5
:10245C004FF40053C361FEF72DFA18B9054B2362F4
:10246C005C62C6E7FFF75FFFF8E700BF002401409E
:10247C00000C014010040020080002400368B3F176
:10248C00804F00D0704782B003F50433DA6942F014
:10249C000102DA61DB6903F001030193019B02B0D5
:1024AC00704700000268094B9A4200D0704782B016
:1024BC0003F50333DA6942F00202DA61DB6903F0F7
:1024CC0002030193019B02B0704700BF000400405F
:1024DC0000B587B00023029303930493059302681D
:1024EC00124B9A4202D007B05DF804FB03F503339C
:1024FC009A6942F008029A619B6903F00803019300
:10250C00019B30230293022303930323059302A917
:10251C000748FEF72DFB074A536823F4406343F04A
:10252C00E06343F400635360DDE700BF0004004048
:10253C00000C01400000014070B586B000230293EE
:10254C0003930493059302681B4B9A4201D006B087
:10255C0070BD03F558439A6942F480429A619A69B6
:10256C0002F480420092009A9A6942F004029A6145
:10257C009B6903F004030193019B4FF400730293D6
:10258C0002250395032305930C4E02A93046FEF752
:10259C00EFFA4FF48063029300240394049402A98D
:1025AC003046FEF7E5FA224629462520FEF714F9B7
:1025BC002520FEF745F9CAE7003801400008014024
:1025CC007047FEE7FEE7FEE7FEE77047704770478F
:1025DC0008B5FDF7F5FD08BD08B50248FEF726FA6B
:1025EC0008BD00BF1004002008B50248FFF762FCCC
:1025FC0008BD00BFD00300200120704708B503F0D0
:10260C00D1FB162303604FF0FF3008BD08B54FF027
:10261C00FF31FFF7F3FFFEE708B503460B4A1268DC
:10262C0042B10A4A106803446A46934206D8074AE4
:10263C00136008BD054A06491160F2E703F0B2FBCE
:10264C000C2303604FF0FF30F3E700BF00020020C3
:10265C00980400200F4B1A6842F001021A60596866
:10266C000D4A0A405A601A6822F0847222F48032B1
:10267C001A601A6822F480221A605A6822F4FE0248
:10268C005A604FF41F029A60044B4FF000629A603C
:10269C00704700BF001002400000FFF800ED00E0A2
:1026AC0038B5044600230360416071B10D461846ED
:1026BC000BB103F04AFB002323606560084B9D427D
:1026CC000AD8A80003F043FB20600023A3604FF05E
:1026DC00FF33E360204638BD4FF0FF30F2E700BF18
:1026EC00FEFFFF1F8268036843F8221083680133E2
:1026FC008360704738B50D1E21DB8368AB4220DD4B
:10270C000446114A137801331370C368002B05DBA0
:10271C00026852F823000368DB689847E560236879
:10272C0053F8250003689B689847044603681B6DA3
:10273C009847054A1378013B1370204638BD002496
:10274C00FBE70024F9E700BF0C000020C368002B56
:10275C000DDB10B58468A34208DA006800EB830433
:10276C0024B150F8230003685B69984710BD70478B
:10277C0070B506460024254600E00134B368A34238
:10278C001ADD164803F094FA0A21204603F099FA50
:10279C00134803F08DFA336853F8240003689B69DF
:1027AC009847104803F084FA0135032DE5D10E4803
:1027BC0003F097FA0025E0E70B4803F092FA0B4B75
:1027CC0083FB0523A3EBE57303EB43039D4200D18D
:1027DC0070BD054803F085FAFAE700BF08650008EC
:1027EC000C650008106500086C6A000856555555B4
:1027FC0010B50446FFF7BCFF0D4803F059FA0A2147
:10280C00E06803F05EFA0B4803F052FAE2682368C2
:10281C0053F8220003689B699847074803F061FA54
:10282C00E268236853F8220003681B69984710BDBF
:10283C00086500080C6500086C6A000870470020E9
:10284C0070477047002070477047002070477047F2
:10285C000020704770470020704770470020704779
:10286C00704700207047704700207047436843B1A1
:10287C0010B504461A6892681846904700236360A6
:10288C0010BD704708B503685B68984708BD00BF6A
:10289C0000207047704700207047704708B50368E8
:1028AC005B68984708BD09B2418181817047B0F9D6
:1028BC000A00704709B2418281827047B0F9120058
:1028CC00704709B28180C1807047B0F9040070472D
:1028DC0049F6404303FB01F10D4B83FB0123C91760
:1028EC00C1EBA311036A013B00290FDD99420BDCFC
:1028FC00084A1288013901FB02F1013B91FBF3F10B
:10290C0009B28180C18070471946F1E70121EFE7D8
:10291C00D34D6210626C0008B0F90410094B1A8890
:10292C00036A023B03FB01F393FBF2F04FF47A735F
:10293C0000FB0333044880FB0320DB17C3EBA03000
:10294C00704700BF626C0008AD8BDB6810207047CD
:10295C0030B4036A013B2BB1C269002122F8131079
:10296C00013BF8E7C36900221A80B0F90650134BFB
:10297C001C88016A4A1E531E03FB05F393FBF4F3F8
:10298C00013300D101239A4200D31A46C262436A32
:10299C009B1ADB038362002B0ADBDA13002A09DBA8
:1029AC00B0F90C30C381B0F91430C38230BC70471D
:1029BC00DA13F3E703EBC1338362F1E7626C0008CF
:1029CC0008B54D2926D0542902D0462911D008BD6E
:1029DC000272406803681B6A1749098801FB02F2FE
:1029EC00164981FB02C11144D217C2EBA1119847C1
:1029FC00EDE74272406803681B690F49098801FBC7
:102A0C0002F20E4981FB02C11144D217C2EBA11193
:102A1C009847DCE78272406803689B69064909881D
:102A2C0001FB02F2054981FB02C11144D217C2EB32
:102A3C00A1119847CBE700BF626C000803B57EA5D7
:102A4C0008B503685B68984708BD09B2418181816C
:102A5C007047B0F90A00704709B241828182704711
:102A6C00B0F912007047B0F904007047B0F90410C7
:102A7C00094B1A88036A023B03FB01F393FBF2F048
:102A8C004FF47A7300FB0333044880FB0320DB17FD
:102A9C00C3EB6030704700BF626C0008AD8BDB6825
:102AAC000120704730B4036A013B2BB1C26900218D
:102ABC0022F81310013BF8E7C36900221A80B0F921
:102ACC000650134B1C88016A4A1E531E03FB05F368
:102ADC0093FBF4F3013300D101239A4200D31A463D
:102AEC00C262436A9B1ADB038362002B0ADBDA1394
:102AFC00002A09DBB0F90C30C381B0F91430C38261
:102B0C0030BC7047DA13F3E703EBC1338362F1E7B0
:102B1C00626C000808B54D2926D0542902D04629EC
:102B2C0011D008BD0272406803681B6A17490988F6
:102B3C0001FB02F2164981FB02C11144D217C2EB10
:102B4C00A1119847EDE74272406803681B690F4971
:102B5C00098801FB02F20E4981FB02C11144D21714
:102B6C00C2EBA1119847DCE78272406803689B694D
:102B7C000649098801FB02F2054981FB02C1114497
:102B8C00D217C2EBA1119847CBE700BF626C0008CB
:102B9C0003B57EA508B503685B68984708BD09B204
:102BAC00418181817047B0F90A00704709B24182B6
:102BBC0081827047B0F9120070470000064B1A88EA
:102BCC00036A023B01FB03F191FBF2F1013109B203
:102BDC008180C180704700BF626C0008B0F906307C
:102BEC00006A044A1288013B03FB02F3023893FB90
:102BFC00F0F07047626C00080E20704708B54D2944
:102C0C0026D0542902D0462911D008BD0272406842
:102C1C0003681B6A1749098801FB02F2164981FBFC
:102C2C0002C11144D217C2EBA1119847EDE74272D1
:102C3C00406803681B690F49098801FB02F20E49C1
:102C4C0081FB02C11144D217C2EBA1119847DCE7FA
:102C5C008272406803689B690649098801FB02F28D
:102C6C00054981FB02C11144D217C2EBA11198474F
:102C7C00CBE700BF626C000803B57EA508B50368FE
:102C8C005B68984708BD09B2018141817047B0F972
:102C9C000800704709B2018241827047B0F91000F8
:102CAC007047000010B50D4B83FB0123C917C1EB16
:102CBC00A30101EB81014C00094B1988C269931ED9
:102CCC0003FB04F393FBF1F3013342689A4203D004
:102CDC00436003681B6D984710BD00BF676666664E
:102CEC00626C0008C269054B19884368013B03FB01
:102CFC0001F3901E93FBF0F0704700BF626C00086C
:102D0C000D20704708B54D2926D0542902D04629EC
:102D1C0011D008BD0272406803681B6A1749098804
:102D2C0001FB02F2164981FB02C11144D217C2EB1E
:102D3C00A1119847EDE74272406803681B690F497F
:102D4C00098801FB02F20E4981FB02C11144D21722
:102D5C00C2EBA1119847DCE78272406803689B695B
:102D6C000649098801FB02F2054981FB02C11144A5
:102D7C00D217C2EBA1119847CBE700BF626C0008D9
:102D8C0003B57EA508B503685B68984708BD0000CD
:102D9C0010B4084B1A88D300074C84FB03439B10D8
:102DAC0001FB03F191FBF2F109B20181418110BCED
:102DBC00704700BF626C000867666666B0F9082051
:102DCC00054B1888C300054981FB03139B1000FBBE
:102DDC0002F090FBF3F07047626C00086766666661
:102DEC0009B2018241827047B0F9100070470000AF
:102DFC0010B5074B1C88C369033B01FB03F393FB22
:102E0C00F4F30233436003681B6D984710BD00BF99
:102E1C00626C0008C269054B19884368023B03FBCE
:102E2C0001F3D01E93FBF0F0704700BF626C0008FA
:102E3C000C20704708B54D2926D0542902D04629BC
:102E4C0011D008BD0272406803681B6A17490988D3
:102E5C0001FB02F2164981FB02C11144D217C2EBED
:102E6C00A1119847EDE74272406803681B690F494E
:102E7C00098801FB02F20E4981FB02C11144D217F1
:102E8C00C2EBA1119847DCE78272406803689B692A
:102E9C000649098801FB02F2054981FB02C1114474
:102EAC00D217C2EBA1119847CBE700BF626C0008A8
:102EBC0003B57EA508B503685B68984708BD09B2E1
:102ECC008181C1817047B0F90C00704709B28182D1
:102EDC00C1827047B0F914007047B0F90400704714
:102EEC00B0F90410094B1A88036A023B03FB01F387
:102EFC0093FBF2F04FF47A7300FB0333044880FB2E
:102F0C000320DB17C3EB6030704700BF626C000816
:102F1C00AD8BDB6802207047002383620123C36200
:102F2C00036A013B2BB1C269002122F81310013B4B
:102F3C00F8E7C36900221A80B0F906300381B0F9B2
:102F4C000E300382B0F916300383704708B54D2953
:102F5C0026D0542902D0462911D008BD02724068EF
:102F6C0003681B6A1749098801FB02F2164981FBA9
:102F7C0002C11144D217C2EBA1119847EDE742727E
:102F8C00406803681B690F49098801FB02F20E496E
:102F9C0081FB02C11144D217C2EBA1119847DCE7A7
:102FAC008272406803689B690649098801FB02F23A
:102FBC00054981FB02C11144D217C2EBA1119847FC
:102FCC00CBE700BF626C000803B57EA508B50368AB
:102FDC005B68984708BD09B28181C1817047B0F91F
:102FEC000C00704709B28182C1827047B0F914009D
:102FFC0070470000064B1A88036A653B01FB03F11E
:10300C0091FBF2F1643109B28180C180704700BF3D
:10301C00626C0008B0F9040070470F207047000084
:10302C0008B54D2926D0542902D0462911D008BD07
:10303C000272406803681B6A1749098801FB02F297
:10304C00164981FB02C11144D217C2EBA11198475A
:10305C00EDE74272406803681B690F49098801FB60
:10306C0002F20E4981FB02C11144D217C2EBA1112D
:10307C009847DCE78272406803689B6906490988B7
:10308C0001FB02F2054981FB02C11144D217C2EBCC
:10309C00A1119847CBE700BF626C000803B57EA571
:1030AC0008B503685B68984708BDB0F92000704705
:1030BC0009B2018541857047B0F928007047B0F915
:1030CC003000704709B2018741877047B0F938006A
:1030DC00704709B2A0F84010A0F842107047B0F940
:1030EC00400070470720704700234361B0F922303D
:1030FC008384B0F92A308385B0F932308386B0F9F5
:10310C003A308387B0F94230A0F844308368013BF1
:10311C002BB14268002122F81310013BF8E74368F9
:10312C0000221A807047000008B5443910291AD8BB
:10313C00DFE801F04D191A1919191919192B191958
:10314C0019193C1909000272406803689B692849E7
:10315C00098801FB02F2274981FB02C11144D217F5
:10316C00C2EBA111984708BD4272406803689B6A84
:10317C001F49098801FB02F21E4981FB02C111445F
:10318C00D217C2EBA1119847EDE782724068036831
:10319C001B6B1749098801FB02F2164981FB02C11E
:1031AC001144D217C2EBA1119847DCE7C2724068F8
:1031BC0003681B690E49098801FB02F20D4981FB6A
:1031CC0002C11144D217C2EBA1119847CBE702738D
:1031DC00406803681B6A0649098801FB02F205492D
:1031EC0081FB02C11144D217C2EBA1119847BAE777
:1031FC00626C000803B57EA5704770477047704736
:10320C0070477047704770477047704708B5024861
:10321C0002F04EFD08BD00BFB869000808B50248B1
:10322C0002F046FD08BD00BFDC69000808B5024885
:10323C0002F03EFD08BD00BFCC69000808B502488D
:10324C0002F036FD08BD00BF1C6A000808B5024834
:10325C0002F02EFD08BD00BF306A000808B5024818
:10326C0002F026FD08BD00BF586A000808B50248E8
:10327C0002F01EFD08BD00BF486A000808B50248F0
:10328C0002F016FD08BD00BFA46A000808B502488C
:10329C0002F00EFD08BD00BF706A000808B50248B8
:1032AC0002F01FFD08BD00BFC069000810B5044640
:1032BC00042002F050FD024A0260606010BD00BFA5
:1032CC001C65000810B50446042102F042FD20469E
:1032DC0010BD10B50446082102F03BFD204610BD80
:1032EC0010B504460C2102F034FD204610BD10B57B
:1032FC0004460C2102F02DFD204610BD10B50446ED
:10330C000C2102F026FD204610BD10B504460C2100
:10331C0002F01FFD204610BD10B504460C2102F032
:10332C0018FD204610BD10B504460C2102F011FD0D
:10333C00204610BD10B504460C2102F00AFD2046B3
:10334C0010BD10B50446102102F003FD204610BD3F
:10335C0010B504460C4802F0ABFC0A2194F90800A5
:10336C0002F0C6FC094802F0A3FC0A2194F90900FA
:10337C0002F0BEFC064802F09BFC0A2194F90A00FC
:10338C0002F0B6FC10BD00BFEC690008FC69000837
:10339C000C6A000810B504460C4802F089FC0A219E
:1033AC0094F9080002F0A4FC094802F081FC0A21FF
:1033BC0094F9090002F09CFC064802F079FC0A2101
:1033CC0094F90A0002F094FC10BD00BFEC690008EF
:1033DC00FC6900080C6A000810B504460C4802F0A1
:1033EC0067FC0A2194F9080002F082FC094802F0FB
:1033FC005FFC0A2194F9090002F07AFC064802F0FD
:10340C0057FC0A2194F90A0002F072FC10BD00BFAF
:10341C00EC690008FC6900080C6A000810B5044649
:10342C000C4802F045FC0A2194F9080002F060FCFB
:10343C00094802F03DFC0A2194F9090002F058FCFD
:10344C00064802F035FC0A2194F90A0002F050FCFF
:10345C0010BD00BFEC690008FC6900080C6A00088C
:10346C0010B504460C4802F023FC0A2194F908001C
:10347C0002F03EFC094802F01BFC0A2194F90900F9
:10348C0002F036FC064802F013FC0A2194F90A00FB
:10349C0002F02EFC10BD00BFEC690008FC690008AE
:1034AC000C6A000810B504460C4802F001FC0A2115
:1034BC0094F9080002F01CFC094802F0F9FB0A21FF
:1034CC0094F9090002F014FC064802F0F1FB0A2101
:1034DC0094F90A0002F00CFC10BD00BFEC69000866
:1034EC00FC6900080C6A000810B504460C4802F090
:1034FC00DFFB0A2194F9080002F0FAFB094802F0FC
:10350C00D7FB0A2194F9090002F0F2FB064802F0FD
:10351C00CFFB0A2194F90A0002F0EAFB10BD00BFB0
:10352C00EC690008FC6900080C6A000810B5044638
:10353C00144802F0BDFB0A2194F9080002F0D8FBF4
:10354C00114802F0B5FB0A2194F90B0002F0D0FBF4
:10355C000E4802F0ADFB0A2194F90C0002F0C8FBF6
:10356C000B4802F0A5FB0A2194F9090002F0C0FBFC
:10357C00084802F09DFB0A2194F90A0002F0B8FBFE
:10358C0010BD00BFEC690008846A0008946A00084A
:10359C00FC6900080C6A0008F8B5054600F15806ED
:1035AC0000F18004303002F0E6FAA36833B1012B4D
:1035BC004DD06168304602F0DEFAF8BDD5F88020B7
:1035CC00E368C2F8943002F11C05B2F906C04E4B08
:1035DC001F88116A01394B1E03FB0CF393FBF7F3A5
:1035EC00013300D10123994222D2D162EB68002B26
:1035FC0020DBD913D76937F911C0AF687F1A394668
:10360C00002F1CDBC9032F6991FBF7F10B44EB6016
:10361C00002B17DBD9136F68B94202D3A3EBC73366
:10362C00EB60C2F89CC02061A3680133A360C0E7C3
:10363C001946DAE703F5FF477F37F913DAE76968CC
:10364C003944DFE703F5FF417F31C913E3E7D5F8D0
:10365C008030D3F89C70B3F90E20B3F90C108A4269
:10366C0001DA0132DA81B3F90E20914201DA013A22
:10367C00DA81B3F90E1001FB07F1244D85FB01250E
:10368C000D44C917C1EBE521D3F89420511AC3F8A6
:10369C009410B3F91620B3F91450AA4201DA01328E
:1036AC00DA82B3F91620954201DA013ADA82B3F9DB
:1036BC00162002FB07F2154D85FB02751544D21737
:1036CC00C2EBE52201F30F01C3F8941002F30F02D1
:1036DC00C3F898205D6ADA6922F815105A6A01322B
:1036EC005A62196A8A420CD0D3F898306360236905
:1036FC001844206100EBD0704010E0600023A36000
:10370C0057E700225A62EFE7626C000881000880DC
:10371C00F8B5054600F15C0600F18404343002F083
:10372C002AFAA36833B1012B76D06168304602F0D7
:10373C0022FAF8BDD5F88450E368C5F8983005F145
:10374C001C0CB5F90830B5F90620934201DA0133A7
:10375C002B81B5F908309A4201DA013B2B81B5F97E
:10376C0008707F4B19882A6AA2F1650303FB07F3E3
:10377C0093FBF1F36433DCF80420934200DD531E19
:10378C00002B12DDDCF808209A4210DDE96901EB10
:10379C004301DCF80020DCF8087002EB47028A4297
:1037AC0005D9002221F8022BF3E70123EAE7CCF834
:1037BC000830DCF80C20934202DC013BCCF80C30D6
:1037CC00A96A6B6A95F930209B1A0133994207D08C
:1037DC00931E994212D02061A3680133A360A4E721
:1037EC00EB6A002BF4DDD3B2013B85F83130FF23BB
:1037FC0085F83230012385F83330E9E7EB6A002B8A
:10380C00E9DAD3B2013B85F83130FF2385F8323049
:10381C00012385F83330DEE7D5F88430996ADA690C
:10382C0032F91150C3F8A05093F83320A2B193F998
:10383C00311001FB05F293F9307092FBF7F593F917
:10384C003220114449B283F83110B2F1FF3F64D0F9
:10385C0093F93220012A66D0C3F8A050B3F9102096
:10386C00B3F90E108A4201DA01321A82B3F9102030
:10387C00914201DA013A1A82B3F9101001FB05F1F9
:10388C00384A82FB01720A44C917C1EBE221D3F812
:10389C009820511AC3F89810B3F91820B3F9167080
:1038AC00BA4201DA01321A83B3F91820974201DACD
:1038BC00013A1A83B3F9182002FB05F2294D85FB56
:1038CC0002751544D217C2EBE52201F30F01C3F8C0
:1038DC00981002F30F02C3F89C2003F11C0209B2EA
:1038EC00D7689568AF4203DB0025D56001251561CB
:1038FC00D568002D1DDBD768DD6925F81710116917
:10390C00D5682944D1609568A94217DA00291ADADA
:10391C000021D1600121116115E0002998D101220B
:10392C0083F8322094E78F4296D1002283F833201B
:10393C0092E70025D56001251561DCE7013DD560D6
:10394C004FF0FF311161D3F89C3063602369184448
:10395C00206100EBD0704010E0600023A360E4E62F
:10396C00626C00088100088010B50446034B0360AC
:10397C00806908B102F068F8204610BD2C67000879
:10398C0010B50446054B0360806908B102F05CF881
:10399C00A821204602F0DDF9204610BD2C67000856
:1039AC0010B50446034B0360806908B102F04CF873
:1039BC00204610BDB067000810B50446054B0360E7
:1039CC00806908B102F040F8B021204602F0C1F93C
:1039DC00204610BDB067000810B50446034B0360C9
:1039EC00C06908B102F030F8204610BDA06500088F
:1039FC0010B50446054B0360C06908B102F024F809
:103A0C008021204602F0A5F9204610BDA0650008D3
:103A1C0010B50446034B0360C06908B102F014F8FA
:103A2C00204610BD2466000810B50446054B036003
:103A3C00C06908B102F008F8A021204602F089F90B
:103A4C00204610BD2466000810B50446034B0360E5
:103A5C00C06908B101F0F8FF204610BD34680008B9
:103A6C0010B50446054B0360C06908B101F0ECFFCA
:103A7C00A421204602F06DF9204610BD34680008E0
:103A8C0010B50446034B0360406808B101F0DCFF3D
:103A9C00204610BD3C69000810B50446054B036078
:103AAC00406808B101F0D0FFBC21204602F051F96A
:103ABC00204610BD3C69000810B50446034B03605A
:103ACC00C06908B101F0C0FF204610BDA86600080F
:103ADC0010B50446054B0360C06908B101F0B4FF92
:103AEC00A021204602F035F9204610BDA86600083A
:103AFC0010B50446034B0360C06908B101F0A4FF84
:103B0C00204610BDB868000810B50446054B03608C
:103B1C00C06908B101F098FFA421204602F019F900
:103B2C00204610BDB8680008F8B50646A42002F07F
:103B3C0012F90446434B036000238380C380038146
:103B4C008381C38103828382C382038300F11C07B8
:103B5C00C3614FF4FA530362002008B101F074FF03
:103B6C000025E5614FF4FA50786001F05DFFE061EB
:103B7C00236A6362A5620123E362282384F8303050
:103B8C0084F8313084F8325084F833502564A564BD
:103B9C00E56425656565A565A56625676567A56703
:103BAC00E567C4F88050C4F88440C4F88850C4F861
:103BBC008C50C4F89050C4F89450C4F89850C4F881
:103BCC009C50C4F8A05042F26663636344F6CD4146
:103BDC00A163E36341F69A126264E365216663664E
:103BEC00E266746096F908302268126A16490D88EC
:103BFC0005FB03F3154F87FB03011944DB17C3EBDC
:103C0C00A1112046904796F9093070680268126934
:103C1C0005FB03F387FB03411944DB17C3EBA1112D
:103C2C00904796F90A10706803689B6905FB01F5CB
:103C3C0087FB05212944ED17C5EBA1119847706846
:103C4C00F8BD00BFB8680008626C000803B57EA51B
:103C5C0010B50446B0F90C30C381B0F91430C382EE
:103C6C00B0F9061001B90121206A421E8A4200D324
:103C7C000A46E262636A9B1ADB03A362002B0DDB2C
:103C8C00DA13002A0CDB002001F0F4FE0023226A78
:103C9C009A4209D9E269D0540133F8E7DA13F0E714
:103CAC0003EBC033A362EEE704F1300001F0C2FF76
:103CBC0004F1580001F0BEFF0023C4F89C30C4F896
:103CCC009830C4F89430C4F89030C4F88C30C4F8F0
:103CDC008830C4F8843010BD2DE9F047054600F15A
:103CEC00580700F18004303001F045FF0646A36808
:103CFC003BB1012B58D06168384601F03CFFBDE860
:103D0C00F087D5F88050E368C5F8943005F11C08AD
:103D1C00B5F9062002B901222B6A013B93422ED23F
:103D2C00EB62D8F80C30002B2BDBDB13EA69D05C90
:103D3C0001F08BFED8F80810D8F80C30002B25DBDE
:103D4C00DA13891A0A46002925DBD203D8F8101099
:103D5C0092FBF1F21344C8F80C30002B1FDBDA1382
:103D6C00D8F804108A4203D3A3EBC133C8F80C3043
:103D7C00C5F89C002661A3680133A360BBE713461A
:103D8C00CEE703F5FF437F33DB13CFE703F5FF42A9
:103D9C007F32D213D5E7D8F804200A44D5E703F5CF
:103DAC00FF427F32D213DBE7D5F88050D5F89C1058
:103DBC00B5F90E30B5F90C20934201DA0133EB81E1
:103DCC00B5F90E309A4201DA013BEB81B5F90E20C0
:103DDC0002FB01F2254880FB02301044D217C2EBE3
:103DEC00E022D5F894000244C5F89420B5F91630B9
:103DFC00B5F91400834201DA0133EB82B5F91630C0
:103E0C00984201DA013BEB82B5F9163003FB01F362
:103E1C00164981FB03011944DB17C3EBE12302F3C1
:103E2C000F00C5F8940003F30F03C5F89830D5F8CC
:103E3C002490D5F81CA000B201F01CFE0AF8090071
:103E4C006B6A01336B622A6A93420CD0D5F89830B6
:103E5C00636023691E44266106EBD6767610E66015
:103E6C000023A36047E700236B62EFE78100088023
:103E7C0070B50446B0F90A308381B0F912308382F0
:103E8C00383001F0D7FE04F1600001F0D3FE04F1EC
:103E9C00180504F12806304601F0CCFB04F1300083
:103EAC0001F06CFB0021304601F070FB6B685B0885
:103EBC00013B1BB12A68D054013BFAE7A369187087
:103ECC000023C4F8A430C4F8A030C4F89C30C4F863
:103EDC009830C4F89430C4F89030C4F88C3070BD6D
:103EEC0070B50446B0F90A308381B0F91230838280
:103EFC0000F11805426802B90122E369013B9342C3
:103F0C0019D2636205F11006304601F093FB05F1FE
:103F1C00180001F033FB05F1200001F02FFB00210C
:103F2C00304601F033FB6B685B08013B2BB12A6810
:103F3C00D054013BFAE71346E3E7A369187000235A
:103F4C00C4F8AC30C4F8A830C4F8A430C4F8A0301D
:103F5C00C4F89C30C4F89830C4F8943070BD00009C
:103F6C002DE9F843054601EB41018B00614981FBCA
:103F7C000321DB1700F1600700F18804C3EBA101FA
:103F8C00383001F0F8FD0646A3683BB1012B37D061
:103F9C006168384601F0EFFDBDE8F883D5F888502C
:103FAC00E368C5F89C3005F118006A6802B9012273
:103FBC00EB69013B93421AD26B628368C2689B1A0D
:103FCC001A46002B15DB1830A969530812F0010FA3
:103FDC0012D1C95C090901F091FA00F30F0000B28B
:103FEC00C5F8A4002661A3680133A360D0E713468B
:103FFC00E2E742681A44E6E7C95C01F00F01EAE720
:10400C00D5F88850D5F8A400B5F90C30B5F90A20CC
:10401C00934201DA0133AB81B5F90C309A4201DAE3
:10402C00013BAB81B5F90C2002FB00F2324981FB5C
:10403C0002311144D217C2EBE122D5F89C100A448C
:10404C00C5F89C20B5F91430B5F912108B4201DA81
:10405C000133AB82B5F91430994201DA013BAB82E2
:10406C00B5F9143003FB00F3234981FB0301194418
:10407C00DB17C3EBE12302F30F01C5F89C1003F32C
:10408C000F03C5F8A03005F11808D8F8089009B24C
:10409C0005F1280001F07AFA00F00F00AA694FEA46
:1040AC00590319F0010F1AD0D15C01F0F00108434B
:1040BC00D054D8F808300133C8F80830D8F80420A8
:1040CC00934212D0D5F8A030636023691E44266158
:1040DC0006EBD6767610E6600023A36058E7D1563F
:1040EC0001F00F0141EA0010E2E70023C8F80830A4
:1040FC00E8E700BF67666666810008802DE9F84333
:10410C00054600F1680700F19004403001F033FDE2
:10411C000646A3683BB1012B58D06168384601F0C4
:10412C002AFDBDE8F883D5F89080E368C8F8A43080
:10413C0008F11805D8F8042002B90122D8F81C306F
:10414C00013B934233D2C8F82430AB68EA689B1A1F
:10415C001A46002B2DDB05F11800D8F8181053085F
:10416C0012F0010F28D0C95C01F00F0101F0C6F963
:10417C008146AB68EA68A3EB52031A46002B1EDBA0
:10418C0005F12000D8F81810530812F0010F19D1BE
:10419C00C95C090901F0B2F9484400F30F0000B200
:1041AC00C8F8AC002661A3680133A360B5E71346D9
:1041BC00C9E76A681A44CEE7C95C0909D6E76A6898
:1041CC001A44DDE7C95C01F00F01E3E7D5F8905024
:1041DC00D5F8AC00B5F90C30B5F90A20934201DAE8
:1041EC000133AB81B5F90C309A4201DA013BAB815A
:1041FC00B5F90C2002FB00F2314981FB023111446C
:10420C00D217C2EBE122D5F8A4108A1AC5F8A42063
:10421C00B5F91430B5F912108B4201DA0133AB82C7
:10422C00B5F91430994201DA013BAB82B5F914307F
:10423C0003FB00F3224981FB03011944DB17C3EB99
:10424C00E12302F30F01C5F8A41003F30F03C5F823
:10425C00A83005F11808D8F8089009B205F1280023
:10426C0001F094F900F00F00AA694FEA590319F014
:10427C00010F1AD0D15C01F0F0010843D054D8F8EA
:10428C0008300133C8F80830D8F80420934212D013
:10429C00D5F8A830636023691E44266106EBD676F8
:1042AC007610E6600023A36037E7D15601F00F01CA
:1042BC0041EA0010E2E70023C8F80830E8E700BF45
:1042CC0081000880F8B50646B02001F044FD044694
:1042DC003F4B03600023436003814381838103824E
:1042EC00438283821D46A3614FF4FA43C3614FF4AA
:1042FC007A5001F099FBA0612562656204F12800F7
:10430C0001F040F904F1300001F0F4F804F1380048
:10431C0001F0F0F8E5646565A565E56525666566FB
:10432C006567E567C4F88050C4F88450C4F88850B9
:10433C00C4F88C50C4F89040C4F89450C4F8985009
:10434C00C4F89C50C4F8A050C4F8A450C4F8A850A9
:10435C00C4F8AC5042F26663236444F6CD41616408
:10436C00A36441F69A122265A366E1662367A267ED
:10437C00746096F908302268126A16490D8805FB9C
:10438C0003F3154F87FB03011944DB17C3EBA11192
:10439C002046904796F9093070680268126905FB4F
:1043AC0003F387FB03411944DB17C3EBA1119047BF
:1043BC0096F90A10706803689B6905FB01F587FB89
:1043CC0005212944ED17C5EBA11198477068F8BD7C
:1043DC00B0670008626C000803B57EA52DE9F84FA4
:1043EC000646343001F068FB834606F18405AB6861
:1043FC004BB1012B00F09480696806F15C0001F070
:10440C005BFBBDE8F88FD6F88440EB68C4F89830B5
:10441C0004F11C02B4F90830B4F906108B4201DA2D
:10442C0001332381B4F90830994201DA013B23812D
:10443C00B4F908005368984200DD581E00280DDDC1
:10444C00936883420CDDE1690144176893681F444B
:10445C008F4205D9002301F8013BF6E70120EFE775
:10446C009060D368984201DC431ED360A26A636AF1
:10447C0094F930105B1A01339A4229D08B1E9A4260
:10448C0034D0E369985C01F0E0FA0246C4F8A0006D
:10449C0094F83330A3B194F9313003FB00F094F964
:1044AC0030C090FBFCF294F932100B445BB284F8F0
:1044BC003130B1F1FF3F27D094F93210012929D0C6
:1044CC00C4F8A020C5F810B0AB680133AB6093E71B
:1044DC00E36A002BD2DDCBB2013B84F83130FF23F1
:1044EC0084F83230012384F83330C7E7E36A002BB9
:1044FC00C7DACBB2013B84F83130FF2384F8323079
:10450C00012384F83330BCE7002BD5D1012184F88A
:10451C003210D1E79C45D3D1002384F83330CFE758
:10452C00D6F88440D4F8A000B4F91030B4F90E20B9
:10453C00934201DA01332382B4F910309A4201DA42
:10454C00013B2382B4F9102002FB00F23B4981FBB2
:10455C0002311144D217C2EBE122D4F898309A1AE6
:10456C00C4F89820B4F91830B4F916108B4201DA5B
:10457C0001332383B4F91830994201DA013B2383C8
:10458C00B4F9183003FB00F32C4981FB03011944E7
:10459C00DB17C3EBE12302F30F00C4F8980003F31D
:1045AC000F03C4F89C3004F11C0800B2D8F80C209E
:1045BC00D8F808309A4205DB0023C8F80C300123E8
:1045CC00C8F81030D8F80C30002B1BDBD8F80C9046
:1045DC00D4F81CA001F04EFA0AF80900D8F81030F3
:1045EC00D8F80C201344C8F80C30D8F808209342A3
:1045FC000FDA002B14DA0023C8F80C300123C8F8AA
:10460C0010300DE00023C8F80C300123C8F810302E
:10461C00DCE7013AC8F80C204FF0FF33C8F8103033
:10462C00D4F89C306B602B690BEB03072F6107EB05
:10463C00D7777F10EF600023AB60DDE68100088048
:10464C002DE9F047054600F1700700F19804483059
:10465C0001F091FA0646A368002B44D0012B73D0CD
:10466C00022B00F01781032B68D1D5F89830B3F9E1
:10467C00B800D9685A6822F81100DA680132DA6099
:10468C0099688A4201D30022DA60D3F8B450B3F9A6
:10469C004410B3F94200814202DA0131A3F844100C
:1046AC00B3F94410884202DA0139A3F84410B3F983
:1046BC00442002FB05F28E4981FB02011144D21702
:1046CC00C2EBE12202F30F02C3F8B420626023694B
:1046DC001E4426613346002EC0F207819B10E36016
:1046EC000023A3602AE0D5F89820E368C2F8AC3028
:1046FC00B2F92430B2F922108B4201DA01339384DF
:10470C00B2F92430994201DA013B9384B2F92400C6
:10471C00784B19888B1E03FB00F393FBF1F3991C68
:10472C00136903FB01F3744981FB0301DB17C3EB32
:10473C00611393612661A3680133A36061683846F5
:10474C0001F019FABDE8F087D5F89880B8F9343043
:10475C00B8F93220934202DA0133A8F83430B8F9B0
:10476C0034309A4202DA013BA8F83430B8F93450AC
:10477C00C72303FB05F35E4D85FB03251D44DB17A7
:10478C00C3EBE525B8F92C30B8F92A20934202DAAC
:10479C000133A8F82C30B8F92C309A4202DA013BDC
:1047AC00A8F82C30B8F92C2041F64B5303FB02F33C
:1047BC004F4A82FB03299944DB17C3EBE92908F123
:1047CC00100ADAF80400002846DBC013DAF80C10E3
:1047DC0080B201F035FADAF80430DAF80820134424
:1047EC00CAF80430002B3CDB6B1CDB0300FB0535EB
:1047FC0015EBC9353BD4EB13A5EBC3355A1C3BD495
:10480C00D8F80800904200D8421ED8F80C108A1A2A
:10481C009646002A32DBD8F804C03CF91E2002FB75
:10482C0005F2C5F50045002B2BDB984200D8431E42
:10483C00CB1A1946002B26DB3CF9113003FB05255E
:10484C00002D22DBED13C8F8B45023691E442661F9
:10485C00A3680133A36071E700F5FF407F30C013FC
:10486C00B4E723F000430133CAF80430BCE705F584
:10487C00FF437F33DB13BFE70022C1E700EB020EDF
:10488C00C9E70023D1E7C118D6E705F5FF457F3509
:10489C00ED13D8E7D5F89820D2F8AC10D2F8B4C004
:1048AC00B2F93C00B2F93A50A84201DA01309087D3
:1048BC00B2F93C00854201DA01389087B2F93C30FC
:1048CC0003FB0CF30A4880FB03501844DB17C3EBC3
:1048DC00E023CB1A03F30F03C2F8B83023691E444C
:1048EC002661A3680133A36028E7F31CF6E600BF3A
:1048FC0081000880626C0008B5814E1BF8B5044637
:10490C000D46012805D01CB94FF6FF739D424CD0C3
:10491C00F8BD4FF6FF739942F5D109212648FDF7F2
:10492C00BFFE264A00235360254911602548436089
:10493C00254A026063220272322141724626867237
:10494C0022484360224F07600272417286722148EE
:10495C004360214F07600272437282721F484360AA
:10496C001F4F07600272437282721E4843601E4FD3
:10497C0007600272437282721C4843601C4F0760CE
:10498C000272437282721B4843601B4F07600272B3
:10499C0043728272194A5360194B13601E231372AF
:1049AC0056729172D1721173ADE7034B18680028DF
:1049BC00AED001F0CAF9ABE704020020540200208B
:1049CC007C6500082002002000660008140200200C
:1049DC008466000838020020086700082C020020BA
:1049EC008C67000874020020106800085C0200202C
:1049FC00946800086802002018690008440200202E
:104A0C009C690008F8B50646A02001F0A4F90446FC
:104A1C003C4B036000238380C38043818381C3812B
:104A2C0043828382C38200F11C07C3614FF47A5323
:104A3C000362002008B101F007F80025E5614FF48E
:104A4C007A50786000F0F0FFE0616562A562E56283
:104A5C00E5636564A564E564256565656566E5667D
:104A6C0025676567A567E567C4F88040C4F884507E
:104A7C00C4F88850C4F88C50C4F89050C4F89450C2
:104A8C00C4F89850C4F89C5042F26663236344F611
:104A9C00CD416163A36341F69A122264A365E1657B
:104AAC002366A266746096F908302268126A164969
:104ABC000D8805FB03F3154F87FB03011944DB1726
:104ACC00C3EBA1112046904796F909307068026833
:104ADC00126905FB03F387FB03411944DB17C3EB96
:104AEC00A111904796F90A10706803689B6905FB41
:104AFC0001F587FB05212944ED17C5EBA11198475A
:104B0C007068F8BDA8660008626C000803B57EA545
:104B1C00F8B50646A82001F01EF904463C4B03608C
:104B2C000023436003814381838103824382838218
:104B3C001D46A3614FF4FA43C3614FF47A5000F061
:104B4C0073FFA0612562656204F1280000F01AFD74
:104B5C0004F1300000F0CEFC6564E5642565656504
:104B6C00A565E565E5666567A567E567C4F88050EA
:104B7C00C4F88450C4F88840C4F88C50C4F89050E1
:104B8C00C4F89450C4F89850C4F89C50C4F8A05081
:104B9C00C4F8A45042F26663A36344F6CD41E163CA
:104BAC00236441F69A12A26423666166A3662267A7
:104BBC00746096F908302268126A16490D8805FB54
:104BCC0003F3154F87FB03011944DB17C3EBA1114A
:104BDC002046904796F9093070680268126905FB07
:104BEC0003F387FB03411944DB17C3EBA111904777
:104BFC0096F90A10706803689B6905FB01F587FB41
:104C0C0005212944ED17C5EBA11198477068F8BD33
:104C1C002C670008626C000803B57EA52DE9F041F5
:104C2C000646802001F097F80446364B03600023BB
:104C3C008380C38043818381C38143828382C38207
:104C4C0000F11C08C3614FF4FA530362002008B151
:104C5C0000F0FAFE0025E5614FF4FA57C8F804702D
:104C6C004FF47A5000F0E0FEE0616562A562E76205
:104C7C006564A564E56425656565E5662567656716
:104C8C00A567E5674FF4004323634FF480326263FA
:104C9C00A363E2632364A365E26523666266A3668D
:104CAC00746096F908302268126A17490D8805FB62
:104CBC0003F3164F87FB03011944DB17C3EBA11158
:104CCC002046904796F9093070680268126905FB16
:104CDC0003F387FB03411944DB17C3EBA111904786
:104CEC0096F90A10706803689B6905FB01F587FB50
:104CFC0005212944ED17C5EBA11198477068BDE853
:104D0C00F08100BFA0650008626C000803B57EA5A9
:104D1C0038B50446B0F906300381B0F90E30038281
:104D2C00B0F91630038300F11C05002000F0A2FE40
:104D3C006B68013B1BB12A68D054013BFAE7E3696D
:104D4C0018700023EB6001232B61B4F90830B4F91F
:104D5C000620934201DA01332381B4F908309A42D8
:104D6C0001DA013B2381B4F908106B68994200DD2C
:104D7C00591E00290DDDAB688B420CDDE2690A443B
:104D8C002B68A8680344934205D9002302F8013B21
:104D9C00F6E70121EFE7A960EB68994201DC0139E4
:104DAC00E960002584F8335004F1340000F042FF30
:104DBC0004F15C0000F03EFFC4F8A050C4F89C5015
:104DCC00C4F89850C4F89450C4F89050C4F88C505F
:104DDC00C4F8885038BD000070B50446303000F07F
:104DEC00CAFE04F11C02B4F906603F4B1D88216A0F
:104DFC0001394B1E03FB06F393FBF5F3013300D192
:104E0C000123994200D31946E162D568002D5BDB82
:104E1C00EE13E36933F9161093689B1B1E46002BA7
:104E2C0057DBF603136996FBF3F63544D560002D7A
:104E3C0052DBEB135668B34202D3A5EBC635D560F3
:104E4C00B4F90E30B4F90C20934201DA0133E3814A
:104E5C00B4F90E309A4201DA013BE381B4F90E2029
:104E6C0002FB01F2214B83FB02531344D217C2EB1A
:104E7C00E3220244B4F91630B4F91400834201DA87
:104E8C000133E382B4F91630984201DA013BE38234
:104E9C00B4F9163003FB01F3144981FB03011944E7
:104EAC00DB17C3EBE12102F30F02606AE36923F81D
:104EBC001020636A01336362226A934211D004F1B9
:104ECC00580000F058FE70BD05F5FF437F33DE132C
:104EDC009FE756681E44A4E705F5FF437F33DB13B9
:104EEC00A8E700236362EAE7626C0008810008808F
:104EFC0010B5134C13492046FDF7F4FB124920461C
:104F0C00FDF7F0FB11492046FDF7ECFB104920465C
:104F1C00FDF7E8FB0F492046FDF7E4FB0E49204660
:104F2C00FDF7E0FB0D492046FDF7DCFB0C49204664
:104F3C00FDF7D8FB0B492046FDF7D4FB10BD00BF95
:104F4C000402002054020020200200201402002041
:104F5C00380200202C020020740200205C02002089
:104F6C006802002044020020002817DB40F6FF7383
:104F7C009842A8BF184640F2FE73984210D9A0F28E
:104F8C00FF73B3F5006F1AD840F6CC4000FB03F06A
:104F9C00002811DBC01200F2333070470020EAE722
:104FAC0040F2333303FB00F3064880FB0320C218A6
:104FBC00D817C0EBA220704700F2FF70EAE7002080
:104FCC00704700BF0102108010B5044649F64043FB
:104FDC0003FB01F10E4B83FB0123C917C1EBA3119A
:104FEC00036A013B002911DD99420DDC094A128844
:104FFC00481E00FB02F0013B90FBF3F000B2A080D6
:10500C00FFF7B2FFE08010BD1946EFE70121EDE795
:10501C00D34D6210626C000810B5044608B2A08033
:10502C00FFF7A2FFE08010BD10B5044644F62063E4
:10503C0003FB01F10E4B83FB0123C917C1EBA31139
:10504C00036A013B002911DD99420DDC094A1288E3
:10505C00481E00FB02F0013B90FBF3F000B2A08075
:10506C00FFF782FFE08010BD1946EFE70121EDE765
:10507C00D34D6210626C000810B5044608B2A080D3
:10508C00FFF772FFE08010BD2DE9F0410646A0202D
:10509C0000F061FE04463D4B0360002585802846E8
:1050AC00FFF762FFE0806581A581E5816582A582BD
:1050BC00E58204F11C08E5614FF4FA53236215B143
:1050CC00284600F0C1FC0025E5614FF4FA57C8F8FA
:1050DC0004704FF47A5000F0A7FCE0616562A562A1
:1050EC00E762E5636564A564E564256565656566E9
:1050FC00E56625676567A567E567C4F88040C4F871
:10510C008450C4F88850C4F88C50C4F8905042F2C3
:10511C006663236344F6CD416163A36341F69A123F
:10512C002264A365E1652366A266746096F9083073
:10513C002268126A16490D8805FB03F3154F87FB8D
:10514C0003011944DB17C3EBA1112046904796F9D4
:10515C00093070680268126905FB03F387FB034191
:10516C001944DB17C3EBA111904796F90A1070682C
:10517C0003689B6905FB01F587FB05212944ED17A5
:10518C00C5EBA11198477068BDE8F0812466000852
:10519C00626C000803B57EA5F8B50646A42000F0A5
:1051AC00DAFD0446434B03600120A080FFF7DCFED0
:1051BC0000B2E08020810023A381E3812382A382BB
:1051CC00E382238304F11C07E3614FF4FA53236257
:1051DC00002008B100F038FC0025E5614FF4FA53CB
:1051EC007B604FF47A5000F01FFCE061236A63622D
:1051FC00A5620123E362282384F8303084F831302F
:10520C0084F8325084F833502564A564E564256530
:10521C006565A565A56625676567A567E567C4F837
:10522C008050C4F88440C4F88850C4F88C50C4F83A
:10523C009050C4F8945042F26663636344F6CD41D7
:10524C00A163E36341F69A126264E36521666366C7
:10525C00E266746096F908302268126A16490D8865
:10526C0005FB03F3154F87FB03011944DB17C3EB55
:10527C00A1112046904796F90930706802681269AE
:10528C0005FB03F387FB03411944DB17C3EBA111A7
:10529C00904796F90A10706803689B6905FB01F545
:1052AC0087FB05212944ED17C5EBA11198477068C0
:1052BC00F8BD00BF34680008626C000803B57EA519
:1052CC0000281CDB40F6FF739842A8BF184640F636
:1052DC00CB43984215D9A0F6CC43B3F54D7F1CD2E5
:1052EC00184640F6CC4303FB00F30D4880FB03202B
:1052FC00C218D817C0EB622000F233307047002080
:10530C00E5E740F2333303FB00F3054880FB032051
:10531C00C218D817C0EBE22070470020704700BFBE
:10532C00A1000AA010B5044608B22086FFF7C8FFFA
:10533C00608610BD10B5044608B22084FFF7C0FF8C
:10534C00608410BDF8B50646BC2000F004FD044690
:10535C0007465B4B47F8043B0023436041F6DC6394
:10536C008360002008B100F06FFB0025656041F6FA
:10537C00DC637B6043F6B85000F056FB6060E56080
:10538C00504B23616561A5614F4BE3612584284631
:10539C00FFF796FF00B26084A08425856585A585FE
:1053AC0025862846FFF78CFF00B26086A0862587ED
:1053BC006587A587A4F84050A4F84250A4F844503F
:1053CC00E56525666566A566E566C4F88450C4F88F
:1053DC008850C4F88C50C4F89050C4F89450C4F859
:1053EC009840C4F89C50C4F8A050C4F8A450C4F819
:1053FC00A850C4F8AC50C4F8B050C4F8B450C4F8B9
:10540C00B85040F6D953A36441F6B330E064236539
:10541C002E49616543F62252A26523676067A36734
:10542C00E167C4F88020746096F9083022689269AC
:10543C0027490D8805FB03F3264F87FB030119440D
:10544C00DB17C3EBA1112046904796F90930706821
:10545C000268926A05FB03F387FB03411944DB17CF
:10546C00C3EBA111904796F90A3070680268126B71
:10547C0005FB03F387FB03411944DB17C3EBA111B5
:10548C00904796F90B3070680268126905FB03F3BC
:10549C0087FB03411944DB17C3EBA111904796F925
:1054AC000C10706803681B6A05FB01F587FB05216E
:1054BC002944ED17C5EBA11198477068F8BD00BFE2
:1054CC003C690008D9460300746C0008437AFFFF5E
:1054DC00626C000803B57EA508B54FF6FF7101207C
:1054EC00FFF70CFA08BD08B54FF6FF710020FFF767
:1054FC0005FA08BD002202604260704710B40246F3
:10550C0043681B4850F82340E01011F0010F01D004
:10551C0000EBA40011F0020F01D000EB640011F0BD
:10552C00040F00D0204411F0080F14D01468201A76
:10553C001060106810F5004F14DBB0F5004F0EDA58
:10554C0010600C4C54F821105B180FD4582B0BDC4A
:10555C00536010BC7047146820441060E9E747F6AC
:10556C00FF70EDE70448EBE75823F1E70023EFE782
:10557C00F86A0008B86A00080080FFFF0023036087
:10558C00436070470022026042607047F0B40468C8
:10559C00091B31D400234268234D55F82250A942EF
:1055AC0002DB43F00403491B6E108E4202DC43F015
:1055BC000203891BAF108F4201DC43F00103E91099
:1055CC009C4613F0010F00D0394413F0020F00D0A9
:1055DC00314413F0040F00D0294413F0080F0ED0FF
:1055EC00641A0460016811F5004F0BDBB1F5004F34
:1055FC0009DB47F6FF7106E049420823CBE70C4470
:10560C000460EFE709490160094951F82C10521860
:10561C0007D4582A03DC42601846F0BC7047582265
:10562C00F9E70022F7E700BFF86A00080080FFFFE7
:10563C00B86A0008002303604360704710B5054C3E
:10564C0000212046FCF7ACF904212046FCF7A8F910
:10565C0010BD00BF6003002000F30F0000F50040F8
:10566C00034B1B68C2B25A63C0F3072098637047A0
:10567C006003002008B50C48FBF726F858B96422E3
:10568C000A490948FAF7DAFE40B904210848FCF740
:10569C0069F930B908BDFCF746FEF0E7FCF743FEAC
:1056AC00F3E7FCF740FEF5E7A003002080020020A2
:1056BC005404002008B50020FFF7CEFF08BD000001
:1056CC0008B501224FF400514948FBF73DFB494B0B
:1056DC0018885A8810449A881044DA8810441A8919
:1056EC0010445A8910449A891044DA8910441A8A51
:1056FC0010445A8A10449A8A1044DA8A10441A8B3D
:10570C0010445A8B10449A8B1044DA8B10441A8C28
:10571C0010445A8C10449A8C1044DA8C10441A8D14
:10572C0010445A8D10449A8D1044DA8D10441A8E00
:10573C0010445A8E10449A8E1044DA8E10441A8FEC
:10574C0010445A8F10449A8F1044DA8F1044B3F8D7
:10575C0040201044B3F842201044B3F844201044C5
:10576C00B3F846201044B3F848201044B3F84A204C
:10577C001044B3F84C201044B3F84E201044B3F846
:10578C0050201044B3F852201044B3F85420104465
:10579C00B3F856201044B3F858201044B3F85A20EC
:1057AC001044B3F85C201044B3F85E201044B3F8F6
:1057BC0060201044B3F86230184400EB001000EB8A
:1057CC0000200D4BA3FB0030C0F34F30A0F5004080
:1057DC000A4B93F9003043B9FCF7A6FD00224FF4B5
:1057EC0000510348FBF7B0FA08BDFFF763FFF5E77C
:1057FC000010014080020020CD33A3990C00002042
:10580C0008B501224FF400515948FBF79DFA594B4A
:10581C00B3F86400B3F866201044B3F86820104461
:10582C00B3F86A201044B3F86C201044B3F86E201F
:10583C001044B3F870201044B3F872201044B3F83D
:10584C0074201044B3F876201044B3F87820104438
:10585C00B3F87A201044B3F87C201044B3F87E20BF
:10586C001044B3F880201044B3F882201044B3F8ED
:10587C0084201044B3F886201044B3F888201044D8
:10588C00B3F88A201044B3F88C201044B3F88E205F
:10589C001044B3F890201044B3F892201044B3F89D
:1058AC0094201044B3F896201044B3F89820104478
:1058BC00B3F89A201044B3F89C201044B3F89E20FF
:1058CC001044B3F8A0201044B3F8A2201044B3F84D
:1058DC00A4201044B3F8A6201044B3F8A820104418
:1058EC00B3F8AA201044B3F8AC201044B3F8AE209F
:1058FC001044B3F8B0201044B3F8B2201044B3F8FD
:10590C00B4201044B3F8B6201044B3F8B8201044B7
:10591C00B3F8BA201044B3F8BC201044B3F8BE203E
:10592C001044B3F8C0201044B3F8C2201044B3F8AC
:10593C00C4201044B3F8C630184400EB001000EB40
:10594C0000200D4BA3FB0030C0F34F30A0F50040FE
:10595C000A4B93F9003043B9FCF7E6FC00224FF4F4
:10596C0000510348FBF7F0F908BDFFF7A3FEF5E77C
:10597C000010014080020020CD33A3990C000020C0
:10598C0070B582B0064605460BE04FF6FF73012258
:10599C000DF107011A48FCF74DF99DF8073005F891
:1059AC00013B4FF6FF7301220DF107011448FCF780
:1059BC00B1F90028F5D19DF80740204600F01CFAFB
:1059CC000028E2D1202CE0D00D2C0ED0082CE8D1F0
:1059DC00B542E6D94FF6FF7303220A490848FCF793
:1059EC0029F9002305F8013DDBE74FF6FF7302228E
:1059FC0005490348FCF71EF900232B7002B070BD5B
:105A0C00D00300205C6C0008606C000810B50446E4
:105A1C0000F026FA024B1860024B1C6010BD00BF50
:105A2C004C03002048030020054B1B6823B1054A9A
:105A3C001268824201D2FEE7FEE71846704700BFAB
:105A4C004C030020480300207047C043C2B2C2F38D
:105A5C00021002F00F03DB00843383409BB2A3F1EE
:105A6C00840000B212F0800F00D17047C3F18403A0
:105A7C0018B2FAE700280DDB0022843000B20023B4
:105A8C00072B0BD80B4931F81310884206DD013374
:105A9C00DBB2F5E7404200B28022EEE7D91C0841A8
:105AAC0000F00F0042EA03135BB21843C0B2C043CC
:105ABC00C0B27047646C00082DE9F04F046842686E
:105ACC00D717D0F814E04FEAEE7902FB09F50EFB7C
