:020000040800F2
:1000000000500020B57E00089D6300089F63000833
:10001000A1630008A3630008A563000800000000B6
:10002000000000000000000000000000A7630008BE
:10003000A963000800000000AB630008AD6300087E
:10004000FD7E0008FD7E0008FD7E0008FD7E0008A4
:10005000FD7E0008FD7E0008FD7E0008FD7E000894
:10006000FD7E0008FD7E0008FD7E0008B5630008E7
:10007000FD7E0008FD7E0008FD7E0008FD7E000874
:10008000FD7E0008FD7E0008FD7E0008FD7E000864
:10009000FD7E0008FD7E0008FD7E0008FD7E000854
:1000A000FD7E0008FD7E0008FD7E0008FD7E000844
:1000B000FD7E0008FD7E0008FD7E0008FD7E000834
:1000C000FD7E0008FD7E0008FD7E0008FD7E000824
:1000D000FD7E0008C5630008D5630008FD7E0008AA
:1000E000FD7E0008FD7E0008FD7E00080000000087
:1000F0000000000000000000000000000000000000
:0C01000000000000000000005FF808F1A3
:10010C0010B5054C237833B9044B13B10448AFF345
:10011C0000800123237010BDDC01002000000000D2
:10012C0024A6000808B5034B1BB103490348AFF3E1
:10013C00008008BD00000000E001002024A600089B
:10014C00034613F8012B002AFBD1181A013870470B
:10015C0080F0004002E000BF81F0004142001FBF70
:10016C005FEA410392EA030F7FEA226C7FEA236C79
:10017C006AD04FEA1262D2EB1363C1BFD21841406E
:10018C0048404140B8BF5B42192B88BF704710F004
:10019C00004F40F4000020F07F4018BF404211F0A7
:1001AC00004F41F4000121F07F4118BF494292EA0F
:1001BC00030F3FD0A2F1010241FA03FC10EB0C003B
:1001CC00C3F1200301FA03F100F0004302D54942C8
:1001DC0060EB4000B0F5000F13D3B0F1807F06D375
:1001EC0040084FEA310102F10102FE2A51D2B1F16D
:1001FC00004F40EBC25008BF20F0010040EA030062
:10020C007047490040EB000010F4000FA2F101020E
:10021C00EDD1B0FA80FCACF1080CB2EB0C0200FA98
:10022C000CF0AABF00EBC25052421843BCBFD040E6
:10023C001843704792F0000F81F4000106BF80F460
:10024C0000000132013BB5E74FEA41037FEA226C23
:10025C0018BF7FEA236C21D092EA030F04D092F0EE
:10026C00000F08BF0846704790EA010F1CBF002022
:10027C00704712F07F4F04D1400028BF40F000407F
:10028C00704712F100723CBF00F50000704700F09F
:10029C00004343F0FE4040F4000070477FEA2262C6
:1002AC0016BF08467FEA23630146420206BF5FEA97
:1002BC00412390EA010F40F4800070474FF0000397
:1002CC0004E000BF10F0004348BF40425FEA000C5E
:1002DC0008BF704743F0964301464FF000001CE006
:1002EC0050EA010208BF70474FF000030AE000BF5C
:1002FC0050EA010208BF704711F0004302D540429A
:10030C0061EB41015FEA010C02BF8446014600200B
:10031C0043F0B64308BFA3F18053A3F50003BCFA26
:10032C008CF2083AA3EBC25310DB01FA02FC6344D3
:10033C0000FA02FCC2F12002BCF1004F20FA02F2DA
:10034C0043EB020008BF20F00100704702F12002CD
:10035C0001FA02FCC2F1200250EA4C0021FA02F22E
:10036C0043EB020008BF20EADC7070474FF0FF0C33
:10037C001CEAD0521EBF1CEAD15392EA0C0F93EA2E
:10038C000C0F6FD01A4480EA010C400218BF5FEAD0
:10039C0041211ED04FF0006343EA501043EA511143
:1003AC00A0FB01310CF00040B1F5000F3EBF49003D
:1003BC0041EAD3715B0040EA010062F17F02FD2A41
:1003CC001DD8B3F1004F40EBC25008BF20F0010024
:1003DC00704790F0000F0CF0004C08BF49024CEA3B
:1003EC00502040EA51207F3AC2BFD2F1FF0340EACD
:1003FC00C250704740F400004FF00003013A5DDC3E
:10040C0012F1190FDCBF00F000407047C2F100027E
:10041C00410021FA02F1C2F1200200FA02FC5FEA6B
:10042C00310040F1000053EA4C0308BF20EADC70B5
:10043C00704792F0000F00F0004C02BF400010F427
:10044C00000F013AF9D040EA0C0093F0000F01F0D4
:10045C00004C02BF490011F4000F013BF9D041EAF6
:10046C000C018FE70CEAD15392EA0C0F18BF93EAF8
:10047C000C0F0AD030F0004C18BF31F0004CD8D122
:10048C0080EA010000F00040704790F0000F17BFA9
:10049C0090F0004F084691F0000F91F0004F14D0EF
:1004AC0092EA0C0F01D142020FD193EA0C0F03D147
:1004BC004B0218BF084608D180EA010000F000404A
:1004CC0040F0FE4040F40000704740F0FE4040F425
:1004DC00400070474FF0FF0C1CEAD0521EBF1CEAC4
:1004EC00D15392EA0C0F93EA0C0F69D0A2EB0302E2
:1004FC0080EA010C49024FEA402037D04FF080537C
:10050C0043EA111143EA10130CF000408B4238BF40
:10051C005B0042F17D024FF4000C8B4224BF5B1A4E
:10052C0040EA0C00B3EB510F24BFA3EB510340EA9C
:10053C005C00B3EB910F24BFA3EB910340EA9C004A
:10054C00B3EBD10F24BFA3EBD10340EADC001B01BA
:10055C0018BF5FEA1C1CE0D1FD2A3FF650AF8B425E
:10056C0040EBC25008BF20F0010070470CF0004C6B
:10057C004CEA50207F32C2BFD2F1FF0340EAC25096
:10058C00704740F400004FF00003013A37E792F057
:10059C00000F00F0004C02BF400010F4000F013AB5
:1005AC00F9D040EA0C0093F0000F01F0004C02BFB0
:1005BC00490011F4000F013BF9D041EA0C0195E719
:1005CC000CEAD15392EA0C0F08D142027FF47DAFB2
:1005DC0093EA0C0F7FF470AF084676E793EA0C0FA2
:1005EC0004D14B023FF44CAF08466EE730F0004CA0
:1005FC0018BF31F0004CCAD130F000427FF45CAF30
:10060C0031F000437FF43CAF5FE700BF4FF0FF3C9D
:10061C0006E000BF4FF0010C02E000BF4FF0010CF0
:10062C004DF804CD4FEA40024FEA41037FEA226CB9
:10063C0018BF7FEA236C11D001B052EA530C18BFDB
:10064C0090EA010F58BFB2EB030088BFC81738BF40
:10065C006FEAE17018BF40F0010070477FEA226C2E
:10066C0002D15FEA402C05D17FEA236CE4D15FEA2A
:10067C00412CE1D05DF8040B704700BF844608465E
:10068C006146FFE70FB5FFF7C9FF002848BF10F11F
:10069C00000F0FBD4DF808EDFFF7F4FF0CBF012064
:1006AC0000205DF808FB00BF4DF808EDFFF7EAFFEE
:1006BC0034BF012000205DF808FB00BF4DF808EDA9
:1006CC00FFF7E0FF94BF012000205DF808FB00BF9E
:1006DC004DF808EDFFF7D2FF94BF012000205DF824
:1006EC0008FB00BF4DF808EDFFF7C8FF34BF012031
:1006FC0000205DF808FB00BF4FEA4002B2F1FE4F4C
:10070C000FD34FF09E03B3EB12620DD94FEA0023C7
:10071C0043F0004310F0004F23FA02F018BF4042A0
:10072C0070474FF00000704712F1610F01D1420287
:10073C0005D110F0004008BF6FF0004070474FF03B
:10074C00000070477BB972B90029BEBF00204FF082
:10075C00004106E008BF00281CBF6FF000414FF0BD
:10076C00FF3000F0A7B9ADF1080C6DE904CE0029FB
:10077C0009DB002B1ADB00F035F8DDF804E0DDE9CD
:10078C00022304B07047404261EB4101002B1BDB9C
:10079C0000F028F8DDF804E0DDE9022304B0404263
:1007AC0061EB4101524263EB43037047524263EBEE
:1007BC00430300F017F8DDF804E0DDE9022304B090
:1007CC00404261EB41017047524263EB430300F03E
:1007DC0009F8DDF804E0DDE9022304B0524263EBD2
:1007EC00430370472DE9F0478C460446089E002BC6
:1007FC004BD18A42154667D9B2FA82F24AB1C2F19C
:10080C00200701FA02F320FA07F7954047EA030C98
:10081C0094404FEA154EBCFBFEF71FFA85F80EFB11
:10082C0017C307FB08F9210C41EA0343994509D981
:10083C00EB1807F1FF3180F01C81994540F21981CA
:10084C00023F2B44A3EB0903B3FBFEF00EFB10336A
:10085C0000FB08F1A4B244EA0344A14209D92C19C3
:10086C0000F1FF3380F00781A14240F2048102388D
:10087C002C4440EA07400027641A1EB10023D440E0
:10088C00C6E900433946BDE8F0878B4209D9002EF2
:10089C0000F0EC800027C6E9000138463946BDE877
:1008AC00F087B3FA83F7002F48D18B4202D38242F0
:1008BC0000F2FB80841A61EB030301209C46002E9E
:1008CC00E0D0C6E9004CDDE702B9FFDEB2FA82F2F5
:1008DC00002A40F08F800127491B4FEA15481FFA68
:1008EC0085F9B1FBF8FE08FB1E1109FB0EF04FEA6F
:1008FC00144C4CEA0143984207D9EB180EF1FF3126
:10090C0002D2984200F2CD808E461B1AB3FBF8F04F
:10091C0008FB103309FB00F9A4B244EA0344A145D7
:10092C0007D92C1900F1FF3302D2A14500F2B68091
:10093C001846A4EB090440EA0E409EE7C7F12005D7
:10094C00BB4022FA05FC4CEA030C21FA05F44FEAF1
:10095C001C4EB4FBFEF91FFA8CF80EFB194420FA5E
:10096C0005F3B94009FB08FA19430B0C43EA04449C
:10097C00A24502FA07F200FA07F30BD91CEB0404A8
:10098C0009F1FF3080F08880A24540F28580A9F102
:10099C0002096444A4EB0A04B4FBFEF00EFB104401
:1009AC0000FB08FA89B241EA0444A24508D91CEBC1
:1009BC00040400F1FF316BD2A24569D902386444BA
:1009CC0040EA0940A0FB0289A4EB0A044C454146CD
:1009DC00CE4654D351D0002E69D05A1A64EB0E0473
:1009EC0004FA05F522FA07F3FC401D43C6E900544E
:1009FC00002747E79540C2F1200321FA03F04FEAA4
:100A0C001548B0FBF8F71FFA85F908FB170024FA14
:100A1C0003F3914007FB09FC0B43190C41EA00411D
:100A2C008C4504FA02F407D9691807F1FF3031D26A
:100A3C008C452FD9023F2944A1EB0C01B1FBF8F0F6
:100A4C0008FB101C00FB09FE99B241EA0C418E45D3
:100A5C0007D9691800F1FF3318D28E4516D9023820
:100A6C002944A1EB0E0140EA07473AE737463046E6
:100A7C0008E70F46E6E61846FBE64345ABD2B8EB73
:100A8C00020169EB0C0201389646A4E71846E8E728
:100A9C00084695E70746CFE781467BE702382C44AA
:100AAC0047E7AEF1020E2B442FE7384607E73746EF
:100ABC00E8E600BF704700BF10B504460E4B18782F
:100ACC004FF47A73B3FBF0F30C4A1068B0FBF3F0FD
:100ADC0000F062FB68B90F2C01D901200AE000225A
:100AEC0021464FF0FF3000F017FB054B1C60002037
:100AFC0000E0012010BD00BF000000200800002015
:100B0C000400002008B5074A136843F01003136073
:100B1C00032000F0EFFA0120FFF7CEFF05F0F8FA02
:100B2C00002008BD00200240034A1168034B1B78CB
:100B3C000B441360704700BF8803002000000020A6
:100B4C00014B1868704700BF8803002008B5436A42
:100B5C009A6A12F0500F03D01B6A1B6B984708BDA2
:100B6C009A6A42F400729A621A68926802F46022DD
:100B7C00B2F5602F03D0184606F0F8FDEFE7DA68FF
:100B8C00002AF8D19A6A22F480729A629A6A12F454
:100B9C00805FF0D19A6A42F001029A62EBE708B5E5
:100BAC00406A06F043FD08BD704708B5406A836A89
:100BBC0043F040038362C36A43F00403C362FFF74C
:100BCC00F3FF08BD30B482B00023019390F82430B9
:100BDC00012B00F08B800246012380F824304B68F7
:100BEC00062B29D80568686B03EB8303053B1F2490
:100BFC009C4020EA04000C6804FA03F303436B6383
:100C0C000B68092B38D91568E86803EB43031E3BC6
:100C1C0007249C4020EA04008C6804FA03F3034385
:100C2C00EB600B68103B012B34D90020002382F8B9
:100C3C00243002B030BC70470C2B0ED80568286BE2
:100C4C0003EB8303233B1F249C4020EA04000C6825
:100C5C0004FA03F303432B63D2E70568E86A03EB5A
:100C6C008303413B1F249C4020EA04000C6804FAD7
:100C7C0003F30343EB62C3E71568286903EB4303F3
:100C8C0007249C4020EA04008C6804FA03F3034315
:100C9C002B61C6E713681648834205D0936A43F06C
:100CAC00200393620120C1E7986810F4000F1BD158
:100CBC00986840F4000098600B68102B01D000205D
:100CCC00B4E70C4B1B680C49A1FB03139B0C03EB07
:100CDC0083035900019102E0019B013B0193019BAD
:100CEC00002BF9D10020A1E700209FE70220A0E70C
:100CFC00002401400800002083DE1B4330B583B084
:100D0C000023019303689A6812F0010F2ED19A68A0
:100D1C0042F001029A60174B1B68174AA2FB03238F
:100D2C009B0C019302E0019B013B0193019B002B67
:100D3C00F9D10446FFF704FF054623689B6813F0BE
:100D4C00010F11D1FFF7FCFE401B0228F5D9A36A55
:100D5C0043F01003A362E36A43F00103E362002350
:100D6C0084F82430012002E0002000E0002003B0D1
:100D7C0030BD00BF0800002083DE1B43F8B50468BB
:100D8C00454DAC425BD0454B9C4258D090F824402A
:100D9C00012C7ED016460D460446012380F82430E3
:100DAC00FFF7ACFF074600286ED1A36A23F47063EB
:100DBC0023F0010343F48073A3622268374B9A42F9
:100DCC0044D0A36A23F48013A362536813F4806F96
:100DDC0005D0A36A23F4405343F48053A362A36A5F
:100DEC0013F4805F48D0E36A23F00603E362002328
:100DFC0084F82430236A2A4A9A62236A294ADA62DE
:100E0C00236A294A1A6323686FF002021A60226867
:100E1C00936843F480739360216833462A464C31BF
:100E2C00206A00F01BFA2268936803F46023B3F580
:100E3C00602F24D0936843F48013936027E0164B03
:100E4C005B6813F4702FA1D0012720E0A3F5806319
:100E5C005B6813F4702FB4D0A36A43F48013A362BD
:100E6C000D4B5B6813F4806FB9D0A36A23F4405325
:100E7C0043F48053A362B2E70023E362B7E79368BD
:100E8C0043F4A003936002E0002384F82430384636
:100E9C00F8BD0227FBE700BF0024014000280140F9
:100EAC00590B0008AB0B0008B70B000838B50368EA
:100EBC009A6812F0010F01D1002038BD04469A68DF
:100ECC0022F001029A60FFF73BFE054623689B68FF
:100EDC0013F0010F0ED0FFF733FE401B0228F5D99B
:100EEC00A36A43F01003A362E36A43F00103E362D5
:100EFC000120E2E70020E0E700287FD038B5044667
:100F0C00836A002B33D02046FFF7D0FFA36A13F07F
:100F1C0010036DD100286BD1A26A22F4885222F002
:100F2C00020242F00202A2626268E1690A43E568C9
:100F3C0042EA4502A168B1F5807F21D001291CD07D
:100F4C00616901291FD02568696821F469410B4347
:100F5C006B6021688D682A4B2B4013438B60A36810
:100F6C00B3F5807F20D0012B1ED000211FE0C3627F
:100F7C0080F8243005F0EEF8C5E74FF48073DFE716
:100F8C004FF48073DCE735B9A169013943EA413389
:100F9C0043F40063D7E7A16A41F02001A162E16A42
:100FAC0041F00101E162CEE72369013B1905256897
:100FBC00EB6A23F470030B43EB6223689968114BC3
:100FCC000B409A420BD0A36A23F0120343F0100398
:100FDC00A362E36A43F00103E36201200DE0002306
:100FEC00E362A36A23F0030343F00103A36204E06A
:100FFC00A36A43F01003A362012038BD012070479F
:10100C00FDF7E1FFFE0E1FFF70B582B000230193C8
:10101C0090F82430012B68D00446012380F824304A
:10102C00FFF744FF054628B1002384F824302846F6
:10103C0002B070BDA36A23F4885323F0020343F07B
:10104C000203A3622A4B1E68022000F0D9FEB6FBF5
:10105C00F0F04000019002E0019B013B0193019BE9
:10106C00002BF9D12046FFF749FE2268936843F024
:10107C0008039360FFF764FD064623689A6812F034
:10108C00080F0FD0FFF75CFD801B0A28F5D9A36A67
:10109C0023F0120343F01003A362002384F82430DE
:1010AC000125C4E79A6842F004029A60FFF748FDF4
:1010BC00064623689B6813F0040F0FD0FFF740FD22
:1010CC00801B0A28F5D9A36A23F0120343F01003FE
:1010DC00A362002384F824300125A8E7A36A23F037
:1010EC00030343F00103A3629EE702259FE700BFC1
:1010FC0008000020074AD36823F4E0631B041B0C90
:10110C00000200F4E060184340F0BF6040F400308F
:10111C00D060704700ED00E030B4174BDB68C3F3D0
:10112C000223C3F10704042C28BF04241D1D062D23
:10113C0018D9033B4FF0FF3505FA04F421EA0401FA
:10114C00994005FA03F322EA0303194300280BDB49
:10115C000901C9B200F1604000F5614080F800134C
:10116C0030BC70470023E5E700F00F000901C9B25D
:10117C00024B1954F4E700BF00ED00E014ED00E061
:10118C0000F01F02400901239340024A42F820302C
:10119C00704700BF00E100E00138B0F1807F0AD257
:1011AC00064B5860064AF02182F823100020986004
:1011BC0007221A6070470120704700BF10E000E062
:1011CC0000ED00E070B4066CC56B0124B4406C609B
:1011DC00046863604368102B05D00368996003684A
:1011EC00DA6070BC704703689A600368D960F8E7EE
:1011FC0060B310B402460168154B0B441548A0FBB4
:10120C0003031B099B001364134BD363022382F863
:10121C002130086820F47F5020F030005368946827
:10122C002343D468234314692343546923439469A7
:10123C002343D469234303430B60002090630123B1
:10124C0082F8213082F8200010BC704701207047D2
:10125C00F8FFFDBFCDCCCCCC0000024038B590F8E7
:10126C002040012C32D0012480F8204090F82140FD
:10127C00012C04D0002380F82030022038BD044615
:10128C00022084F821000020A0632568286820F043
:10129C00010028602046FFF795FFE36A5BB12268E6
:1012AC00136843F00E0313602268136843F00103C4
:1012BC0013600020E2E72268136823F00403136034
:1012CC002268136843F00A031360EDE70220D5E7A8
:1012DC0008B590F82130022B03D00423836301203E
:1012EC0008BD0268136823F00E03136002681368CC
:1012FC0023F0010313600368194A934214D014328B
:10130C0093421FD0143293421ED0143293421ED0FB
:10131C00143293421ED01432934202D04FF080729A
:10132C0003E04FF4801200E001220E4B5A600123BF
:10133C0080F82130002380F82030436B6BB1984744
:10134C000020CDE71022F0E74FF48072EDE74FF468
:10135C008052EAE74FF48032E7E70020C0E700BF95
:10136C00080002400000024038B5C36B1A680468DC
:10137C002568016C04238B40134235D015F0040F03
:10138C0032D0236813F0200F03D1236823F0040319
:10139C0023600368434A934214D01432934218D00A
:1013AC001432934217D01432934217D01432934212
:1013BC0017D01432934202D04FF0806203E04FF406
:1013CC00800200E00422384B5A60C36A03B198478C
:1013DC0038BD4022F7E74FF48062F4E74FF48042C7
:1013EC00F1E74FF48022EEE702238B4013423CD00E
:1013FC0015F0020F39D0236813F0200F06D12368A3
:10140C0023F00A032360012380F821300368254A66
:10141C00934214D0143293421CD0143293421BD0FA
:10142C00143293421BD0143293421BD01432934289
:10143C0002D04FF0007203E04FF4001200E00222E1
:10144C00194B5A60002380F82030836A002BBFD0E0
:10145C009847BDE72022F3E74FF40072F0E74FF412
:10146C000052EDE74FF40032EAE7082303FA01F1EA
:10147C001142ADD015F0080FAAD0236823F00E034B
:10148C002360026CC16B012303FA02F24A6083638E
:10149C0080F82130002380F82030036B002B97D08C
:1014AC00984795E70800024000000240F0B482B073
:1014BC0000263546A1E0002C59D0012C00D1CE6875
:1014CC00FF2B68D88446FF2B68D8AC00DCF80020D2
:1014DC000F27A74022EA070206FA04F42243CCF8AD
:1014EC0000204A6812F0805F00F086805E4A9469A2
:1014FC0044F001049461926902F001020192019A94
:10150C00AC08A71C594A52F8272005F00307BF0066
:10151C004FF00F0C0CFA07FC22EA0C0C544A9042C8
:10152C0042D002F5806290427FD002F580629042F8
:10153C007DD002F58062904234D0042235E04D4FCC
:10154C00BC4214D00BD94C4FBC4210D007F580379D
:10155C00BC420CD0A7F58017BC42B1D107E0A7F56F
:10156C008017BC4203D007F58037BC42A8D18C68E9
:10157C007CB1012C08D042610826A1E7CE68083660
:10158C009EE7CE680C369BE70261082698E700269A
:10159C0096E7042694E700F1040C94E7A5F10804FF
:1015AC00A40093E7032200E00022BA4042EA0C02B6
:1015BC0002342E4F47F824204A6812F4803F38D06A
:1015CC002E4C22681A4322604A6812F4003F36D02F
:1015DC002A4C62681A4362604A6812F4801F34D045
:1015EC00264CA2681A43A2604A6812F4001F32D03B
:1015FC00224CE2681343E36001350F2D31D80122F0
:10160C00AA400B6813409A42F6D14C68122CB8D001
:10161C0095D8022CB2D07FF64EAF032CB7D0112C3C
:10162C007FF44EAFCE6804364AE70122BDE70222B2
:10163C00BBE7124C226822EA03022260C4E70F4C7B
:10164C00626822EA03026260C6E70C4CA26822EAD6
:10165C000302A260C8E7094CE26822EA0303E360D4
:10166C00CAE702B0F0BC7047001002400000014015
:10167C00000801400000211000003110000401405E
:10168C0012B90904016170470161704782B0084BBF
:10169C001B68084AA2FB03235B0A00FB03F00190C2
:1016AC0000BF019B5A1E0192002BF9D102B070476A
:1016BC0008000020D34D621070B582B00446036858
:1016CC0013F0010F2CD0AB4B5B6803F00C03042B15
:1016DC001DD0A84B5B6803F00C03082B12D0636879
:1016EC00B3F5803F41D0002B55D103F1804303F576
:1016FC0004331A6822F480321A601A6822F48022A9
:10170C001A6037E09B4B5B6813F4803FE7D0994B32
:10171C001B6813F4003F03D06368002B00F0AE810C
:10172C00236813F0020F76D0924B5B6813F00C0F0A
:10173C005FD0904B5B6803F00C03082B54D02369EB
:10174C00002B00F08A808C4B01221A60FFF7F8F90D
:10175C000546884B1B6813F0020F75D1FFF7F0F9A3
:10176C00401B0228F5D903208BE1824A136843F40D
:10177C0080331360636843B3FFF7E2F905467D4B92
:10178C001B6813F4003FCBD1FFF7DAF9401B642838
:10179C00F5D9032075E1B3F5A02F09D0754B1A6864
:1017AC0022F480321A601A6822F480221A60E1E76F
:1017BC0003F18043A3F53C331A6842F480221A608B
:1017CC001A6842F480321A60D4E7FFF7B9F905467B
:1017DC00684B1B6813F4003FA2D0FFF7B1F9401B14
:1017EC006428F5D903204CE1624B5B6813F4803F0D
:1017FC00A5D1604B1B6813F0020F04D02369012B99
:10180C0001D001203DE15B4A136823F0F8036169C4
:10181C0043EAC1031360236813F0080F32D0A369A5
:10182C00002B5BD0554B01221A60FFF789F9054656
:10183C00504B5B6A13F0020F21D1FFF781F9401B6B
:10184C000228F5D903201CE14A4A136823F0F80357
:10185C00616943EAC1031360DDE7474B00221A605C
:10186C00FFF76EF90546434B1B6813F0020FD2D0FD
:10187C00FFF766F9401B0228F5D9032001E101208E
:10188C00FFF704FF236813F0040F00F09780394B27
:10189C00DB6913F0805F33D1364BDA6942F080524A
:1018AC00DA61DB6903F080530193019B0125344B12
:1018BC001B6813F4807F25D0E368012B36D0002BF6
:1018CC004CD103F1804303F504331A6A22F0010270
:1018DC001A621A6A22F004021A622CE0274B0022C8
:1018EC001A60FFF72DF90546224B5B6A13F0020FC5
:1018FC00C8D0FFF725F9401B0228F5D90320C0E01A
:10190C000025D4E71E4A136843F480731360FFF775
:10191C0017F906461A4B1B6813F4807FCCD1FFF7DE
:10192C000FF9801B6428F5D90320AAE0114A136A29
:10193C0043F001031362E36873B3FFF701F9064642
:10194C000C4B1B6A13F0020F37D1FFF7F9F8801B11
:10195C0041F288339842F3D9032092E0052B11D041
:10196C00044B1A6A22F001021A621A6A22F004026B
:10197C001A62E0E70010024000004242800442423A
:10198C0000700040414B1A6A42F004021A621A6A53
:10199C0042F001021A62CEE7FFF7D2F806463B4B43
:1019AC001B6A13F0020F08D0FFF7CAF8801B41F234
:1019BC0088339842F3D9032063E0E5B9E369002B3F
:1019CC005ED0324A526802F00C02082A5BD0022B1D
:1019DC0017D02F4B00221A60FFF7B2F804462B4B9E
:1019EC001B6813F0007F47D0FFF7AAF8001B0228F2
:1019FC00F5D9032045E0254AD36923F08053D36100
:101A0C00DCE7234B00221A60FFF79AF805461F4BC0
:101A1C001B6813F0007F06D0FFF792F8401B0228DA
:101A2C00F5D903202DE0236AB3F5803F1AD017496E
:101A3C004B6823F47413226A606A024313434B60AD
:101A4C00134B01221A60FFF77BF804460F4B1B68FF
:101A5C0013F0007F0ED1FFF773F8001B0228F5D9A5
:101A6C0003200EE0094A536823F40033A1680B43AA
:101A7C005360DCE7002004E0002002E0012000E0DD
:101A8C00002002B070BD0120FBE700BF0010024037
:101A9C006000424210B487B0164C94E80F000DF170
:101AAC00180C0CE90F00238AADF80430124B5B685C
:101ABC0003F00C02082A1AD1C3F38342624412F8D1
:101ACC00102C13F4803F05D10C4800FB02F007B03A
:101ADC0010BC7047084B5B68C3F34043634413F876
:101AEC00143C074800FB02F0B0FBF3F0EFE70448AE
:101AFC00EDE700BF3CA600080010024000093D00C5
:101B0C0000127A00624B1B6803F007038B420CD265
:101B1C005F4A136823F007030B431360136803F049
:101B2C0007038B4201D00120704770B5036813F096
:101B3C00020F17D013F0040F04D0564A536843F425
:101B4C00E0635360036813F0080F04D0514A5368E4
:101B5C0043F4605353604F4A536823F0F003846896
:101B6C00234353600D460446036813F0010F52D013
:101B7C004368012B23D0022B28D0464A126812F05E
:101B8C00020F00F0828043494A6822F0030213439B
:101B9C004B60FEF7D5FF06466368012B1DD0022B68
:101BAC002AD03C4B5B6813F00C0F34D0FEF7C8FF07
:101BBC00801B41F288339842F3D9032064E0354A04
:101BCC00126812F4003FDED101205DE0314A126848
:101BDC0012F0007FD7D1012056E02E4B5B6803F04A
:101BEC000C03042B17D0FEF7ABFF801B41F288339C
:101BFC009842F2D9032047E0264B5B6803F00C03B4
:101C0C00082B08D0FEF79CFF801B41F288339842CA
:101C1C00F2D9032038E01E4B1B6803F00703AB42DC
:101C2C000CD91B4A136823F007032B43136013686A
:101C3C0003F00703AB4201D0012025E0236813F029
:101C4C00040F06D0134A536823F4E063E1680B4396
:101C5C005360236813F0080F07D00E4A536823F41F
:101C6C006053216943EAC1035360FFF713FF094B2B
:101C7C005B68C3F30313084AD35CD840074B186066
:101C8C000120FEF719FF002070BD0120FCE700BF0A
:101C9C000020024000100240C0AB000808000020E9
:101CAC00014B1868704700BF0800002008B5FFF70B
:101CBC00F7FF044B5B68C3F30223034AD35CD840A1
:101CCC0008BD00BF00100240D0AB000808B5FFF7FC
:101CDC00E7FF044B5B68C3F3C223034AD35CD840D1
:101CEC0008BD00BF00100240D0AB000870B582B038
:101CFC000446036813F0010F34D03E4BDB6913F03C
:101D0C00805F48D13B4BDA6942F08052DA61DB6983
:101D1C0003F080530193019B0125374B1B6813F48F
:101D2C00807F3AD0334B1B6A13F4407311D0626836
:101D3C0002F440729A420CD02E4A136A23F440707B
:101D4C002E4901260E6000260E60106213F0010F62
:101D5C0037D1284A136A23F4407361680B4313622A
:101D6C00002D3FD1236813F0020F06D0214A53688F
:101D7C0023F44043A1680B435360236813F0100F06
:101D8C0035D01C4A536823F48003E1680B4353603D
:101D9C00002002B070BD0025BFE7174A136843F45A
:101DAC0080731360FEF7CCFE0646134B1B6813F4CE
:101DBC00807FB7D1FEF7C4FE801B6428F5D90320C1
:101DCC00E7E7FEF7BDFE06460A4B1B6A13F0020F4F
:101DDC00BFD1FEF7B5FE801B41F288339842F3D990
:101DEC000320D6E7D36923F08053D361BAE70020F0
:101DFC00CFE700BF00100240007000404004424298
:101E0C0030B587B00546384C94E80F000DF1180C2E
:101E1C000CE90F00238AADF80430022D50D0102DA0
:101E2C0003D0012D2BD0002054E0304B5A681B6896
:101E3C0013F0807F50D0C2F3834306A90B4413F8F0
:101E4C00100C12F4803F16D0284B5B68C3F3404350
:101E5C000B4413F8142C264BB3FBF2F300FB03F0EA
:101E6C00224B5B6813F4800F34D14000214BA3FB51
:101E7C00003040082EE0204B03FB00F0F0E71B4B3A
:101E8C001B6A40F202321A40B2F5817F26D003F46D
:101E9C004073B3F5007F04D0B3F5407F09D0002028
:101EAC0018E0124A526A12F0020FF5D049F640407F
:101EBC0010E00E4B1B6813F4003F12D1002009E018
:101ECC00FFF704FF094B5B68C3F3813301335B00FD
:101EDC00B0FBF3F007B030BD0020FBE74FF400403F
:101EEC00F8E74FF22440F5E750A600080010024036
:101EFC0000127A00ABAAAAAA00093D0070B4036ACA
:101F0C0023F001030362036A4268846924F07304BA
:101F1C000D6845EA040623F002048B6823430D4D3B
:101F2C00A84209D00B4DA8420DD0426086614A6888
:101F3C004263036270BC704723F00803CC682343F0
:101F4C0023F00403EEE722F440724C6914438A69CF
:101F5C002243EAE7002C014030B4036A23F4807377
:101F6C000362036A4268C46924F073040D682C434D
:101F7C0023F400738D6843EA05230F4DA84209D062
:101F8C000D4DA8420ED04260C4614A68C263036220
:101F9C0030BC704723F40063CD6843EA052323F477
:101FAC008063EDE722F440524D6942EA05128D69D7
:101FBC0042EA0512E7E700BF002C014030B4036A87
:101FCC0023F480530362036A4468C26922F4E64234
:101FDC000D6842EA052223F400538D6843EA053369
:101FEC00074DA84206D04460C2614A68026403628D
:101FFC0030BC704724F480444D6944EA8514F2E700
:10200C00002C014003681B4A90420AD0B0F1804F6B
:10201C0007D0A2F59432904203D002F58062904230
:10202C0003D123F070034A681343124A90420AD03A
:10203C00B0F1804F07D0A2F59432904203D002F554
:10204C008062904203D123F44073CA68134323F097
:10205C0080034A69134303608B68C3620B68836215
:10206C00044B984202D00123436170470B69036310
:10207C00F9E700BF002C0140A8B110B5044690F858
:10208C003D305BB1022384F83D30211D2068FFF701
:10209C00B9FF012384F83D30002010BD80F83C309E
:1020AC0004F0A8F8EEE701207047A8B110B504467B
:1020BC0090F83D305BB1022384F83D30211D20683F
:1020CC00FFF7A0FF012384F83D30002010BD80F8FD
:1020DC003C3004F0A3F8EEE70120704730B4036AFB
:1020EC0023F010030362036A4468826922F4E64217
:1020FC000D6842EA052223F020038D6843EA05139C
:10210C000E4DA84209D00D4DA8420ED044608261FC
:10211C004A688263036230BC704723F08003CD6849
:10212C0043EA051323F04003EDE724F440644D69C2
:10213C0044EA85048D6944EA8504E7E7002C0140F4
:10214C0090F83C30012B28D010B50446012380F8C0
:10215C003C30022380F83D300C2A0BD8DFE802F02B
:10216C00070A0A0A110A0A0A150A0A0A190000685B
:10217C00FFF7C4FE012384F83D30002084F83C00B6
:10218C0010BD0068FFF7AAFFF4E70068FFF7E4FE54
:10219C00F0E70068FFF712FFECE70220704738B554
:1021AC0090F83C30012B66D00D460446012380F894
:1021BC003C30022380F83D300C2A1AD8DFE802F0BC
:1021CC000719191920191919341919194700006818
:1021DC00FFF794FE2268936943F008039361226829
:1021EC00936923F0040393612268936929690B4373
:1021FC009361012384F83D30002084F83C0038BD05
:10220C000068FFF76BFF2268936943F400639361E6
:10221C002268936923F48063936122689369296926
:10222C0043EA01239361E4E70068FFF795FE226817
:10223C00D36943F00803D3612268D36923F0040304
:10224C00D3612268D36929690B43D361D1E7006854
:10225C00FFF7B4FE2268D36943F40063D3612268AC
:10226C00D36923F48063D3612268D369296943EA73
:10227C000123D361BDE70220C1E710B4012303FAA7
:10228C0001F4036A23EA04030362036A8A401343DA
:10229C00036210BC7047000010B5044601220068B0
:1022AC00FFF7EBFF2368074A934206D022681368B6
:1022BC0043F001031360002010BD5A6C42F400423D
:1022CC005A64F3E7002C014010B504460122006863
:1022DC00FFF7D3FF2368074A934206D0226813689E
:1022EC0043F001031360002010BD5A6C42F400420D
:1022FC005A64F3E7002C014090F83C30012B22D0BB
:10230C0030B4012280F83C20022380F83D30046870
:10231C00636823F070036360046863680D682B4383
:10232C0063600468A36823F08003A3600468A36857
:10233C0049680B43A36080F83D20002380F83C30B3
:10234C00184630BC7047022070470268D36823F4EB
:10235C009073D3600268536923F001035361202307
:10236C0080F83A30704790F83930DBB2212B2AD103
:10237C008368B3F5805F16D0036A5A1C02621A7820
:10238C0003685A60C38C013B9BB2C384EBB90268EF
:10239C00D36823F08003D3600268D36843F0400312
:1023AC00D36000207047036A1B880268C3F30803DC
:1023BC00536003691BB9036A02330362E2E7036AE1
:1023CC0001330362DEE702207047002070470000F3
:1023DC002DE9F84305460268136923F44053C1689C
:1023EC000B43136183680269134342691343016809
:1023FC00CA6822F4B05222F00C021343CB6002687C
:10240C00536923F4407381690B4353610268594B40
:10241C009A4257D0FFF74AFC00EB800000EB80009B
:10242C006C68A400B0FBF4F4534FA7FB04346409AC
:10243C002601FFF73BFC00EB800000EB80006C6892
:10244C00A400B0FBF4F9FFF731FC00EB800000EBCB
:10245C0080006C68A400B0FBF4F4A7FB043464099E
:10246C004FF0640808FB149424013234A7FB0434A5
:10247C00640904F0F0043444FFF718FC00EB80000E
:10248C0000EB80006E68B600B0FBF6F6FFF70EFCB2
:10249C0000EB800000EB80006B689B00B0FBF3F05E
:1024AC00A7FB0030400908FB10684FEA081808F138
:1024BC003208A7FB0837C7F343172B6827449F60E4
:1024CC00BDE8F883FFF702FC00EB800000EB800016
:1024DC006C68A400B0FBF4F4274FA7FB0434640928
:1024EC002601FFF7F3FB00EB800000EB80006C682B
:1024FC00A400B0FBF4F9FFF7E9FB00EB800000EB64
:10250C0080006C68A400B0FBF4F4A7FB04346409ED
:10251C004FF0640808FB149424013234A7FB0434F4
:10252C00640904F0F0043444FFF7D0FB00EB8000A6
:10253C0000EB80006E68B600B0FBF6F6FFF7C6FB4A
:10254C0000EB800000EB80006B689B00B0FBF3F0AD
:10255C00A7FB0030400908FB10684FEA081808F187
:10256C003208A7FB0837C7F343172B6827449F6033
:10257C00A6E700BF003801401F85EB512DE9F04163
:10258C0005460F4616469846069C2B681B6837EA8C
:10259C0003030CBF01230023B3421DD1B4F1FF3F51
:1025AC00F3D02CB1FEF7CCFAA0EB0800A042ECD98A
:1025BC002A68D36823F4D073D3602A68536923F054
:1025CC0001035361202385F8393085F83A30002314
:1025DC0085F83830032000E00020BDE8F08158B3C6
:1025EC0010B5044690F839300BB3242384F83930F5
:1025FC002268D36823F40053D3602046FFF7E8FE2B
:10260C002268136923F4904313612268536923F001
:10261C002A0353612268D36843F40053D36000202B
:10262C00E063202384F8393084F83A3010BD80F808
:10263C00383003F03DFED8E701207047002830D039
:10264C0010B5044690F8393033B3242384F839306C
:10265C002268D36823F40053D3602046FFF7B8FEFA
:10266C002268136923F4904313612268536923F0A1
:10267C00220353612268536943F0080353612268B3
:10268C00D36843F40053D3600020E063202384F824
:10269C00393084F83A3010BD80F8383003F008FE39
:1026AC00D3E7012070472DE9F04182B01E4690F827
:1026BC003930DBB2202B55D104460D46904600290B
:1026CC0055D0002A55D090F83830012B53D0012327
:1026DC0080F838300023C363212380F83930FEF7AB
:1026EC002FFA0746A4F82480A4F8268010E0009660
:1026FC003B46002280212046FFF740FF00283CD1BA
:10270C002B882268C3F3080353602369C3B90235CD
:10271C00E38C9BB2B3B1E38C013B9BB2E384A36823
:10272C00B3F5805FE3D000963B4600228021204623
:10273C00FFF724FF18BB2A7823685A600135E7E7B6
:10274C000135E5E700963B46002240212046FFF785
:10275C0015FF0346A8B9202284F83920002284F8FA
:10276C00382000E00223184602B0BDE8F0810123B6
:10277C00F9E70123F7E70223F5E70323F3E7032344
:10278C00F1E70323EFE72DE9F04182B01E4690F804
:10279C003A30DBB2202B5AD104460D469046002924
:1027AC0059D0002A59D090F83830012B57D001233A
:1027BC0080F838300023C363222380F83A30FEF7C8
:1027CC00BFF90746A4F82C80A4F82E801DE00096D3
:1027DC003B46002220212046FFF7D0FE002840D1A6
:1027EC00236933B923685B68C3F3080325F8023BFC
:1027FC000BE023685B68DBB225F8013B05E023683E
:10280C005B6803F07F032B700135E38D9BB2BBB18A
:10281C00E38D013B9BB2E385A368B3F5805FD6D013
:10282C0000963B46002220212046FFF7A7FED0B998
:10283C002369002BE3D123685B682B700135E4E737
:10284C00202384F83A30002084F8380000E002207D
:10285C0002B0BDE8F0810120FAE70120F8E7022080
:10286C00F6E70320F4E70320F2E7704708B50168A8
:10287C00CB6823F04003CB60202380F83930FFF77E
:10288C00F4FF002008BD704708B590F83A30DBB271
:10289C00222B45D18368B3F5805F0ED0036903BB4F
:1028AC0003685A68836A591C81621A70C38D013B94
:1028BC009BB2C385F3B1002033E0826A036943B94C
:1028CC0003685B68C3F308031380836A0233836273
:1028DC00ECE703685B68DBB21380836A01338362C5
:1028EC00E4E703685B68826A511C816203F07F0332
:1028FC001370DBE70268D36823F02003D36002680F
:10290C00D36823F48073D3600268536923F0010306
:10291C005361202380F83A30FFF7B5FF002000E028
:10292C00022008BD7047000010B504460268136809
:10293C00D168526913F00F0005D113F0200F02D0AB
:10294C0011F0200F53D1002867D012F0010202D1F0
:10295C0011F4907F61D013F0010F06D011F4807F39
:10296C0003D0E06B40F00100E06313F0040F04D0DF
:10297C001AB1E06B40F00200E06313F0020F04D0D8
:10298C001AB1E06B40F00400E06313F0080F04D0C0
:10299C001AB1E26B42F00802E263E26B002A48D003
:1029AC0013F0200F02D011F0200F24D123685B69A3
:1029BC0003F04003E26B12F0080F00D13BB320464A
:1029CC00FFF7C3FC23685A6912F0400F1BD05A69F9
:1029DC0022F040025A61636B8BB11A4A5A63606BE6
:1029EC00FEF776FC28B3606B436B984721E02046DA
:1029FC00FFF74AFF1DE02046FFF746FFD6E72046CB
:102A0C00FFF790FF15E02046FFF78CFF11E0204602
:102A1C00FFF788FF0023E3630BE013F0800F02D075
:102A2C0011F0800F06D113F0400F02D011F0400FBF
:102A3C0004D110BD2046FFF796FCFAE72046FFF7BD
:102A4C0015FFF6E7552A000808B5406A0023C38530
:102A5C00C384FFF767FF08BD08B503685B68984738
:102A6C0008BDB0F90C007047B0F9140070470000B5
:102A7C00054B1A88036A023B01FB03F393FBF2F349
:102A8C0001338360704700BF8CAF00087047002093
:102A9C007047704700207047026A054B198883689D
:102AAC00013B03FB01F3901E93FBF0F0704700BF5A
:102ABC008CAF0008006A70470620704708B50368A1
:102ACC005B68984708BDB0F90E007047B0F9160066
:102ADC0070470000036A023B01FB03F1044B83FBCC
:102AEC0001230B44C917C1EBE3210131816070470D
:102AFC0081000880036A80680138C0EB0030023B1B
:102B0C0090FBF3F07047704700207047704700202F
:102B1C007047006A70470120704708B503685B680E
:102B2C00984708BDB0F924007047B0F92C007047E5
:102B3C00B0F934007047B0F93C007047B0F944006C
:102B4C007047C06870470720704708B503685B681A
:102B5C00984708BDB0F910007047B0F918007047DD
:102B6C00B0F90830426AA3F57A70C0EB0030A2F2DB
:102B7C00E93290FBF2F070477047002070477047C5
:102B8C0000207047406A70470220704708B5036800
:102B9C005B68984708BDB0F924007047B0F9340061
:102BAC007047B0F92C007047704700207047704791
:102BBC0000207047C06870470320704708B5036851
:102BCC005B68984708BDB0F924007047B0F92C0039
:102BDC007047B0F934007047B0F93C007047B0F959
:102BEC0044007047C06870470420704708B50368FC
:102BFC005B68984708BD00207047704700207047FD
:102C0C0070470020704770470020704770470020C5
:102C1C0070477047002070470020704700207047B5
:102C2C0008B503685B68984708BDB0F94C0070475D
:102C3C00B0F964007047B0F954007047B0F95C000B
:102C4C007047002070470520704780F8D0107047FF
:102C5C0090F8D000704708B503685B68984708BDCA
:102C6C00B0F90E007047704700207047B0F90600AD
:102C7C00704770470020704780F82410704790F818
:102C8C0024007047002070470920704708B503687E
:102C9C005B68984708BDB0F9060070477047002084
:102CAC00704770470020704770470020704770478E
:102CBC0000207047002070470A20704708B5036851
:102CCC005B68984708BDB0F96000704770470020FA
:102CDC007047000008B5C16E094B1B68C91A094B37
:102CEC001A68D317C8034914FDF72CFDC0EB00304C
:102CFC00054B83FB00230344C017C0EBA33008BD76
:102D0C0040020020340200200300018070470020A4
:102D1C007047704700207047002070470B207047A9
:102D2C00704770477047704770470000012800D00B
:102D3C0070474FF6FF739942FAD130B44FF4004507
:102D4C00294B1D60294B1A6802EB82044FF47A70F0
:102D5C0094FBF0F4264B1C60B42101FB02F191FBB7
:102D6C00F0F1244B19600A2303FB02F393FBF0F3FD
:102D7C0021490B6021490C6021490B60142303FB92
:102D8C0002F393FBF0F31F4A13601F4B1F4A1A60A8
:102D9C0000221F4B1A601F4B40F21F5119601E4B33
:102DAC004FF4C03119601D4B43F2333119601C4B89
:102DBC0042F2D73119601B4B45F69A1119604FF44A
:102DCC00804319490B60194941F69A10086042F684
:102DDC00AA201749086017490D6017490A60174A5D
:102DEC00136030BC704700BF7002002088AF000831
:102DFC0068020020640200205802002054020020C7
:102E0C00600200205C020020740200200080FFFFA2
:102E1C006C0200202C0200207802002030020020DE
:102E2C0034020020400200204C020020440200200A
:102E3C003C020020500200204802002038020020F2
:102E4C0010B50446082105F058F8204610BD10B501
:102E5C000446D42105F051F8204610BD10B50446A7
:102E6C00282105F04AF8204610BD10B504461C2157
:102E7C0005F043F8204610BD10B5044642F64461F7
:102E8C0005F03BF8204610BD10B5044608B2A082F0
:102E9C0004F0B2FEE08210BD10B5044608B2A08169
:102EAC0004F0AAFEE08110BD10B5044608B2A08261
:102EBC0004F0A2FEE08210BD10B5044608B2A08159
:102ECC0004F09AFEE08110BD10B50446436AA3F2EB
:102EDC00E93301FB03F1074880FB01304318C817A5
:102EEC00C0EBE32000F57A7000B2E08004F084FEC1
:102EFC00208110BD8100088010B5044608B2E08224
:102F0C0004F07AFE208310BD10B5044608B2E081AF
:102F1C0004F072FE208210BD10B5044608B2A4F86D
:102F2C00440004F069FEA4F8460010BD10B5044638
:102F3C0008B2A08704F060FEE08710BD10B504460F
:102F4C0008B2A08504F058FEE08510BD10B504460B
:102F5C0008B2A08604F050FEE08610BD10B5044601
:102F6C0008B2A4F85C0004F047FEA4F85E0010BDA3
:102F7C0010B5044608B2A4F8640004F03DFEA4F8B1
:102F8C00660010BD10B5044608B2A4F8440004F065
:102F9C0033FEA4F8460010BD10B50446074B1A8842
:102FAC00A2F10A0301FB03F090FBF2F00A3000B22D
:102FBC00E08004F021FE208110BD00BF8CAF000822
:102FCC0010B50446064B1A88531E01FB03F090FB08
:102FDC00F2F0013000B2E08104F00EFE208210BD50
:102FEC008CAF000810B50446064B1A88531E01FB23
:102FFC0003F090FBF2F0013000B2E08004F0FCFD35
:10300C00208110BD8CAF000870B50446303004F040
:10301C009CFE5C4B1B68002B1ADD5B4B1A68104442
:10302C00186000EBD070401004F11C06A26802B9C5
:10303C000122236A013B934200D21A46E2622279B2
:10304C00FAB17BB1E269002122F81310013BF8E7D9
:10305C004D490A68104408604C4A11680133494ACA
:10306C00136072E0E36900221A80636AE26A9B1AB9
:10307C00DB03A362002B6DDBDA13002A6CDB00236D
:10308C002371F268002A6CDBD113E36933F9115018
:10309C00B3685B1A1946002B68DBC903336991FBD3
:1030AC00F3F10A44F260002A63DBD31371688B429C
:1030BC0002D3A2EBC132F260B4F91030B4F90E2095
:1030CC00934201DA01332382B4F910309A4201DAC7
:1030DC00013B2382B4F9102002FB05F22C4B83FB3D
:1030EC0002131344D217C2EBE322821AB4F918303C
:1030FC00B4F916108B4201DA01332383B4F918307A
:10310C00994201DA013B2383B4F9183003FB05F330
:10311C001F4981FB03011944DB17C3EBE12302F3C5
:10312C000F0203F30F031946656AE06920F81520B6
:10313C00626A01326262206A82421FD0134A1360B3
:10314C000023114A13600F4A136004F15C0004F071
:10315C00FCFD70BDDA1390E7226A03EBC233A36265
:10316C008DE702F5FF437F33D9138EE7716819445D
:10317C0093E702F5FF437F33DB1397E7002262628C
:10318C00DCE700BF1802002010020020140200200F
:10319C008100088070B50446303004F0D6FD5D4BDC
:1031AC001B68022B0DDC5C490A68104408605B4A02
:1031BC0011680133574A136004F15C0004F0C5FD3B
:1031CC0070BD554B1A68104418600546002814DB76
:1031DC00AD1004F11C02A16801B90121236A013B65
:1031EC008B4200D21946E1622179B9B13BB1E16958
:1031FC00002021F81300013BF8E7C51CE8E7E36960
:10320C0000211980636AE16A5B1ADB03A362002B5D
:10321C0069DBD913002968DB00232371D1680029ED
:10322C0068DBC813E36933F9106093681B1A1846FE
:10323C00002B64DBC003136990FBF3F00144D160F5
:10324C0000295FDBCB135068834202D3A1EBC03162
:10325C00D160B4F91030B4F90E20934201DA013385
:10326C002382B4F910309A4201DA013B2382B4F97B
:10327C00102002FB06F22A4B83FB02131344D217D5
:10328C00C2EBE322AA1AB4F91830B4F916108B4227
:10329C0001DA01332383B4F91830994201DA013B86
:1032AC002383B4F9183003FB06F31D4981FB03019A
:1032BC001944DB17C3EBE12302F30F02606AE169E7
:1032CC0021F81020626A01326262216A8A421ED0A1
:1032DC0003F30F031946114A136000230E4A1360BF
:1032EC000C4A136068E7D91394E7216A03EBC133E6
:1032FC00A36291E701F5FF437F33D81392E750683F
:10330C00184497E701F5FF437F33DB139BE700225B
:10331C006262DDE7240200201C0200202002002053
:10332C008100088070B50446443004F00EFD834BD8
:10333C001B68002B2EDD824B19680844186000EBCB
:10334C00D070401004F12003B4F90A20B4F908102D
:10335C008A4201DA01326281B4F90A20914201DA1F
:10336C00013A6281B4F90A505A68954200DD551E43
:10337C00002D19DD9A68AA4218DD216A01EB45017E
:10338C001A689E6802EB46028A420FD9002221F885
:10339C00022BF5E76A490A6810440860694A11680B
:1033AC000133664A1360C3E00125E3E79D60DA68E8
:1033BC00954201DC013DDD60E56AA26A616B521A3F
:1033CC00013295420DD08A1E954216D022793AB31D
:1033DC00626A013AEAB1216A002521F81250013AD9
:1033EC00F8E7226B002AEEDD4A1EA2634FF0FF3293
:1033FC00E263012284F84020E5E7226B002AE5DA3B
:10340C000139A1634FF0FF32E263012284F84020BE
:10341C00DCE7216A00220A80E26201212163227129
:10342C00E16A226A32F9116094F8402072B1A16B02
:10343C0001FB06F2656B92FBF5F6E26B1144A1639E
:10344C00B2F1FF3F58D0E26B012A5AD0B4F91220E6
:10345C00B4F910108A4201DA01326282B4F91220F6
:10346C00914201DA013A6282B4F9121006FB01F1C1
:10347C00354D85FB01250D44C917C1EBE521401ADB
:10348C00B4F91A20B4F918108A4201DA01326283B5
:10349C00B4F91A20914201DA013A6283B4F91A2084
:1034AC0002FB06F2284981FB02511144D217C2EBF0
:1034BC00E12200F30F0002F30F02114600B2DE68A6
:1034CC009D68AE4203DB0025DD6001251D61DD68D2
:1034DC00002D1CDBDE68256A25F816001869DD68EE
:1034EC002844D8609D68A84216DA002819DA002012
:1034FC00D8600120186114E00029A4D10122E263F4
:10350C00A1E78D42A2D1002284F840209EE700253D
:10351C00DD6001251D61DDE7013DDD604FF0FF3011
:10352C001861084B1A600023054A1360034A1360A4
:10353C0004F1700004F009FC70BD00BF0002002013
:10354C00F8010020FC0100208100088010B5044621
:10355C00034B0360C06908B104F0CBFC204610BDDE
:10356C00C0A6000810B50446054B0360C06908B13D
:10357C0004F0BFFC8821204604F0BFFC204610BD9F
:10358C00C0A6000810B50446034B0360C06908B11F
:10359C0004F0AFFC204610BD78A6000810B5044618
:1035AC00054B0360C06908B104F0A3FC88212046D8
:1035BC0004F0A3FC204610BD78A6000810B5044604
:1035CC00034B0360006A08B104F093FC204610BD65
:1035DC0050A7000810B50446054B0360006A08B1FB
:1035EC0004F087FC9C21204604F087FC204610BD8B
:1035FC0050A7000810B50446034B0360806808B15F
:10360C0004F077FC204610BD08A7000810B504464E
:10361C00054B0360806808B104F06BFCA4212046C4
:10362C0004F06BFC204610BD08A7000810B504463A
:10363C00034B0360806808B104F05BFC204610BDAE
:10364C0098A7000810B50446054B0360806808B1C4
:10365C0004F04FFC9421204604F04FFC204610BD92
:10366C0098A7000810B50446034B0360806808B1A6
:10367C0004F03FFC204610BDE0A7000810B504463E
:10368C00054B0360806808B104F033FCA42120468C
:10369C0004F033FC204610BDE0A7000810B504462A
:1036AC0008B2A08604F0E0FAE08610BD10B504461E
:1036BC0008B2A08404F0D8FAE08410BD10B504461A
:1036CC0008B2A4F84C0004F0CFFAA4F84E0010BDD8
:1036DC0010B5044608B2A08604F0C6FAE08610BD08
:1036EC0010B50446074B1A88A2F10A0301FB03F03C
:1036FC0090FBF2F00A3000B2A08504F091FAE0855C
:10370C0010BD00BF8CAF000810B50446064B1A88DC
:10371C00531E01FB03F090FBF2F0013000B2A084C9
:10372C0004F07EFAE08410BD8CAF000810B504469E
:10373C0008B2A4F8600004F073FAA4F8620010BD9B
:10374C0010B5044608B2A4F8540004F057FAA4F8D3
:10375C00560010BD10B5044608B2A08704F072FAEA
:10376C00E08710BD10B5044608B2A08504F08EFAAF
:10377C00E08510BD10B5044608B2A08404F086FAAA
:10378C00E08410BD38B50C46B0F90A30B0F9082009
:10379C00934201DA01334381B0F90A309A4201DADB
:1037AC00013B4381B0F90A10194B1A88A2F11E0390
:1037BC0003FB01F393FBF2F31E3300F110050269D6
:1037CC0003FB02F303EBD3735B108361686800287F
:1037DC0012DBC01380B204F01BFB6B68AA681344A5
:1037EC006B60002B0DDB04FB00F000280BDBC0131F
:1037FC0000F30F00001B38BD00F5FF407F30C013F5
:10380C00E8E76A60EFE700F5FF407F30C013EFE7B1
:10381C008CAF00082DE9F04104464C3004F095FAC9
:10382C00944B1B68022B0EDC93490A681044086009
:10383C00924A116801338F4A136004F1780004F046
:10384C0084FABDE8F0818C4B1A6810441860054668
:10385C0000280BDBAD10637973B1E368013B3BB11E
:10386C00A268002122F81310013BF8E7C51CF1E710
:10387C00A268002313806371B4F92830B4F92620B0
:10388C00934201DA01332385B4F928309A4201DAE4
:10389C00013B2385B4F92810794B1A88931E03FB3E
:1038AC0001F393FBF2F39A1C04F11806A36903FBD2
:1038BC0002F3744A82FB0312DB17C3EB621323621D
:1038CC00714B18680138B4F93830B4F9362093428A
:1038DC0001DA01332387B4F938309A4201DA013B1B
:1038EC002387B4F9383003FB00F3684880FB0328C6
:1038FC009844D817C0EBE828654B18680138B4F920
:10390C003030B4F92E20934201DA01332386B4F916
:10391C0030309A4201DA013B2386B4F9303003FB94
:10392C0000F35A4F87FB03271F44D817C0EBE72738
:10393C0070680028C0F28380C01380B204F068FA6B
:10394C007368B26813447360002B7DDB08F10103CC
:10395C00DB0300FB083010EBC73077D4C213A0EBAD
:10396C00C230531C77D46169994200D84B1E276929
:10397C00FB1A9C46002B70DBA66836F91C3003FB47
:10398C0000FC444B1B68181A002A69DB914200D8D2
:10399C004A1EBA1A1346002A64DB36F9131001FBCF
:1039AC0000C3002B60DBD913B4F94030B4F93E20CE
:1039BC00934202DA0133A4F84030B4F940309A4211
:1039CC0002DA013BA4F84030B4F9403001FB03F3B8
:1039DC002E4A82FB03021A44DB17C3EBE223EB1AD9
:1039EC0003F30F0326F8173023690133236162694F
:1039FC00934201D300232361B4F94830B4F9462033
:103A0C00934202DA0133A4F84830B4F948309A42B0
:103A1C0002DA013BA4F84830B4F9483003FB01F357
:103A2C001A4981FB0321CA18D917C1EBE221134BA8
:103A3C0019600023104A13600E4A1360FDE600F56E
:103A4C00FF407F30C01378E772607FE700F5FF42DC
:103A5C007F32D21383E7002385E701EB030C8BE75E
:103A6C00002293E78B1898E703F5FF437F33D913B4
:103A7C009AE700BF0C02002004020020080200207C
:103A8C008CAF0008B5814E1B6802002081000880B5
:103A9C006402002070020020F8B504460D4603793C
:103AAC00002B40F0AE80294604F13C0004F04DF9A7
:103ABC00B4F92830B4F92620934201DA0133238576
:103ACC00B4F928309A4201DA013B2385B4F9281065
:103ADC00644B1A88A2F11B0303FB01F393FBF2F373
:103AEC001B3304F11805A26903FB02F35E4A82FB47
:103AFC0003121A44DB17C3EB222323625B4B1E68B1
:103B0C00B4F93020B4F92E108A4201DA013222863F
:103B1C00B4F93020914201DA013A2286B4F93030FE
:103B2C0003FB06F3524E86FB03261E44DB17C3EB46
:103B3C00E6262269A36823F8120023690133236166
:103B4C006269934201D300232361686800286FDB0C
:103B5C00C01380B204F05CF96B68AA6813446B6004
:103B6C00002B6ADB731CDB0306FB0030414B1B682C
:103B7C0010EBC33063D4C313A0EBC3305A1C63D413
:103B8C006669964200D8721E2569AA1A1146002A47
:103B9C005CDBA76837F9111000FB01F1364A12689B
:103BAC00121A002B54DBB34200D3731EEB1A1846C7
:103BBC00002B4FDB37F9100002FB001000284BDB09
:103BCC00C11301F30F0104F1680004F0BEF8B4F95D
:103BDC003820B4F936108A4201DA01322287B4F95E
:103BEC003820914201DA013A2287B4F9383003FBCC
:103BFC0000F31F4880FB03201844DB17C3EBE020C5
:103C0C00F8BD0023C3613C3004F0FCF804F16800FB
:103C1C0004F0F8F8E368013B2BB1A268002122F80C
:103C2C001310013BF8E7A2680023138023713AE7D5
:103C3C0000F5FF407F30C0138BE76A6092E700F518
:103C4C00FF437F33DB1397E7002299E7B118A0E716
:103C5C000023A8E79819ADE700F5FF407F30C113AA
:103C6C00AFE700BF8CAF0008F1000FF05802002046
:103C7C008100088054020020700200202DE9F843D6
:103C8C0004460F46037963B1C368013B2BB1A268AC
:103C9C00002122F81310013BF8E7A26800231380DF
:103CAC002371B4F92830B4F92620934201DA013398
:103CBC002385B4F928309A4201DA013B2385B4F903
:103CCC0028207A4B1E88B31E03FB02F393FBF6F3FA
:103CDC00023304F11808A26903FB02F3744A82FB55
:103CEC000312DB17C3EB62132362B4F93830B4F957
:103CFC003620934201DA01332387B4F938309A42E3
:103D0C0001DA013B2387B4F938006A4B1D6805FBC7
:103D1C0000F595FBF6F5B4F93030B4F92E2093424A
:103D2C0001DA01332386B4F930309A4201DA013BCF
:103D3C002386B4F93090604B1B6803FB09F999FB9F
:103D4C00F6F9D8F80400002846DBC01380B204F062
:103D5C005FF8D8F80430D8F808201344C8F80430B9
:103D6C00002B3EDB6B1CDB0300FB053515EBC9356B
:103D7C003AD4EB13A5EBC3355A1C3AD46169914282
:103D8C0000D84A1E2069821A9446002A33DBD4F8E4
:103D9C0008E03EF91C2005FB02F2DFF828C1DCF834
:103DAC0000C0ACEB0505002B28DB8B4200D34B1E6F
:103DBC00C31A1846002B23DB3EF9101005FB01211A
:103DCC0000291FDBC91311F5004F20DBB1F5004FA3
:103DDC001EDB47F6FF711BE000F5FF407F30C01380
:103DEC00B4E7C8F80420BDE705F5FF437F33DB13C8
:103DFC00C0E70022C2E701EB020CC8E70023D4E7BE
:103E0C005818D9E701F5FF417F31C913DBE72B497E
:103E1C0004F1780003F099FF0546B4F94030B4F989
:103E2C003E20934202DA0133A4F84030B4F940301A
:103E3C009A4202DA013BA4F84030B4F9401001FB7D
:103E4C0005F191FBF6F1791A1D4B994205DB42F213
:103E5C001073994202DD194600E0194904F14C0037
:103E6C0003F073FF2269A36823F81200236901335E
:103E7C0023616269934201D300232361B4F9483072
:103E8C00B4F94620934202DA0133A4F84830B4F96D
:103E9C0048309A4202DA013BA4F84830B4F94800A1
:103EAC0000FB05F090FBF6F0BDE8F8838CAF000842
:103EBC00B5814E1B600200205C0200200080FFFFD9
:103ECC00F0D8FFFF70020020F8B50446783003F0FC
:103EDC003CFF0546B4F95030B4F94E20934202DA57
:103EEC000133A4F85030B4F950309A4202DA013B55
:103EFC00A4F85030B4F95010C64B1A88931E03FB2B
:103F0C0001F393FBF2F3023304F16C07E16E03FB54
:103F1C0001F3C14981FB0301DB17C3EB6113636739
:103F2C00B4F95830B4F956108B4202DA0133A4F8C4
:103F3C005830B4F95830994202DA013BA4F85830A1
:103F4C00B4F95830C3EBC33393FBF2F36364B4F9A5
:103F5C006030B4F95E108B4202DA0133A4F86030A1
:103F6C00B4F96030994202DA013BA4F86030B4F93C
:103F7C00601047F2323303FB01F393FBF2F323643B
:103F8C00E66BA36BF61A7868002849DBC01380B285
:103F9C0003F03EFF7A68B9680A447A60002A44DB71
:103FAC00636C03FB00F09D4B196801EBE03000EBF8
:103FBC00D070401006FB00F0A66B06EBE03094F8D6
:103FCC00D030022B33D0042B6CD0062B00F0C580E4
:103FDC000021A164B4F96830B4F96620934202DA86
:103FEC000133A4F86830B4F968309A4202DA013B24
:103FFC00A4F86830B4F9683003FB01F3884981FBFD
:10400C000321CA18D917C1EBE22111F5004FC0F2F8
:10401C002781B1F5004FC0F2248147F6FF7120E1F2
:10402C0000F5FF407F30C013B1E77960B8E700239B
:10403C00012B09DC5E1C0A1A4318D20392FBF3F322
:10404C0044F836303346F3E7236CA26CED0302FBE5
:10405C000355002D17DBED132369626903FB152251
:10406C00002A15DBD213ED0302FB03556561A06832
:10407C00E36800FB1233002B0FDBD913D20301FBD7
:10408C000022E260A5E705F5FF457F35ED13E3E778
:10409C0002F5FF427F32D213E5E703F5FF437F338E
:1040AC00D913EBE70023032B09DC5E1C0A1A431817
:1040BC00D20392FBF3F344F836303346F3E7236C28
:1040CC00A26CED0302FB0355002D2DDBED13236ACF
:1040DC00626A03FB1522002A2BDBD213ED0302FBD1
:1040EC0003556562A169E36901FB1233002B25DBE3
:1040FC00DB13D20303FB0122E2612169626901FB3C
:10410C001322002A1FDBD213DB0302FB0133636192
:10411C00A068E36800FB1233002B19DBD913D20320
:10412C0001FB0022E26054E705F5FF457F35ED13F6
:10413C00CDE702F5FF427F32D213CFE703F5FF4301
:10414C007F33DB13D5E702F5FF427F32D213DBE777
:10415C0003F5FF437F33D913E1E70023052B09DC7B
:10416C005E1C0A1A4318D20392FBF3F344F8363060
:10417C003346F3E7236CA26CED0302FB0355002DD1
:10418C0043DBED13236B626B03FB1522002A49DB27
:10419C00D213ED0302FB03556563A16AE36A01FBCD
:1041AC001233002B43DBDB13D20303FB0122E2624D
:1041BC00216A626A01FB1322002A3DDBD213DB0366
:1041CC0002FB01336362A169E36901FB1233002B2B
:1041DC0037DBDB13D20303FB0122E2612169626945
:1041EC0001FB1322002A31DBD213DB0302FB013368
:1041FC006361A068E36800FB1233002B2BDBD9133F
:10420C00D20301FB0022E260E3E605F5FF457F35B2
:10421C00ED13B7E78CAF0008B5814E1B7002002080
:10422C008100088002F5FF427F32D213B1E703F51B
:10423C00FF437F33DB13B7E702F5FF427F32D21324
:10424C00BDE703F5FF437F33DB13C3E702F5FF4202
:10425C007F32D213C9E703F5FF437F33D913CFE77E
:10426C00024904F1A40003F070FDF8BD0080FFFFCB
:10427C00F0B4C1EBC131314A82FB01325318CA1779
:10428C00C2EBE322D5172E4B1B68DF1702FB07F19D
:10429C0003FB0511A2FB03340C44DA0B42EA444243
:1042AC00284B1B681A44C266D0F8883003EBD372D3
:1042BC00521002F58042C16F01FB02F2D213C0F81A
:1042CC008020C3F5004303EBD3735B1003FB01F3B6
:1042DC00DB13C0F88430D0F88C201B4B1B689A423F
:1042EC0012DB4FF40043036700238367174B1B68F3
:1042FC0083660023072B0FDCC3EBC3018A009032CB
:10430C00016F81500133F5E7C36E0367436F836719
:10431C000F4B1B688366ECE70022072A0CDCC2EB10
:10432C00C2018B0090330344816F9960816FC1F59A
:10433C000041D9600132F0E7F0BC70478100088081
:10434C003402002040020020380200206C020020C1
:10435C002C02002070B504460D46B0F91230B0F9AD
:10436C001020934201DA01334382B4F912309A429D
:10437C0001DA013B6382B4F91210424B1A88A2F1A4
:10438C001B0303FB01F393FBF2F31B3304F118063D
:10439C00A26903FB02F33C4A82FB03121A44DB17AB
:1043AC00C3EB2223236294F82430012B1DD0022B63
:1043BC003BD005F30F05B4F90A30B4F90820934249
:1043CC0001DA01336381B4F90A309A4201DA013B14
:1043DC006381B4F90A0000FB05F52C4880FB05301D
:1043EC002844ED17C5EBE02070BD7068002810DB89
:1043FC00C01380B203F00CFD7368B2681344736091
:10440C00002B0BDB05FB00F5002D09DBED136D42DA
:10441C00CFE700F5FF407F30C013EAE77260F1E7A9
:10442C0005F5FF457F35ED13F1E7706800281CDBBF
:10443C00C01380B203F0ECFC7368B2681344736071
:10444C00002B17DB00EB80000346114A12688242F6
:10445C0000DA13460F4A1268934200DA134605FB42
:10446C0003F5002D08DBED13A3E700F5FF407F30CB
:10447C00C013DEE77260E5E705F5FF457F35ED1308
:10448C0097E700BF8CAF0008F1000FF081000880A7
:10449C007002002074020020F8B50446083003F0C6
:1044AC0054FC844604F539531B68002B40F31481EB
:1044BC0004F59C7342F63062A5581F69D3F818E0D6
:1044CC0037F91E60DA685968986801FB00F102FB45
:1044DC000612002AC0F27782D2135A60D4F838112F
:1044EC0001FB02F2002AC0F27382D2132A4402F3B7
:1044FC000F0227F81E209A6901329A6159698A4283
:10450C0001DB00229A6142F63462A3581E44A65085
:10451C0004F5AA7242F63063E6581769D2F818E02F
:10452C0037F91E30D1685568906805FB00F501FB22
:10453C0003510029C0F25182C9135160D4F854516F
:10454C0005FB01F10029C0F24D82C913314401F37E
:10455C000F0127F81E109169013191615569A9422B
:10456C0001DB0021916142F63462A1580B44A35047
:10457C00D4F87051D4F8786135F91610CA1A01EBD9
:10458C00D17103EB610303F30F0325F81630D4F854
:10459C0078310133C4F87831D4F874118B4202DBD2
:1045AC000023C4F8783142F63463E250D4F87C51DD
:1045BC00D4F8846135F916108B1A01EBD17102EB2A
:1045CC00610202F30F0225F81620D4F8842101327F
:1045DC00C4F88421D4F880118A4202DB0022C4F88A
:1045EC00842142F63462A350D4F88851D4F89061F7
:1045FC0035F91610CA1A01EBD17103EB610303F301
:10460C000F0325F81630D4F890310133C4F89031EB
:10461C00D4F88C118B4202DB0023C4F8903142F6A3
:10462C003463E250D4F89431D4F89C6133F9161009
:10463C008D1A01EBD17102EB610202F30F0223F828
:10464C001620D4F89C210132C4F89C21D4F898315E
:10465C009A4202DB0023C4F89C3142F63463E550E5
:10466C00B4F96420B4F962309A4202DA0132A4F847
:10467C006420B4F96420934202DA013AA4F864206D
:10468C00B4F9643003FB05F3C64A82FB03121A44E7
:10469C00DB17C3EBE22303F30F0342F63462A350A0
:1046AC0042F63C62A1580CEB0100A05000EBD0701C
:1046BC00401042F63062A05042F63862A35004F526
:1046CC00395300221A6042F63865615904F13400FE
:1046DC0003F03BFB6051F8BDA26E42F63063E35829
:1046EC0003FB02F3002BC0F22B81DB1342F630628A
:1046FC00A35042F634620021A15004F190021769D4
:10470C00D2F818E037F91E60D1685568906805FB3F
:10471C0000F501FB06510029C0F21781C913516045
:10472C00D4F8905005FB01F10029C0F21381C91394
:10473C00194401F30F0127F81E109369013393619B
:10474C0051698B4201DB0023936142F63462A3581A
:10475C001E44A65004F1AC0342F63062A5581F6902
:10476C00D3F818E037F91E60DA685968986801FBCD
:10477C0000F102FB0612002AC0F2F180D2135A603B
:10478C00D4F8AC1001FB02F2002AC0F2ED80D21377
:10479C002A4402F30F0227F81E209A6901329A610B
:1047AC0059698A4201DB00229A6142F63462A358AD
:1047BC001E44A65004F1C80342F63062A5581F6986
:1047CC00D3F818E037F91E60DA685968986801FB6D
:1047DC0000F102FB0612002AC0F2CB80D2135A6001
:1047EC00D4F8C81001FB02F2002AC0F2C780D21321
:1047FC002A4402F30F0227F81E209A6901329A61AB
:10480C0059698A4201DB00229A6142F63462A3584C
:10481C001E44A65004F1E40342F63062A5581F6909
:10482C00D3F818E037F91E60DA685968986801FB0C
:10483C0000F102FB0612002AC0F2A580D2135A60C6
:10484C00D4F8E41001FB02F2002AC0F2A180D213CA
:10485C002A4402F30F0227F81E209A6901329A614A
:10486C0059698A4201DB00229A6142F63462A358EC
:10487C001E44A65004F5807342F63062A5581F6999
:10488C00D3F818E037F91E60DA685968986801FBAC
:10489C0000F102FB0612002A7FDBD2135A60D4F817
:1048AC00001101FB02F2002A7EDBD2132A4402F330
:1048BC000F0227F81E209A6901329A6159698A42BF
:1048CC0001DB00229A6142F63462A3581E44A650C2
:1048DC0004F58E7342F63062A5581F69D3F818E0C0
:1048EC0037F91E60DA685968986801FB00F102FB21
:1048FC000612002A5DDBD2135A60D4F81C1101FB9E
:10490C0002F2002A5ADBD2132A4402F30F0227F8D0
:10491C001E209A6901329A6159698A4201DB002290
:10492C009A6142F63462A3581E44A65042F63C6388
:10493C0044F803C004F53952136801331360C2E61E
:10494C0003F5FF437F33DB13D0E601F5FF417F31E5
:10495C00C913E4E601F5FF417F31C913E8E602F51E
:10496C00FF427F32D2130AE702F5FF427F32D213A5
:10497C000EE702F5FF427F32D21330E702F5FF4219
:10498C007F32D21334E702F5FF427F32D21356E75F
:10499C0002F5FF427F32D2135AE702F5FF427F3213
:1049AC00D2137BE78100088002F5FF427F32D213DD
:1049BC007CE702F5FF427F32D2139DE702F5FF42FE
:1049CC007F32D213A0E702F5FF427F32D21384E587
:1049DC0002F5FF427F32D21388E501F5FF417F31AA
:1049EC00C913AAE501F5FF417F31C913AEE500BF3C
:1049FC0010B50446044B186803689B682146984719
:104A0C00204402F0A1FF10BD2802002008B50020B0
:104A1C0002F09AFF08BD000070B5094C0026267004
:104A2C00084D28680368DB6B9847082003F067FA89
:104A3C000671054B036028600123237070BD00BF15
:104A4C00580300202802002028A800082DE9F04770
:104A5C008EB00025334B1D70334B18680368DB6B2D
:104A6C009847882003F04BFA044605712F4B0360DE
:104A7C0085608581284603F0BFF800B2E081208272
:104A8C00A582284603F0B8F800B2E082208304F136
:104A9C001C06E5614FF4FA53236215B1284603F066
:104AAC0028FA0025E5614FF4FA5373604FF47A50FD
:104ABC0003F021FAE0616562A5620126E66204F169
:104ACC00300AA564E5642565656504F15C096567D4
:104ADC00A567E567C4F88050154BD3F80080CDF876
:104AEC001C804FF07D57134D3B462A4607A908A85A
:104AFC0002F038FF08A9504603F0E1F8CDF8008029
:104B0C003B462A46694601A802F02CFF01A94846FB
:104B1C0003F0D5F8044B1C60024B1E700EB0BDE8C0
:104B2C00F08700BF5803002028020020C0A6000810
:104B3C0088AF000800401C462DE9F0478EB00025D8
:104B4C00334B1D70334B18680368DB6B9847882018
:104B5C0003F0D5F9044605712F4B03608560858100
:104B6C00284603F049F800B2E0812082A58228464D
:104B7C0003F042F800B2E082208304F11C06E561E8
:104B8C004FF4FA53236215B1284603F0B2F900250D
:104B9C00E5614FF4FA5373604FF47A5003F0ABF9BC
:104BAC00E0616562A5620126E66204F1300AA56443
:104BBC00E5642565656504F15C096567A567E567CE
:104BCC00C4F88050154BD3F80080CDF81C804FF002
:104BDC007D57134D3B462A4607A908A802F0C2FE92
:104BEC0008A9504603F06BF8CDF800803B462A46E6
:104BFC00694601A802F0B6FE01A9484603F05FF829
:104C0C00044B1C60024B1E700EB0BDE8F08700BF59
:104C1C00580300202802002078A6000888AF00085E
:104C2C0000401C452DE9F0478EB000253D4B1D7012
:104C3C003D4B18680368DB6B98479C2003F05FF9C9
:104C4C0004460571394B03600120E08002F0D4FF6B
:104C5C0000B220816081E581284602F0CDFF00B2D0
:104C6C0020826082E582284602F0C6FF00B22083D3
:104C7C00608304F12006256241F67863736043F685
:104C8C00F04003F038F920627368B360F5600123DB
:104C9C0033612B46B2689A4205DD3268002122F856
:104CAC0013100133F6E70023F36001253561282248
:104CBC006263A263E36384F8403004F1440AE36561
:104CCC0023666366A36604F17009C4F88830C4F8DF
:104CDC008C30C4F89030C4F89430154BD3F8008065
:104CEC00CDF81C804FF07D57124E3B46324607A93B
:104CFC0008A802F037FE08A9504602F0E0FFCDF8F4
:104D0C0000803B463246694601A802F02BFE01A901
:104D1C00484602F0D4FF044B1C60024B1D700EB0D1
:104D2C00BDE8F087580300202802002050A7000897
:104D3C0088AF000800401C462DE9F0438FB00026D8
:104D4C00504B1E70504B18680368DB6B9847A420BF
:104D5C0003F0D5F8044606714C4B036001234371F4
:104D6C004B4B18684B4B1D6805EB4005A660E56086
:104D7C007DB104F1080730460EB103F0BAF80023F8
:104D8C00A3607D60444B9D4277D8680003F0B3F874
:104D9C00A06000232361E3686361404B1E683046CA
:104DAC00002E6DDB8010FBF78DFA01463C48FBF7BB
:104DBC0091FB4FF08E41FBF7D9FA03F0F7F8FBF7B4
:104DCC009BFCA0610025E5612562A584284602F0C4
:104DDC004BFF00B2E0842085A585284602F00CFF2D
:104DEC0000B2E0852086A586284602F03DFF00B281
:104DFC00E0862087A587284602F0FEFE00B2E087F9
:104E0C00A4F84000A4F84450284602F0F5FE00B285
:104E1C00A4F84600A4F8480004F14C096566A566A0
:104E2C00E566256704F17808C4F89050C4F89450EE
:104E3C00C4F89850C4F89C5007964FF07D57194D04
:104E4C003B462A4607A908A802F08CFD08A948464B
:104E5C0002F035FF00963B462A46694601A802F04F
:104E6C0081FD01A9404602F02AFF074B1C60054B4F
:104E7C0001221A700FB0BDE8F0834FF0FF3085E7C8
:104E8C00F01C8FE7580300202802002008A7000818
:104E9C006802002064020020FCFFFF3F88AF00087E
:104EAC0000FF7F4700409C452DE9F0418EB0002665
:104EBC00494B1E70494B18680368DB6B984794206C
:104ECC0003F01DF8044606710746454B47F8083BAE
:104EDC00444B1868444B1D6805EB4005A660E56023
:104EEC006DB130460EB103F004F80023A3607D6071
:104EFC003E4B9D426DD8680002F0FDFFA06000257E
:104F0C002561E36863613A4B1E683046FBF7DAF9BA
:104F1C0001463848FBF7DEFA4FF08E41FBF726FAD4
:104F2C0003F044F8FBF7E8FBA061E5612562A5847A
:104F3C00284602F075FE00B2E0842085A58528463F
:104F4C0002F06EFE00B2E0852086A586284602F0AF
:104F5C0053FE00B2E086208704F13C086565A56528
:104F6C00E565256604F16807C4F88050C4F88450E0
:104F7C00C4F88850C4F88C501F4B1B8803EB4303B8
:104F8C0058001E4B83FB003040F38F00A08602F0CC
:104F9C0033FEE08607961A4D2B461A4A07A908A835
:104FAC0002F022FD08A9404602F089FE00962B462D
:104FBC00154A694601A802F0D5FC01A9384602F051
:104FCC007EFE064B1C60044B01221A700EB0BDE82D
:104FDC00F0814FF0FF308FE75803002028020020AB
:104FEC0098A700085802002054020020FCFFFF3F45
:104FFC0088AF000800FF7F478CAF000867666666C5
:10500C003333333F0000484300401C462DE9F04148
:10501C008EB00025594B1D70594B18680368DB6B1B
:10502C009847D42002F06BFF04460571554B036082
:10503C00457100F108030522002A05DB00211960E7
:10504C0059600833013AF7E741F69A1323644FF499
:10505C00004363640025A564A4F84C50284602F074
:10506C0003FE00B2A4F84E00A4F85000A4F854506B
:10507C00284602F0C3FD00B2A4F85600A4F858006C
:10508C00A4F85C50284602F0B7FD00B2A4F85E000C
:10509C00A4F86000A4F86450284602F0ADFD00B2FC
:1050AC00A4F86600A4F86800374B1E683046FBF77E
:1050BC0009F901463548FBF70DFA4FF08E41FBF725
:1050CC0055F902F073FFFBF717FBE0662567656780
:1050DC0004F17808C4F89050C4F89450C4F898506F
:1050EC00C4F89C5004F1A407C4F8BC50C4F8C050D8
:1050FC00C4F8C450C4F8C850062384F8D03006EB6A
:10510C00D6735B104FF4C80292FBF3F2A2634FF01C
:10511C00487292FBF3F3E36307964FF07D552B46F1
:10512C001B4A07A908A802F05FFC08A9404602F038
:10513C00C6FD00962B46174A694601A802F012FCE0
:10514C0001A9384602F0BBFD134B1B88C3EBC3030C
:10515C00124A82FB0312D817C0EBA20000B2A4F8CB
:10516C00640002F049FDA4F86600054B1C60034B7B
:10517C0001221A700EB0BDE8F08100BF5803002068
:10518C002802002070A8000888AF000800FF7F47A5
:10519C000000484300606A468CAF0008676666668C
:1051AC002DE9F0438FB000265D4B1E705D4B1868E7
:1051BC000368DB6B9847A42002F0A1FE044606713D
:1051CC000746594B47F8083B584B1868584B1D6815
:1051DC0005EB4005A660E56075B130460EB102F0F6
:1051EC0088FE0023A3607D60524B9D4200F29480A8
:1051FC00680002F080FEA06000252561E368636111
:10520C004D4B1E683046FBF75DF801464B48FBF7EB
:10521C0061F94FF08E41FBF7A9F802F0C7FEFBF7DE
:10522C006BFAA061E5612562A584284602F02EFD8B
:10523C0000B2E0842085A585284602F027FD00B247
:10524C00E0852086A586284602F00EFD00B2E08699
:10525C002087A587284602F0F5FC00B2E087A4F869
:10526C004000A4F84450284602F0C6FC00B2A4F852
:10527C004600A4F8480004F14C086566A566E5668E
:10528C00256704F17807C4F89050C4F89450C4F81A
:10529C009850C4F89C50A584284602F0F7FCE08492
:1052AC00A586284602F0E0FCE086A585284602F09B
:1052BC00EDFCE085224B1B88C3EBC303214A82FB28
:1052CC000312D817C0EBA20000B2A4F8440002F0FD
:1052DC0093FCA4F846000796DFF870901A4D4B46E5
:1052EC002A4607A908A802F03DFB08A9404602F08F
:1052FC00E6FC00964B462A46694601A802F032FBB2
:10530C0001A9384602F0DBFC064B1C60044B012261
:10531C001A700FB0BDE8F0834FF0FF3069E700BFA3
:10532C005803002028020020E0A70008600200209B
:10533C005C020020FCFFFF3F88AF000800FF7F47A6
:10534C008CAF00086766666600401C463333333FFB
:10535C002DE9F041224E00253570DFF89480D8F805
:10536C0000000368DB6B9847282002F0C8FD044658
:10537C0005711C4B0360C580284602F03DFC00B251
:10538C0020816081E581284602F036FC00B2208243
:10539C006082154B1868FAF795FF01461348FBF726
:1053AC0099F84FF08E41FAF7E1FF02F0FFFDFBF7A1
:1053BC00A3F9A061E5612562012784F824703225E8
:1053CC00E580284602F018FC2081E581284602F091
:1053DC0013FC2082C8F800403770BDE8F08100BF94
:1053EC0058030020B8A8000888AF000800FF7F47CA
:1053FC0028020020F8B5194E00253570184F386872
:10540C000368DB6B98471C2002F079FD044605719C
:10541C00144B0360C580284602F0EEFB00B22081DD
:10542C006081114B1868FAF74DFF01460F48FBF7E6
:10543C0051F84FF08E41FAF799FF02F0B7FDFBF7E8
:10544C005BF920616561A5613220E08002F0D4FB3C
:10545C0020813C6001233370F8BD00BF580300204D
:10546C002802002000A9000888AF000800FF7F4731
:10547C002DE9F04F8FB00027B14B1F70B14B18685E
:10548C000368DB6B984742F6446002F038FD044633
:10549C0007710546AC4B45F8083B076247628762CB
:1054AC00C76200F13406C764076547658765A0F8D5
:1054BC006070384602F0B4FB00B2A4F86200A4F8A5
:1054CC00640004F190030722002A05DB00215960D7
:1054DC0099611C33013AF7E704F5B8720323002BEA
:1054EC0004DB002191600C32013BF8E7002342F60B
:1054FC003062A35042F63462A35042F63862A35095
:10550C0042F63C62A35004F53952136004F5D07393
:10551C00C4F8A0304FF4FD73C4F8A43004F29453D3
:10552C00C4F8BC3040F21A23C4F8C03004F6C813D7
:10553C00C4F8D83040F24323C4F8DC3004F64E6390
:10554C00C4F8F43040F26623C4F8F83004F59853EC
:10555C001A33C4F810314FF42173C4F8143104F524
:10556C00C1530233C4F82C314FF42973C4F83031D1
:10557C0004F5EB530A33C4F8483140F2C223C4F8A3
:10558C004C3104F50B532E33C4F8643140F2DD2357
:10559C00C4F8683104F522532833C4F87031FC2365
:1055AC00C4F8743104F52A532033C4F87C31C82371
:1055BC00C4F8803104F530533033C4F888319A2361
:1055CC00C4F88C3104F535532433C4F89431662374
:1055DC00C4F898315D4B1A684FEAE2795C4B1B6852
:1055EC00D91702FB01F103FB0911A2FB03230B44A6
:1055FC00D10B41EA4341E167D4F8883003EBD37215
:10560C00521002F5804201FB02F2D213C4F8802042
:10561C00C3F5004303EBD3735B1003FB01F3DB1304
:10562C00C4F88430D4F88C204A4B1B689A4212DBA5
:10563C004FF4004323670023A367474B1B68A36603
:10564C000023072B0FDCC3EBC3018A009032216FC0
:10565C00A1500133F5E7E36E2367636FA3673F4BFC
:10566C001B68A366ECE70022072A0CDCC2EBC20124
:10567C008B0090332344A16F9960A16FC1F5004159
:10568C00D9600132F0E7364B1A684FEAE279354BB4
:10569C001B68D91702FB01F103FB0911A2FB03786C
:1056AC008844FA0B42EA48422F4B1B681A44E266C4
:1056BC00D4F8883003EBD372521002F58042E16FBC
:1056CC0001FB02F2D213C4F88020C3F5004303EBB4
:1056DC00D3735B1003FB01F3DB13C4F88430D4F8F1
:1056EC008C201C4B1B689A4212DB4FF4004323673F
:1056FC000023A367184B1B68A3660023072B0FDC42
:10570C00C3EBC3018A009032216FA1500133F5E73E
:10571C00E36E2367636FA367104B1B68A366ECE70C
:10572C000022072A22DCC2EBC2018B0090332344F7
:10573C00A16F9960A16FC1F50041D9600132F0E70A
:10574C00580300202802002048A900083C02002031
:10575C0078020020380200206C0200202C0200206D
:10576C004C0200203402002040020020964B1A68A4
:10577C004FEAE279954B1B68D91702FB01F103FB49
:10578C000911A2FB03788844FA0B42EA484262678B
:10579C00D4F8883003EBD372521002F58042E16FDB
:1057AC0001FB02F2D213C4F88020C3F5004303EBD3
:1057BC00D3735B1003FB01F3DB13C4F88430D4F810
:1057CC008C20834B1B689A4212DB4FF400432367F7
:1057DC000023A3677F4B1B68A3660023072B0FDCFA
:1057EC00C3EBC3018A009032216FA1500133F5E75E
:1057FC00E36E2367636FA367774B1B68A366ECE7C5
:10580C000022072A0CDCC2EBC2018B00903323442C
:10581C00A16F9960A16FC1F50041D9600132F0E729
:10582C006E4B1B68C4F8883003EBD372521002F530
:10583C008042E16F01FB02F2D213C4F88020C3F561
:10584C00004303EBD3735B1003FB01F3DB13C4F8CE
:10585C008430D4F88C205E4B1B689A4212DB4FF4D8
:10586C00004323670023A3675A4B1B68A3660023DE
:10587C00072B0FDCC3EBC3018A009032216FA150C0
:10588C000133F5E7E36E2367636FA367524B1B6825
:10589C00A366ECE70022072A0CDCC2EBC2018B00EA
:1058AC0090332344A16F9960A16FC1F50041D96079
:1058BC000132F0E74A4B1968C4F88C10D4F88830E0
:1058CC0003EBD372521002F58042E06F00FB02F240
:1058DC00D213C4F88020C3F5004303EBD3735B10E1
:1058EC0003FB00F3DB13C4F88430394B1B6899427B
:1058FC0012DB4FF4004323670023A367354B1B686F
:10590C00A3660023072B0FDCC3EBC3018A00903284
:10591C00216FA1500133F5E7E36E2367636FA36733
:10592C002D4B1B68A366ECE70022072A0CDCC2EBAC
:10593C00C2018B0090332344A16F9960A16FC1F514
:10594C000041D9600132F0E7D4F88C20204B1B6861
:10595C009A4207DB4FF400421D4B1B689A4241DA16
:10596C00002202E00022F7E70132072A13DC0021B3
:10597C00C2EBC20083002344D3F8A4308B42F3DD86
:10598C00C2EBC20083002344D3F8A030002023F8DC
:10599C0011000131ECE7002212E002EB420083001F
:1059AC002344D3F87031002023F81100013102EBAD
:1059BC00420083002344D3F874318B42EDDC013276
:1059CC00032A0FDC0021F2E7440200203002002001
:1059DC00380200206C0200202C0200205002002013
:1059EC0048020020804B1868C117021841EB0103D4
:1059FC00171843EB01084FEA081141EA17713801F7
:105A0C0017EB000948EB010A4FEA0A2141EA196138
:105A1C004FEA092019EB00024AEB0103901843EB03
:105A2C000301C20B42EA4142704B1B681A44E26606
:105A3C00D4F8883003EBD372521002F58042E16F38
:105A4C0001FB02F2D213C4F88020C3F5004303EB30
:105A5C00D3735B1003FB01F3DB13C4F88430D4F86D
:105A6C008C20634B1B689A4212DB4FF40043236774
:105A7C000023A3675F4B1B68A3660023072B0FDC77
:105A8C00C3EBC3018A009032216FA1500133F5E7BB
:105A9C00E36E2367636FA367574B1B68A366ECE742
:105AAC000022072A0CDCC2EBC2018B00903323448A
:105ABC00A16F9960A16FC1F50041D9600132F0E787
:105ACC004E4B1F683846F9174FEAC11CFA014CEAD5
