:020000040800F2
:1000000000500020B5710008CD250008CF2500085C
:10001000D1250008D3250008D525000800000000E0
:10002000000000000000000000000000D7250008CC
:10003000D925000800000000DB250008DD250008A8
:10004000FD710008FD710008FD710008FD710008D8
:10005000FD710008FD710008FD710008FD710008C8
:10006000FD710008FD710008FD710008E52500081C
:10007000FD710008FD710008FD710008FD710008A8
:10008000FD710008FD710008FD710008FD71000898
:10009000FD710008FD710008FD710008FD71000888
:1000A000FD710008FD710008FD710008FD71000878
:1000B000FD710008FD710008FD710008FD71000868
:1000C000FD710008FD710008FD710008FD71000858
:1000D000FD710008F5250008FD710008FD7100089C
:1000E000FD710008FD710008FD71000800000000AE
:1000F0000000000000000000000000000000000000
:0C01000000000000000000005FF808F1A3
:10010C0010B5054C237833B9044B13B10448AFF345
:10011C0000800123237010BDE001002000000000CE
:10012C002877000808B5034B1BB103490348AFF30C
:10013C00008008BD00000000E401002028770008C2
:10014C00034613F8012B002AFBD1181A013870470B
:10015C0010B504460E4B18784FF47A73B3FBF0F3DA
:10016C000C4A1068B0FBF3F000F078FB68B90F2C68
:10017C0001D901200AE0002221464FF0FF3000F0A7
:10018C002BFB054B1C60002000E0012010BD00BFC4
:10019C0000000020080000200400002008B5074AD9
:1001AC00136843F010031360032000F003FB0120DD
:1001BC00FFF7CEFF02F0F0F8002008BD002002404F
:1001CC00034A1168034B1B780B441360704700BF44
:1001DC006803002000000020014B1868704700BF26
:1001EC006803002038B50446FFF7F6FF0546B4F166
:1001FC00FF3F02D0044B1B781C44FFF7EDFF401B64
:10020C00A042FAD338BD00BF0000002008B5436AF5
:10021C009A6A12F0500F03D01B6A1B6B984708BDEB
:10022C009A6A42F400729A621A68926802F4602226
:10023C00B2F5602F03D0184606F004FEEFE71A7BE8
:10024C00002AF8D19A6A22F480729A629A6A12F49D
:10025C00805FF0D19A6A42F001029A62EBE708B52E
:10026C00406A06F04FFD08BD704708B5406A836AC6
:10027C0043F040038362C36A43F00403C362FFF795
:10028C00F3FF08BD30B482B00023019390F8243002
:10029C00012B00F08B800246012380F824304B6840
:1002AC00062B29D80568686B03EB8303053B1F24D9
:1002BC009C4020EA04000C6804FA03F303436B63CC
:1002CC000B68092B38D91568E86803EB43031E3B10
:1002DC0007249C4020EA04008C6804FA03F30343CF
:1002EC00EB600B68103B012B34D90020002382F803
:1002FC00243002B030BC70470C2B0ED80568286B2C
:10030C0003EB8303233B1F249C4020EA04000C686E
:10031C0004FA03F303432B63D2E70568E86A03EBA3
:10032C008303413B1F249C4020EA04000C6804FA20
:10033C0003F30343EB62C3E71568286903EB43033C
:10034C0007249C4020EA04008C6804FA03F303435E
:10035C002B61C6E713681648834205D0936A43F0B5
:10036C00200393620120C1E7986810F4000F1BD1A1
:10037C00986840F4000098600B68102B01D00020A6
:10038C00B4E70C4B1B680C49A1FB03139B0C03EB50
:10039C0083035900019102E0019B013B0193019BF6
:1003AC00002BF9D10020A1E700209FE70220A0E755
:1003BC00002401400800002083DE1B4330B583B0CD
:1003CC000023019303689A6812F0010F2ED19A68EA
:1003DC0042F001029A60174B1B68174AA2FB0323D9
:1003EC009B0C019302E0019B013B0193019B002BB1
:1003FC00F9D10446FFF7F0FE054623689B6813F01D
:10040C00010F11D1FFF7E8FE401B0228F5D9A36AB2
:10041C0043F01003A362E36A43F00103E362002399
:10042C0084F82430012002E0002000E0002003B01A
:10043C0030BD00BF0800002083DE1B43F8B5046804
:10044C00454DAC425BD0454B9C4258D090F8244073
:10045C00012C7ED016460D460446012380F824302C
:10046C00FFF7ACFF074600286ED1A36A23F4706334
:10047C0023F0010343F48073A3622268374B9A4242
:10048C0044D0A36A23F48013A362536813F4806FDF
:10049C0005D0A36A23F4405343F48053A362A36AA8
:1004AC0013F4805F48D0E36A23F00603E362002371
:1004BC0084F82430236A2A4A9A62236A294ADA6227
:1004CC00236A294A1A6323686FF002021A602268B1
:1004DC00936843F480739360216833462A464C3109
:1004EC00206A00F01DFA2268936803F46023B3F5C8
:1004FC00602F24D0936843F48013936027E0164B4D
:10050C005B6813F4702FA1D0012720E0A3F5806362
:10051C005B6813F4702FB4D0A36A43F48013A36206
:10052C000D4B5B6813F4806FB9D0A36A23F440536E
:10053C0043F48053A362B2E70023E362B7E7936806
:10054C0043F4A003936002E0002384F8243038467F
:10055C00F8BD0227FBE700BF002401400028014042
:10056C00190200086B0200087702000838B503680E
:10057C009A6812F0010F01D1002038BD04469A6828
:10058C0022F001029A60FFF727FE054623689B685C
:10059C0013F0010F0ED0FFF71FFE401B0228F5D9F8
:1005AC00A36A43F01003A362E36A43F00103E3621E
:1005BC000120E2E70020E0E700287FD038B50446B0
:1005CC00836A002B33D02046FFF7D0FFA36A13F0C9
:1005DC0010036DD100286BD1A26A22F4885222F04C
:1005EC00020242F00202A2626268E1690A43257BC0
:1005FC0042EA4502A168B1F5807F21D001291CD0C7
:10060C00217D01291FD02568696821F469410B43BC
:10061C006B6021688D682A4B2B4013438B60A36859
:10062C00B3F5807F20D0012B1ED000211FE0C362C8
:10063C0080F8243001F0D2FEC5E74FF48073DFE779
:10064C004FF48073DCE735B9A169013943EA4133D2
:10065C0043F40063D7E7A16A41F02001A162E16A8B
:10066C0041F00101E162CEE72369013B19052568E0
:10067C00EB6A23F470030B43EB6223689968114B0C
:10068C000B409A420BD0A36A23F0120343F01003E1
:10069C00A362E36A43F00103E36201200DE000234F
:1006AC00E362A36A23F0030343F00103A36204E0B3
:1006BC00A36A43F01003A362012038BD01207047E8
:1006CC00FDF7E1FFFE0E1FFF70B582B00023019312
:1006DC0090F82430012B68D00446012380F8243094
:1006EC00FFF744FF054628B1002384F82430284640
:1006FC0002B070BDA36A23F4885323F0020343F0C5
:10070C000203A3622A4B1E68022000F0DDFEB6FB3A
:10071C00F0F04000019002E0019B013B0193019B32
:10072C00002BF9D12046FFF749FE2268936843F06D
:10073C0008039360FFF750FD064623689A6812F091
:10074C00080F0FD0FFF748FD801B0A28F5D9A36AC4
:10075C0023F0120343F01003A362002384F8243027
:10076C000125C4E79A6842F004029A60FFF734FD51
:10077C00064623689B6813F0040F0FD0FFF72CFD7F
:10078C00801B0A28F5D9A36A23F0120343F0100347
:10079C00A362002384F824300125A8E7A36A23F080
:1007AC00030343F00103A3629EE702259FE700BF0A
:1007BC0008000020074AD36823F4E0631B041B0CD9
:1007CC00000200F4E060184340F0BF6040F40030D9
:1007DC00D060704700ED00E030B4174BDB68C3F31A
:1007EC000223C3F10704042C28BF04241D1D062D6D
:1007FC0018D9033B4FF0FF3505FA04F421EA040144
:10080C00994005FA03F322EA0303194300280BDB92
:10081C000901C9B200F1604000F5614080F8001395
:10082C0030BC70470023E5E700F00F000901C9B2A6
:10083C00024B1954F4E700BF00ED00E014ED00E0AA
:10084C00002807DB00F01F02400901239340024AF5
:10085C0042F82030704700BF00E100E00138B0F1F1
:10086C00807F0AD2064B5860064AF02182F823108A
:10087C000020986007221A6070470120704700BF63
:10088C0010E000E000ED00E070B4066CC56B0124D4
:10089C00B4406C60046863604368102B05D0036837
:1008AC0099600368DA6070BC704703689A600368EB
:1008BC00D960F8E760B310B402460168154B0B44DD
:1008CC001548A0FB03031B099B001364134BD36354
:1008DC00022382F82130086820F47F5020F0300089
:1008EC00536894682343D46823431469234354699D
:1008FC00234394692343D469234303430B600020AF
:10090C009063012382F8213082F8200010BC7047DC
:10091C0001207047F8FFFDBFCDCCCCCC00000240CD
:10092C0038B590F82040012C32D0012480F82040BA
:10093C0090F82140012C04D0002380F820300220B4
:10094C0038BD0446022084F821000020A0632568ED
:10095C00286820F0010028602046FFF795FFE36A25
:10096C005BB12268136843F00E03136022681368AE
:10097C0043F0010313600020E2E72268136823F0C0
:10098C00040313602268136843F00A031360EDE755
:10099C000220D5E708B590F82130022B03D00423B0
:1009AC008363012008BD0268136823F00E031360F3
:1009BC000268136823F0010313600368194A934219
:1009CC0014D0143293421FD0143293421ED01432DE
:1009DC0093421ED0143293421ED01432934202D052
:1009EC004FF0807203E04FF4801200E001220E4BB6
:1009FC005A60012380F82130002380F82030436BAB
:100A0C006BB198470020CDE71022F0E74FF48072CD
:100A1C00EDE74FF48052EAE74FF48032E7E700202D
:100A2C00C0E700BF080002400000024038B5C36BAD
:100A3C001A6804682568016C04238B40134235D076
:100A4C0015F0040F32D0236813F0200F03D1236864
:100A5C0023F0040323600368434A934214D01432F6
:100A6C00934218D01432934217D01432934217D0B9
:100A7C001432934217D01432934202D04FF080625A
:100A8C0003E04FF4800200E00422384B5A60C36A42
:100A9C0003B1984738BD4022F7E74FF48062F4E782
:100AAC004FF48042F1E74FF48022EEE702238B40B3
:100ABC0013423CD015F0020F39D0236813F0200FED
:100ACC0006D1236823F00A032360012380F8213028
:100ADC000368254A934214D0143293421CD014322A
:100AEC0093421BD0143293421BD0143293421BD02E
:100AFC001432934202D04FF0007203E04FF4001214
:100B0C0000E00222194B5A60002380F82030836ADF
:100B1C00002BBFD09847BDE72022F3E74FF40072BB
:100B2C00F0E74FF40052EDE74FF40032EAE7082308
:100B3C0003FA01F11142ADD015F0080FAAD02368C9
:100B4C0023F00E032360026CC16B012303FA02F243
:100B5C004A60836380F82130002380F82030036BD7
:100B6C00002B97D0984795E7080002400000024000
:100B7C00F0B482B000263246A2E0002D5AD0012DEE
:100B8C0000D1CE68FF2B69D88446FF2B69D895001D
:100B9C00DCF800400F27AF4024EA070406FA05F5FD
:100BAC002C43CCF800404C6814F0805F00F0878038
:100BBC005F4CA56945F00105A561A46904F0010429
:100BCC000194019C9508AF1C5A4C54F8274002F034
:100BDC000307BF004FF00F0C0CFA07FC24EA0C0CB7
:100BEC00554CA04243D004F58064A04200F08180B3
:100BFC0004F58064A0427ED004F58064A04234D019
:100C0C00042435E04D4FBD4214D00BD94C4FBD429E
:100C1C0010D007F58037BD420CD0A7F58017BD4228
:100C2C00B0D107E0A7F58017BD4203D007F5803798
:100C3C00BD42A7D18D687DB1012D08D04461082635
:100C4C00A0E7CE6808369DE7CE680C369AE70461BB
:100C5C00082697E7002695E7042693E700F1040C95
:100C6C0093E7A2F10805AD0092E7032400E000240D
:100C7C00BC4044EA0C0402352E4F47F825404C6822
:100C8C0014F4803F39D02F4D2C681C432C604C68D9
:100C9C0014F4003F37D02B4D6C681C436C604C68CF
:100CAC0014F4801F35D0274DAC681C43AC604C68E5
:100CBC0014F4001F33D0234DEC682343EB60013256
:100CCC000B6833FA02F430D00124944023409C4248
:100CDC00F5D14D68122DB7D094D8022DB1D07FF636
:100CEC004CAF032DB6D0112D7FF44CAFCE6804362B
:100CFC0048E70124BCE70224BAE7124D2C6824EA29
:100D0C0003042C60C3E70F4D6C6824EA03046C6089
:100D1C00C5E70C4DAC6824EA0304AC60C7E7094D89
:100D2C00EC6824EA0303EB60C9E702B0F0BC70473F
:100D3C00001002400000014000080140000021109A
:100D4C00000031100004014012B909040161704720
:100D5C000161704782B0084B1B68084AA2FB032351
:100D6C005B0A00FB03F0019000BF019B5A1E01922D
:100D7C00002BF9D102B0704708000020D34D62104F
:100D8C00002800F0F58170B582B00446036813F0BA
:100D9C00010F2CD0AB4B5B6803F00C03042B1DD064
:100DAC00A84B5B6803F00C03082B12D06368B3F5F7
:100DBC00803F41D0002B55D103F1804303F5043320
:100DCC001A6822F480321A601A6822F480221A609F
:100DDC0037E09C4B5B6813F4803FE7D0994B1B6862
:100DEC0013F4003F03D06368002B00F0C381236829
:100DFC0013F0020F76D0934B5B6813F00C0F5FD09F
:100E0C00904B5B6803F00C03082B54D02369002B28
:100E1C0000F08A808C4B01221A60FFF7DDF9054641
:100E2C00884B1B6813F0020F75D1FFF7D5F9401BE7
:100E3C000228F5D90320A0E1824A136843F48033D9
:100E4C001360636843B3FFF7C7F905467D4B1B6816
:100E5C0013F4003FCBD1FFF7BFF9401B6428F5D941
:100E6C0003208AE1B3F5A02F09D0764B1A6822F43F
:100E7C0080321A601A6822F480221A60E1E703F1CA
:100E8C008043A3F53C331A6842F480221A601A6836
:100E9C0042F480321A60D4E7FFF79EF90546694B9D
:100EAC001B6813F4003FA2D0FFF796F9401B64288F
:100EBC00F5D9032061E1634B5B6813F4803FA5D146
:100ECC00604B1B6813F0020F04D02369012B01D077
:100EDC00012052E15B4A136823F0F803616943EA8D
:100EEC00C1031360236813F0080F32D0A369002BE1
:100EFC005BD0564B01221A60FFF76EF90546514B39
:100F0C005B6A13F0020F21D1FFF766F9401B022830
:100F1C00F5D9032031E14B4A136823F0F8036169DA
:100F2C0043EAC1031360DDE7474B00221A60FFF769
:100F3C0053F90546434B1B6813F0020FD2D0FFF751
:100F4C004BF9401B0228F5D9032016E10120FFF7CD
:100F5C0001FF236813F0040F00F09880394BDB6914
:100F6C0013F0805F33D1374BDA6942F08052DA618B
:100F7C00DB6903F080530193019B0125344B1B6803
:100F8C0013F4807F25D0E368012B36D0002B4CD195
:100F9C0003F1804303F504331A6A22F001021A624A
:100FAC001A6A22F004021A622CE0284B00221A6002
:100FBC00FFF712F90546234B5B6A13F0020FC8D0FA
:100FCC00FFF70AF9401B0228F5D90320D5E00025CC
:100FDC00D4E71F4A136843F480731360FFF7FCF8DF
:100FEC0006461B4B1B6813F4807FCCD1FFF7F4F83B
:100FFC00801B6428F5D90320BFE0124A136A43F022
:10100C0001031362E3687BB3FFF7E6F806460D4B6A
:10101C001B6A13F0020F38D1FFF7DEF8801B41F288
:10102C0088339842F3D90320A7E0052B12D0054B47
:10103C001A6A22F001021A621A6A22F004021A6277
:10104C00E0E700BF00100240000042428004424230
:10105C00007000404C4B1A6A42F004021A621A6A81
:10106C0042F001021A62CDE7FFF7B6F80646464B8E
:10107C001B6A13F0020F08D0FFF7AEF8801B41F289
:10108C0088339842F3D9032077E0E5B9E369002B64
:10109C0072D03D4A526802F00C02082A56D0022B3C
:1010AC0017D03A4B00221A60FFF796F80446364BDD
:1010BC001B6813F0007F47D0FFF78EF8001B022847
:1010CC00F5D9032059E0304AD36923F08053D3611A
:1010DC00DCE72E4B00221A60FFF77EF805462A4B00
:1010EC001B6813F0007F06D0FFF776F8401B022830
:1010FC00F5D9032041E0236AB3F5803F1AD0224989
:10110C004B6823F47413226A606A024313434B60E6
:10111C001E4B01221A60FFF75FF804461A4B1B683E
:10112C0013F0007F0ED1FFF757F8001B0228F5D9FA
:10113C00032022E0144A536823F40033A1680B43C4
:10114C005360DCE7002018E0002016E0012B16D0DD
:10115C000D4B5B6803F48031226A914201D001206F
:10116C000BE003F47013626A93420AD0012004E08E
:10117C0001207047012000E0002002B070BD01206A
:10118C00FBE70020F9E700BF00100240600042427C
:10119C0010B487B0164C94E80F000DF1180C0CE944
:1011AC000F00238AADF80430124B5B6803F00C027D
:1011BC00082A1AD1C3F38342624412F8102C13F498
:1011CC00803F05D10C4800FB02F007B010BC704703
:1011DC00084B5B68C3F34043634413F8143C074863
:1011EC0000FB02F0B0FBF3F0EFE70448EDE700BFC3
:1011FC00407700080010024000093D0000127A0000
:10120C00002800F0A38070B50446524B1B6803F015
:10121C0007038B420CD24F4A136823F007030B438E
:10122C001360136803F007038B4201D0012070BDDB
:10123C00236813F0020F17D013F0040F04D0464AA2
:10124C00536843F4E0635360236813F0080F04D031
:10125C00414A536843F4605353603F4A536823F048
:10126C00F003A068034353600D46236813F0010F8D
:10127C0031D06368012B20D0022B25D0364A12685E
:10128C0012F0020F64D034494A6822F0030213436F
:10129C004B60FEF7A1FF06462F4B5B6803F00C0377
:1012AC006268B3EB820F16D0FEF796FF801B41F2FB
:1012BC0088339842F0D90320B9E7274A126812F410
:1012CC00003FE0D10120B2E7234A126812F0007F00
:1012DC00D9D10120ABE71F4B1B6803F00703AB42CE
:1012EC000CD91C4A136823F007032B4313601368B3
:1012FC0003F00703AB4201D0012098E7236813F0F9
:10130C00040F06D0144A536823F4E063E1680B43DE
:10131C005360236813F0080F07D00F4A536823F467
:10132C006053216943EAC1035360FFF731FF0A4B55
:10133C005B68C3F30313094AD35CD840084B1860AD
:10134C00084B1868FEF704FF002070E70120704777
:10135C0001206CE700200240001002409879000840
:10136C000800002004000020014B1868704700BFE3
:10137C000800002008B5FFF7F7FF044B5B68C3F3C8
:10138C000223034AD35CD84008BD00BF00100240C2
:10139C00A879000808B5FFF7E7FF044B5B68C3F3B7
:1013AC00C223034AD35CD84008BD00BF00100240E2
:1013BC00A879000870B582B00446036813F0010FD9
:1013CC0034D03E4BDB6913F0805F48D13B4BDA697C
:1013DC0042F08052DA61DB6903F080530193019B88
:1013EC000125374B1B6813F4807F3AD0334B1B6AB3
:1013FC0013F4407311D0626802F440729A420CD01C
:10140C002E4A136A23F440702E4901260E600026E2
:10141C000E60106213F0010F37D1284A136A23F4BF
:10142C00407361680B431362002D3FD1236813F0A6
:10143C00020F06D0214A536823F44043A1680B43A2
:10144C005360236813F0100F35D01C4A536823F4F3
:10145C008003E1680B435360002002B070BD00258F
:10146C00BFE7174A136843F480731360FEF7B4FEAA
:10147C000646134B1B6813F4807FB7D1FEF7ACFE06
:10148C00801B6428F5D90320E7E7FEF7A5FE064686
:10149C000A4B1B6A13F0020FBFD1FEF79DFE801B97
:1014AC0041F288339842F3D90320D6E7D36923F06D
:1014BC008053D361BAE70020CFE700BF0010024091
:1014CC00007000404004424230B587B00546384CAD
:1014DC0094E80F000DF1180C0CE90F00238AADF8FD
:1014EC000430022D50D0102D03D0012D2BD0002014
:1014FC0054E0304B5A681B6813F0807F50D0C2F315
:10150C00834306A90B4413F8100C12F4803F16D039
:10151C00284B5B68C3F340430B4413F8142C264B45
:10152C00B3FBF2F300FB03F0224B5B6813F4800F68
:10153C0034D14000214BA3FB003040082EE0204B5F
:10154C0003FB00F0F0E71B4B1B6A40F202321A401F
:10155C00B2F5817F26D003F44073B3F5007F04D03D
:10156C00B3F5407F09D0002018E0124A526A12F0FD
:10157C00020FF5D049F6404010E00E4B1B6813F4F7
:10158C00003F12D1002009E0FFF704FF094B5B6814
:10159C00C3F3813301335B00B0FBF3F007B030BD14
:1015AC000020FBE74FF40040F8E74FF22440F5E74A
:1015BC00547700080010024000127A00ABAAAAAAC5
:1015CC0000093D0070B4036A23F001030362036A4F
:1015DC004268846924F073040D6845EA040623F01C
:1015EC0002048B6823430D4DA84209D00B4DA84231
:1015FC000DD0426086614A684263036270BC7047DA
:10160C0023F00803CC68234323F00403EEE722F411
:10161C0040724C6914438A692243EAE7002C01406A
:10162C0030B4036A23F480730362036A4268C469AA
:10163C0024F073040D682C4323F400738D6843EA83
:10164C0005230F4DA84209D00D4DA8420ED0426083
:10165C00C4614A68C263036230BC704723F4006300
:10166C00CD6843EA052323F48063EDE722F440526E
:10167C004D6942EA05128D6942EA0512E7E700BF9F
:10168C00002C014030B4036A23F480530362036AD4
:10169C004468C26922F4E6420D6842EA052223F44A
:1016AC0000538D6843EA0533074DA84206D04460C9
:1016BC00C2614A680264036230BC704724F48044FF
:1016CC004D6944EA8514F2E7002C014003681B4A7B
:1016DC0090420AD0B0F1804F07D0A2F594329042DC
:1016EC0003D002F58062904203D123F070034A6864
:1016FC001343124A90420AD0B0F1804F07D0A2F5A2
:10170C009432904203D002F58062904203D123F4CC
:10171C004073CA68134323F080034A691343036080
:10172C008B68C3620B688362044B984202D001231E
:10173C00436170470B690363F9E700BF002C01405C
:10174C00A8B110B5044690F83D305BB1022384F883
:10175C003D30211D2068FFF7B9FF012384F83D308F
:10176C00002010BD80F83C3000F088FEEEE7012030
:10177C007047A8B110B5044690F83D305BB1022318
:10178C0084F83D30211D2068FFF7A0FF012384F869
:10179C003D30002010BD80F83C3000F083FEEEE7B9
:1017AC000120704730B4036A23F010030362036A0C
:1017BC004468826922F4E6420D6842EA052223F06D
:1017CC0020038D6843EA05130E4DA84209D00D4D38
:1017DC00A8420ED0446082614A688263036230BCC6
:1017EC00704723F08003CD6843EA051323F04003D0
:1017FC00EDE724F440644D6944EA85048D6944EABC
:10180C008504E7E7002C014090F83C30012B28D0F0
:10181C0010B50446012380F83C30022380F83D309B
:10182C000C2A0BD8DFE802F0070A0A0A110A0A0A86
:10183C00150A0A0A19000068FFF7C4FE012384F890
:10184C003D30002084F83C0010BD0068FFF7AAFF73
:10185C00F4E70068FFF7E4FEF0E70068FFF712FF1B
:10186C00ECE70220704738B590F83C30012B66D07D
:10187C000D460446012380F83C30022380F83D30AD
:10188C000C2A1AD8DFE802F00719191920191919AE
:10189C003419191947000068FFF794FE2268936900
:1018AC0043F0080393612268936923F00403936166
:1018BC002268936929690B439361012384F83D30B5
:1018CC00002084F83C0038BD0068FFF76BFF2268ED
:1018DC00936943F4006393612268936923F48063F2
:1018EC00936122689369296943EA01239361E4E7D0
:1018FC000068FFF795FE2268D36943F00803D361B3
:10190C002268D36923F00403D3612268D36929695F
:10191C000B43D361D1E70068FFF7B4FE2268D369AB
:10192C0043F40063D3612268D36923F48063D361E9
:10193C002268D369296943EA0123D361BDE70220F8
:10194C00C1E710B401F01F01012303FA01F4036A8B
:10195C0023EA04030362036A8A401343036210BC44
:10196C007047000010B5044601220068FFF7E9FF3C
:10197C0023680A4A93420BD02268936803F007034A
:10198C00062B03D0136843F001031360002010BD35
:10199C005A6C42F400425A64EEE700BF002C01403E
:1019AC0010B5044601220068FFF7CBFF23680A4AF2
:1019BC0093420BD02268936803F00703062B03D0E5
:1019CC00136843F001031360002010BD5A6C42F4FD
:1019DC0000425A64EEE700BF002C014090F83C3006
:1019EC00012B1CD070B4012680F83C60022380F8D7
:1019FC003D3002685568936825F070050C682C43DF
:101A0C0023F080054B682B4354600268936080F888
:101A1C003D60002380F83C30184670BC70470220B3
:101A2C0070470268D36823F49073D36002685369DB
:101A3C0023F001035361202380F83A30704790F86B
:101A4C003930DBB2212B2AD18368B3F5805F16D0F5
:101A5C00036A5A1C02621A7803685A60C38C013BF1
:101A6C009BB2C384EBB90268D36823F08003D360C4
:101A7C000268D36843F04003D36000207047036AC8
:101A8C001B880268C3F30803536003691BB9036A1C
:101A9C0002330362E2E7036A01330362DEE70220EA
:101AAC00704700207047000038B50446026813697F
:101ABC0023F44053C1680B431361836802691343D9
:101ACC0042691A430168CB6823F4B05323F00C032A
:101ADC001343CB600268536923F4407381690B4351
:101AEC0053610268214B9A421FD0FFF743FC00EB75
:101AFC00800000EB800063689B00B0FBF3F01C4D92
:101B0C00A5FB00325109642202FB1102130132338E
:101B1C00A5FB03235B0903F0F00202EB011203F0B7
:101B2C000F03216813448B6038BDFFF733FC00EBC7
:101B3C00800000EB800063689B00B0FBF3F00C4D61
:101B4C00A5FB00325109642202FB1102130132334E
:101B5C00A5FB03235B0903F0F00202EB011203F077
:101B6C000F03216813448B60DEE700BF003801408F
:101B7C001F85EB512DE9F04105460F461646984658
:101B8C00069C2B681B6837EA03030CBF0123002358
:101B9C00B3421DD1B4F1FF3FF3D02CB1FEF71CFBC7
:101BAC00A0EB0800A042ECD92A68D36823F4D073C8
:101BBC00D3602A68536923F001035361202385F80D
:101BCC00393085F83A30002385F83830032000E0AE
:101BDC000020BDE8F08158B310B5044690F83930B8
:101BEC000BB3242384F839302268D36823F40053D0
:101BFC00D3602046FFF758FF2268136923F4904303
:101C0C0013612268536923F02A0353612268D36855
:101C1C0043F40053D3600020E063202384F8393070
:101C2C0084F83A3010BD80F8383000F085FCD8E7E5
:101C3C00012070472DE9F04182B01E4690F83930F2
:101C4C00DBB2202B55D104460D469046002955D0C9
:101C5C00002A55D090F83830012B53D0012380F84E
:101C6C0038300023C363212380F83930FEF7B4FAEF
:101C7C000746A4F82480A4F8268010E000963B4682
:101C8C00002280212046FFF775FF00283CD12B88CD
:101C9C002268C3F3080353602369C3B90235E38C8C
:101CAC009BB2B3B1E38C013B9BB2E384A368B3F565
:101CBC00805FE3D000963B46002280212046FFF750
:101CCC0059FF18BB2A7823685A600135E7E70135BC
:101CDC00E5E700963B46002240212046FFF74AFFED
:101CEC000346A8B9202284F83920002284F8382031
:101CFC0000E00223184602B0BDE8F0810123F9E7A9
:101D0C000123F7E70223F5E70323F3E70323F1E7C6
:101D1C000323EFE72DE9F04182B01E4690F83A30EC
:101D2C00DBB2202B5AD104460D469046002959D0DF
:101D3C00002A59D090F83830012B57D0012380F865
:101D4C0038300023C363222380F83A30FEF744FA7C
:101D5C000746A4F82C80A4F82E801DE000963B4684
:101D6C00002220212046FFF705FF002840D12369DF
:101D7C0033B923685B68C3F3080325F8023B0BE017
:101D8C0023685B68DBB225F8013B05E023685B68E0
:101D9C0003F07F032B700135E38D9BB2BBB1E38D58
:101DAC00013B9BB2E385A368B3F5805FD6D0009668
:101DBC003B46002220212046FFF7DCFED0B92369E8
:101DCC00002BE3D123685B682B700135E4E72023FB
:101DDC0084F83A30002084F8380000E0022002B089
:101DEC00BDE8F0810120FAE70120F8E70220F6E7D0
:101DFC000320F4E70320F2E7704708B50168CB68CD
:101E0C0023F04003CB60202380F83930FFF7F4FF38
:101E1C00002008BD704708B590F83A30DBB2222B91
:101E2C0045D18368B3F5805F0ED0036903BB0368AB
:101E3C005A68836A591C81621A70C38D013B9BB22C
:101E4C00C385F3B1002033E0826A036943B90368A8
:101E5C005B68C3F308031380836A02338362ECE785
:101E6C0003685B68DBB21380836A01338362E4E747
:101E7C0003685B68826A511C816203F07F031370F4
:101E8C00DBE70268D36823F02003D3600268D368D1
:101E9C0023F48073D3600268536923F00103536108
:101EAC00202380F83A30FFF7B5FF002000E0022035
:101EBC0008BD704710B5044602681368D1685269B2
:101ECC0013F00F0005D113F0200F02D011F0200FEA
:101EDC0053D1002867D012F0010202D111F4907F87
:101EEC0061D013F0010F06D011F4807F03D0E06BAA
:101EFC0040F00100E06313F0040F04D01AB1E06B62
:101F0C0040F00200E06313F0020F04D01AB1E06B52
:101F1C0040F00400E06313F0080F04D01AB1E26B38
:101F2C0042F00802E263E26B002A48D013F0200F63
:101F3C0002D011F0200F24D123685B6903F0400319
:101F4C00E26B12F0080F00D13BB32046FFF769FD9E
:101F5C0023685A6912F0400F1BD05A6922F04002D4
:101F6C005A61636B8BB11A4A5A63606BFEF712FDB0
:101F7C0028B3606B436B984721E02046FFF74BFF7B
:101F8C001DE02046FFF747FFD6E72046FFF791FFFD
:101F9C0015E02046FFF78DFF11E02046FFF789FF83
:101FAC000023E3630BE013F0800F02D011F0800FDD
:101FBC0006D113F0400F02D011F0400F04D110BD28
:101FCC002046FFF73CFDFAE72046FFF716FFF6E741
:101FDC00E11F000808B5406A0023C385C384FFF7DE
:101FEC0068FF08BD08B5094805F0CFF8084805F0AA
:101FFC00CCF8084805F0C9F8074805F0C6F80748BA
:10200C0005F0C3F8064800F0F3FB08BD687700083C
:10201C00EC77000850780008F4780008887F0008F6
:10202C000402002010B582B0684604F0CBFF9DF886
:10203C00000005F017FBC4B20DF1010005F001F929
:10204C00021E03DB632A02DD632200E00022232C44
:10205C0008D02146084800F079FB074800F0C8FB7F
:10206C0002B010BD1146044800F044FB0028F4D027
:10207C00024A1060F1E700BF04020020FC010020BE
:10208C0070B588B000240494059406940794214BF1
:10209C009A6942F010029A619A6902F01002009259
:1020AC00009A9A6942F020029A619A6902F0200221
:1020BC000192019A9A6942F008029A619A6902F0B7
:1020CC0008020292029A9A6942F004029A619B6990
:1020DC0003F004030393039B0F4D22464FF400516E
:1020EC002846FEF731FE4FF4005304930126059663
:1020FC0006940223079304A92846FEF739FD4FF4F2
:10210C00004304930594069604A92846FEF730FD77
:10211C0008B070BD001002400010014000B583B043
:10212C000A4B5A6942F001025A615B6903F00103E0
:10213C000193019B002211460B20FEF74DFB0B2057
:10214C00FEF77EFB03B05DF804FB00BF00100240FD
:10215C0070B584B000250195029503950C4C0D4B80
:10216C002360A560257325754FF4C023E36165607A
:10217C00012626612046FEF71FFA082301930296DA
:10218C00039501A92046FEF77DF804B070BD00BF91
:10219C00AC0300200024014030B58BB0002408941F
:1021AC00099401940294039404940594069407945E
:1021BC00104D4FF080432B606C60AC601123EB60D2
:1021CC002C61AC612846FFF7BBFA5023089380239F
:1021DC00099308A92846FFF701FC302301930294C8
:1021EC000394059404220DEB02012846FFF70CFB27
:1021FC000BB030BD6004002008B50848084B0360E4
:10220C004FF41653436000238360C36003610C22B8
:10221C0042618361C361FFF7DEFC08BDDC03002073
:10222C000038014030B58BB0002408940994019417
:10223C00029403940494059406940794144D154B3E
:10224C002B606C60AC60FF23EB602C618023AB6176
:10225C002846FFF78EFA0894099408A92846FFF738
:10226C00BDFB602301937F230293039405942246C4
:10227C0001A92846FFF7F7FA04220DEB02012846C4
:10228C00FFF7F1FA284600F023F90BB030BD00BF80
:10229C006C0300200004004030B595B000240C9471
:1022AC000D940F9410940594069407940894099433
:1022BC00019402940394049401220A924FF4803303
:1022CC000B930E920225119512934FF4E013139376
:1022DC000AA8FEF755FD0F230593069507944FF4B6
:1022EC00806308930994294605A8FEF789FF019598
:1022FC00039401A8FFF75EF815B030BD08B5FDF7E3
:10230C004DFFFFF7C9FFFFF7BBFEFFF707FFFFF716
:10231C001FFFFFF741FFFFF76FFFFFF783FF00F091
:10232C0011F8002008BD704710B50446044B18681E
:10233C0003689B6821469847204404F0AFFC10BD0D
:10234C00FC01002008B54FF47A5004F081FE03F034
:10235C007BFF01210C4800F0CDF90C4B186004F008
:10236C008FFC04F0A9FC0A4804F00FFFFFF73AFEBB
:10237C004FF47A70FDF736FF064A1378013B137061
:10238C00FFF750FEFCE700BF04020020FC01002018
:10239C006C7900080C00002082B00E4B9A6942F058
:1023AC0001029A619A6902F001020092009ADA69BC
:1023BC0042F08052DA61DB6903F080530193019B98
:1023CC00054A536823F0E06343F00073536002B096
:1023DC00704700BF001002400000014010B586B0ED
:1023EC000023029303930493059302681F4B9A42B4
:1023FC0001D006B010BD044603F56C439A6942F453
:10240C0000729A619A6902F400720092009A9A69B9
:10241C0042F008029A619B6903F008030193019B47
:10242C00012302930323039302A91148FEF7A0FB97
:10243C001048114B03600023436083608023C3600A
:10244C004FF4807303614FF48063436120238361F5
:10245C004FF40053C361FEF72DFA18B9054B2362F4
:10246C005C62C6E7FFF75FFFF8E700BF002401409E
:10247C00000C01401C040020080002400368B3F16A
:10248C00804F00D0704782B003F50433DA6942F014
:10249C000102DA61DB6903F001030193019B02B0D5
:1024AC00704700000268094B9A4200D0704782B016
:1024BC0003F50333DA6942F00202DA61DB6903F0F7
:1024CC0002030193019B02B0704700BF000400405F
:1024DC0000B587B00023029303930493059302681D
:1024EC00124B9A4202D007B05DF804FB03F503339C
:1024FC009A6942F008029A619B6903F00803019300
:10250C00019B30230293022303930323059302A917
:10251C000748FEF72DFB074A536823F4406343F04A
:10252C00E06343F400635360DDE700BF0004004048
:10253C00000C01400000014070B586B000230293EE
:10254C0003930493059302681B4B9A4201D006B087
:10255C0070BD03F558439A6942F480429A619A69B6
:10256C0002F480420092009A9A6942F004029A6145
:10257C009B6903F004030193019B4FF400730293D6
:10258C0002250395032305930C4E02A93046FEF752
:10259C00EFFA4FF48063029300240394049402A98D
:1025AC003046FEF7E5FA224629462520FEF714F9B7
:1025BC002520FEF745F9CAE7003801400008014024
:1025CC007047FEE7FEE7FEE7FEE77047704770478F
:1025DC0008B5FDF7F5FD08BD08B50248FEF726FA6B
:1025EC0008BD00BF1C04002008B50248FFF762FCC0
:1025FC0008BD00BFDC0300200120704708B504F0C3
:10260C0025FE162303604FF0FF3008BD08B54FF0D0
:10261C00FF31FFF7F3FFFEE708B503460B4A1268DC
:10262C0042B10A4A106803446A46934206D8074AE4
:10263C00136008BD054A06491160F2E704F006FE76
:10264C000C2303604FF0FF30F3E700BF00020020C3
:10265C00A80400200F4B1A6842F001021A60596856
:10266C000D4A0A405A601A6822F0847222F48032B1
:10267C001A601A6822F480221A605A6822F4FE0248
:10268C005A604FF41F029A60044B4FF000629A603C
:10269C00704700BF001002400000FFF800ED00E0A2
:1026AC0038B5044600230360416071B10D461846ED
:1026BC000BB104F09EFD002323606560084B9D4226
:1026CC000AD8A80004F097FD20600023A3604FF007
:1026DC00FF33E360204638BD4FF0FF30F2E700BF18
:1026EC00FEFFFF1F8268036843F8221083680133E2
:1026FC008360704738B50D1E21DB8368AB4220DD4B
:10270C000446114A137801331370C368002B05DBA0
:10271C00026852F823000368DB689847E560236879
:10272C0053F8250003689B68984704460368DB6CE4
:10273C009847054A1378013B1370204638BD002496
:10274C00FBE70024F9E700BF0C000020C368002B56
:10275C000DDB10B58468A34208DA006800EB830433
:10276C0024B150F8230003685B69984710BD70478B
:10277C0070B506460024254600E00134B368A34238
:10278C001ADD164804F0E8FC0A21204604F0EDFCA2
:10279C00134804F0E1FC336853F8240003689B6988
:1027AC009847104804F0D8FC0135032DE5D10E48AC
:1027BC0004F0EBFC0025E0E70B4804F0E6FC0B4BC7
:1027CC0083FB0523A3EBE57303EB43039D4200D18D
:1027DC0070BD054804F0D9FCFAE700BFB0790008D9
:1027EC00B4790008B8790008887F0008565555550B
:1027FC0010B50446FFF7BCFF0D4804F0ADFC0A21F0
:10280C00E06804F0B2FC0B4804F0A6FCE268236814
:10281C0053F8220003689B699847074804F0B5FCFD
:10282C00E268236853F8220003681B69984710BDBF
:10283C00B0790008B4790008887F00087047002040
:10284C0070477047002070477047002070477047F2
:10285C000020704770470020704770470020704779
:10286C00704700207047704700207047436843B1A1
:10287C0010B504461A6852681846904700236360E6
:10288C0010BD704700BF0020704770470020704794
:10289C00704709B2418181817047B0F90A007047D5
:1028AC0009B2418281827047B0F91200704709B2B7
:1028BC008180C1807047B0F90400704749F64043ED
:1028CC0003FB01F10C4B83FB0123C917C1EBA311D3
:1028DC00036A013B00290DDD994209DC0139C1EB8A
:1028EC000131013B91FBF3F109B28180C18070474A
:1028FC001946F3E70121F1E7D34D6210B0F904203A
:10290C00036A023B03FB02F3084880FB03201844D4
:10291C00DB17C3EBE0234FF47A7003FB000304488E
:10292C0080FB0320DB17C3EBA030704781000880CD
:10293C00AD8BDB6810207047036A013B2BB1C26979
:10294C00002122F81310013BF8E7C36900221A801A
:10295C00B0F90610026A013A531E03FB01F3114948
:10296C0081FB03C11944DB17C3EBE123013300D115
:10297C000123416A0139994212D24262D203C262E6
:10298C00B0F90C30C381B0F91430C3820023436416
:10299C008364C3640365C3660367436783677047D7
:1029AC001A46EAE78100088008B54D2922D054293F
:1029BC0002D046290FD008BD027240680368DB695B
:1029CC00C2EB0232134981FB02C11144D217C2EB94
:1029DC00A1119847EFE7427240680368DB68C2EBCD
:1029EC0002320C4981FB02C11144D217C2EBA11176
:1029FC009847E0E78272406803685B69C2EB023279
:102A0C00044981FB02C11144D217C2EBA1119847B2
:102A1C00D1E700BF03B57EA509B241818181704722
:102A2C00B0F90A00704709B2418281827047B0F94F
:102A3C0012007047B0F90400704701207047000085
:102A4C0010B4036A013B2BB1C269002122F81310A8
:102A5C00013BF8E7C36900221A80446AE303C362AE
:102A6C00B0F90620016A01394B1E03FB02F3164A2A
:102A7C0082FB03C21A44DB17C3EBE223013300D100
:102A8C000123013C9C421DD24162B0F90C30C38140
:102A9C00B0F91430C382002343648364C3640365B8
:102AAC00C366036743678367C0F8B830C0F8B430B7
:102ABC00C0F8B030C0F8AC30C0F8C030C0F8BC3092
:102ACC0010BC70471946DFE78100088008B54D2916
:102ADC0022D0542902D046290FD008BD027240687A
:102AEC000368DB69C2EB0232134981FB02C111445A
:102AFC00D217C2EBA1119847EFE742724068036806
:102B0C00DB68C2EB02320C4981FB02C11144D217C3
:102B1C00C2EBA1119847E0E78272406803685B69D9
:102B2C00C2EB0232044981FB02C11144D217C2EB41
:102B3C00A1119847D1E700BF03B57EA509B2418129
:102B4C0081817047B0F90A00704709B241828182D5
:102B5C007047B0F912007047B0F9040070470000DC
:102B6C00B0F90420036A023B03FB02F3084880FB24
:102B7C0003201844DB17C3EBE0234FF47A7003FBFC
:102B8C000003044880FB0320DB17C3EB20307047A5
:102B9C0081000880AD8BDB6806207047036A013B1F
:102BAC002BB1C269002122F81310013BF8E7C3696D
:102BBC0000221A80B0F90610026A013A531E03FB78
:102BCC0001F31C4981FB03C11944DB17C3EBE1235F
:102BDC00013300D10123416A0139994228D2426262
:102BEC00D203C262B0F90C30C381B0F91430C38285
:102BFC00002343648364C3640365C366036743674C
:102C0C008367C0F89430C0F89830C0F89C30C0F896
:102C1C00A030C0F8B830C0F8B430C0F8B030C0F84C
:102C2C00AC30C0F8C430C0F8C030C0F8BC3070470D
:102C3C001A46D4E78100088008B54D2922D05429C2
:102C4C0002D046290FD008BD027240680368DB69C8
:102C5C00C2EB0232134981FB02C11144D217C2EB01
:102C6C00A1119847EFE7427240680368DB68C2EB3A
:102C7C0002320C4981FB02C11144D217C2EBA111E3
:102C8C009847E0E78272406803685B69C2EB0232E6
:102C9C00044981FB02C11144D217C2EBA111984720
:102CAC00D1E700BF03B57EA509B241818181704790
:102CBC00B0F90A00704709B2418281827047B0F9BD
:102CCC001200704709B28180C1807047B0F90400CE
:102CDC0070470E207047000008B54D2922D05429AA
:102CEC0002D046290FD008BD027240680368DB6928
:102CFC00C2EB0232134981FB02C11144D217C2EB61
:102D0C00A1119847EFE7427240680368DB68C2EB99
:102D1C0002320C4981FB02C11144D217C2EBA11142
:102D2C009847E0E78272406803685B69C2EB023245
:102D3C00044981FB02C11144D217C2EBA11198477F
:102D4C00D1E700BF03B57EA509B20181418170476F
:102D5C00B0F90800704709B2018241827047B0F99E
:102D6C0010007047406870470D20704708B54D291A
:102D7C0022D0542902D046290FD008BD02724068D7
:102D8C000368DB69C2EB0232134981FB02C11144B7
:102D9C00D217C2EBA1119847EFE742724068036863
:102DAC00DB68C2EB02320C4981FB02C11144D21721
:102DBC00C2EBA1119847E0E78272406803685B6937
:102DCC00C2EB0232044981FB02C11144D217C2EB9F
:102DDC00A1119847D1E700BF03B57EA540F6CC43BF
:102DEC0003FB01F1054B83FB01230B44C917C1EB1A
:102DFC00E32109B201814181704700BF8100088045
:102E0C00B0F90830C3EB0333034880FB03201844AC
:102E1C00DB17C3EBE0207047A1000AA009B20182C6
:102E2C0041827047B0F910007047406870470C2021
:102E3C007047000008B54D2922D0542902D04629EC
:102E4C000FD008BD027240680368DB69C2EB023226
:102E5C00134981FB02C11144D217C2EBA11198474F
:102E6C00EFE7427240680368DB68C2EB02320C4940
:102E7C0081FB02C11144D217C2EBA1119847E0E7C4
:102E8C008272406803685B69C2EB0232044981FBC1
:102E9C0002C11144D217C2EBA1119847D1E700BF70
:102EAC0003B57EA509B28181C1817047B0F90C00D0
:102EBC00704709B28182C1827047B0F91400704723
:102ECC00B0F9040070470000B0F90420036A023B1B
:102EDC0003FB02F3084880FB03201844DB17C3EB09
:102EEC00E0234FF47A7003FB0003044880FB0320BB
:102EFC00DB17C3EB6030704781000880AD8BDB685B
:102F0C0002207047002383620123C362036A013BE2
:102F1C002BB1C269002122F81310013BF8E7C269FA
:102F2C0000231380B0F906200281B0F90E20028232
:102F3C00B0F916200283C0F89430C0F89030C0F875
:102F4C008C30C0F88830C0F8A030C0F89C30C0F885
:102F5C009830704708B54D2922D0542902D0462903
:102F6C000FD008BD027240680368DB69C2EB023205
:102F7C00134981FB02C11144D217C2EBA11198472E
:102F8C00EFE7427240680368DB68C2EB02320C491F
:102F9C0081FB02C11144D217C2EBA1119847E0E7A3
:102FAC008272406803685B69C2EB0232044981FBA0
:102FBC0002C11144D217C2EBA1119847D1E700BF4F
:102FCC0003B57EA509B28181C1817047B0F90C00AF
:102FDC00704709B28182C1827047B0F91400704702
:102FEC00036A653B01FB03F1054B83FB01230B4497
:102FFC00C917C1EBE321643109B28180C1807047EC
:10300C0081000880B0F9040070470F207047000061
:10301C0008B54D2922D0542902D046290FD008BD1D
:10302C00027240680368DB69C2EB0232134981FB10
:10303C0002C11144D217C2EBA1119847EFE74272BB
:10304C0040680368DB68C2EB02320C4981FB02C1A9
:10305C001144D217C2EBA1119847E0E78272406885
:10306C0003685B69C2EB0232044981FB02C1114463
:10307C00D217C2EBA1119847D1E700BF03B57EA5CB
:10308C00B0F948007047B0F950007047B0F95600DD
:10309C007047B0F95E00704709B2A0F86610A0F84E
:1030AC0068107047B0F9660070470720704700231E
:1030BC00C363B0F94A30A0F84C30B0F95830A0F8DE
:1030CC005A30B0F96030A0F86230B0F96830A0F82E
:1030DC006A30C36A013B2BB1826A002122F81310BB
:1030EC00013BF8E7826A00231380026BD2038263F0
:1030FC00C0F88430C0F88830C0F88C30C0F89030FC
:10310C00C0F8AC30C0F8B030C0F8B430C0F8B8304B
:10311C00C0F8D430C0F8D830C0F8DC30C0F8E0309B
:10312C0043620362C36183617047000008B5443990
:10313C00102918D8DFE801F04517181717171717BB
:10314C0017271717171736170900027240680368FC
:10315C005B69C2EB0232224981FB02C11144D217D6
:10316C00C2EBA111984708BD4272406803685B6AC4
:10317C00C2EB02321A4981FB02C11144D217C2EBD5
:10318C00A1119847EFE7827240680368DB6AC2EBD3
:10319C000232134981FB02C11144D217C2EBA111B7
:1031AC009847E0E7C27240680368DB68C2EB023202
:1031BC000B4981FB02C11144D217C2EBA1119847F4
:1031CC00D1E7027340680368DB69C2EB0232044941
:1031DC0081FB02C11144D217C2EBA1119847C2E77F
:1031EC0003B57EA5704770477047704770477047AE
:1031FC0070477047704770477047000008B5024829
:10320C0003F0AAFF08BD00BFBC7E000808B5024849
:10321C0003F0A2FF08BD00BFE07E000808B502481D
:10322C0003F09AFF08BD00BFD07E000808B5024825
:10323C0003F092FF08BD00BF4C7F000808B50248A0
:10324C0003F08AFF08BD00BF207F000808B50248C4
:10325C0003F082FF08BD00BF347F000808B50248A8
:10326C0003F07AFF08BD00BF747F000808B5024860
:10327C0003F072FF08BD00BF647F000808B5024868
:10328C0003F06AFF08BD00BFC87F000808B50248FC
:10329C0003F062FF08BD00BF8C7F000808B5024830
:1032AC0003F073FF08BD00BFC47E000810B50446D0
:1032BC00042003F0A4FF024A0260606010BD00BF4E
:1032CC00C479000810B50446042103F096FF20468B
:1032DC0010BD10B50446082103F08FFF204610BD29
:1032EC0010B504460C2103F088FF204610BD10B524
:1032FC0004460C2103F081FF204610BD10B5044696
:10330C000C2103F07AFF204610BD10B504460C21A9
:10331C0003F073FF204610BD10B504460C2103F0DA
:10332C006CFF204610BD10B504460C2103F065FF60
:10333C00204610BD10B504460C2103F05EFF20465C
:10334C0010BD10B504460C2103F057FF204610BDEC
:10335C0010B50446102103F050FF204610BD0000AC
:10336C0010B504460C4803F0F7FE0A2194F9080046
:10337C0003F012FF094803F0EFFE0A2194F909004B
:10338C0003F00AFF064803F0E7FE0A2194F90A004D
:10339C0003F002FF10BD00BFF07E0008007F0008A4
:1033AC00107F000810B504460C4803F0D5FE0A2126
:1033BC0094F9080003F0F0FE094803F0CDFE0A2151
:1033CC0094F9090003F0E8FE064803F0C5FE0A2153
:1033DC0094F90A0003F0E0FE10BD00BFF07E000877
:1033EC00007F0008107F000810B504460C4803F05D
:1033FC00B3FE0A2194F9080003F0CEFE094803F04D
:10340C00ABFE0A2194F9090003F0C6FE064803F04E
:10341C00A3FE0A2194F90A0003F0BEFE10BD00BF02
:10342C00F07E0008007F0008107F000810B50446ED
:10343C000C4803F091FE0A2194F9080003F0ACFE4D
:10344C00094803F089FE0A2194F9090003F0A4FE4F
:10345C00064803F081FE0A2194F90A0003F09CFE51
:10346C0010BD00BFF07E0008007F0008107F000830
:10347C0010B504460C4803F06FFE0A2194F90800BD
:10348C0003F08AFE094803F067FE0A2194F909004B
:10349C0003F082FE064803F05FFE0A2194F90A004D
:1034AC0003F07AFE10BD00BFF07E0008007F00081C
:1034BC00107F000810B504460C4803F04DFE0A219D
:1034CC0094F9080003F068FE094803F045FE0A2150
:1034DC0094F9090003F060FE064803F03DFE0A2152
:1034EC0094F90A0003F058FE10BD00BFF07E0008EE
:1034FC00007F0008107F000810B504460C4803F04C
:10350C002BFE0A2194F9080003F046FE094803F04B
:10351C0023FE0A2194F9090003F03EFE064803F04D
:10352C001BFE0A2194F90A0003F036FE10BD00BF01
:10353C00F07E0008007F0008107F000810B50446DC
:10354C000C4803F009FE0A2194F9080003F024FE4C
:10355C00094803F001FE0A2194F9090003F01CFE4E
:10356C00064803F0F9FD0A2194F90A0003F014FE51
:10357C0010BD00BFF07E0008007F0008107F00081F
:10358C0010B50446144803F0E7FD0A2194F908002D
:10359C0003F002FE114803F0DFFD0A2194F90B0041
:1035AC0003F0FAFD0E4803F0D7FD0A2194F90C0044
:1035BC0003F0F2FD0B4803F0CFFD0A2194F909004A
:1035CC0003F0EAFD084803F0C7FD0A2194F90A004C
:1035DC0003F0E2FD10BD00BFF07E0008A87F0008DC
:1035EC00B87F0008007F0008107F000810B5044663
:1035FC00034B0360806908B103F048FD204610BD01
:10360C00447C000810B50446054B0360806908B182
:10361C0003F03CFDA821204603F0EFFD204610BD31
:10362C00447C000810B50446034B0360806908B164
:10363C0003F02CFD204610BDC47C000810B50446D8
:10364C00054B0360806908B103F020FDB0212046D2
:10365C0003F0D3FD204610BDC47C000810B5044611
:10366C00034B0360C06908B103F010FD204610BD88
:10367C00447A000810B50446054B0360C06908B1D4
:10368C0003F004FD8021204603F0B7FD204610BD59
:10369C00447A000810B50446034B0360C06908B1B6
:1036AC0003F0F4FC204610BDC47A000810B50446A3
:1036BC00054B0360C06908B103F0E8FCC421204647
:1036CC0003F09BFD204610BDC47A000810B50446DB
:1036DC00034B0360C06908B103F0D8FC204610BD51
:1036EC00447B000810B50446054B0360C06908B163
:1036FC0003F0CCFCC821204603F07FFD204610BD12
:10370C00447B000810B50446034B0360C06908B144
:10371C0003F0BCFC204610BD447D000810B50446E7
:10372C00054B0360C06908B103F0B0FCA42120462E
:10373C0003F063FD204610BD447D000810B504461F
:10374C00034B0360806A08B103F0A0FC204610BD57
:10375C00447E000810B50446054B0360806A08B12E
:10376C0003F094FCE821204603F047FD204610BDF1
:10377C00447E000810B50446034B0360C06908B1D1
:10378C0003F084FC204610BDC47B000810B5044631
:10379C00054B0360C06908B103F078FCA0212046FA
:1037AC0003F02BFD204610BDC47B000810B5044669
:1037BC00034B0360C06908B103F068FC204610BDE0
:1037CC00C47D000810B50446054B0360C06908B100
:1037DC0003F05CFCA421204603F00FFD204610BD35
:1037EC00C47D0008F8B50646A42003F008FD044685
:1037FC00424B036000238380C38003818381C38198
:10380C0003828382C382038300F11C07C36143F6E6
:10381C008C430362002008B103F038FC0025E561FD
:10382C0043F68C40786003F021FCE061236A63620C
:10383C00A5620123E362282384F8303084F8313008
:10384C0084F8325084F833502564A564E56425650A
:10385C006565A565A56625676567A567E567C4F811
:10386C008050C4F88440C4F88850C4F88C50C4F814
:10387C009050C4F89450C4F89850C4F89C50C4F8B4
:10388C00A05042F26663636344F6CD41A163E363E7
:10389C0041F69A126264E36521666366E2667460BF
:1038AC0096F908302268D269C3EB0333144D85FBBB
:1038BC0003011944DB17C3EBA1112046904796F97D
:1038CC00093070680268D268C3EB033385FB03418F
:1038DC001944DB17C3EBA111904796F90A307068B5
:1038EC0002685269C3EB033385FB03411944DB17B0
:1038FC00C3EBA11190477068F8BD00BFC47D0008F0
:10390C0003B57EA538B50446B0F90C30C381B0F9C7
:10391C001430C38200F11C05B0F9063003B9012341
:10392C00626A013A9A4201D2236A013B6362DB0369
:10393C00E362002003F0C0FB6B68013B1BB12A68FB
:10394C00D054013BFAE7E369187000236364A36465
:10395C00E3642365E36623676367A367C4F8903069
:10396C00C4F88C30C4F88830C4F88430C4F89C3067
:10397C00C4F89830C4F8943038BD000070B50446D3
:10398C00B0F90A308381B0F91230838200F1180546
:10399C00C369591E4268033B03FB02F31F4A82FBB7
:1039AC0003021A44DB17C3EBE223023300D10123D9
:1039BC00994217D2616205F11006304603F05CF9AA
:1039CC0005F1180003F0FCF8002101F30F0130465B
:1039DC0003F0FEF86B685B08013B2BB12A68D054EE
:1039EC00013BFAE71946E5E7A36918700023E36485
:1039FC0023656365A3656367A367E367C4F88030D9
:103A0C00C4F89830C4F89430C4F89030C4F88C30B2
:103A1C00C4F8A030C4F89C3070BD00BF8100088091
:103A2C0070B50446B0F90A308381B0F91230838244
:103A3C0000F11805C369591E4268033B03FB02F3EE
:103A4C00224A82FB03021A44DB17C3EBE223023344
:103A5C0003D0994202D20B4600E00123636205F1C8
:103A6C001006304603F008F905F1180003F0A8F829
:103A7C0005F1200003F0A4F8002101F30F013046FA
:103A8C0003F0A6F86B685B08013B1BB12A68D054A5
:103A9C00013BFAE7A369187000236365A365E3652E
:103AAC002366E367C4F88030C4F88430C4F88830E7
:103ABC00C4F8A030C4F89C30C4F89830C4F89430E2
:103ACC00C4F8A830C4F8A43070BD00BF81000880D1
:103ADC002DE9F0410646A82003F091FB04463D4B2E
:103AEC00036000234360038143818381038243820B
:103AFC0083821D46A36147F61818C0F81C8043F654
:103B0C008C4003F0B3FAA0612562C4F8248004F160
:103B1C00280003F059F804F1300003F00DF8656447
:103B2C00E56425656565A565E565E5666567A56775
:103B3C00E567C4F88050C4F88450C4F88840C4F8D1
:103B4C008C50C4F89050C4F89450C4F89850C4F8F1
:103B5C009C50C4F8A05084F8A45042F26663A3634E
:103B6C0044F6CD41E163236441F69A12A2642366C4
:103B7C006166A3662267746096F908302268D26980
:103B8C00C3EB0333144D85FB03011944DB17C3EB63
:103B9C00A1112046904796F9093070680268D268E6
:103BAC00C3EB033385FB03411944DB17C3EBA111B2
:103BBC00904796F90A30706802685269C3EB033378
:103BCC0085FB03411944DB17C3EBA11190477068C7
:103BDC00BDE8F081447C000803B57EA5F8B5044629
:103BEC000D46012805D01CB94FF6FF739D4255D0E8
:103BFC00F8BD4FF6FF739942F5D10A212B48FEF719
:103C0C004FFD2B4A002353602A4911602A494B600F
:103C1C002A4A0A6063220A723220487246268E7241
:103C2C0027494B60274F0F600A7248728E722649E3
:103C3C004B60264E0E6008724872887224494B60A5
:103C4C00244E0E600A724B728A7223494B60234ECB
:103C5C000E600A724B728A7221494B60214E0E60C3
:103C6C000A724B728A7220494B60204E0E600A72A7
:103C7C004B728A721E494B601E4E0E600A724B725A
:103C8C008A721D494B601D4B0B600A721E234B72CE
:103C9C0088720A23CB7250230B73A4E7034B18686A
:103CAC000028A5D003F0A5FAA2E700BF040200206B
:103CBC0060020020207A00082C020020A07A000864
:103CCC0020020020207B000814020020A07B0008AA
:103CDC0044020020207C000838020020A07C000850
:103CEC0080020020207D000868020020A07D0008D2
:103CFC0074020020207E000850020020A07E0008E4
:103D0C002DE9F0410646A02003F079FA04463E4B1B
:103D1C00036000238380C38043818381C3814382FA
:103D2C008382C38200F11C08C36143F68C43036297
:103D3C00002008B103F0AAF90025E56143F68C4791
:103D4C00C8F80470384603F091F9E0616762A56227
:103D5C002E4BE362E5636564A564E56425656565E2
:103D6C006566E56625676567A567E567C4F8804005
:103D7C00C4F88450C4F88850C4F88C50C4F89050DF
:103D8C00C4F89450C4F89850C4F89C5042F266633E
:103D9C00236344F6CD416163A36341F69A12226416
:103DAC00A365E1652366A266746096F90830226803
:103DBC00D269C3EB0333164D85FB03011944DB17A2
:103DCC00C3EBA1112046904796F909307068026840
:103DDC00D268C3EB033385FB03411944DB17C3EBF8
:103DEC00A111904796F90A30706802685269C3EBCA
:103DFC00033385FB03411944DB17C3EBA111904737
:103E0C007068BDE8F08100BFC47B00080000461E4E
:103E1C0003B57EA52DE9F0410646B02003F0EFF97D
:103E2C000446464B03600023436003814381838136
:103E3C0003824382838200F118059846836147F61A
:103E4C0018176F6043F68C4003F010F9A061C5F8A9
:103E5C000880EF6005F1100002F0B6FE05F11800C5
:103E6C0002F06AFE05F1200002F066FE6B685A1E35
:103E7C00EB681BB19A4202D2134600E00123EB60BF
:103E8C000023E3646365A365E36523666366636788
:103E9C00E367C4F88030C4F88430C4F88830C4F8C0
:103EAC008C30C4F89040C4F89430C4F89830C4F8FE
:103EBC009C30C4F8A030C4F8A430C4F8A83084F8FE
:103ECC00AC3042F26663236444F6CD416164A36472
:103EDC0041F69A122265A366E1662367A2677460B5
:103EEC0096F908302268D269C3EB0333144D85FB75
:103EFC0003011944DB17C3EBA1112046904796F937
:103F0C00093070680268D268C3EB033385FB034148
:103F1C001944DB17C3EBA111904796F90A3070686E
:103F2C0002685269C3EB033385FB03411944DB1769
:103F3C00C3EBA11190477068BDE8F081C47C000808
:103F4C0003B57EA52DE9F0410646802003F057F914
:103F5C000446354B036000238380C38043818381F7
:103F6C00C38143828382C38200F11C08C36141F682
:103F7C0078630362002008B103F088F80025E5613E
:103F8C0041F67867C8F8047043F6F04003F06EF819
:103F9C00E0616762A562254BE3626564A564E56434
:103FAC0025656565E56625676567A567E5674FF473
:103FBC00004323634FF480326263A363E2632364A0
:103FCC00A365E26523666266A366746096F90830A1
:103FDC002268D269C3EB0333154D85FB03011944E9
:103FEC00DB17C3EBA1112046904796F90930706896
:103FFC000268D268C3EB033385FB03411944DB171A
:10400C00C3EBA111904796F90A30706802685269A7
:10401C00C3EB033385FB03411944DB17C3EBA1113D
:10402C0090477068BDE8F081447A000800003C0FAE
:10403C0003B57EA570B50546012380F8A430416018
:10404C0000F11804C3695A1E033B01FB03F1164B24
:10405C0083FB01030B44C917C1EBE321023100D1EF
:10406C0001218A4217D26A6204F11006304602F02E
:10407C0003FE04F1180002F0A3FD002101F30F016F
:10408C00304602F0A5FD63685B08013B2BB122684A
:10409C00D054013BFAE70A46E5E7AB6918700023F8
:1040AC0085F8A43070BD00BF8100088038B5044687
:1040BC00B0F906300381B0F90E300382B0F9163036
:1040CC00038300F11C05002002F0F6FF6B68013B36
:1040DC001BB12A68D054013BFAE7E369187000233E
:1040EC00EB6001232B61B4F90830B4F9062093423C
:1040FC0001DA01332381B4F908309A4201DA013B29
:10410C002381B4F908106B68994200DD591E00290F
:10411C000DDDAB688B420CDDE2690A442B68A868A4
:10412C000344934205D9002302F8013BF6E7012131
:10413C00EFE7A960EB68994201DC0139E9600023E3
:10414C0084F83330A364E364236563652367636792
:10415C00A367E367C4F89430C4F89030C4F88C308B
:10416C00C4F88830C4F8A030C4F89C30C4F8983037
:10417C0038BD000070B50546012380F8AC304160B5
:10418C0000F11804C3695A1E033B01FB03F1184BE1
:10419C0083FB01030B44C917C1EBE321023103D0AC
:1041AC008A4202D2114600E00121696204F1100634
:1041BC00304602F061FD04F1180002F001FD04F13B
:1041CC00200002F0FDFC002101F30F01304602F04B
:1041DC00FFFC63685B08013B1BB12268D054013BB8
:1041EC00FAE7AB691870002385F8AC3070BD00BFDE
:1041FC00810008802DE9F04F00F15C0300F184068A
:10420C0001F30F01476B846B4FEAE47BD0F848C095
:10421C004FEAEC7904FB09FE0CFB0BEEA4FB0C45FE
:10422C0075444FEAD43E4EEA454E07FB01EEC46B93
:10423C004FEAE47BC56C4FEAE57904FB09F705FB13
:10424C000B77A4FB0589B9444FEAD83444EA4944B6
:10425C00A644046C4FEAE47B076D4FEAE77904FB54
:10426C0009F807FB0B88A4FB079AC2444FEAD93420
:10427C0044EA4A44A644446C4FEAE47B456D4FEA59
:10428C00E57904FB09F805FB0B88A4FB059AC244ED
:10429C004FEAD93444EA4A4474448465C0F84CC0AB
:1042AC00C9038164476561420165002C65DB04F537
:1042BC008044E413B268002A64D0012A00F0D6804E
:1042CC00726802F30F02D0F85CC05C684FEAE47BC2
:1042DC0059694FEAE17904FB09F601FB0B66A4FB73
:1042EC0001453544E00B40EA45400CFB02009C685C
:1042FC004FEAE47B9D694FEAE57904FB09F605FB7F
:10430C000B66A4FB0578B044FC0B44EA48442044FB
:10431C00DC684FEAE479D3F81CC06646F71704FB57
:10432C0007F60CFB0966A4FB0C78B044FC0B44EAC2
:10433C0048442044D3F810E07446E517D3F82080A5
:10434C004646F7170EFB07F608FB0566AEFB08782A
:10435C00B044FC0B44EA4844204458629961D203AF
:10436C005A61C3F820C04242DA610028C0F22581AC
:10437C0000F58040C013BDE8F08F04F57F543F3446
:10438C00E41397E7D0F88450F268C5F8982005F14B
:10439C001C0CB5F90820B5F906108A4201DA013275
:1043AC002A81B5F90820914201DA013A2A81B5F93E
:1043BC000820296A653901FB02F1824A82FB0172ED
:1043CC005718CA17C2EBE7226432DCF804108A4291
:1043DC0000DD4A1E002A12DDDCF80810914210DDC7
:1043EC00E96901EB420EDCF80010DCF8087001EB17
:1043FC004701714505D900212EF8021BF3E7012274
:10440C00EAE7CCF80820DCF80C108A4202DC013A0E
:10441C00CCF80C20AF6A6A6A95F93010521A013246
:10442C00974207D08A1E974212D03461B26801328B
:10443C00B26045E7EA6A002AF4DDCAB2013A85F8AF
:10444C003120FF2285F83220012285F83320E9E75C
:10445C00EA6A002AE9DAC9B2013985F83110FF227B
:10446C0085F83220012285F83320DEE7D0F884204D
:10447C00956AD16931F915C0C2F8A0C092F8331011
:10448C00A1B192F9315005FB0CF192F9307091FB0E
:10449C00F7FC92F932100D446DB282F83150B1F143
:1044AC00FF3F67D092F93210012969D0C2F8A0C041
:1044BC00B2F91010B2F90E50A94201DA0131118291
:1044CC00B2F910108D4201DA01391182B2F9107073
:1044DC0007FB0CF73B4D85FB07153D44FF17C7EB5E
:1044EC00E527D2F89850ED1BC2F89850B2F9181085
:1044FC00B2F91670B94201DA01311183B2F9181010
:10450C008F4201DA01391183B2F9181001FB0CF159
:10451C002C4F87FB01C70F44C917C1EBE72105F3EB
:10452C000F05C2F8985001F30F01C2F89C1002F16C
:10453C001C010FFA85FC8D68CF68AF4203DB0027A6
:10454C00CF6001270F61CF68002F1FDB0CF30F0C1E
:10455C00D569CF6825F817C00D69CF683D44CD608B
:10456C008F68BD4217DA002D1ADA0025CD600125BF
:10457C000D6115E0002D95D1012182F8321091E7E3
:10458C00AF4293D1002182F833108FE70027CF6020
:10459C0001270F61DAE7013FCF604FF0FF350D6166
:1045AC00D2F89C20726032691444346104EBD474E8
:1045BC006410F4600022B26082E600F57F503F3058
:1045CC00C013D8E6810008802DE9F04F83B0054672
:1045DC0000F15C0400F1840601F30F07426B806B61
:1045EC004FEAE07BD5F848C04FEAEC7900FB09FEB6
:1045FC000CFB0BEEA0FB0C0171444FEAD03E4EEAD3
:10460C00414E02FB07EEE86B4FEAE07BE96C4FEAA8
:10461C00E17900FB09F201FB0B22A0FB018991441B
:10462C004FEAD83040EA49408644286C4FEAE07B98
:10463C002A6D4FEAE27900FB09F802FB0B88A0FB1C
:10464C00029AC2444FEAD93040EA4A408644686C28
:10465C004FEAE07B696D4FEAE17900FB09F801FB59
:10466C000B88A0FB019AC2444FEAD93040EA4A4079
:10467C007044A865C5F84CC0FF03AF646A6542423C
:10468C002A65002866DB00F58040C3130193B368EC
:10469C00002B65D0012B00F0F880716801F30F013D
:1046AC00E86D62684FEAE27B65694FEAE57902FBE7
:1046BC0009F605FB0B66A2FB0578B044FA0B42EA3F
:1046CC00484200FB0120A2684FEAE27BA3694FEA53
:1046DC00E37902FB09F603FB0B66A2FB0378B044FB
:1046EC00FA0B42EA48421044E2684FEAE279D4F805
:1046FC001CC06646F71702FB07F60CFB0966A2FB0B
:10470C000C78B044FA0B42EA48421044D4F810E05A
:10471C007246D317D4F820804646F7170EFB07F6DF
:10472C0008FB0366AEFB0878B044FA0B42EA484239
:10473C0010446062A561C9036161C4F820C04342A2
:10474C00E3610028C0F2368100F58040C01303B04D
:10475C00BDE8F08F00F57F503F30C313019396E70F
:10476C00D5F88480F368C8F8983008F11C02B8F9C1
:10477C000830B8F906108B4202DA0133A8F8083079
:10478C00B8F90830994202DA013BA8F80830B8F9B8
:10479C0008005368984200DD581E00280EDD93680F
:1047AC0083420DDDD8F81C100144176893681F4430
:1047BC008F4205D9002301F8013BF6E70120EEE713
:1047CC009060D368984201DC431ED360D8F828204F
:1047DC00D8F8243098F930105B1A01339A422AD059
:1047EC008B1E9A4236D0D8F81C30985C02F04FFCE5
:1047FC000246C8F8A00098F83330A3B198F93130CC
:10480C0003FB00F098F930C090FBFCF298F93210E1
:10481C000B445BB288F83130B1F1FF3F29D098F9E5
:10482C00321001292BD0C8F8A020019B3361B3684A
:10483C000133B36031E7D8F82C30002BD0DDCBB28C
:10484C00013B88F83130FF2388F83230012388F897
:10485C003330C5E7D8F82C30002BC4DAC9B2013993
:10486C0088F83110FF2388F83230012388F8333070
:10487C00B9E7002BD3D1012188F83210CFE79C4542
:10488C00D1D1002388F83330CDE7D5F88480D8F81F
:10489C00A010B8F91030B8F90E20934202DA0133A7
:1048AC00A8F81030B8F910309A4202DA013BA8F897
:1048BC001030B8F9102002FB01F2414880FB0230A5
:1048CC001044D217C2EBE022D8F89800801AC8F82E
:1048DC009800B8F91830B8F91620934202DA01336F
:1048EC00A8F81830B8F918309A4202DA013BA8F847
:1048FC001830B8F9183003FB01F3314A82FB03126C
:10490C001A44DB17C3EBE22300F30F00C8F898003E
:10491C0003F30F03C8F89C3008F11C0900B2D9F856
:10492C000C20D9F808309A4205DB0023C9F80C306A
:10493C000123C9F81030D9F80C30002B1EDB00F322
:10494C000F00D9F80CA0D8F81CB000B202F0B4FBE0
:10495C000BF80A00D9F81030D9F80C201344C9F818
:10496C000C30D9F8082093420FDA002B14DA00230C
:10497C00C9F80C300123C9F810300DE00023C9F838
:10498C000C300123C9F81030D9E7013AC9F80C20D2
:10499C004FF0FF33C9F81030D8F89C307360306991
:1049AC00019B1844306100EBD0704010F060002384
:1049BC00B36072E600F57F503F30C013C7E600BF0E
:1049CC00810008802DE9F04F00F1580300F1A80692
:1049DC0001F30F01076B446B4FEAE47BD0F844C042
:1049EC004FEAEC7904FB09FE0CFB0BEEA4FB0C4527
:1049FC0075444FEAD43E4EEA454E07FB01EE846BFC
:104A0C004FEAE47B856C4FEAE57904FB09F705FB7B
:104A1C000B77A4FB0589B9444FEAD83444EA4944DE
:104A2C00A644C46B4FEAE47BC76C4FEAE77904FBFE
:104A3C0009F807FB0B88A4FB079AC2444FEAD93448
:104A4C0044EA4A44A644046C4FEAE47B056D4FEA01
:104A5C00E57904FB09F805FB0B88A4FB059AC24415
:104A6C004FEAD93444EA4A4474444465C0F848C017
:104A7C00C903416407656142C164002C65DB04F520
:104A8C008044E413B568002D64D0012D00F0C5807E
:104A9C00726802F30F02D0F858C05C684FEAE47BEE
:104AAC0059694FEAE17904FB09F601FB0B66A4FB9B
:104ABC0001453544E00B40EA45400CFB02009C6884
:104ACC004FEAE47B9D694FEAE57904FB09F605FBA7
:104ADC000B66A4FB0578B044FC0B44EA4844204424
:104AEC00DC684FEAE479D3F81CC06646F71704FB80
:104AFC0007F60CFB0966A4FB0C78B044FC0B44EAEB
:104B0C0048442044D3F810E07446E517D3F82080CD
:104B1C004646F7170EFB07F608FB0566AEFB087852
:104B2C00B044FC0B44EA4844204458629961D203D7
:104B3C005A61C3F820C04242DA610028C0F2C28038
:104B4C0000F58040C013BDE8F08F04F57F543F346E
:104B5C00E41397E7D0F8A810F268C1F8BC2001F173
:104B6C001C0CB1F906E00F6A07F1FF3808F1FF32AF
:104B7C0002FB0EF2564F87FB02E71744D217C2EB2B
:104B8C00E722013200D101224F6A013F974235D210
:104B9C00C1F82480CF6AC7EBC83E9EFBF8FE774471
:104BAC00CF62BE46C7F30E09C9F5FF4808F17F086E
:104BBC00DCF80C70A7EBEE37BE46002F20DB0EF1B5
:104BCC000107DCF804C0674500D03D46CF6937F9D2
:104BDC001EC009FB0CF2002A17DBD21337F9155053
:104BEC0008FB05F5002D14DB02EBE53212B2C1F81F
:104BFC00C0203461B2680132B26049E79046C7E721
:104C0C00DCF8042007EB020ED9E702F5FF427F32F5
:104C1C00E3E705F5FF457F35E6E7D0F8A820D2F8A5
:104C2C00BC50D2F8C0E0B2F90E70B2F90CC06745B6
:104C3C0001DA0137D781B2F90E70BC4501DA013FB8
:104C4C00D781B2F90E1001FB0EF1214F87FB01C782
:104C5C000F44C917C1EBE721691A01F30F01976AD9
:104C6C00D56925F81710916A01319162156AA9422C
:104C7C0025D0D2F8C070B2F91610B2F91450A9426E
:104C8C0001DA0131D182B2F916108D4201DA013903
:104C9C00D182B2F9162002FB07F20D4981FB0251B9
:104CAC001144D217C2EBE1227260326914443461B0
:104CBC0004EBD4746410F4600022B260E8E60021C6
:104CCC009162D6E700F57F503F30C0133BE700BF41
:104CDC00810008802DE9F84F054600F1580400F1D9
:104CEC00800601F30F07026B406B4FEAE07BD5F8AF
:104CFC0044C04FEAEC7900FB09FE0CFB0BEEA0FB69
:104D0C000C0171444FEAD03E4EEA414E02FB07EED5
:104D1C00A86B4FEAE07BA96C4FEAE17900FB09F242
:104D2C0001FB0B22A0FB018991444FEAD83040EAE9
:104D3C0049408644E86B4FEAE07BEA6C4FEAE27943
:104D4C0000FB09F802FB0B88A0FB029AC2444FEA55
:104D5C00D93040EA4A408644286C4FEAE07B296D02
:104D6C004FEAE17900FB09F801FB0B88A0FB019AE3
:104D7C00C2444FEAD93040EA4A4070446865C5F8ED
:104D8C0048C0FF036F642A654242EA64002867DB6F
:104D9C0000F58040C713D6F80890B9F1000F64D025
:104DAC00B9F1010F00F0C980716801F30F01A86D12
:104DBC0062684FEAE27B65694FEAE57902FB09F626
:104DCC0005FB0B66A2FB0578B044FA0B42EA48429D
:104DDC0000FB0120A2684FEAE27BA3694FEAE3796A
:104DEC0002FB09F603FB0B66A2FB0378B044FA0B3B
:104DFC0042EA48421044E2684FEAE279D4F81CC017
:104E0C006646F71702FB07F60CFB0966A2FB0C784B
:104E1C00B044FA0B42EA48421044D4F810E072460F
:104E2C00D317D4F820804646F7170EFB07F608FB7D
:104E3C000366AEFB0878B044FA0B42EA48421044D1
:104E4C006062A561C9036161C4F820C04342E3619B
:104E5C000028C0F2D68000F58040C013BDE8F88F62
:104E6C0000F57F503F30C71395E7D5F88080F36885
:104E7C00C8F8943008F11C02B8F90600D8F82010D4
:104E8C0001394B1E03FB00F3604880FB03C0184440
:104E9C00DB17C3EBE023013300D10123D8F8240046
:104EAC00013898423BD2C8F82410D8F82C30C3EB08
:104EBC00C13090FBF1F10B44C8F82C30C3F30E0A4F
:104ECC00CAF5FF4B0BF17F0BD168A1EBE33319460D
:104EDC00002B26DB4B1C5268934200D09946D8F825
:104EEC001C30585C02F0D3F800FB0AFABAF1000F40
:104EFC001ADB4FEAEA3AD8F81C3013F8090002F032
:104F0C00C6F800FB0BF0002813DB0AEBE03000B214
:104F1C00C8F89C003761B3680133B36044E71946A5
:104F2C00C1E751681944D5E70AF5FF4A0AF17F0A2F
:104F3C00DFE700F5FF407F30E7E7D5F8808008F128
:104F4C001C09D8F89400D8F89CC0B8F90E20B8F910
:104F5C000C108A4202DA0132A8F80E20B8F90E20A1
:104F6C00914202DA013AA8F80E20B8F90E3003FB90
:104F7C000CF3264A82FB03121A44DB17C3EBE22321
:104F8C00C31A03F30F00D9F80CA0D8F81CB000B268
:104F9C0002F092F80BF80A00D9F80C300133C9F87A
:104FAC000C30D9F80420934227D0D8F89C00B8F9DB
:104FBC001620B8F914108A4202DA0132A8F8162029
:104FCC00B8F91620914202DA013AA8F81620B8F97D
:104FDC00163003FB00F30D4A82FB03121A44DB1755
:104FEC00C3EBE223736030693844306100EBD0705E
:104FFC004010F0600023B360D6E60023C9F80C30F3
:10500C00D3E700F57F503F30C01327E781000880BD
:10501C002DE9F04F85B000F1580300F1A80601F31B
:10502C000F01076B446B4FEAE47BD0F844C04FEAA6
:10503C00EC7904FB09FE0CFB0BEEA4FB0C45754450
:10504C004FEAD43E4EEA454E07FB01EE846B4FEA25
:10505C00E47B856C4FEAE57904FB09F705FB0B77DC
:10506C00A4FB0589B9444FEAD83444EA4944A64420
:10507C00C46B4FEAE47BC76C4FEAE77904FB09F891
:10508C0007FB0B88A4FB079AC2444FEAD93444EAC5
:10509C004A44A644046C4FEAE47B056D4FEAE5797B
:1050AC0004FB09F805FB0B88A4FB059AC2444FEAE4
:1050BC00D93444EA4A4474444465C0F848C0C9032E
:1050CC00416407656142C164002CC0F2848004F520
:1050DC008042D213B168002940F08480D0F8A840F7
:1050EC00F168C4F8BC10B4F90650276A013F791E68
:1050FC0001FB05F1724D85FB01C50D44C917C1EBD0
:10510C00E521013100D10121656A013D8D4267D253
:10511C0067623261B2680132B260726802F30F02E8
:10512C00D0F858C05C684FEAE47B59694FEAE179E2
:10513C0004FB09F601FB0B66A4FB01453544E00BAF
:10514C0040EA45400CFB02009C684FEAE47B9D69F9
:10515C004FEAE57904FB09F605FB0B66A4FB057821
:10516C00B044FC0B44EA48442044DC684FEAE47940
:10517C00D3F81CC06646F71704FB07F60CFB096650
:10518C00A4FB0C78B044FC0B44EA48442044D3F80C
:10519C0010E07446E517D3F820804646F7170EFB4F
:1051AC0007F608FB0566AEFB0878B044FC0B44EA36
:1051BC004844204458629961D2035A61C3F820C014
:1051CC004242DA610028C0F24E8100F58040C013E3
:1051DC0005B0BDE8F08F04F57F523F32D21379E76A
:1051EC000F4695E7012923D002296BD0032994D1CE
:1051FC00D0F8A810D1F8BC4004F30F048F6ACD6925
:10520C0025F817408C6A01348C620D6AAC4200F0B0
:10521C002581D1F8C010716031690A4432611146A0
:10522C00002AC0F21E818910F1600022B26074E77E
:10523C00D0F8A85005F11C0E6F6AEC6AC4EBC731AC
:10524C0091FBF7F10C44EC62C4F30E01C1F5FF4C79
:10525C000CF17F0CDEF80C70A7EBE4342746002C25
:10526C001FDB7C1CDEF804E074451ED0D5F81CE076
:10527C003EF9177001FB07F1002918DBC9133EF941
:10528C0014400CFB04F4002C15DB01EBE43109B2E7
:10529C00C5F8C41031690A443261B2680132B26097
:1052AC003BE7DEF804702744DBE70024DEE701F57A
:1052BC00FF417F31E2E704F5FF447F34E5E700BFAF
:1052CC0081000880D0F8A8C0DCF8C44004F30F0AB1
:1052DC00DCF884703C46FD17CDE90045DCF894E021
:1052EC007446E51707FB05F8019C0EFB0488A7FB29
:1052FC000E45CDE900452C4644440194DDE9007887
:10530C00FC0B44EA4844DCF8805005FB0A4400944A
:10531C00DCF888B04FEAEB79DCF898502F46ED17A3
:10532C000BFB05F407FB0949ABFB074527462C464D
:10533C004C44A046FC0B44EA4844009D254402958D
:10534C00DCF88CB04FEAEB79DCF89C502F460095DA
:10535C00ED170BFB05F407FB0949ABFB07783C4643
:10536C0047464F443D46E40B44EA4544029D2544E0
:10537C00A946DCF890502F464FEAE578CDE9027843
:10538C00DCF8A0404FEAE47805FB08F8039F04FB27
:10539C000787A5FB04453D44E70B47EA45474F44C7
:1053AC00CCF8A470CCF898E04FEACA34CCF894400E
:1053BC00009DCCF8A0507C42CCF89C40002F48DBE0
:1053CC0007F58041C913CCF8C410BCF90E40BCF9E8
:1053DC000C50AC4202DA0134ACF80E40BCF90E4071
:1053EC00A54202DA013CACF80E40BCF90E4001FBC0
:1053FC0004F41F4D85FB04752544E417C4EBE52428
:10540C00DCF8BC502C1BCCF8BC40BCF91640BCF9E9
:10541C001450AC4202DA0134ACF81640BCF9164018
:10542C00A54202DA013CACF81640BCF9164001FB6F
:10543C0004F10F4C84FB01540C44C917C1EBE4215B
:10544C00CCF8C01031690A443261B2680132B260E2
:10545C0063E607F57F513F31C913B4E700248C6232
:10546C00D7E6D11CDFE600F57F503F30C013AFE626
:10547C00810008802DE9F04F01F30F01066B446B9E
:10548C004FEAE47B476C4FEAE77904FB09F207FB30
:10549C000B22A4FB07451544E20B42EA454206FBEE
:1054AC000122856B4FEAE579846C4FEAE47B05FBBE
:1054BC000BF604FB0966A5FB0489B1444FEAD8340A
:1054CC0044EA49442244C46B4FEAE47BC66C4FEA7D
:1054DC00E67904FB09FC06FB0BCCA4FB0689E14432
:1054EC004FEAD83444EA49442244056C4FEAE57942
:1054FC00046D4FEAE47B05FB0BFC04FB09CCA5FB1C
:10550C000489E1444FEAD83444EA494422444265D0
:10551C008764C903416406655142C164002AC0F224
:10552C00E28002F58042D21300F11C05B0F906406E
:10553C00066A013E731E03FB04F3784C84FB0314D0
:10554C001C44DB17C3EBE423013300D10123416A74
:10555C000139994200D31E464662C16AC1EBC6337B
:10556C0093FBF6F63144C162C1F30E03C3F5FF445D
:10557C007F34EE68A6EBE1310E460029C0F2B8800C
:10558C00711C6D68A94200F0B680C56935F91660CA
:10559C0003FB06F3002BC0F2B080DB1335F91110BE
:1055AC0004FB01F10029C0F2AC8003EBE1331BB228
:1055BC00B0F90E10B0F90C40A14201DA0131C181F1
:1055CC00B0F90E108C4201DA0139C181B0F90E101C
:1055DC0001FB03F1514C84FB01540C44C917C1EB82
:1055EC00E4210A44B0F91610B0F91440A14201DAD2
:1055FC000131C182B0F916108C4201DA0139C18235
:10560C00B0F9161001FB03F3444C84FB03141C4447
:10561C00DB17C3EBE42302F30F01846AC26922F89F
:10562C001410826A01328262016A8A426DD000F1E2
:10563C00580103F30F04806D4A684FEAE27B4D6911
:10564C004FEAE57902FB09F605FB0B66A2FB057830
:10565C00B044FA0B42EA484200FB04208A684FEA45
:10566C00E27B8B694FEAE37902FB09F603FB0B66DD
:10567C00A2FB0378B044FA0B42EA48421044CA68D1
:10568C004FEAE279D1F81CC06646F71702FB07F621
:10569C000CFB0966A2FB0C78B044FA0B42EA4842B8
:1056AC001044D1F810E07246D317D1F8208046464A
:1056BC00F7170EFB07F608FB0366AEFB0878B04441
:1056CC00FA0B42EA4842104448628D61E4034C6193
:1056DC00C1F820C04342CB61002819DB00F58040A3
:1056EC00C013BDE8F08F02F57F523F32D2131BE797
:1056FC006E680E4444E7002147E703F5FF437F3310
:10570C004BE701F5FF417F314FE7002282628EE7C4
:10571C0000F57F503F30C013E3E700BF81000880E5
:10572C002DE9F84F90F8AC3013B10020BDE8F88F9C
:10573C0000F1680400F1900501F30F0C026C466C4B
:10574C004FEAE67B416D4FEAE17906FB09FE01FB6E
:10575C000BEEA6FB016777444FEAD63E4EEA474E66
:10576C0002FB0CEE866C4FEAE67B876D4FEAE7791D
:10577C0006FB09F207FB0B22A6FB07789044FE0BF5
:10578C0046EA4846B644C66C4FEAE67BC26D4FEA21
:10579C00E27906FB09F802FB0B88A6FB029AC244CD
:1057AC004FEAD93646EA4A46B644066D4FEAE67BDE
:1057BC00076E4FEAE77906FB09F807FB0B88A6FB97
:1057CC00079AC2444FEAD93646EA4A4676444666B8
:1057DC0081654FEACC31416502667242C265002E8A
:1057EC0065DB06F58046F6138046AB68002B63D06C
:1057FC00012B00F0A680696801F30F01D8F868004E
:10580C0062684FEAE27B65694FEAE57902FB09F6CB
:10581C0005FB0B66A2FB0578B044FA0B42EA484242
:10582C0000FB0120A2684FEAE27BA3694FEAE3790F
:10583C0002FB09F603FB0B66A2FB0378B044FA0BE0
:10584C0042EA48421044E2684FEAE279D4F81CC0BC
:10585C006646F71702FB07F60CFB0966A2FB0C78F1
:10586C00B044FA0B42EA48421044D4F810E07246B5
:10587C00D317D4F820804646F7170EFB07F608FB23
:10588C000366AEFB0878B044FA0B42EA4842104477
:10589C006062A561C9036161C4F820C04342E36141
:1058AC000028C0F2BE8000F58040C0133EE706F52C
:1058BC007F563F36F61397E7D0F89090EB68C9F80F
:1058CC00A43009F11807BB68FA689B1A1A46002B1A
:1058DC002ADB07F11800D9F81810530812F0010F41
:1058EC0025D0C95C01F00F0101F02AF98246BB6892
:1058FC00FA68A3EB52031A46002B1BDB07F12000BE
:10590C00D9F81810530812F0010F16D1C95C090907
:10591C0001F016F9AAEB000000B2C9F8A8002E613C
:10592C00AB680133AB6066E77A681A44D1E7C95CAF
:10593C000909D9E77A681A44E0E7C95C01F00F015C
:10594C00E6E7D0F8907007F11809D7F8A410D7F84B
:10595C00A8C0B7F90C20B7F90A00824201DA01326B
:10596C00BA81B7F90C20904201DA013ABA81B7F941
:10597C000C3003FB0CF32D4A82FB03021A44DB1799
:10598C00C3EBE223CB1AD9F808A003F30F0109F1FA
:10599C00100001F01DF900F00F00BA694FEA5A032C
:1059AC001AF0010F33D0D15C01F0F0010843D05450
:1059BC00D9F808300133C9F80830D9F804209342DB
:1059CC002BD0D7F8A800B7F91420B7F912108A42D7
:1059DC0001DA0132BA82B7F91420914201DA013AA4
:1059EC00BA82B7F9143003FB00F3104A82FB03129E
:1059FC001A44DB17C3EBE2236B602B691E442E6148
:105A0C0006EBD6767610EE600023AB60F3E6D1564B
:105A1C0001F00F0141EA0010C9E70023C9F8083072
:105A2C00CFE700F57F503F30C0137FE68100088040
:105A3C002DE9F84F90F8A43013B10020BDE8F88F91
:105A4C0000F1600400F1880501F30F0C826BC66B4A
:105A5C004FEAE67BC16C4FEAE17906FB09FE01FBDC
:105A6C000BEEA6FB016777444FEAD63E4EEA474E53
:105A7C0002FB0CEE066C4FEAE67B076D4FEAE7790A
:105A8C0006FB09F207FB0B22A6FB07789044FE0BE2
:105A9C0046EA4846B644466C4FEAE67B426D4FEA0E
:105AAC00E27906FB09F802FB0B88A6FB029AC244BA
:105ABC004FEAD93646EA4A46B644866C4FEAE67B4C
:105ACC00876D4FEAE77906FB09F807FB0B88A6FB05
